:100000000C945A000C9477000C9477000C947700B1
:100010000C9477000C9477000C94501B0C94770090
:100020000C9477000C94A31E0C94C21C0C947700C3
:100030000C94091B0C94981B0C942D1C0C947700A9
:100040000C9477000C9477000C9477000C94770054
:100050000C9477000C9477000C9477000C94770044
:100060000C9477000C9477000C9477000C94770034
:100070000C9477000C9477000C94770034182F1AA6
:100080002F1A2F1A2F1A2F1A59182F1A2F1A2F1A00
:100090002F1A9C18C618DD18F4180D1920192F19DD
:1000A000361942195D198D1996199F19A819AD199C
:1000B000BA19C71911241FBECFEFD0E1DEBFCDBFE3
:1000C00011E0A0E0B1E0E8E3F4E502C005900D9294
:1000D000AE31B107D9F726E0AEE1B1E001C01D9223
:1000E000A336B207E1F70E9413230C941A2A0C944A
:1000F000BE1E8091E5058330C1F030F4813059F0A7
:10010000823009F0A2C30EC0843009F48EC085305D
:1001100009F09BC307C280914304982F9F5F90937F
:100120004304089580912C04EBC18FEF84B9809132
:10013000050690910606A0910706B091080685B9BC
:10014000139A13988091050690910606A0910706D0
:10015000B0910806892F9A2FAB2FBB2785B9149A27
:1001600014988091050690910606A0910706B0911B
:100170000806CD01AA27BB2787709927AA27BB2786
:10018000886888B980912C0485B980910506909182
:100190000606A0910706B09108060196A11DB11DA3
:1001A0008093050690930606A0930706B093080671
:1001B0008091050690910606A0910706B091080669
:1001C0008093F2059093F305A093F405B093F505A1
:1001D0008091050690910606A0910706B091080649
:1001E0008093FA059093FB05A093FC05B093FD0561
:1001F0004091F2055091F3056091F4057091F50579
:100200008091160690911706A0911806B0911906D4
:10021000481759076A077B0728F01092E50581E027
:1002200080933F041198119A10C380910506909114
:100230000606A0910706B091080685B9139A13988F
:100240008091050690910606A0910706B0910806D8
:10025000892F9A2FAB2FBB2785B9149A14988091B8
:10026000050690910606A0910706B0910806CD01FB
:10027000AA27BB2787709927AA27BB27886888B930
:1002800014B812988091EC05882309F46AC0809113
:100290002D0490912E04A0912F04B0913004892B4D
:1002A0008A2B8B2B39F18091050690910606A0913F
:1002B0000706B09108060196A11DB11D80930506A1
:1002C00090930606A0930706B093080680912D042C
:1002D00090912E04A0912F04B09130040197A109B0
:1002E000B10980932D0490932E04A0932F04B09312
:1002F000300402C18091350490913604A0913704F6
:10030000B091380480932D0490932E04A0932F0471
:10031000B093300480913D048F5F80933D049091B1
:100320003D048091EC05981302C010923D04E091C9
:100330003D042091350430913604409137045091AA
:100340003804F0E0EC5BFB4FA081B0E00E940F2A84
:10035000609305067093060680930706909308063F
:10036000CBC08091E9054091050650910606609149
:1003700007067091080681115AC08091FE05909180
:10038000FF05A0910006B0910106481759076A07BA
:100390007B0729F48091E605813009F459C040912A
:1003A0000506509106066091070670910806809137
:1003B000FE059091FF05A0910006B0910106481737
:1003C00059076A077B0749F48091FA059091FB056C
:1003D000A091FC05B091FD0587C0409105065091A4
:1003E000060660910706709108068091F6059091C7
:1003F000F705A091F805B091F905481759076A0764
:100400007B0749F48091F2059091F305A091F405E2
:10041000B091F50569C08091050690910606A091FE
:100420000706B09108060197A109B1095DC0809146
:10043000FA059091FB05A091FC05B091FD054817C8
:1004400059076A077B0749F48091E605813029F452
:100450001092E5051092EF054FC0409105065091AE
:10046000060660910706709108068091FA05909142
:10047000FB05A091FC05B091FD05481759076A07D7
:100480007B0749F48091FE059091FF05A09100063D
:10049000B091010629C04091050650910606609171
:1004A0000706709108068091F2059091F305A091DE
:1004B000F405B091F505481759076A077B0749F419
:1004C0008091F6059091F705A091F805B091F90596
:1004D0000BC08091050690910606A0910706B09189
:1004E00008060196A11DB11D80930506909306068E
:1004F000A0930706B093080683B1129A9FEF94B9B0
:100500009091EE05992309F4A1C180589091EE05D0
:100510002FEF30E0092E01C0220F0A94EAF7822360
:10052000805808958091050690910606A0910706CF
:10053000B091080685B9139A139880910506909199
:100540000606A0910706B0910806892F9A2FAB2FB7
:10055000BB2785B9149A14988091050690910606D8
:10056000A0910706B0910806CD01AA27BB27877086
:100570009927AA27BB27886888B914B81298809150
:10058000EC05882309F46AC080912D0490912E0413
:10059000A0912F04B0913004892B8A2B8B2B39F139
:1005A0008091050690910606A0910706B091080675
:1005B0000196A11DB11D8093050690930606A09398
:1005C0000706B093080680912D0490912E04A09107
:1005D0002F04B09130040197A109B10980932D0433
:1005E00090932E04A0932F04B093300402C1809105
:1005F000350490913604A0913704B091380480936B
:100600002D0490932E04A0932F04B0933004809176
:100610003D048F5F80933D0490913D048091EC05F3
:10062000981302C010923D04E0913D0420913504DE
:10063000309136044091370450913804F0E0EC5B7F
:10064000FB4FA081B0E00E940F2A609305067093D3
:1006500006068093070690930806CBC08091E905B3
:1006600040910506509106066091070670910806B4
:1006700081115AC08091FE059091FF05A09100065E
:10068000B0910106481759076A077B0729F4809142
:10069000E605813009F459C04091050650910606DF
:1006A00060910706709108068091FE059091FF0504
:1006B000A0910006B0910106481759076A077B0709
:1006C00049F48091FA059091FB05A091FC05B09149
:1006D000FD0587C04091050650910606609107060A
:1006E000709108068091F6059091F705A091F805A4
:1006F000B091F905481759076A077B0749F48091BB
:10070000F2059091F305A091F405B091F50569C04B
:100710008091050690910606A0910706B091080603
:100720000197A109B1095DC08091FA059091FB057F
:10073000A091FC05B091FD05481759076A077B0792
:1007400049F48091E605813029F41092E505109274
:10075000EF054FC0409105065091060660910706CF
:10076000709108068091FA059091FB05A091FC0517
:10077000B091FD05481759076A077B0749F4809136
:10078000FE059091FF05A0910006B091010629C0D9
:100790004091050650910606609107067091080683
:1007A0008091F2059091F305A091F405B091F505C3
:1007B000481759076A077B0749F48091F60590911D
:1007C000F705A091F805B091F9050BC080910506D9
:1007D00090910606A0910706B09108060196A11D0A
:1007E000B11D8093050690930606A0930706B0936B
:1007F000080683B1129A9FEF94B99091EE05992360
:1008000061F080589091EE052FEF30E0092E01C085
:10081000220F0A94EAF78223805820912C04332770
:1008200027FD3095280F311D87FD3A9520389FEF21
:10083000390714F420E83FEF2038310514F02FE792
:1008400030E025B91198119A089580E008950F932A
:100850001F93809109068330C1F030F4813059F044
:10086000823009F0B2C30EC0843009F48EC08530E6
:1008700009F0ABC30FC280914605982F9F5F9093FC
:100880004605A4C380912C04F3C18FEF84B98091F5
:10089000290690912A06A0912B06B0912C0685B9C5
:1008A000139A13988091290690912A06A0912B06FD
:1008B000B0912C06892F9A2FAB2FBB2785B9149A9C
:1008C00014988091290690912A06A0912B06B09148
:1008D0002C06CD01AA27BB2787709927AA27BB27FB
:1008E000886888B980912C0485B9809129069091F7
:1008F0002A06A0912B06B0912C060197A109B109F7
:100900008093290690932A06A0932B06B0932C0679
:100910008091290690912A06A0912B06B0912C0671
:100920008093160690931706A0931806B0931906A5
:100930008091290690912A06A0912B06B0912C0651
:1009400080931E0690931F06A0932006B093210665
:100950004091F2055091F3056091F4057091F50511
:100960008091160690911706A0911806B09119066D
:10097000481759076A077B0728F01092090681E09B
:1009800080933F041198119A20C380912906909179
:100990002A06A0912B06B0912C0685B9139A1398BC
:1009A0008091290690912A06A0912B06B0912C06E1
:1009B000892F9A2FAB2FBB2785B9149A1498809151
:1009C000290690912A06A0912B06B0912C06CD0104
:1009D000AA27BB2787709927AA27BB27886888B9C9
:1009E00014B8129880911006882309F472C080917F
:1009F000310490913204A0913304B0913404892BD6
:100A00008A2B8B2B39F18091290690912A06A0918F
:100A10002B06B0912C060197A109B10980932906F4
:100A200090932A06A0932B06B0932C068091310454
:100A300090913204A0913304B09134040197A1093C
:100A4000B1098093310490933204A0933304B0939E
:100A500034040AC18091390490913A04A0913B0476
:100A6000B0913C048093310490933204A0933304FA
:100A7000B093340480913E048F5F80933E04909144
:100A80003E0480911006981302C010923E04E0913B
:100A90003E042091390430913A0440913B04509136
:100AA0003C04F0E0EC53FB4FA081B0E00E940F2A21
:100AB0000FEF1FEF27E030E0061B170B280B390B59
:100AC0000093290610932A0620932B0630932C06B8
:100AD000CBC080910D064091290650912A06609165
:100AE0002B0670912C0681115AC08091220690919C
:100AF0002306A0912406B0912506481759076A07D6
:100B00007B0729F480910A06813009F459C040918D
:100B1000290650912A0660912B0670912C0680912F
:100B2000220690912306A0912406B091250648172D
:100B300059076A077B0749F480911E0690911F06AA
:100B4000A0912006B091210687C0409129065091BE
:100B50002A0660912B0670912C0680911A069091BE
:100B60001B06A0911C06B0911D06481759076A077D
:100B70007B0749F48091160690911706A0911806FC
:100B8000B091190669C08091290690912A06A0911A
:100B90002B06B0912C060196A11DB11D5DC0809160
:100BA0001E0690911F06A0912006B09121064817BD
:100BB00059076A077B0749F480910A06813029F4B6
:100BC00010920906109213064FC0409129065091C9
:100BD0002A0660912B0670912C0680911E0690913A
:100BE0001F06A0912006B0912106481759076A07F1
:100BF0007B0749F48091220690912306A091240658
:100C0000B091250629C04091290650912A0660918D
:100C10002B0670912C068091160690911706A091D4
:100C20001806B0911906481759076A077B0749F457
:100C300080911A0690911B06A0911C06B0911D068A
:100C40000BC08091290690912A06A0912B06B091A5
:100C50002C060197A109B1098093290690932A06D1
:100C6000A0932B06B0932C0683B1129A9FEF94B9F0
:100C700090911206992309F4A9C180589091120607
:100C80002FEF30E0092E01C0220F0A94EAF78223E9
:100C900080589CC18091290690912A06A0912B062C
:100CA000B0912C0685B9139A1398809129069091DA
:100CB0002A06A0912B06B0912C06892F9A2FAB2FD4
:100CC000BB2785B9149A14988091290690912A0619
:100CD000A0912B06B0912C06CD01AA27BB278770C7
:100CE0009927AA27BB27886888B914B812988091D9
:100CF0001006882309F472C0809131049091320467
:100D0000A0913304B0913404892B8A2B8B2B39F1B9
:100D10008091290690912A06A0912B06B0912C066D
:100D20000197A109B1098093290690932A06A093FF
:100D30002B06B0932C068091310490913204A0913F
:100D40003304B09134040197A109B10980933104AF
:100D500090933204A0933304B09334040AC1809179
:100D6000390490913A04A0913B04B0913C048093E3
:100D7000310490933204A0933304B09334048091EF
:100D80003E048F5F80933E0490913E048091100654
:100D9000981302C010923E04E0913E042091390461
:100DA00030913A0440913B0450913C04F0E0EC5304
:100DB000FB4FA081B0E00E940F2A0FEF1FEF27E04A
:100DC00030E0061B170B280B390B009329061093F4
:100DD0002A0620932B0630932C06CBC080910D065B
:100DE0004091290650912A0660912B0670912C069D
:100DF00081115AC08091220690912306A091240669
:100E0000B0912506481759076A077B0729F4809196
:100E10000A06813009F459C04091290650912A06EA
:100E200060912B0670912C068091220690912306EA
:100E3000A0912406B0912506481759076A077B0739
:100E400049F480911E0690911F06A0912006B09152
:100E5000210687C04091290650912A0660912B06F1
:100E600070912C0680911A0690911B06A0911C0689
:100E7000B0911D06481759076A077B0749F480910E
:100E8000160690911706A0911806B091190669C030
:100E90008091290690912A06A0912B06B0912C06EC
:100EA0000196A11DB11D5DC080911E0690911F0687
:100EB000A0912006B0912106481759076A077B07C1
:100EC00049F480910A06813029F4109209061092A3
:100ED00013064FC04091290650912A0660912B06B7
:100EE00070912C0680911E0690911F06A0912006FD
:100EF000B0912106481759076A077B0749F480918A
:100F0000220690912306A0912406B091250629C0BF
:100F10004091290650912A0660912B0670912C066B
:100F20008091160690911706A0911806B0911906A7
:100F3000481759076A077B0749F480911A06909170
:100F40001B06A0911C06B0911D060BC080912906BE
:100F500090912A06A0912B06B0912C060197A10929
:100F6000B1098093290690932A06A0932B06B0938B
:100F70002C0683B1129A9FEF94B99091120699238F
:100F800061F08058909112062FEF30E0092E01C0D9
:100F9000220F0A94EAF78223805820912C043327E9
:100FA00027FD3095280F311D87FD3A9520389FEF9A
:100FB000390714F420E83FEF2038310514F02FE70B
:100FC00030E025B91198119A01C080E01F910F916E
:100FD00008958091420420914805332727FD3095DC
:100FE000280F311D87FD3A9520384FEF340714F450
:100FF00020E83FEF4091450580914C05992787FDFA
:101000009095840F911D47FD9A9581384FEF940775
:1010100014F481E89FEF2038310514F02FE730E019
:101020008038910514F08FE790E0289FA001299F58
:10103000500D389F500D112457FF02C0415C5F4F87
:10104000CA0146E0959587954A95E1F780589095B5
:10105000282F30916905831729F09FEF94B985B93E
:10106000159A15982093690508952091420480915E
:101070004505992787FD9095820F911D27FD9A952B
:1010800020914805820F911D27FD9A9520914C05CE
:10109000820F911D27FD9A9520915505820F911D74
:1010A00027FD9A9580382FEF920714F480E89FEF80
:1010B0008038910514F08FE790E08058282F309108
:1010C0006905831729F09FEF94B985B9159A15988A
:1010D000209369050895209142048091480599273D
:1010E00087FD9095820F911D27FD9A9580382FEFEF
:1010F000920714F480E89FEF4091450520914C053C
:10110000332727FD3095240F311D47FD3A952038B0
:101110004FEF340714F420E83FEF2038310514F086
:101120002FE730E0205830958038910514F08FE794
:1011300090E080589095822790916905891729F051
:101140009FEF94B985B9159A15988093690508950C
:101150002091420480914805992787FD9095820F40
:10116000911D27FD9A9580382FEF920714F480E89F
:101170009FEF4091450520914C05332727FD309581
:10118000240F311D47FD3A9520384FEF340714F4F2
:1011900020E83FEF2038310514F02FE730E02058E9
:1011A00030958038910514F08FE790E08058909545
:1011B000822390916905891729F09FEF94B985B929
:1011C000159A15988093690508959FB7F89485B985
:1011D0008FEF84B95F9A5F989FBF0895FC0153E039
:1011E000F695E7955A95E1F7FF27E259FA4F2081E6
:1011F00030E08770992702C0359527958A95E2F7E8
:10120000822F817008959FB7F89483E080934F05F3
:101210001092B20081E78093B3008FEF87BBE0E7C5
:10122000F0E080818460808382E08093B1009FBF82
:101230000895409100015091010160910201709167
:101240000301DB01CA01880F991FAA1FBB1F76FF8C
:1012500008C025EB822725E992272AEAA22720E267
:10126000B2278093000190930101A0930201B093F3
:101270000301609100017091010180910201909140
:10128000030108952F923F924F925F926F927F9247
:101290008F929F92AF92BF92CF92DF92EF92FF9286
:1012A0000F931F93CF93DF93382E623008F4CDC095
:1012B0009FB6F894862E80E8861710F400E8802EFA
:1012C000C32DD0E09E013695322F222737952795E2
:1012D0002C5B3B4F80E090E0F901E80FF91F808321
:1012E00001968815C8F36E01D694DC2CCC24D794D3
:1012F000C794B4E4AB2EB4E0BB2EAC0CBD1C00E034
:1013000010E0482C512C612C712C7501E00EF11E5F
:10131000D7012C900E941909A30192010E94DB2998
:10132000FB01EC0DFD1DEC5BFB4F8081D7018C9325
:1013300020820F5F1F4F081540F3311015C06091D8
:10134000F2057091F3058091F4059091F505A301E4
:1013500092010E94DB292093350430933604409398
:101360003704509338041CC00091160610911706DC
:1013700020911806309119066FEF7FEF87E090E01B
:10138000601B710B820B930BA30192010E94DB295E
:101390002093390430933A0440933B0450933C0427
:1013A00084E28C9FF0018D9FF00D1124EB51FA4FD8
:1013B0008782FE01E35CFB4F1082CC0FDD1FCC0F58
:1013C000DD1FFE01EB5CFB4F80819181A281B38127
:1013D000C35DDB4F88839983AA83BB83311016C01A
:1013E00020913504309136044091370450913804EF
:1013F000A0914404B0E00E940F2A60930506709308
:10140000060680930706909308061DC020913904B4
:1014100030913A0440913B0450913C04A091C404A3
:10142000B0E00E940F2A0FEF1FEF27E030E0061B0D
:10143000170B280B390B0093290610932A062093CB
:101440002B0630932C069FBE07C0B4E28B9FF001A1
:101450001124EB51FA4F1782DF91CF911F910F9119
:10146000FF90EF90DF90CF90BF90AF909F908F90C4
:101470007F906F905F904F903F902F9008954F9284
:101480005F926F927F928F929F92AF92BF92CF9214
:10149000DF92EF92FF92EFB7F8948111E9C180904B
:1014A000F2059090F305A090F405B090F50583E067
:1014B000880C991CAA1CBB1C8A95D1F7892C9A2CE4
:1014C000AB2CBB24A091020680910406B0E0A80FCB
:1014D000B11DA50194010E940F2AF3E0969587950E
:1014E00077956795FA95D1F76093FE057093FF05A0
:1014F00080930006909301064090F2055090F3050A
:101500006090F4057090F505F0910306A091040633
:10151000B0E00E940F2A6B017C01A3E0F694E794EF
:10152000D794C794AA95D1F7C40CD51CE61CF71C18
:10153000AF2FB0E00E940F2AB3E09695879577957C
:101540006795BA95D1F7C61AD70AE80AF90AC09280
:10155000FA05D092FB05E092FC05F092FD05409162
:10156000FE055091FF056091000670910106809183
:10157000FA059091FB05A091FC05B091FD0584173B
:101580009507A607B70750F58091E805813019F453
:101590008093E90502C01092E9058091FE059091C3
:1015A000FF05A0910006B09101064091FA05509107
:1015B000FB056091FC057091FD054093FE0550937D
:1015C000FF0560930006709301068093FA059093DF
:1015D000FB05A093FC05B093FD050AC08091E805CA
:1015E000813019F41092E90503C081E08093E90588
:1015F0004091FE055091FF05609100067091010633
:101600008091F2059091F305A091F405B091F50554
:1016100084179507A607B707E0F48091FE0590911F
:10162000FF05A0910006B09101064091F20550918E
:10163000F3056091F4057091F505841B950BA60BDD
:10164000B70B8093FE059093FF05A0930006B0931F
:1016500001064091FA055091FB056091FC057091DF
:10166000FD058091F2059091F305A091F405B091EC
:10167000F50584179507A607B70708F044C08091C1
:10168000FA059091FB05A091FC05B091FD054091F4
:10169000F2055091F3056091F4057091F505841BF6
:1016A000950BA60BB70B8093FA059093FB05A093BF
:1016B000FC05B093FD054091FA055091FB05609142
:1016C000FC057091FD058091FE059091FF05A091AC
:1016D0000006B0910106481759076A077B0799F47D
:1016E0008091FA059091FB05A091FC05B091FD0554
:1016F0000197A109B1098093FA059093FB05A09386
:10170000FC05B093FD054091FE055091FF056091E9
:101710000006709101068091FA059091FB05A09159
:10172000FC05B091FD0584179507A607B70708F0DB
:101730005AC04091050650910606609107067091C7
:1017400008068091FE059091FF05A0910006B091DA
:101750000106481759076A077B0708F086C24091BF
:101760000506509106066091070670910806809163
:10177000FA059091FB05A091FC05B091FD05841739
:101780009507A607B70708F070C24091FE05509173
:10179000FF0560910006709101068090050690900B
:1017A0000606A0900706B090080680910506909165
:1017B0000606A0910706B0910806C090FA05D090E1
:1017C000FB05E090FC05F090FD05481959096A09F0
:1017D0007B098C199D09AE09BF09481759076A078B
:1017E0007B07E8F115C0409105065091060660910F
:1017F0000706709108068091FE059091FF05A09163
:101800000006B0910106481759076A077B0788F45C
:101810008091FE059091FF05A0910006B091010610
:101820008093050690930606A0930706B0930806DA
:101830001CC2409105065091060660910706709102
:1018400008068091FA059091FB05A091FC05B091E6
:10185000FD0584179507A607B70708F006C2809113
:10186000FA059091FB05A091FC05B091FD05D8CF3C
:101870008091160690911706A0911806B09119064E
:10188000CC24CA94DC2C27E0E22EF12C460157012F
:10189000881A990AAA0ABB0A33E0880C991CAA1C68
:1018A000BB1C3A95D1F7892C9A2CAB2CBB24A09168
:1018B000260680912806B0E0A80FB11DA50194016D
:1018C0000E940F2AF3E09695879577956795FA958C
:1018D000D1F7C61AD70AE80AF90AC0922206D092AE
:1018E0002306E0922406F0922506409016065090BA
:1018F00017066090180670901906A0912706F091BF
:101900002806B0E00E940F2A6B017C01A3E0F69448
:10191000E794D794C794AA95D1F7C40CD51CE61CBC
:10192000F71CAF2FB0E00E940F2AB3E09695879581
:1019300077956795BA95D1F7C61AD70AE80AF90AD2
:10194000C0921E06D0921F06E0922006F092210659
:10195000409122065091230660912406709125063D
:1019600080911E0690911F06A0912006B09121063D
:10197000481759076A077B0750F580910C0681309C
:1019800019F480930D0602C010920D068091220674
:1019900090912306A0912406B091250640911E0641
:1019A00050911F06609120067091210640932206F7
:1019B00050932306609324067093250680931E0699
:1019C00090931F06A0932006B09321060AC0809131
:1019D0000C06813019F410920D0603C081E080934B
:1019E0000D064091220650912306609124067091C5
:1019F00025068091160690911706A0911806B091C1
:101A00001906481759076A077B07F8F480912206E0
:101A100090912306A0912406B091250640911606C8
:101A20005091170660911806709119060197A84FFA
:101A3000BF4F841B950BA60BB70B80932206909388
:101A40002306A0932406B093250640911E065091CC
:101A50001F066091200670912106809116069091D4
:101A60001706A0911806B0911906481759076A077A
:101A70007B0708F047C080911E0690911F06A09139
:101A80002006B091210640911606509117066091EC
:101A90001806709119060197A84FBF4F841B950B2C
:101AA000A60BB70B80931E0690931F06A0932006EB
:101AB000B093210640911E0650911F0660912006AA
:101AC000709121068091220690912306A091240610
:101AD000B0912506481759076A077B0799F480914A
:101AE0001E0690911F06A0912006B0912106019636
:101AF000A11DB11D80931E0690931F06A093200682
:101B0000B09321064091220650912306609124064D
:101B10007091250680911E0690911F06A0912006C7
:101B2000B0912106481759076A077B0708F05AC089
:101B30004091290650912A0660912B0670912C063F
:101B40008091220690912306A0912406B09125064B
:101B500084179507A607B70708F087C040912906A4
:101B600050912A0660912B0670912C0680911E06DA
:101B700090911F06A0912006B091210648175907A1
:101B80006A077B0708F071C04091290650912A0628
:101B900060912B0670912C0680902206909023066F
:101BA000A0902406B090250680911E0690911F06F5
:101BB000A0912006B0912106C0902906D0902A0657
:101BC000E0902B06F0902C06481959096A097B0908
:101BD0008C199D09AE09BF0984179507A607B70799
:101BE000A0F115C04091290650912A0660912B065C
:101BF00070912C068091220690912306A0912406D4
:101C0000B091250684179507A607B70748F4809179
:101C1000220690912306A0912406B09125061DC0AE
:101C20004091290650912A0660912B0670912C064E
:101C300080911E0690911F06A0912006B09121066A
:101C4000481759076A077B0780F480911E06909118
:101C50001F06A0912006B09121068093290690933B
:101C60002A06A0932B06B0932C06EFBFFF90EF90AF
:101C7000DF90CF90BF90AF909F908F907F906F90AC
:101C80005F904F9008959FB7F89424E2829FF001EF
:101C90001124EB51FA4F4189528963897489418F2C
:101CA000528F638F748F4585568567857089458B04
:101CB000568B678B708F158E168E178E9FBF08956B
:101CC0004091AE0550E090915D0520E030E061E08C
:101CD00070E0DA01022E02C0B595A7950A94E2F7EA
:101CE000A0FF0AC0DB01022E02C0AA0FBB1F0A948C
:101CF000E2F7FD01E0959E232F5F3F4F283031052D
:101D000041F790935D058093AE0568E970E082E04D
:101D10000C94171F10925D0580E090E00C94600E0B
:101D200080E090E00C94600ECF93C0915B05C111F0
:101D300011C0109259050E948A0E10925C051092F3
:101D40005D0581E080935B0561E371E080E0CF9108
:101D50000C94171FC13041F480E00E94291F882392
:101D600009F491C082E07BC0C23009F04AC0809182
:101D70005C058830F8F480E00E94291F882309F46C
:101D800082C081E090E000905C0502C0880F991F3E
:101D90000A94E2F790915D05982B90935D056DE3B1
:101DA00070E080E00E94171F80915C058F5F809338
:101DB0005C0569C080E00E94291F882309F463C084
:101DC00068E970E080E00E94171F8FEF8093400465
:101DD000909164009F7B90936400C093B00091E069
:101DE0009093B1001092B20090E89093B30087BB3B
:101DF000C093700092B1966092B984B95F9A83E003
:101E00002EC0C33079F580E00E94291F8823D9F1C4
:101E100080914004823058F0809140048250809339
:101E2000400464E070E080E00E94171F2CC0109214
:101E300070001092B0001092B10080916400806434
:101E40008093640015B85F980E948A0E82E18093A7
:101E50005D0562E672E080E00E94171F84E08093D7
:101E60005B0511C0C43089F480E00E94291F8823DB
:101E700051F00E948A0E8FE691E19093E4058093E1
:101E8000E30510925B0510925905CF910895CF9309
:101E9000CFB7F8940E944E21EEE6F5E0119285E06E
:101EA000EE3AF807D9F710924F051092B1008091E1
:101EB00070008B7F809370001092550510922B015B
:101EC00010922A01109229011092280110922701E4
:101ED000109226010E94372110925905CFBFCF9151
:101EE0000895CF92DF92EF92FF92CF93CFB7F894FD
:101EF000382F330F330F20E069018FEFC81AD80A4B
:101F0000E12CF12CC701B6010E94F122813019F5B4
:101F1000C092B105D092B205E092B305F092B4053B
:101F20001092B6051092B50510922B0110922A015D
:101F30001092290110922801109227011092260177
:101F40006AE770E083E00E94171F89E080935905DB
:101F5000CFBF81E002C0CFBF80E0CF91FF90EF9074
:101F6000DF90CF900895E1E8F0E080818064808385
:101F7000B59AEFE6F0E0808180628083089594E274
:101F8000899FF0011124EB51FA4F6287623039F5D5
:101F90005487438781110FC0809184009091850000
:101FA000840F951F9093890080938800B19A809147
:101FB0006F0082600EC08091840090918500840F34
:101FC000951F90938B0080938A00B29A80916F0046
:101FD000846080936F0081E0809381000895613078
:101FE00059F4811102C00C94B30FDA9A84E0809303
:101FF000680080E180936D000895FF920F931F9316
:10200000CF93DF93C82FD0E094E2899FF001112491
:10201000EB51FA4F9581992329F090914F059150FA
:10202000923080F1FFB6F89494E29C9FF0019D9F5E
:10203000F00D1124EB51FA4F94E090839381992392
:1020400051F0058916892789308D00A311A322A399
:1020500033A314820AC0018D128D238D348D00A309
:1020600011A322A333A391E094830E94BF0F84E2C3
:102070008C9FF0018D9FF00D1124EB51FA4F81E000
:102080008583FFBEDF91CF911F910F91FF9008953F
:102090001F93CF93DF93282F30E094E2899FF001C4
:1020A0001124EB51FA4F9581992329F090914F0516
:1020B0009150923088F01FB7F89494E2929FE0011B
:1020C000939FD00D1124CB51DA4F94E098830E9456
:1020D000BF0F81E08D831FBFDF91CF911F910895C6
:1020E000FF920F931F93CF93DF93282F30E094E25A
:1020F000899FF0011124EB51FA4F9581992331F01A
:1021000090914F059150923008F442C0FFB6F89478
:1021100094E2929FE001939FD00D1124CB51DA4FAE
:1021200093E0988309891A892B893C8908A319A30C
:102130002AA33BA309891A892B893C890D871E870D
:102140002F87388B09891A892B893C89098F1A8F27
:102150002B8F3C8F09891A892B893C890D8B1E8B0B
:102160002F8B388F1F8E10923F040E94BF0F81E08B
:102170008D83FFBE80917A0086FD0AC08091790030
:10218000805880932C0480917A00806480937A0038
:10219000DF91CF911F910F91FF9008951F93CF93DF
:1021A000DF93282F30E094E2899FF0011124EB5156
:1021B000FA4F9581992329F090914F0591509230D3
:1021C000F8F01FB7F89494E2929FE001939FD00D2E
:1021D0001124CB51DA4F95E098830E94BF0F81E024
:1021E0008D831FBF80917A0086FD0AC0809179009F
:1021F000805880932C0480917A00806480937A00C8
:10220000DF91CF911F910895CF93CFB7F89494E2C7
:10221000899FF0011124EB51FA4F92E090830E94C4
:10222000BF0FCFBF80917A0086FD0AC080917900F0
:10223000805880932C0480917A00806480937A0087
:10224000CF91089580915B05811110C00E948A0E84
:102250001092E5051092EF051092090610921306F0
:1022600081E890E00E94600E81E013C08130C9F4E3
:102270008091580580FF10C087FF0EC086E08093D4
:1022800059050E948A0E80915D05816880935D05E5
:1022900082E080935B0508958091590581111EC0ED
:1022A00015C08230D9F4809159058E30B9F40E945E
:1022B0008A0E80915D05826080935D05809159054D
:1022C000882321F080915705882341F084E99EE01E
:1022D0009093E4058093E30510925B050895809147
:1022E0005B05811108C068E970E00E94171F81E05A
:1022F00080935B05089580E00E94291F8823A1F048
:102300008091580580FF03C085EF93E107C085FFEA
:1023100003C089E095E102C08CE694E19093E40566
:102320008093E30510925B050895CF9320915905A2
:102330002E3009F406C030914F053330B1F52B3003
:10234000A1F4CFB7F8940E94710F81E090E0A0E073
:10235000B0E08093220190932301A0932401B093D5
:1023600025010E940309CFBF20C02D3021F020910C
:10237000B705213029F49093B9058093B80515C0AD
:102380009093B9058093B80581E08093BA05809356
:10239000B7059FB7F89410922701109226018091FB
:1023A00070008B7F809370009FBFCF910895EF9254
:1023B000FF920F931F93CF93DF9380915B05811161
:1023C00023C080916305909164058038910530F0B9
:1023D0008FE790E090936405809363058091630597
:1023E00080935D050E94900E809163059091640535
:1023F0000E94EE08882321F080E890E00E94600EA1
:1024000081E080935B05EAC190915A05809159055E
:10241000992319F08F3039F403C0882309F4D4C10B
:102420000E94470FD1C180916B058823E9F180910B
:10243000AF05882389F0809163059091640501962A
:10244000909364058093630580389105B8F01092ED
:1024500064051092630512C08091B005882371F065
:102460008091630590916405009719F48FE790E0DF
:1024700001C0019790936405809363058091630583
:102480009091640580935D050E94EE08882329F0F1
:1024900080E890E00E94600E07C00E94900E80913C
:1024A0005D058F7780935D058091570580FF0CC097
:1024B000C0916305D0916405CE010E94EE08882387
:1024C00019F0CE010E9495118091570581FF5DC0E2
:1024D0000091630510916405C8010E94EE088823ED
:1024E00009F453C0F0906205809159058E3009F0CF
:1024F0004CC024E2F29EE0011124CB51DA4F8D81D1
:10250000811143C0EFB6F894C8010E94710F81E0B9
:1025100090E0A0E0B0E08093220190932301A0938B
:102520002401B09325012FB7F89481E080934F05E3
:102530008D83F1100BC080935405109250051092BA
:10254000510510925205109253050EC01092540579
:102550008FEF9FEFA7E0B0E0809350059093510577
:10256000A0935205B09353051092B20081E6809378
:10257000B3008FEF87BB8091700084608093700000
:1025800082E08093B1002FBFEFBE8091570582FF9C
:10259000E1C0E09162052E2F30E044E2E49FE001CB
:1025A0001124CB51DA4F49895A896B897C898D85F1
:1025B0009E85AF85B889481759076A077B0709F4D4
:1025C000C9C01091630500916405809159058E3052
:1025D00009F0BCC08D818111B9C08F81E11110C09B
:1025E000811109C08D899E89AF89B88D498D5A8D19
:1025F0006B8D7C8D0FC08D859E85AF85B8891AC087
:1026000081110CC0898D9A8DAB8DBC8D4D895E89F1
:102610006F89788D0196A11DB11D08C089899A899D
:10262000AB89BC894D855E856F857889841B950B48
:10263000A60BB70BFFB7F894CFB7F89410936305C8
:1026400000936405712F770F770F60E0AB014F5F48
:102650005F4F60E070E04093B1055093B205609326
:10266000B3057093B4051092B6051092B50510929B
:102670002B0110922A011092290110922801109228
:102680002701109226018D3F4FEF940747E0A407E2
:10269000B10508F404C08CEF9FEFA7E0B0E0809391
:1026A000220190932301A0932401B09325018091EE
:1026B000220190912301A0912401B09125018093E2
:1026C0001E0190931F01A0932001B093210182E08D
:1026D00080935905CFBF4FB7F89480934F0584E29C
:1026E000829FD001839FB00D1124AB51BA4F81E07E
:1026F00015968C93E1110BC08093540510925005F0
:102700001092510510925205109253050EC010926E
:1027100054058FEF9FEFA7E0B0E0809350059093B2
:102720005105A0935205B09353051092B20081E673
:102730008093B3008FEF87BB80917000846080939B
:10274000700082E08093B1004FBFFFBF80E890E04F
:102750000E94600E8091570583FF2DC0C0916305D4
:10276000D0916405CE010E94EE08882321F180916A
:1027700059058E3001F5FE0113E0F695E7951A959F
:10278000E1F7FF27E259FA4FC770DD2781E090E0BB
:102790000C2E01C0880F0A94EAF780959081892356
:1027A000808386E0809359050E94900E80915D059C
:1027B0008F7780935D058091570584FD05C0982F24
:1027C000907611F487FF0AC00E948A0E8FE695E189
:1027D0009093E4058093E30510925B05DF91CF9120
:1027E0001F910F91FF90EF90089580915B058111EB
:1027F00008C00E948A0E80EC90E00E94600E81E08A
:1028000013C08130A1F4F8948093E5058093EF051F
:102810008093EF050E94B30F85E398E09093E20563
:102820008093E105789482E080935B05089582307F
:1028300009F051C08091570580FF06C090915D0559
:1028400021E0922790935D0581FF06C090915D0580
:1028500022E0922790935D0582FF06C090915D056E
:1028600024E0922790935D0583FF06C090915D055B
:1028700028E0922790935D0584FF06C090915D0546
:1028800020E1922790935D0585FF06C090915D053C
:1028900020E2922790935D0586FF08C00E94900E6B
:1028A00080915D0590E4892780935D0580915705AF
:1028B00087FF07C00E94900E80915D05805880932D
:1028C0005D0580916B05882331F00E94900E809108
:1028D0006D0580935D050895CF92DF92EF92FF9290
:1028E0000F931F93CF93DF9384E00E94E21E803109
:1028F00008F080E080932F0688E00E94E21E80317D
:1029000008F081E0809348061092F6051092F705D2
:102910001092F8051092F9058FEF9FEFA7E0B0E055
:1029200080931A0690931B06A0931C06B0931D0675
:102930000EE515E0C0E0D0E024E2E22EDD24D394E1
:102940003CE0F32EEC9EF001ED9EF00D1124EB51D6
:10295000FA4F108212861182118610861782128217
:10296000D482138281899289A389B48980A391A397
:10297000A2A3B3A381899289A389B4898587968705
:10298000A787B08B168215828C2F0E94430EC1112F
:1029900002C087E001C08BE00E94E21E8A3508F089
:1029A00080E36F2D0E94CF29E92FF0E0EE0FFF1F8B
:1029B000EA5FFE4F2081318102C0369527958A95C6
:1029C000E2F7F801219331938F012196C230D105AE
:1029D00009F0B8CF85E398E09093E2058093E10594
:1029E0001092620510926405109263050E948A0E8F
:1029F0008FE695E19093E4058093E30510925B05E3
:102A0000DF91CF911F910F91FF90EF90DF90CF90CA
:102A1000089580915B0581111DC084E00E94E21E33
:102A2000803108F080E080932F0688E00E94E21E4B
:102A3000803108F081E08093480620E1829FC00148
:102A4000112490912F06982B90935D0581E080933F
:102A50005B0508952091570520FF12C080912F0635
:102A60008F5F803118F480932F0602C010922F06DA
:102A700080915D05807F90912F06892B80935D0565
:102A800021FF16C0809148068F5F803118F4809333
:102A9000480602C0109248068091480630E1839FA4
:102AA000C001112490915D059F70982B90935D0556
:102AB00022FF14C060912F0684E090E00E94D51E92
:102AC0006091480688E090E00E94D51E8CE694E173
:102AD0009093E4058093E30510925B050895CF92EF
:102AE000DF92FF920F931F93CF93DF931F92CDB787
:102AF000DEB780915B058111B2C480916A0586FFC3
:102B0000F3C087FF3AC08091570585FF26C085E353
:102B100098E09093E2058093E10510916205812F82
:102B20000E94430E24E2129FF0011124EB51FA4F50
:102B30001186108617821282138281E084831182AB
:102B4000168220E042E164E0812F0E94901F20E085
:102B50004BE164E080916205E4C180FFF6C18091A1
:102B600059058E3009F0F1C187ED91E19093E405AC
:102B70008093E30510925B05E8C18091580580FFC2
:102B800017C080916B05811104C08091570580FFAB
:102B90000FC08091620520916C0544E2849FF00192
:102BA0001124EB51FA4F218743E164E00E94901F0A
:102BB0008091570581FF15C08091620594E2899F3D
:102BC000F0011124EB51FA4F9281911104C091E070
:102BD000928320E402C0128220E040E164E00E947F
:102BE000901F8091570582FF0EC01091620540E052
:102BF00050E061E0812F0E94041120E34EE064E088
:102C0000812F0E94901F8091580583FF04C08091FE
:102C10006B05811104C08091570583FF10C020917E
:102C20006D05269510916205622F812F29830E94E0
:102C30004209298144E164E0812F0E94901F809124
:102C4000580584FF33C080916B05882379F180910A
:102C50006C05813071F028F0823099F0833031F5C5
:102C600018C085E398E09093E2058093E10520E0A9
:102C700017C089EE97E09093E2058093E10521E08B
:102C80000FC088EA98E09093E2058093E10522E086
:102C900007C08BE698E09093E2058093E10523E07E
:102CA00046E164E0809162050E94901F8091570583
:102CB00085FF4BC18091620524E2829FF0011124BF
:102CC000EB51FA4F9381911104C091E0938320E47A
:102CD00002C0138220E041E164E00E94901F8091D5
:102CE00062050E943F0A31C187FF55C08091580597
:102CF00080FF15C01091620544E2149FF001112479
:102D0000EB51FA4F858D00916D058017C9F1058F44
:102D1000812F0E943F0A202F26954CE12DC081FF74
:102D200015C01091620584E2189FF0011124EB5147
:102D3000FA4F868D00916D05801711F1068F812F56
:102D40000E943F0A202F26954DE116C082FF18C031
:102D50001091620594E2199FF0011124EB51FA4F92
:102D6000878D00916D05801759F0078F812F0E9484
:102D70003F0A202F26954EE164E0812F0E94901F8C
:102D80008091570583FFE1C08091630590916405B0
:102D90000E949511DAC08091570580FF22C01091E2
:102DA0006205E4E21E9F6001112485EE95E0C80EE5
:102DB000D91EF601808140E050E061E0833049F4A3
:102DC000812F0E94FD0FF601118220E440E361E0B3
:102DD00006C0812F0E94701020E343E064E0812F41
:102DE000A0C081FF31C0F0906205F4E2FF9E600157
:102DF000112485EE95E0C80ED91EF601808185303C
:102E000051F440E050E061E08F2D0E944810F6013F
:102E1000118220E016C0F6010189128923893489C4
:102E20004585568567857089041715072607370776
:102E300009F48BC040E050E061E08F2D0E94CE107D
:102E400020E349E064E06CC082FF22C0F09062059C
:102E5000F4E2FF9E6001112485EE95E0C80ED91EB4
:102E6000F60101891289238934894585568567854C
:102E70007089041715072607370709F466C040E074
:102E800050E061E08F2D0E94FD0FF601118245C0D8
:102E900083FF23C0F0906205F4E2FF9E60011124DD
:102EA00085EE95E0C80ED91EF601018912892389A5
:102EB0003489458556856785708904171507260767
:102EC000370709F442C040E050E061E08F2D0E94D6
:102ED000FD0F81E0F601818320C084FF2BC0F090BC
:102EE000620524E2F29EF0011124EB51FA4F808139
:102EF00081111AC001891289238934894585568533
:102F0000678570890417150726073707F1F040E039
:102F100050E061E08F2D0E94481020E440E361E022
:102F20008F2D0E94901F11C01082128620E040E376
:102F300062E0F6CF85FF09C0809162058F5F8093C4
:102F40006205823010F0109262058091610688233C
:102F500009F485C285E695E00E94691F80916605A7
:102F6000823011F5E09165058E2F90E044E2E49FF8
:102F7000F0011124EB51FA4F2081243021F02081FF
:102F8000223009F06CC2FC01EC5FFE4F3091670506
:102F90002081321364C224E2289FF001299FF00DA2
:102FA0001124EB51FA4F82C0813009F04DC0A0913D
:102FB00065052A2F30E080916705F901EC5FFE4F2F
:102FC000808394E2929FF001939FF00D1124EB51C6
:102FD000FA4F96819923A9F06CE00E94CF29E92F3E
:102FE000F0E0EE0FFF1FEA5FFE4F4081518102C00B
:102FF000569547958A95E2F762E08A2F0E94041160
:103000002EC20189128923893489458556856785B1
:103010007089041715072607370709F420C26CE0EA
:103020000E94CF29E92FF0E0EE0FFF1FEA5FFE4F6D
:103030004081518102C0569547958A95E2F762E03A
:103040008A2F0E94FD0F0BC2843009F0AFC180911E
:10305000670590E0FC013397EC31F10508F0FFC102
:10306000E25CFF4F0C94FD29909168058091650505
:10307000992391F0A82FB0E0AA0FBB1FA25ABA4F14
:103080004D915C9162E00E947010E091650584E2D0
:10309000E89FF001112438C094E2899FF0011124C7
:1030A000EB51FA4F8081833009F0D9C1108212862A
:1030B000D6C19091680580916505992341F1A82FAB
:1030C000B0E024E2F22EFA9EF001FB9EF00D1124F6
:1030D000EB51FA4F01891289238934894585568538
:1030E00067857089041715072607370709F4B7C1E4
:1030F000AC5FBE4F4C9150E062E00E94CE10E09178
:103100006505FE9EF0011124EB51FA4F3DC0282FBA
:1031100030E044E2849FF0011124EB51FA4F90819A
:10312000953009F09CC1F901EC5FFE4F408150E001
:1031300062E00E94481093C19091680580916505F6
:103140009923B1F0A82FB0E0AA0FBB1FA25ABA4F23
:103150004D915C9162E00E940411E091650584E26A
:10316000E89FF0011124EB51FA4F81E0868377C18B
:1031700094E2899FF0011124EB51FA4F8081823053
:1031800009F06DC110821286168269C180916805AE
:10319000E0916505882341F024E2E29FF0011124CB
:1031A000EB51FA4F11825BC144E2E49FF00111241C
:1031B000EB51FA4F81E0818352C180916805E09123
:1031C0006505882349F084E2E89FF0011124EB5162
:1031D000FA4F81E0828343C194E2E99FF001112418
:1031E000EB51FA4F12823BC180916805E091650571
:1031F000882349F024E2E29FF0011124EB51FA4FB9
:1032000081E0838307C044E2E49FF0011124EB5185
:10321000FA4F138280916505C6C0E091650584E28E
:10322000E89FF0011124EB51FA4F118211861086AC
:103230001782128281E084831382848316822DC0D8
:1032400080916805883008F00AC1E091650594E234
:10325000E99FF0011124EB51FA4F818700C1609181
:103260006805809165050E944209F9C0E0916505F5
:103270008091680524E2E29FF0011124EB51FA4F9E
:103280008087EDC080916805813051F030F0823048
:1032900071F0833009F0E3C00DC085E398E002C00F
:1032A00089EE97E09093E2058093E105D8C088EA23
:1032B00098E0F8CF8BE698E0F5CF1FB7F8945091DF
:1032C0006505A52FB0E0FD01EC5FFE4F4081AA0F20
:1032D000BB1FA25ABA4F842F6CE00E94CF29E92F5E
:1032E000F0E0EE0FFF1FEA5FFE4F2081318102C048
:1032F000369527958A95E2F72D933C93511104C09A
:10330000642F87E090E005C0513029F4642F8BE0F2
:1033100090E00E94D51E1FBFA2C0909168058091C9
:10332000650544E2849FF001112420C09091680556
:103330008091650524E2829FF001112424C09091C0
:1033400068058091650544E2849FF001112428C03E
:10335000809165050E94430E82C090916805990F87
:103360008091650524E2829FF0011124EB51FA4F10
:10337000958F19C090916805990F8091650544E279
:10338000849FF0011124EB51FA4F968F0CC090915D
:103390006805990F8091650524E2829FF001112450
:1033A000EB51FA4F978F0E943F0A59C0873009F0BE
:1033B00056C0809168052091670530E040E8849F01
:1033C000200D311D1124A0916505211580E23807DB
:1033D00031F1B0E0FD01EC5FFE4F808140E050E252
:1033E000421B530B6CE00E94CF29E92FF0E0EE0F57
:1033F000FF1FEA5FFE4F2081318102C0369527957D
:103400008A95E2F7420F531F84E28A9FF0018B9F57
:10341000F00D1124EB51FA4F5487438720C04A2FF7
:1034200050E0FA01EC5FFE4F80816CE00E94CF29F2
:10343000E92FF0E0EE0FFF1FEA5FFE4F20813181A0
:1034400002C0369527958A95E2F784E2849FF001C1
:10345000859FF00D1124EB51FA4F3487238780911B
:103460004F05833011F0109255058091EF058130A2
:1034700041F01092420480916F008F7D80936F0025
:10348000B59A80911306813031F010924505109263
:10349000680010926D008091EF05823041F010922B
:1034A000480580916F008D7F80936F00B19A809165
:1034B0001306823041F010924C0580916F008B7F93
:1034C00080936F00B29A8091EF0581110CC08091BA
:1034D0004F05882331F0833021F08091540581110C
:1034E00002C01092EA058091130681110CC08091F0
:1034F0004F05882331F0833021F0809154058130CD
:1035000011F410920E0680916D0582958695877054
:1035100080936C0520915D052F7180FD206881FDF1
:103520002064847009F0206230916205207E832F30
:1035300090E044E2349FF0011124EB51FA4F4081B6
:10354000433009F4216044E2489FF001499FF00DA7
:103550001124EB51FA4F4081443009F4246044E2D5
:10356000489FF001499FF00D1124EB51FA4F408123
:10357000453009F4226044E2489FF001499FF00D74
:103580001124EB51FA4F4081423009F427604091F9
:103590003F04413009F42860313009F42061209360
:1035A0005D0524E2289FF001299FF00D1124EB51C5
:1035B000FA4F418952896389748985859685A785E3
:1035C000B089481759076A077B0781F48091AE05D7
:1035D00082FD16C084E090E00F90DF91CF911F91A3
:1035E0000F91FF90DF90CF900C94600E0F90DF91C1
:1035F000CF911F910F91FF90DF90CF900C94900E80
:103600000F90DF91CF911F910F91FF90DF90CF909E
:1036100008951F920F920FB60F9211242F933F938C
:103620004F935F936F937F938F939F93AF93BF93CA
:10363000EF93FF938091E705882341F08091E705A0
:10364000882341F080914104882321F00E94790071
:103650008093420410924104E091E105F091E2056B
:10366000099580917A0086FD0AC080917900805882
:1036700080932C0480917A00806480937A00FF917B
:10368000EF91BF91AF919F918F917F916F915F91DA
:103690004F913F912F910F900FBE0F901F90189553
:1036A0001F920F920FB60F9211242F933F934F93B7
:1036B0005F936F937F938F939F93AF93BF93EF939A
:1036C000FF9380910B06882341F080910B0688239D
:1036D00041F080914405882321F00E9427048093C3
:1036E000450510924405E091E105F091E205099548
:1036F00080917A0086FD0AC080917900805880937D
:103700002C0480917A00806480937A00DA9AFF9189
:10371000EF91BF91AF919F918F917F916F915F9149
:103720004F913F912F910F900FBE0F901F901895C2
:103730001F920F920FB60F9211240F931F932F9386
:103740003F934F935F936F937F938F939F93AF9329
:10375000BF93CF93DF93EF93FF938091E705882387
:1037600041F08091E705882341F080914705882347
:1037700021F00E947900809348058091ED0588230F
:10378000A1F1A091ED052091F0053091F105B0E097
:103790000E94032A2FE730E040E050E00E94DB293E
:1037A0000091880010918900C091F005D091F10539
:1037B00060910001709101018091020190910301DB
:1037C0000E94DB29C00FD11F4091490550914A0545
:1037D000C40FD51FC61BD70BD0938900C093880098
:1037E00070934A05609349050EC02091880030917E
:1037F00089008091F0059091F105820F931F9093BD
:1038000089008093880010924705E091E105F091CE
:10381000E205099580917A0086FD0AC080917900C1
:10382000805880932C0480917A00806480937A0081
:10383000FF91EF91DF91CF91BF91AF919F918F91C8
:103840007F916F915F914F913F912F911F910F91B8
:103850000F900FBE0F901F9018951F920F920FB6EA
:103860000F9211240F931F932F933F934F935F93C6
:103870006F937F938F939F93AF93BF93CF93DF9378
:10388000EF93FF9380910B06882341F080910B0604
:10389000882341F080914B05882321F00E94270462
:1038A00080934C05809111068823A1F1A091110607
:1038B0002091140630911506B0E00E94032A2FE7EC
:1038C00030E040E050E00E94DB2900918A00109136
:1038D0008B00C0911406D091150660910001709183
:1038E000010180910201909103010E94DB29C00F28
:1038F000D11F40914D0550914E05C40FD51FC61BD9
:10390000D70BD0938B00C0938A0070934E056093C1
:103910004D050EC020918A0030918B0080911406D5
:1039200090911506820F931F90938B0080938A00CD
:1039300010924B05E091E105F091E2050995809127
:103940007A0086FD0AC080917900805880932C040B
:1039500080917A00806480937A00FF91EF91DF91EB
:10396000CF91BF91AF919F918F917F916F915F9117
:103970004F913F912F911F910F910F900FBE0F907C
:103980001F9018951F920F920FB60F9211242F932C
:103990003F934F935F936F937F938F939F93AF93D7
:1039A000BF93EF93FF9380914F05813009F0BEC024
:1039B0008091220190912301A0912401B0912501D1
:1039C000892B8A2B8B2B09F476C08091260190914C
:1039D0002701892B09F4A6C1E0912A01F0912B015E
:1039E000E45DFE4F208180912A0190912B01019688
:1039F00090932B0180932A0180912A0190912B01B1
:103A00008115934020F010922B0110922A01809191
:103A10002601909127010197909327018093260119
:103A20008091220190912301A0912401B091250160
:103A30000197A109B1098093220190932301A093DA
:103A40002401B09325018FEF84B98091500585B989
:103A5000139A139840915005509151056091520569
:103A600070915305BB27A72F962F852F85B9149AE0
:103A70001498CB01AA27BB2787709927AA27BB27B1
:103A8000886888B925B980915405813029F44F5F41
:103A90005F4F6F4F7F4F04C0415051096109710959
:103AA0004093500550935105609352057093530510
:103AB0001198119A37C110924F051092B100809160
:103AC00070008B7F80937000209154058091500589
:103AD00090915105A0915205B0915305213099F470
:103AE0001092EA058093F2059093F305A093F405F4
:103AF000B093F5058093FA059093FB05A093FC0520
:103B0000B093FD050FC110920E0680931606909398
:103B10001706A0931806B093190680931E0690937B
:103B20001F06A0932006B0932106FCC0823009F046
:103B300098C080912601909127018115934008F04B
:103B4000F1C08091220190912301A0912401B091B4
:103B50002501892B8A2B8B2B09F470C0809150058D
:103B600085B9139A13984091500550915105609171
:103B7000520570915305BB27A72F962F852F85B926
:103B8000149A1498CB01AA27BB2787709927AA27D4
:103B9000BB27886888B914B8129880915405813081
:103BA00029F44F5F5F4F6F4F7F4F04C04150510961
:103BB0006109710940935005509351056093520576
:103BC0007093530583B1129A9FEF94B9E091280145
:103BD000F0912901E45DFE4F80838091280190914E
:103BE0002901019690932901809328018091280151
:103BF000909129018115934020F010922901109293
:103C00002801809126019091270101969093270128
:103C1000809326018091220190912301A09124019B
:103C2000B09125010197A109B109809322019093D8
:103C30002301A0932401B093250174C010924F0575
:103C40001092B100809170008B7F80937000809102
:103C50005405813019F41092EA0564C010920E06E2
:103C600061C0833009F05EC08091220190912301F0
:103C7000A0912401B0912501892B8A2B8B2B09F46B
:103C800046C08091260190912701892B09F44AC0F2
:103C9000E0912A01F0912B01E45DFE4F208180919B
:103CA0002A0190912B01019690932B0180932A0178
:103CB00080912A0190912B018115934020F0109260
:103CC0002B0110922A0180912601909127010197E2
:103CD00090932701809326018091220190912301E6
:103CE000A0912401B09125010197A109B109809308
:103CF000220190932301A0932401B09325012093E6
:103D00005505E091E105F091E20509950BC010928F
:103D10004F051092B100809170008B7F80937000EE
:103D200010925505FF91EF91BF91AF919F918F91A7
:103D30007F916F915F914F913F912F910F900FBEA7
:103D40000F901F9018951F920F920FB60F9211248B
:103D50008F939F939091400480915605891718F492
:103D60009FEF95B901C015B88F5F809356059F915D
:103D70008F910F900FBE0F901F9018951F920F926A
:103D80000FB60F9211240F900FBE0F901F90189531
:103D9000A89B0AC0A89A80912D0690912E060196A4
:103DA00090932E0680932D060895F999FECF2FB794
:103DB000F89492BD81BD60BDFA9AF99A2FBF12BCEA
:103DC00011BC0895F999FECF2FB7F89490E092BDF9
:103DD00081BDF89A2FBF12BC11BC80B508958091A7
:103DE000C000881F8827881F08958091C600089505
:103DF000809164008D7F809364008091C0008D7FEE
:103E00008093C00088E18093C10087E28093C40062
:103E100086E08093C2008091C00085FFFCCF02C085
:103E20008091C6000E94EF1E8111FACF089590E0A4
:103E300020912D0630912E06880F991FFC01EC531E
:103E4000FA4F31832083FC01E453FA4F718360837E
:103E5000089520912D0630912E0690E0880F991F2D
:103E6000FC01EC53FA4F40815181241B350BFC01BE
:103E7000E453FA4F81E0408151812417350708F45B
:103E800080E00895DC0180916106863008F590910C
:103E9000D80511962C91119734E0939FF0011124CD
:103EA000E05DF94F218312962C911297228313968D
:103EB0002C91139723832C9120839F5F963018F4C5
:103EC0009093D80502C01092D8058F5F8093610649
:103ED0000895DC0180916106882309F19091D40551
:103EE00024E0929FF0011124E05DF94F21811196A9
:103EF0002C931197228112962C931297238113965B
:103F00002C93139720812C939F5F963018F49093F5
:103F1000D40502C01092D4058150809361060895A3
:103F2000809162068630C8F49091D50534E0939F65
:103F3000F0011124E75BF94F6183428323832091D1
:103F40002F0620839F5F963018F49093D50502C00A
:103F50001092D5058F5F80936206089589E0809363
:103F6000D6051092D705109261061092D8051092CE
:103F7000D405109262061092D5051092D9050895C5
:103F80001F93CF93DF9300D000D0CDB7DEB787FF6C
:103F90002FC0982F9F7020912F06921721F03091FB
:103FA000480693139FC0807F803919F41092D6057C
:103FB00016C0803831F481E08093D605921315C085
:103FC00010C0803C11F482E008C0803E11F487E00C
:103FD00004C0803B09F086C083E08093D60592132D
:103FE00003C01092DA0581C081E08093DA057DC0BC
:103FF0001091D605143009F453C050F41130A1F1DA
:10400000C0F0123009F443C0133009F06BC044C053
:10401000173009F453C030F4153079F0163009F038
:1040200061C026C0183009F44DC0193009F05AC0DB
:104030005CC08093DB0585E056C09091DB05811163
:1040400005C082E08A839B831C8204C021E02A830E
:104050009B838C838091DA058983CE0101960E942F
:10406000421F1092D60541C08093DB0586E03BC01D
:1040700092E09A839091DB059B838C838091DA0593
:104080008983CE0101960E94421F81E02CC093E0FB
:104090009A838B831C821CC08093DB0584E023C041
:1040A0001A839091DB059B838C838091DA05898349
:1040B000CE0101960E94421F83E015C08093DB056C
:1040C00088E011C017E01A839091DB059B838C83F5
:1040D0008091DA058983CE0101960E94421F1093D8
:1040E000D60503C089E08093D6050F900F900F90FE
:1040F0000F90DF91CF911F910895809162068111F9
:1041000007C081E09091D705911103C080E0089528
:1041100081E008958091D705833009F487C030F499
:10412000813009F47BC008F07BC00CC0853009F4F5
:1041300084C008F47FC0863009F482C0873009F05B
:1041400086C080C0809162068823F9F09091D905DD
:1041500024E0929FF0011124E75BF94F2181209325
:10416000DD0522812093DE0523812093DF05208158
:104170002093DC059F5F963018F49093D90502C018
:104180001092D9058150809362069091DD0592309E
:10419000B1F020F4913009F05AC006C09330E9F034
:1041A000943009F054C029C08091DC0580692091C9
:1041B000E00528130FC08091DE0593E02CC08091AC
:1041C000DC0580692091E005281304C08091DE059C
:1041D00094E021C08093E0051EC08091DC05806CD6
:1041E0009091E005981305C08091DE051092D705E7
:1041F00008958093E00595E00EC08091DC05806B0A
:104200009091E005981304C08091DE0597E003C00B
:104210008093E00596E09093D705089583E001C070
:1042200084E08093D7058091DE0508951092D7052C
:1042300080E408951092D7050AC01092D705F3CFF5
:1042400087E0EFCF1092D7058091DF05089580E0D9
:1042500008958AB18F7C8AB98BB180638BB9109233
:10426000C900E4E6F0E08081806180830895E4E69F
:10427000F0E080818F7E8083ECECF0E01182108290
:10428000549A80EC8093CA0088E18093C90081E051
:1042900090E091838083559A5D9A08955D9A089580
:1042A0005D9A5D9808959091C80095FFFCCF80932A
:1042B000CE008091C80087FFFCCF8091CE0008958A
:1042C0008091C80080648093C8008FEF0E945321C2
:1042D0008091C80086FFFCCF0895DF92EF92FF9295
:1042E0000F931F93CF93DF93C82F042FF52EE62E45
:1042F000D72E0E9450218FEF0E945321C7FF31C05B
:1043000087E70E94532180E00E94532180E00E94B1
:10431000532180E00E94532180E00E94532181E0DC
:104320000E9453211AE08FEF0E945321D82F8F3F14
:1043300011F41150C1F79091C80090649093C80097
:104340008FEF0E9453218091C80086FFFCCFD230AE
:1043500018F00E944E2134C00E944E21CF770E9457
:1043600050218C2F80640E9453218D2D0E94532157
:104370008E2D0E9453218F2D0E945321802F0E9449
:104380005321CC2321F0C83021F081E003C085E91E
:1043900001C087E80E945321CC3019F48FEF0E94AE
:1043A00053211AE08FEF0E945321D82F8F3F11F431
:1043B0001150C1F7C83021F0CA3311F00E946021BA
:1043C0008D2FDF91CF911F910F91FF90EF90DF9094
:1043D0000895EF92FF920F931F93CF93DF9300D036
:1043E00000D01F92CDB7DEB70E944E2114E180911C
:1043F000C80080648093C8008FEF0E945321115041
:10440000B1F78091C80086FFFCCF0E94502100E0E8
:1044100012E08091C80080648093C8008FEF0E94F2
:10442000532101501109A9F78091C80086FFFCCFE4
:104430000E944E2140E050E0BA0180E00E946D21D0
:104440008091C80086FFFCCF0E944E2140E050E0E2
:10445000BA0180E00E946D21813011F080E0B1C08E
:104460000E944E214AEA51E060E070E088E00E943C
:104470006D21813009F06EC08E010F5F1F4F7E01EC
:1044800085E0E80EF11C8FEF0E945321F801819323
:104490008F01EE15FF05B9F70E9460210E944E21A1
:1044A0008B818130D9F68C818A3AC1F664EC74E054
:1044B00083E00E94171F04C00E944E210E94C81E64
:1044C00083E00E94291F882331F083E00E94291F86
:1044D000882381F0C3CF40E050E0BA0189EA0E940E
:1044E0006D218111E9CFF1CF0E9460210E94C81E89
:1044F0000E944E2183E00E94291F882331F083E02F
:104500000E94291F882351F0A9CF40E050E0BA0152
:104510008AE30E946D218111E7CFF1CF8FEF0E94D6
:1045200053218FEF0E9453218FEF0E9453218FEF71
:104530000E9453210E9460210E944E2140E052E0DF
:1045400060E070E080E10E946D210E944E210E9497
:10455000602136C00E9460210E944E2140E050E060
:10456000BA0189EA0E946D21823008F077CF0E945B
:104570004E2164EC74E083E00E94171F04C00E9487
:10458000C81E0E944E2183E00E94291F882331F01B
:1045900083E00E94291F811161CF09C040E050E0F3
:1045A000BA0189EA0E946D218111E9CFF1CF40E083
:1045B00052E060E070E080E10E946D210E944E2197
:1045C00081E08D830E944E218D810F900F900F907E
:1045D0000F900F90DF91CF911F910F91FF90EF906F
:1045E0000895AB01BC0189E0440F551F661F771F7A
:1045F0008A95D1F781E10E946D2191E0811190E0CF
:10460000892F0895AB01BC0199E0440F551F661F27
:10461000771F9A95D1F788E10E946D2191E0811171
:1046200090E0892F0895CF93DF93CDB7DEB7289719
:104630000FB6F894DEBF0FBECDBF1FEF109364001E
:1046400085B78F7E85BF8FEE87B988E088B980E80F
:104650008AB91BB896E092B99EE391B914B985B9AD
:10466000129A14B9159A15980E94372166E270E0E3
:1046700081E00E94171F3D98459A80B1807C80930D
:10468000BB0510926D0510926B051092AF0510924C
:10469000B00510925D051092AE0580E00E94E5081D
:1046A0000E94AE1F0E94F81E809164008E7F80934E
:1046B000640080E680937C0081E080937E0085E941
:1046C00080937A0080917A00806480937A00809150
:1046D00064008F7D8093640010926E0014BC16BC41
:1046E00015BB10922E0610922D0683E085BD809199
:1046F0006400877F8093640010926F008FEF9FEFBC
:10470000909389008093880090938B0080938A0017
:104710001092800010928100109285001092840007
:1047200016BB109257051092580510925905109219
:104730005A05789484E99EE09093E4058093E3051C
:1047400010925B05AA24AA94EE24E394F12C00E0D5
:1047500012E0F8E08F2EA7E07A2EBBE06B2E8EE001
:10476000B82E9DE0992E6E0129E0C20ED11C81E089
:104770000E94291F8823D9F09FB7F894A5B814B8D0
:1047800043980000000083B1809580935805439AB8
:10479000A4B89FBF359904C081E080935A0502C038
:1047A00010925A0566E270E081E00E94171F909116
:1047B00058058091BC058095892380935705809585
:1047C000892380936A059093BC0510926B05109223
:1047D000AF051092B00520912D0630912E068091E4
:1047E000BD059091BE052817390709F443C0809193
:1047F0002D0690912E069093BE058093BD0580B145
:10480000807C8093BB059091BF05891799F1811138
:1048100006C0903809F417C0903451F51FC0803499
:1048200031F4911101C00FC0903C11F517C0803CCC
:1048300031F4903409F407C09038D1F40FC08038B7
:10484000B9F4903C49F490916D05915090936D05A9
:1048500091E09093B0050AC091110AC090916D0546
:104860009F5F90936D0591E09093AF0590936B05DA
:104870008093BF050E94C81E8091AE058823E1F198
:1048800082E00E94291F8823B9F12091AE0530E013
:10489000F091C005E0915D0580E090E0B901082E3F
:1048A00002C0759567950A94E2F760FF0EC0B701E4
:1048B000082E02C0660F771F0A94E2F7AB01FF23B0
:1048C00011F0E62B02C04095E42301968830910553
:1048D00029F7E0935D0581E09091C005911180E09A
:1048E0008093C00568E970E082E00E94171F809104
:1048F0005D050E94E5080BC050905D058091C105E3
:10490000851529F0852D0E94E5085092C1059091EA
:104910005A0580915905911106C0882309F417C5DD
:104920000E94470F14C5863009F48DC280F482308E
:1049300009F40EC130F48823E9F0813009F007C58D
:1049400022C0843009F4F4C108F034C26DC18A3049
:1049500009F4B0C330F4883009F411C308F024C35B
:10496000D3C28C3009F48AC408F43DC48D3009F0F8
:10497000EEC4A7C481E08093590564EC74E083E041
:104980000E94171FE4C483E00E94291F882309F4B2
:10499000DEC41092BA051092B7050E94E921813059
:1049A00009F0D4C060E070E0CB010E94F1228130B8
:1049B00009F08FC06AE770E083E00E94171F02C011
:1049C0000E94C81E83E00E94291F882331F04424DE
:1049D0004394512C4C0E5D1E06C08FEF0E94532154
:1049E0008E3F71F7F4CF8FEF0E945321F201819334
:1049F0002F01EC15FD05B9F78981873509F034C021
:104A00008A81843589F58B81803571F58C8181347B
:104A100059F58D81833561F48E81813429F58F813B
:104A20008D3411F53324339488858035F1F01CC022
:104A3000843461F48E818035B9F48F818334A1F49C
:104A400088858D3489F462E0362E0FC0823461F49B
:104A50008E818F3449F48F818F3431F48885843589
:104A600019F453E0352E01C0312C48E0442E512C6E
:104A70008FEF0E945321F1E04F1A5108C9F721E04E
:104A8000321214C03EE6432E35E0532E8FEF0E94C3
:104A90005321F20181932F01FEEA4F16F5E05F06E4
:104AA000A9F722EB422E552453940BC090E4492ED3
:104AB000512C8FEF0E94532121E0421A5108C9F76F
:104AC000F0CF8FEF0E94532131E0431A5108C9F70C
:104AD00001C0312C8091C80086FFFCCF0E944E217E
:104AE0008FEF0E94532141E0341219C0B092590552
:104AF000809164008F7B8093640082E08093B0009B
:104B00001092B1001092B20081E78093B300A7BA6F
:104B10001092700010924F051092550518C452E083
:104B2000351609F414C48FE080935905EEE6F5E0DC
:104B3000119265E0EE3AF607D9F782E291E190939F
:104B4000E4058093E30510925B0501C48FE091C3F7
:104B50002FB7F894809126019091270181159240FA
:104B6000A0F4809126019091270140911E0150915F
:104B70001F016091200170912101A0E0B0E0841735
:104B80009507A607B70708F45CC12FBF6091B10570
:104B90007091B2058091B3059091B4050E940223F3
:104BA000813009F0BDCE1093C3050093C2058FEF8D
:104BB0000E9453218FEF0E9453218EEF0E945321B8
:104BC00080911E0190911F01A0912001B0912101BF
:104BD0008B2F0E94532160911E0170911F018091C3
:104BE0002001909121010E94532180911E019091FA
:104BF0001F01A0912001B0912101892F0E94532112
:104C000080911E0190911F01A0912001B09121017E
:104C10000E9453218091C2059091C30504979093FF
:104C2000C3058093C2050BC14090C2055090C305D7
:104C300081E44816510418F080E4482E512C312CA0
:104C400056C080911E0190911F01A0912001B0914A
:104C50002101892B8A2B8B2BE9F1E0912A01F0911C
:104C60002B01E45DFE4F80810E94532180911E0143
:104C700090911F01A0912001B09121010197A109FC
:104C8000B10980931E0190931F01A0932001B0935E
:104C9000210180912A0190912B01019690932B0183
:104CA00080932A0180912A0190912B0181159340D4
:104CB00020F010922B0110922A012FB7F8948091C6
:104CC0002601909127010197909327018093260157
:104CD0002FBF03C08FEF0E9453218091C205909196
:104CE000C30501979093C3058093C2053394832D28
:104CF00090E08415950508F4A4CF8091C2059091A9
:104D0000C305892B09F023C38FEF0E9453218FEF36
:104D10000E9453218FEF0E9453218F71853009F03B
:104D2000FFCD62E672E083E00E94171F84E0A1C21B
:104D300083E00E94291F8111F3CDB4E05B2E8FEF39
:104D40000E9453218F3F09F41EC35A94C1F7FFC23A
:104D50008091C80086FFFCCF80911E0190911F01B9
:104D6000A0912001B0912101892B8A2B8B2B11F06E
:104D700085E07FC24090630550906405C2010E94A7
:104D8000EE0881112DC2F201A3E0F695E795AA95F0
:104D9000E1F7FF27E259FA4F27E042225524A70105
:104DA00002C0440F551F4A94E2F78081842B808310
:104DB00086E05FC22FB7F894809126019091270179
:104DC0008115924098F4809126019091270140919D
:104DD0001E0150911F016091200170912101A0E0FE
:104DE000B0E084179507A607B70758F12FBF2091A9
:104DF000B5053091B6052F5F3F4F3093B605209330
:104E0000B5056091B1057091B2058091B30590919F
:104E1000B405620F731F811D911D0E940223813012
:104E200009F07ECD1093C3050093C2058FEF0E9459
:104E300053218FEF0E9453218EEF0E94532183E074
:104E400018C22FBF84C260E070E0CB010E94022331
:104E5000813009F065CD1093C3050093C2058FEF33
:104E60000E9453218FEF0E9453218EEF0E94532105
:104E700087E50E94532184E50E94532180E50E942A
:104E8000532181E40E94532183E50E94532181E450
:104E90000E9453218DE40E94532180E50E945321FA
:104EA0008091C2059091C30508979093C3058093A4
:104EB000C205E8E05E2E88E70E9453215A94D9F794
:104EC0008091C2059091C30508979093C305809384
:104ED000C2057EE6472E75E0572EF20181912F0123
:104EE0000E945321FEEA4F16F5E05F06B1F780916C
:104EF000C2059091C305805491099093C305809396
:104F0000C2057092590523C24090C2055090C30556
:104F100021E44216510418F060E4462E512C312C45
:104F20000DC08FEF0E9453218091C2059091C3055F
:104F300001979093C3058093C2053394832D90E02D
:104F40008415950570F38091C2059091C305892B56
:104F500009F0FDC18FEF0E9453218FEF0E94532172
:104F60008FEF0E9453218F71853009F0D9CC62E612
:104F700072E083E00E94171F80925905E8C183E028
:104F80000E94291F8111CCCC54E0552E8FEF0E9436
:104F900053218F3F09F4FDC15A94C1F7D8C18091C4
:104FA000C80086FFFCCF1CC183E00E94291F81112D
:104FB000B7CC44E0542E8FEF0E9453218F3F19F459
:104FC0005A94C9F7C4C18E3F09F0AACC1093C30507
:104FD0000093C2058FEF0E94532190E0A0E0B0E063
:104FE000B82FAA279927882780931E0190931F0125
:104FF000A0932001B093210120901E0130901F0149
:1050000040902001509021018FEF0E945321B20166
:10501000A101682B40931E0150931F016093200152
:105020007093210120901E0130901F0140902001BB
:10503000509021018FEF0E945321A2019101382B42
:1050400020931E0130931F014093200150932101B2
:1050500020901E0130901F014090200150902101AE
:105060008FEF0E945321B201A101482BDB01CA013D
:1050700080931E0190931F01A0932001B093210102
:1050800080911E0190911F01A0912001B0912101FA
:105090008093220190932301A0932401B0932501D2
:1050A0008091C2059091C30504979093C3058093A6
:1050B000C205FAC08091B705813009F4FDC0409067
:1050C000C2055090C30551E44516510418F020E480
:1050D000422E512C312C55C08FEF0E94532120912C
:1050E000C2053091C305215031093093C305209387
:1050F000C20540911E0150911F01609120017091E5
:105100002101452B462B472BD9F140911E0150918F
:105110001F016091200170912101415051096109E5
:10512000710940931E0150931F01609320017093F9
:105130002101E0912801F0912901E45DFE4F808377
:1051400080912801909129010196909329018093E3
:10515000280180912801909129018115934020F028
:1051600010922901109228012FB7F89480912601FE
:1051700090912701019690932701809326012FBFDC
:105180003394832D90E08415950508F4A5CF809184
:10519000C2059091C305892B09F0D9C08FEF0E94F9
:1051A00053218FEF0E9453218091C80086FFFCCFCE
:1051B0000E944E218FEF0E945321609259058091E9
:1051C0001E0190911F01A0912001B0912101892B16
:1051D0008A2B8B2B09F0BBC08091C80086FFFCCFC7
:1051E000B0925905B4C0EFB7F894209126013091E0
:1051F000270180E093E0AC01421B530B9A0121157B
:105200003240A8F4209126013091270140911E01DF
:1052100050911F016091200170912101821B930B1D
:10522000A0E0B0E084179507A607B70728F1EFBF05
:105230002091B5053091B6052F5F3F4F3093B605ED
:105240002093B5056091B1057091B2058091B305C9
:105250009091B405620F731F811D911D0E94F12270
:10526000813009F05DCB6AE770E083E00E94171F90
:105270008CE0809359056BC0EFBF69C083E00E944A
:10528000291F81114DCB94E0592E8FEF0E9453219D
:105290008F3F19F45A94C9F75AC08E3F09F040CB9A
:1052A0001093C3050093C2058AE08093590580914D
:1052B000B705813009F04BC0909259051092B7059F
:1052C00046C04090C2055090C30561E446165104A3
:1052D00018F080E4482E512C312C0DC08FEF0E9425
:1052E00053218091C2059091C30501979093C30506
:1052F0008093C2053394832D90E08415950570F357
:105300008091C2059091C305892B09F58FEF0E940A
:1053100053218FEF0E9453218091C80086FFFCCF5C
:105320000E944E218FEF0E9453218091C80086FF7A
:10533000FCCFB09259058091BA05813041F41092AA
:10534000BA058091B8059091B9050E9495110E9407
:1053500019090E94EF1E882321F00E94F51E0E9469
:10536000C01F0E947D20882341F08091C00085FFEE
:1053700004C00E948A208093C600E091E305F0916A
:10538000E4050995F4C90E944E218FEF0E94532134
:10539000DFCC0E944E218FEF0E94532100CE991B3B
:1053A00079E004C0991F961708F0961B881F7A951C
:1053B000C9F780950895A1E21A2EAA1BBB1BFD0117
:1053C0000DC0AA1FBB1FEE1FFF1FA217B307E407E4
:1053D000F50720F0A21BB30BE40BF50B661F771F3C
:1053E000881F991F1A9469F760957095809590951C
:1053F0009B01AC01BD01CF010895EE0FFF1F059089
:10540000F491E02D0994A29FB001B39FC001A39F26
:1054100001D0B29F700D811D1124911D08950E942D
:10542000032AA59F900DB49F900DA49F800D911D00
:0854300011240895F894FFCF48
:10543800EFBE00003C3CFFFFA1F111E444D72FCBA5
:0E544800C8BF04B5DBAA44A13798AC8F9C877F
:00000001FF
