:100000000C945A000C9477000C9477000C947700B1
:100010000C9477000C9477000C9456090C9477009C
:100020000C9477000C94A50C0C94D00A0C947700D7
:100030000C940F090C949E090C94370A0C947700C9
:100040000C9477000C9477000C9477000C94770054
:100050000C9477000C9477000C9477000C94770044
:100060000C9477000C9477000C9477000C94770034
:100070000C9477000C9477000C9477006D22F52493
:10008000F524F524F524F5249422F524F524F5240B
:10009000F524E022122337235C2383239E23B323FA
:1000A000BA23CC23E8230F242224352448246D24AA
:1000B0008324992411241FBECFEFD0E1DEBFCDBF32
:1000C00011E0A0E0B1E0E0EAF7E502C005900D9292
:1000D000AE31B107D9F716E0AEE1B1E001C01D9233
:1000E000A236B107E1F70E9490160C94CE2B0C9427
:1000F000C00C8091E6058330C9F0843030F4813043
:1001000059F0823009F08EC00EC0843009F48CC0E2
:10011000853009F087C00DC2409138014F5F409390
:1001200038014150A3C340915802F1C18FEF84B907
:100130008091050690910606A0910706B0910806E9
:1001400085B9139A13988091050690910606A0919F
:100150000706B0910806892F9A2FAB2FBB2785B9C8
:10016000149A14988091050690910606A0910706AE
:10017000B0910806CD01AA27BB278770886888B987
:100180008091580285B98091050690910606A0914C
:100190000706B09108060196A11DB11D80930506C2
:1001A00090930606A0930706B09308068091050673
:1001B00090910606A0910706B09108068093F2057B
:1001C0009093F305A093F405B093F505809105068F
:1001D00090910606A0910706B09108068093FA0553
:1001E0009093FB05A093FC05B093FD052091F205CB
:1001F0003091F3054091F4055091F5058091150675
:1002000090911606A0911706B09118062817390785
:100210004A075B0728F01092E60581E080934201CF
:100220001198119A40E022C380910506909106062C
:10023000A0910706B091080685B9139A139880918A
:10024000050690910606A0910706B0910806892F31
:100250009A2FAB2FBB2785B9149A14988091050665
:1002600090910606A0910706B0910806CD01AA2735
:10027000BB278770886888B914B812988091EC05FC
:10028000882309F46CC08091500190915101A09194
:100290005201B09153010097A105B10539F1809148
:1002A000050690910606A0910706B09108060196F2
:1002B000A11DB11D8093050690930606A093070625
:1002C000B09308068091500190915101A091520184
:1002D000B09153010197A109B10980935001909306
:1002E0005101A0935201B09353010DC18091480177
:1002F00090914901A0914A01B0914B018093500126
:1003000090935101A0935201B09353018091460103
:100310008F5F80934601909146018091EC0598177C
:1003200011F410924601E09146012091480130916C
:10033000490140914A0150914B01F0E0E85AFE4FCB
:10034000608170E080E090E00E945A2B6093050687
:10035000709306068093070690930806D4C0809198
:10036000EA05882309F062C020910506309106064F
:1003700040910706509108068091FE059091FF0577
:10038000A0910006B0910106281739074A075B07BC
:1003900029F48091E705813009F461C020910506B8
:1003A0003091060640910706509108068091FE059F
:1003B0009091FF05A0910006B0910106281739071A
:1003C0004A075B0749F48091FA059091FB05A091DB
:1003D000FC05B091FD058FC0209105063091060601
:1003E00040910706509108068091F6059091F70517
:1003F000A091F805B091F905281739074A075B075E
:1004000049F48091F2059091F305A091F405B09123
:10041000F50571C08091050690910606A09107062A
:10042000B09108060197A109B10965C020910506A0
:100430003091060640910706509108068091FA0512
:100440009091FB05A091FC05B091FD052817390797
:100450004A075B0749F48091E705813029F410923F
:10046000E6051092EF054FC0209105063091060673
:1004700040910706509108068091FA059091FB057E
:10048000A091FC05B091FD05281739074A075B07C5
:1004900049F48091FE059091FF05A0910006B0916E
:1004A000010629C0209105063091060640910706F5
:1004B000509108068091F2059091F305A091F40502
:1004C000B091F505281739074A075B0749F4809171
:1004D000F6059091F705A091F805B091F9050BC0CC
:1004E0008091050690910606A0910706B091080636
:1004F0000196A11DB11D8093050690930606A09359
:100500000706B093080643B1129A8FEF84B9809121
:10051000EE05882309F4AAC140582091EE058FEF1B
:1005200090E002C0880F991F2A95E2F748234058AF
:100530009DC18091050690910606A0910706B09195
:10054000080685B9139A13988091050690910606BE
:10055000A0910706B0910806892F9A2FAB2FBB27D1
:1005600085B9149A14988091050690910606A09179
:100570000706B0910806CD01AA27BB2787708868B7
:1005800088B914B812988091EC05882309F46CC0DE
:100590008091500190915101A0915201B09153016D
:1005A0000097A105B10539F18091050690910606E5
:1005B000A0910706B09108060196A11DB11D809378
:1005C000050690930606A0930706B093080680914F
:1005D000500190915101A0915201B09153010197A6
:1005E000A109B1098093500190935101A093520148
:1005F000B09353010DC18091480190914901A091A0
:100600004A01B0914B018093500190935101A09306
:100610005201B0935301809146018F5F8093460150
:10062000909146018091EC05981711F410924601C3
:10063000E0914601209148013091490140914A01E1
:1006400050914B01F0E0E85AFE4F608170E080E08D
:1006500090E00E945A2B60930506709306068093E3
:10066000070690930806D4C08091EA05882309F014
:1006700062C0209105063091060640910706509110
:1006800008068091FE059091FF05A0910006B091AB
:100690000106281739074A075B0729F48091E70507
:1006A000813009F461C02091050630910606409121
:1006B0000706509108068091FE059091FF05A091D4
:1006C0000006B0910106281739074A075B0749F46D
:1006D0008091FA059091FB05A091FC05B091FD0574
:1006E0008FC0209105063091060640910706509173
:1006F00008068091F6059091F705A091F805B09154
:10070000F905281739074A075B0749F48091F20574
:100710009091F305A091F405B091F50571C0809119
:10072000050690910606A0910706B091080601976C
:10073000A109B10965C020910506309106064091D6
:100740000706509108068091FA059091FB05A0914B
:10075000FC05B091FD05281739074A075B0749F4E6
:100760008091E705813029F41092E6051092EF059B
:100770004FC0209105063091060640910706509122
:1007800008068091FA059091FB05A091FC05B091B7
:10079000FD05281739074A075B0749F48091FE05D4
:1007A0009091FF05A0910006B091010629C020910B
:1007B0000506309106064091070650910806809183
:1007C000F2059091F305A091F405B091F505281775
:1007D00039074A075B0749F48091F6059091F705C0
:1007E000A091F805B091F9050BC080910506909194
:1007F0000606A0910706B09108060196A11DB11D3D
:100800008093050690930606A0930706B09308060A
:1008100043B1129A8FEF84B98091EE05882361F07D
:1008200040582091EE058FEF90E002C0880F991F8D
:100830002A95E2F74823405880915802242F332705
:1008400027FD3095992787FD9095280F391F8FEF49
:100850002038380714F420E83FEFC901203831056B
:1008600014F08FE790E085B91198119A842F0895BC
:10087000809109068330C9F0843030F4813059F01A
:10088000823009F08EC00EC0843009F48CC08530EF
:1008900009F087C015C2409134014F5F4093340185
:1008A0004150B3C340915802F9C18FEF84B9809190
:1008B000280690912906A0912A06B0912B0685B9A9
:1008C000139A13988091280690912906A0912A06E0
:1008D000B0912B06892F9A2FAB2FBB2785B9149A7D
:1008E00014988091280690912906A0912A06B0912B
:1008F0002B06CD01AA27BB278770886888B980910D
:10090000580285B98091280690912906A0912A065F
:10091000B0912B060197A109B10980932806909305
:100920002906A0932A06B0932B0680912806909161
:100930002906A0912A06B0912B0680931506909364
:100940001606A0931706B09318068091280690917A
:100950002906A0912A06B0912B0680931D0690933C
:100960001E06A0931F06B09320062091F205309139
:10097000F3054091F4055091F5058091150690918D
:100980001606A0911706B0911806281739074A07CE
:100990005B0728F01092090681E0809342011198CC
:1009A000119A40E032C38091280690912906A091C7
:1009B0002A06B0912B0685B9139A139880912806C0
:1009C00090912906A0912A06B0912B06892F9A2F83
:1009D000AB2FBB2785B9149A149880912806909163
:1009E0002906A0912A06B0912B06CD01AA27BB2784
:1009F0008770886888B914B8129880910F06882388
:100A000009F474C08091540190915501A091560150
:100A1000B09157010097A105B10539F180912806E1
:100A200090912906A0912A06B0912B060197A10961
:100A3000B1098093280690932906A0932A06B093C3
:100A40002B068091540190915501A0915601B091CF
:100A500057010197A109B109809354019093550161
:100A6000A0935601B093570115C180914C0190910C
:100A70004D01A0914E01B0914F018093540190938C
:100A80005501A0935601B0935701809147018F5FA4
:100A9000809347019091470180910F06981711F4B8
:100AA00010924701E091470120914C0130914D0196
:100AB00040914E0150914F01F0E0E852FE4F6081AD
:100AC00070E080E090E00E945A2B2FEF3FEF47E06C
:100AD00050E0261B370B480B590B20932806309308
:100AE000290640932A0650932B06D4C080910D0608
:100AF000882309F062C02091280630912906409190
:100B00002A0650912B068091210690912206A091F1
:100B10002306B0912406281739074A075B0729F4F2
:100B200080910A06813009F461C020912806309135
:100B3000290640912A0650912B068091210690911A
:100B40002206A0912306B0912406281739074A07E8
:100B50005B0749F480911D0690911E06A0911F0627
:100B6000B09120068FC0209128063091290640912F
:100B70002A0650912B068091190690911A06A09191
:100B80001B06B0911C06281739074A075B0749F472
:100B90008091150690911606A0911706B09118063F
:100BA00071C08091280690912906A0912A06B091E3
:100BB0002B060196A11DB11D65C02091280630911C
:100BC000290640912A0650912B0680911D0690918E
:100BD0001E06A0911F06B0912006281739074A0764
:100BE0005B0749F480910A06813029F410920906C6
:100BF000109212064FC0209128063091290640918C
:100C00002A0650912B0680911D0690911E06A091F8
:100C10001F06B0912006281739074A075B0749F4D9
:100C20008091210690912206A0912306B09124067E
:100C300029C0209128063091290640912A0650911A
:100C40002B068091150690911606A0911706B0917B
:100C50001806281739074A075B0749F480911906D7
:100C600090911A06A0911B06B0911C060BC08091B2
:100C7000280690912906A0912A06B0912B0601978B
:100C8000A109B1098093280690932906A0932A060A
:100C9000B0932B0643B1129A8FEF84B9809111065D
:100CA000882309F4B2C14058209111068FEF90E0DB
:100CB00002C0880F991F2A95E2F748234058A5C122
:100CC0008091280690912906A0912A06B0912B06C2
:100CD00085B9139A13988091280690912906A091BE
:100CE0002A06B0912B06892F9A2FAB2FBB2785B9E7
:100CF000149A14988091280690912906A0912A06AA
:100D0000B0912B06CD01AA27BB278770886888B9C8
:100D100014B8129880910F06882309F474C080914A
:100D2000540190915501A0915601B091570100973F
:100D3000A105B10539F18091280690912906A0916D
:100D40002A06B0912B060197A109B10980932806C4
:100D500090932906A0932A06B0932B068091540104
:100D600090915501A0915601B09157010197A109A9
:100D7000B1098093540190935501A0935601B0930B
:100D8000570115C180914C0190914D01A0914E01E8
:100D9000B0914F018093540190935501A093560157
:100DA000B0935701809147018F5F809347019091E5
:100DB000470180910F06981711F410924701E091B6
:100DC000470120914C0130914D0140914E015091CD
:100DD0004F01F0E0E852FE4F608170E080E090E06B
:100DE0000E945A2B2FEF3FEF47E050E0261B370BB6
:100DF000480B590B209328063093290640932A0666
:100E000050932B06D4C080910D06882309F062C050
:100E1000209128063091290640912A0650912B06F0
:100E20008091210690912206A0912306B09124067C
:100E3000281739074A075B0729F480910A06813091
:100E400009F461C0209128063091290640912A06B4
:100E500050912B068091210690912206A0912306A5
:100E6000B0912406281739074A075B0749F4809197
:100E70001D0690911E06A0911F06B09120068FC0FE
:100E8000209128063091290640912A0650912B0680
:100E90008091190690911A06A0911B06B0911C062C
:100EA000281739074A075B0749F480911506909186
:100EB0001606A0911706B091180671C080912806F9
:100EC00090912906A0912A06B0912B060196A11DAA
:100ED000B11D65C0209128063091290640912A064F
:100EE00050912B0680911D0690911E06A0911F0621
:100EF000B0912006281739074A075B0749F480910B
:100F00000A06813029F410920906109212064FC089
:100F1000209128063091290640912A0650912B06EF
:100F200080911D0690911E06A0911F06B09120068B
:100F3000281739074A075B0749F4809121069091E9
:100F40002206A0912306B091240629C020912806EC
:100F50003091290640912A0650912B068091150662
:100F600090911606A0911706B09118062817390718
:100F70004A075B0749F48091190690911A06A091DF
:100F80001B06B0911C060BC0809128069091290683
:100F9000A0912A06B0912B060197A109B10980936F
:100FA000280690932906A0932A06B0932B0643B1F6
:100FB000129A8FEF84B980911106882361F040580E
:100FC000209111068FEF90E002C0880F991F2A959B
:100FD000E2F74823405880915802242F332727FDF9
:100FE0003095992787FD9095280F391F8FEF20386E
:100FF000380714F420E83FEFC9012038310514F018
:101000008FE790E085B91198119A842F0895809107
:10101000BD05682F772767FD70958091BB059927DF
:1010200087FD9095680F791F8FEF6038780714F46B
:1010300060E87FEF8091BE05282F332727FD30958C
:101040008091BC05992787FD9095280F391F8FEF58
:101050002138380714F421E83FEFA9012038310581
:1010600014F04FE750E09B016038710514F02FE752
:1010700030E0429FC001439F900D529F900D11247C
:1010800060E470E00E94852B60588091C00568176D
:1010900029F08FEF84B965B9159A15986093C0054A
:1010A00008958091BC05282F332727FD3095809126
:1010B000BB05992787FD9095280F391F8091BD05A5
:1010C000992787FD9095280F391F8091BE05992794
:1010D00087FD9095280F391F8091BF05992787FDBF
:1010E0009095280F391F8FEF2038380714F420E827
:1010F0003FEFC9012038310514F08FE790E0982FB9
:1011000090588091C005981729F08FEF84B995B950
:10111000159A15989093C00508958091BD05482FA4
:10112000552747FD50958091BB05992787FD9095E0
:10113000480F591F8FEF4038580714F440E85FEF0D
:101140008091BE05282F332727FD30958091BC055F
:10115000992787FD9095280F391F8FEF2038380782
:1011600014F420E83FEF2038310514F02FE730E089
:10117000CA014038510514F08FE790E0922F98276C
:101180008091C005981729F08FEF84B995B9159A09
:1011900015989093C00508958091BD05482F552757
:1011A00047FD50958091BB05992787FD9095480F85
:1011B000591F8FEF4038580714F440E85FEF8091D3
:1011C000BE05282F332727FD30958091BC05992730
:1011D00087FD9095280F391F8FEF2038380714F4BA
:1011E00020E83FEFC9012038310514F08FE790E087
:1011F000282F2058CA014038510514F08FE790E09D
:10120000982F905892238091C005981729F08FEF5E
:1012100084B995B9159A15989093C00508951F92B1
:101220000F920FB60F9211242F933F934F935F931A
:101230006F937F938F939F93AF93BF93EF93FF939E
:101240008091E805882341F08091E805882341F0EA
:1012500080913A01882321F00E9479008093BB0598
:1012600010923A01E091E205F091E3050995809131
:101270007A0086FD0AC080917900805880935802D8
:1012800080917A00806480937A00FF91EF91BF9102
:10129000AF919F918F917F916F915F914F913F910E
:1012A0002F910F900FBE0F901F9018951F920F92C5
:1012B0000FB60F9211242F933F934F935F936F9329
:1012C0007F938F939F93AF93BF93EF93FF938091FF
:1012D0000B06882341F080910B06882341F0809112
:1012E0003901882321F00E9438048093BC051092B4
:1012F0003901E091E205F091E305099580917A00CA
:1013000086FD0AC0809179008058809358028091B0
:101310007A00806480937A00DA9AFF91EF91BF910E
:10132000AF919F918F917F916F915F914F913F917D
:101330002F910F900FBE0F901F9018951F920F9234
:101340000FB60F921124EF92FF920F931F932F93DA
:101350003F934F935F936F937F938F939F93AF933D
:10136000BF93EF93FF938091E805882341F080912C
:10137000E805882341F080913501882321F00E94FF
:1013800079008093BD058091ED058823C1F12091FE
:10139000ED056091F0057091F10580E090E030E09E
:1013A00040E050E00E945A2B2FE730E040E050E050
:1013B0000E94982BE0908800F09089000091F00541
:1013C0001091F1056091000170910101809102017D
:1013D000909103010E94982B0E0D1F1D2091360144
:1013E00030913701020F131F061B170B1093890052
:1013F0000093880070933701609336010EC02091EE
:101400008800309189008091F0059091F105820F5C
:10141000931F909389008093880010923501E0918A
:10142000E205F091E305099580917A0086FD0AC0F6
:101430008091790080588093580280917A0080646E
:1014400080937A00FF91EF91BF91AF919F918F911F
:101450007F916F915F914F913F912F911F910F91CC
:10146000FF90EF900F900FBE0F901F9018951F9256
:101470000F920FB60F921124EF92FF920F931F93CA
:101480002F933F934F935F936F937F938F939F938C
:10149000AF93BF93EF93FF9380910B06882341F0A6
:1014A00080910B06882341F080913101882321F03F
:1014B0000E9438048093BE05809110068823C1F1F4
:1014C00020911006609113067091140680E090E060
:1014D00030E040E050E00E945A2B2FE730E040E03F
:1014E00050E00E94982BE0908A00F0908B000091D1
:1014F0001306109114066091000170910101809112
:101500000201909103010E94982B0E0D1F1D209146
:10151000320130913301020F131F061B170B10937A
:101520008B0000938A0070933301609332010EC0E8
:1015300020918A0030918B008091130690911406BF
:10154000820F931F90938B0080938A001092310139
:10155000E091E205F091E305099580917A0086FD1E
:101560000AC08091790080588093580280917A0057
:10157000806480937A00FF91EF91BF91AF919F912A
:101580008F917F916F915F914F913F912F911F911B
:101590000F91FF90EF900F900FBE0F901F90189536
:1015A0001F920F920FB60F9211242F933F934F93D8
:1015B0005F936F937F938F939F93AF93BF93EF93BB
:1015C000FF938091B505813009F0B9C08091A905DC
:1015D0009091AA05A091AB05B091AC050097A1052B
:1015E000B10509F471C080919E0590919F05892BEA
:1015F00009F49AC1E0919A05F0919B05E656FD4FDA
:10160000E08180919A0590919B05019690939B05AE
:1016100080939A0580919A0590919B058050934004
:1016200020F010929B0510929A0580919E05909152
:101630009F05019790939F0580939E058091A90532
:101640009091AA05A091AB05B091AC050197A109B5
:10165000B1098093A9059093AA05A093AB05B09317
:10166000AC058FEF84B92091B6053091B705409154
:10167000B8055091B90525B9139A1398BB27A52F22
:10168000942F832F85B9149A1498CA01AA27BB27CF
:101690008770886888B9E5B98091BA05813029F4E6
:1016A0002F5F3F4F4F4F5F4F04C0215030404040AD
:1016B00050402093B6053093B7054093B80550933A
:1016C000B9051198119A30C11092B5051092B10068
:1016D000809170008B7F809370008091BA0520917B
:1016E000B6053091B7054091B8055091B9058130E4
:1016F00099F41092EB052093F2053093F305409393
:10170000F4055093F5052093FA053093FB054093BB
:10171000FC055093FD0508C110920E062093150696
:1017200030931606409317065093180620931D0613
:1017300030931E0640931F0650932006F5C082305A
:1017400009F091C080919E0590919F058050934033
:1017500008F0EAC08091A9059091AA05A091AB0577
:10176000B091AC056091BA050097A105B10509F4E7
:1017700069C02091B6053091B7054091B8055091E8
:10178000B90525B9139A1398BB27A52F942F832F3A
:1017900085B9149A1498CA01AA27BB27877088684C
:1017A00088B914B81298613029F42F5F3F4F4F4F1A
:1017B0005F4F04C021503040404050402093B60558
:1017C0003093B7054093B8055093B90593B1129A79
:1017D0008FEF84B9E0919C05F0919D05E656FD4F91
:1017E000908380919C0590919D05019690939D0515
:1017F00080939C0580919C0590919D05805093401D
:1018000020F010929D0510929C0580919E0590916C
:101810009F05019690939F0580939E058091A90551
:101820009091AA05A091AB05B091AC050197A109D3
:10183000B1098093A9059093AA05A093AB05B09335
:10184000AC0572C01092B5051092B1008091700085
:101850008B7F80937000613019F41092EB0564C0A7
:1018600010920E0661C0833009F05EC08091A90518
:101870009091AA05A091AB05B091AC050097A10588
:10188000B10509F446C080919E0590919F05892B72
:1018900009F44AC0E0919A05F0919B05E656FD4F88
:1018A000E08180919A0590919B05019690939B050C
:1018B00080939A0580919A0590919B058050934062
:1018C00020F010929B0510929A0580919E059091B0
:1018D0009F05019790939F0580939E058091A90590
:1018E0009091AA05A091AB05B091AC050197A10913
:1018F000B1098093A9059093AA05A093AB05B09375
:10190000AC05E093BF05E091E205F091E305099590
:101910000BC01092B5051092B100809170008B7FC2
:10192000809370001092BF05FF91EF91BF91AF912E
:101930009F918F917F916F915F914F913F912F91E7
:101940000F900FBE0F901F9018951F920F920FB619
:101950000F9211248F939F9380913D0190913001BC
:10196000981718F48FEF85B901C015B89F5F909351
:1019700030019F918F910F900FBE0F901F9018957F
:101980001F920F920FB60F9211240F900FBE0F905F
:101990001F901895A89B0AC0A89A80912C06909138
:1019A0002D06019690932D0680932C060895782F8E
:1019B000282F30E083E290E0289FF001299FF00D6E
:1019C000389FF00D1124EA51FA4F6187623039F5E2
:1019D00053874287772379F4809184009091850022
:1019E000840F951F9093890080938800B19A80910D
:1019F0006F0082600EC08091840090918500840FFA
:101A0000951F90938B0080938A00B29A80916F000B
:101A1000846080936F0081E080938100089561303D
:101A2000A9F4772361F48091810080648093810020
:101A3000B59A80916F00806280936F000895DA9A62
:101A400084E08093680080E180936D000895FF92A8
:101A50000F931F93782F282F30E083E290E0289F88
:101A6000F001299FF00D389FF00D1124EA51FA4F33
:101A70008581882331F08091B5058150823008F44A
:101A800048C0FFB6F89483E290E0289F8001299F28
:101A9000100D389F100D11240A511A4F83E0F801E0
:101AA000808380899189A289B389878F90A3A1A31C
:101AB000B2A380899189A289B38984879587A687F3
:101AC000B78780899189A289B389808F918FA28FEE
:101AD000B38F80899189A289B389848B958BA68BDA
:101AE000B78B168E10924201872F0E94D70C81E08F
:101AF000F8018583FFBE80917A0086FD0AC080913F
:101B0000790080588093580280917A008064809395
:101B10007A001F910F91FF9008951F93CF93DF9349
:101B2000282FC82FD0E083E290E0C89FF001C99F22
:101B3000F00DD89FF00D1124EA51FA4F85818823CA
:101B400029F08091B50581508230B8F11FB7F89423
:101B500083E290E0C89FF001C99FF00DD89FF00D7F
:101B60001124EA51FA4F84E080838381882351F065
:101B700084899589A689B789878F90A3A1A3B2A3E9
:101B800014820AC0808D918DA28DB38D878F90A312
:101B9000A1A3B2A381E08483822F0E94D70C83E2A9
:101BA00090E0C89FF001C99FF00DD89FF00D11245F
:101BB000EA51FA4F81E085831FBFDF91CF911F91DA
:101BC0000895FF920F931F93782F282F30E083E220
:101BD00090E0289FF001299FF00D389FF00D11240F
:101BE000EA51FA4F8581882329F08091B50581500B
:101BF0008230B8F0FFB6F89483E290E0289F80012D
:101C0000299F100D389F100D11240A511A4F84E09E
:101C1000F8018083872F0E94D70C81E0F80185832B
:101C2000FFBE1F910F91FF900895FF920F931F9396
:101C3000782F282F30E083E290E0289FF001299F41
:101C4000F00D389FF00D1124EA51FA4F8581882359
:101C500029F08091B5058150823028F1FFB6F894C3
:101C600083E290E0289F8001299F100D389F100D7E
:101C700011240A511A4F85E0F8018083872F0E94B2
:101C8000D70C81E0F8018583FFBE80917A0086FD44
:101C90000AC08091790080588093580280917A0020
:101CA000806480937A001F910F91FF9008951F9395
:101CB0001FB7F894E82FF0E023E230E0DF01A29FA5
:101CC000F001A39FF00DB29FF00D1124EA51FA4FDD
:101CD00092E090830E94D70C1FBF80917A0086FD0E
:101CE0000AC08091790080588093580280917A00D0
:101CF000806480937A001F910895282F6CE00E94E1
:101D0000792BE92FF0E0EE0FFF1FEA5FFE4F822FE5
:101D10000E94792B2081318102C0369527958A95C2
:101D2000E2F7C90108952F923F924F925F926F920E
:101D30007F928F929F92AF92BF92CF92DF92EF925B
:101D4000FF920F931F93DF93CF9300D00F92CDB7E5
:101D5000DEB7282E623008F4F2C08FB78983F8947A
:101D6000862E90E8961710F430E8832E622C7724A4
:101D7000D301B695BA2FAA27B795A795A85ABE4FF3
:101D8000BB83AA83FD0180E081938F5F8815E0F318
:101D9000E0900001F0900101009102011091030117
:101DA0009924A82CBB24CC24DD2423015694542C44
:101DB000442457944794EA81FB813080EE0CFF1C49
:101DC000001F111F17FF08C085EB95E9AAEAB0E2D2
:101DD000E826F9260A271B27C801B701A6019501A5
:101DE0000E94982BF201E60FF11DE85AFE4F808108
:101DF000AA81BB818D93BB83AA833082939498146C
:101E0000D0F2E0920001F0920101009302011093E0
:101E100003012220B9F46091F2057091F3058091DD
:101E2000F4059091F505A60195010E94982BC90132
:101E3000DA018093480190934901A0934A01B0933D
:101E40004B011EC0209115063091160640911706D1
:101E5000509118066FEF7FEF87E090E0621B730BE5
:101E6000840B950BA60195010E94982BC901DA01FC
:101E700080934C0190934D01A0934E01B0934F017C
:101E800083E290E0689EF001699EF00D789EF00D6F
:101E90001124EA51FA4F8682F301EA5BFE4F108269
:101EA000F301EE0FFF1FEE0FFF1FDF01A85BBE4F18
:101EB0008D919D910D90BC91A02DE05BFE4F808394
:101EC0009183A283B3832220C1F4209148013091F1
:101ED000490140914A0150914B016091580170E0D5
:101EE00080E090E00E945A2B6093050670930606EE
:101EF00080930706909308061FC020914C013091F3
:101F00004D0140914E0150914F016091D80170E018
:101F100080E090E00E945A2B2FEF3FEF47E050E027
:101F2000261B370B480B590B2093280630932906A4
:101F300040932A0650932B06B981BFBF0EC0282FAD
:101F400030E083E290E0289FF001299FF00D389F58
:101F5000F00D1124EA51FA4F16820F900F900F9056
:101F6000CF91DF911F910F91FF90EF90DF90CF9075
:101F7000BF90AF909F908F907F906F905F904F90A9
:101F80003F902F9008952F923F924F925F926F92C1
:101F90007F928F929F92AF92BF92CF92DF92EF92F9
:101FA000FF920F931F93DF93CF930F92CDB7DEB7BE
:101FB0009FB79983F894882309F0F4C1A090F205A3
:101FC000B090F305C090F405D090F50573E0AA0C2D
:101FD000BB1CCC1CDD1C7A95D1F7AB2CBC2CCD2CBA
:101FE000DD24609102062091040670E0620F711DED
:101FF00080E090E0A60195010E945A2B53E096954F
:102000008795779567955A95D1F76093FE057093FC
:10201000FF0580930006909301062090F205309012
:10202000F3054090F4055090F5056090030620916B
:10203000040630E040E050E0C601B5010E945A2B92
:102040007B018C0143E016950795F794E7944A9538
:10205000D1F7E20CF31C041D151D77248824992464
:10206000C601B501A40193010E945A2B33E0969555
:102070008795779567953A95D1F7E61AF70A080B91
:10208000190BE092FA05F092FB050093FC05109302
:10209000FD052091FE053091FF054091000650910D
:1020A00001068091FA059091FB05A091FC05B09185
:1020B000FD0582179307A407B50750F58091E90540
:1020C000813019F48093EA0502C01092EA0520914C
:1020D000FE053091FF054091000650910106809168
:1020E000FA059091FB05A091FC05B091FD05809348
:1020F000FE059093FF05A0930006B0930106209380
:10210000FA053093FB054093FC055093FD050AC08A
:102110008091E905813019F41092EA0503C081E04D
:102120008093EA052091FE053091FF05409100065D
:10213000509101068091F2059091F305A091F4056C
:10214000B091F50582179307A407B507E0F48091D5
:10215000FE059091FF05A0910006B0910106209127
:10216000F2053091F3054091F4055091F505821B7D
:10217000930BA40BB50B8093FE059093FF05A093E2
:102180000006B09301062091FA053091FB054091BD
:10219000FC055091FD058091F2059091F305A09109
:1021A000F405B091F50582179307A407B50708F069
:1021B00044C08091FA059091FB05A091FC05B09177
:1021C000FD052091F2053091F3054091F405509101
:1021D000F505821B930BA40BB50B8093FA05909326
:1021E000FB05A093FC05B093FD052091FA05309105
:1021F000FB054091FC055091FD058091FE059091F5
:10220000FF05A0910006B0910106281739074A077B
:102210005B0799F48091FA059091FB05A091FC056C
:10222000B091FD050197A109B1098093FA0590933A
:10223000FB05A093FC05B093FD052091FE053091B0
:10224000FF0540910006509101068091FA0590919A
:10225000FB05A091FC05B091FD0582179307A4072B
:10226000B50708F05AC02091050630910606409146
:102270000706509108068091FE059091FF05A091F8
:102280000006B0910106281739074A075B0708F0D6
:1022900094C22091050630910606409107065091A0
:1022A00008068091FA059091FB05A091FC05B0917C
:1022B000FD0582179307A407B50708F07EC2209199
:1022C000FE053091FF054091000650910106A09057
:1022D0000506B0900606C0900706D09008068091CB
:1022E000050690910606A0910706B0910806E090B9
:1022F000FA05F090FB050091FC051091FD052A19E7
:102300003B094C095D098E199F09A00BB10B2817D9
:1023100039074A075B07A8F115C0209105063091DF
:10232000060640910706509108068091FE0590919F
:10233000FF05A0910006B0910106281739074A074A
:102340005B0748F48091FE059091FF05A09100067F
:10235000B09101061EC020910506309106064091FD
:102360000706509108068091FA059091FB05A0910F
:10237000FC05B091FD0582179307A407B50708F087
:102380001CC28091FA059091FB05A091FC05B091CB
:10239000FD058093050690930606A0930706B0936B
:1023A00008060BC28091150690911606A09117069B
:1023B000B09118062FEFE22E2FEFF22E27E0022F1A
:1023C000112D57016801A81AB90ACA0ADB0AA3E04D
:1023D000AA0CBB1CCC1CDD1CAA95D1F7AB2CBC2CC9
:1023E000CD2CDD24609125062091270670E0620F38
:1023F000711D80E090E0A60195010E945A2BE3E058
:102400009695879577956795EA95D1F7E61AF70A35
:10241000080B190BE0922106F09222060093230686
:10242000109324062090150630901606409017064B
:1024300050901806209126066090270630E040E074
:1024400050E0C601B5010E945A2B7B018C0153E07C
:1024500016950795F794E7945A95D1F7E20CF31C7B
:10246000041D151D772488249924C601B501A401F3
:1024700093010E945A2B43E096958795779567952F
:102480004A95D1F7E61AF70A080B190BE0921D06D8
:10249000F0921E0600931F0610932006209121063D
:1024A00030912206409123065091240680911D060A
:1024B00090911E06A0911F06B0912006281739079B
:1024C0004A075B0750F580910C06813019F4809320
:1024D0000D0602C010920D062091210630912206B1
:1024E000409123065091240680911D0690911E066E
:1024F000A0911F06B091200680932106909322069A
:10250000A0932306B093240620931D0630931E0645
:1025100040931F06509320060AC080910C0681301C
:1025200019F410920D0603C081E080930D062091EE
:102530002106309122064091230650912406809175
:10254000150690911606A0911706B0911806281747
:1025500039074A075B0700F5809121069091220612
:10256000A0912306B09124062091150630911606FD
:10257000409117065091180681509040A84FBF4FC8
:10258000821B930BA40BB50B80932106909322061C
:10259000A0932306B093240620911D0630911E06B9
:1025A00040911F06509120068091150690911606C5
:1025B000A0911706B0911806281739074A075B073C
:1025C00008F048C080911D0690911E06A0911F063C
:1025D000B0912006209115063091160640911706FD
:1025E0005091180681509040A84FBF4F821B930B0B
:1025F000A40BB50B80931D0690931E06A0931F0697
:10260000B093200620911D0630911E0640911F06B2
:10261000509120068091210690912206A0912306D8
:10262000B0912406281739074A075B0799F480916F
:102630001D0690911E06A0911F06B09120060196DE
:10264000A11DB11D80931D0690931E06A0931F0629
:10265000B093200620912106309122064091230656
:102660005091240680911D0690911E06A0911F0690
:10267000B0912006281739074A075B0708F05AC0AF
:10268000209128063091290640912A0650912B0668
:102690008091210690912206A0912306B0912406F4
:1026A00082179307A407B50708F087C02091280672
:1026B0003091290640912A0650912B0680911D06E3
:1026C00090911E06A0911F06B09120062817390789
:1026D0004A075B0708F071C020912806309129064F
:1026E00040912A0650912B06A0902106B090220618
:1026F000C0902306D090240680911D0690911E065E
:10270000A0911F06B0912006E0902806F0902906BF
:1027100000912A0610912B062A193B094C095D09E4
:102720008E199F09A00BB10B82179307A407B50759
:10273000A0F115C0209128063091290640912A0663
:1027400050912B068091210690912206A09123069C
:10275000B091240682179307A407B50748F4809127
:10276000210690912206A0912306B09124061DC057
:10277000209128063091290640912A0650912B0677
:1027800080911D0690911E06A0911F06B091200613
:10279000281739074A075B0780F480911D0690913E
:1027A0001E06A0911F06B0912006809328069093E4
:1027B0002906A0932A06B0932B06E981EFBF0F905C
:1027C000CF91DF911F910F91FF90EF90DF90CF900D
:1027D000BF90AF909F908F907F906F905F904F9041
:1027E0003F902F900895A82F80913C01682F70E0B2
:1027F00050913B0120E030E0E1E0F0E0CB01022E1F
:1028000002C0959587950A94E2F780FF09C0CF0131
:10281000022E02C0880F991F0A94E2F78095582370
:102820002F5F3F4F2830310549F750933B01A0936C
:102830003C0182E068E970E00E94712608951092E0
:102840003B0180E090E00E94F313089580914101E4
:10285000882381F40E941F141092E6051092EF0560
:10286000109209061092120681E890E00E94F3137C
:1028700081E013C0813009F580913E0180FF10C0D6
:1028800087FF0EC086E0809359020E941F1480913A
:102890003B01816880933B0182E080934101089570
:1028A00080915902882331F583E095E19093E50505
:1028B0008093E4051092410108958230D9F480910B
:1028C00059028E30B9F40E941F1480913B0182603E
:1028D00080933B0180915902882321F080913F0130
:1028E000882341F083E095E19093E5058093E4052A
:1028F00010924101089580914101882341F40E9482
:102900001F1480EC90E00E94F31381E019C0813025
:10291000D1F4F8948093E6058093EF0580E061E0C0
:1029200040E050E00E94D70C81E598E09093E305E9
:102930008093E20578948091440180932F0182E096
:10294000809341010895823009F05CC080913F017D
:10295000282F80FF06C080913B0191E0892780935A
:102960003B0121FF06C080913B0192E089278093C3
:102970003B0122FF06C080913B0194E089278093B0
:102980003B0123FF06C080913B0198E0892780939B
:102990003B0124FF06C080913B0190E18927809391
:1029A0003B0125FF06C080913B0190E2892780937F
:1029B0003B0126FF0AC080E090E00E94F313809163
:1029C0003B0190E4892780933B0180913F0187FF81
:1029D00009C080E090E00E94F31380913B01805891
:1029E00080933B0190912F0180914401981751F001
:1029F00080E090E00E94F3138091440180933B01BA
:102A000080932F0108951F9310914101112369F4C0
:102A10000E941F141092260110923B0181E08093C6
:102A2000410180E061E371E06AC0113041F480E06F
:102A30000E948326882309F491C082E07BC0123073
:102A400009F04AC0809126018830F8F480E00E94A5
:102A50008326882309F482C081E090E0009026015B
:102A600002C0880F991F0A94E2F720913B01282B9E
:102A700020933B0180E06DE370E00E94712680911D
:102A800026018F5F8093260169C080E00E94832623
:102A9000882309F463C080E068E970E00E94712631
:102AA0009FEF90933D01809164008F7B8093640041
:102AB0001093B00081E08093B1001092B20080E8E2
:102AC0008093B30097BB1093700082B1866082B987
:102AD00094B95F9A83E02EC0133079F580E00E94AC
:102AE00083268823D9F180913D01823058F080916E
:102AF0003D01825080933D0180E064E070E00E94DF
:102B000071262CC0109270001092B0001092B1008B
:102B10008091640080648093640015B85F980E947F
:102B20001F1481E180933B0180E062E672E00E9425
:102B3000712684E08093410111C0143079F480E063
:102B40000E948326882351F00E941F1480EB95E198
:102B50009093E5058093E405109241011F9108953B
:102B600080914101882341F468E970E00E94712658
:102B700081E080934101089580E00E9483268823AC
:102B8000D1F080913E0180FF03C08BE794E104C047
:102B900085FF09C083ED95E29093E5058093E405F8
:102BA00010924101089583E99DE19093E50580939A
:102BB000E405109241010895DF92EF92FF920F9386
:102BC0001F93DFB6F894382F330F330F20E02F5FB9
:102BD0003F4F790100E010E0C801B7010E94212AAF
:102BE000813019F5E092A505F092A6050093A7059E
:102BF0001093A8051092B4051092B30510929B058E
:102C000010929A0510929D0510929C0510929F05B6
:102C100010929E0583E06AE770E00E94712689E0C9
:102C200080935902DFBE81E002C0DFBE80E01F91C9
:102C30000F91FF90EF90DF9008950F931F93982FBF
:102C4000809159028E30B9F41FB7F894CB010E94DD
:102C5000DC1581E090E0A0E0B0E08093A9059093BE
:102C6000AA05A093AB05B093AC059FB7F89483E099
:102C70008093B5051CC00091B505033009F04DC027
:102C80008B3039F51FB7F894CB010E94DC1581E039
:102C900090E0A0E0B0E08093A9059093AA05A093EE
:102CA000AB05B093AC059FB7F8940093B5051092AF
:102CB000B20081E78093B3008FEF87BB80917000F3
:102CC00084608093700082E08093B1009FBF1FBF3B
:102CD00024C08D3021F08091A405813039F4909387
:102CE000A0057093A2056093A10517C09093A0055D
:102CF0007093A2056093A10581E08093A305809362
:102D0000A4059FB7F89410929F0510929E0580919C
:102D100070008B7F809370009FBF1F910F9108956B
:102D20002F923F924F925F926F927F928F929F92DB
:102D3000AF92BF92CF92DF92EF92FF920F931F93C9
:102D4000CF93DF931FEF1093640085B78F7E85BF0D
:102D50008FEE87B988E088B990E89AB91BB886E009
:102D600082B98EE381B914B995B9129A14B9159A3A
:102D700015980E94CB2881E066E270E00E947126DF
:102D80003D98459A80B1807C809343011092440124
:102D900010923B0110923C018FB7F89415B814B90A
:102DA0005F9A5F988FBF0E941D270E9452268091D4
:102DB00064008E7F8093640080E680937C0081E0D5
:102DC00080937E0085E980937A0080917A00806408
:102DD00080937A00809164008F7D809364001092CC
:102DE0006E0014BC16BC15BB10922D0610922C065A
:102DF00083E085BD80916400877F8093640010929A
:102E00006F008FEF9FEF90938900809388009093DD
:102E10008B0080938A0010928000109281001092A3
:102E200085001092840016BB10923F0110923E0163
:102E30001092590210924001789483E095E19093AA
:102E4000E5058093E4051092410199249A9401E0EC
:102E5000A02EB12CC12C12E0D12EBEE08B2EADE005
:102E60003A2EFAE02F2EE5EB4E2EE5E95E2EEAEA49
:102E70006E2EE0E27E2E81E00E9483268823D9F028
:102E80009FB7F89495B814B843980000000083B138
:102E9000809580933E01439A94B89FBF359904C0B2
:102EA00081E08093400102C01092400181E066E21F
:102EB00070E00E94712680911E01809590913E01E4
:102EC000892380933F0190931E0120912C0630911D
:102ED0002D0680911F019091200128173907C1F11B
:102EE00080912C0690912D069093200180931F01D4
:102EF00080B1807C8093430190912101891741F139
:102F0000882329F49038A9F09034F1F418C0803463
:102F100029F4992371F0903CB9F411C0803C29F454
:102F2000903439F0903881F40AC0803869F4903CCC
:102F300021F480914401815005C0992329F48091A6
:102F400044018F5F8093440180914301809321016C
:102F50000E94CA0C80913C01882309F449C082E098
:102F60000E948326882309F443C040E050E080910A
:102F70003C0190E0042E02C0959587950A94E2F7F3
:102F800080FF1AC08091230120913B01882349F0E2
:102F9000C501042E02C0880F991F0A94E2F7282B5E
:102FA00009C0C501042E02C0880F991F0A94E2F7D8
:102FB0008095282320933B014F5F5F4F4830510598
:102FC000B1F690E080912301882309F491E0909379
:102FD000230182E068E970E00E94712680913B0144
:102FE0009FB7F89485B994B85F9A5F989FBF11C056
:102FF00090913B0180912201891759F08FB7F89485
:1030000095B994B85F9A5F988FBF80913B01809388
:1030100022018091400190915902882321F4992343
:1030200009F419C5CFC4963009F46DC2973090F4F5
:10303000923009F4D8C0933030F4992309F19130DB
:1030400009F009C526C0943009F4C5C1953008F0CF
:103050000EC23EC19A3009F4A4C39B3038F49830B4
:1030600009F4DBC2993008F0FCC29DC29C3009F41F
:103070007DC49C3008F42CC49D3009F0ECC4A5C478
:1030800081E08093590283E064EC74E00E94712631
:10309000E2C483E00E948326882309F4DCC41092F2
:1030A000A3051092A4050E94452A813009F097C01B
:1030B00060E070E080E090E00E94212A813011F011
:1030C00010E056C083E06AE770E00E94712602C0FB
:1030D0000E94CA0C83E00E948326882329F48FEF84
:1030E0000E94E7288E3FA1F78FEF0E94E728082F64
:1030F0008FEF0E94E728843511F010E004C010E043
:10310000073509F411E08FEF0E94E728803509F0B8
:1031100010E08FEF0E94E728813409F010E0C0E052
:10312000D0E08FEF0E94E7282196CC30D105C9F777
:10313000113059F4CAE5D2E08FEF0E94E728899355
:1031400022E0CA39D207C1F709C0C0E0D0E08FEF52
:103150000E94E7282196C034D105C9F7C0E0D0E02D
:103160008FEF0E94E728219631E0C23BD307C1F7D9
:103170008091C80086FFFCCF0E94E2288FEF0E945A
:10318000E7281130C9F480925902809164008F7B46
:103190008093640082E08093B0001092B10010929E
:1031A000B20081E78093B30097BA1092700010923A
:1031B000B5051092BF054FC49FE090935902EAE510
:1031C000F2E0119222E0EA39F207D9F786E294E1BF
:1031D0009093E5058093E405109241013CC49FE083
:1031E0009093590238C46FB7F89480919E059091DE
:1031F0009F0580509240A0F480919E0590919F057C
:103200002091AD053091AE054091AF055091B005CC
:10321000A0E0B0E082179307A407B50708F4A4C3A1
:103220006FBF6091A5057091A6058091A70590914B
:10323000A8050E94332A813009F0C4C3D092250129
:10324000C09224018FEF0E94E7288FEF0E94E728A9
:103250008EEF0E94E7288091AD059091AE05A09178
:10326000AF05B091B0058B2F9927AA27BB270E94E5
:10327000E7288091AD059091AE05A091AF05B09182
:10328000B005CD01AA27BB270E94E7288091AD0594
:103290009091AE05A091AF05B091B005892F9A2FFE
:1032A000AB2FBB270E94E7288091AD059091AE051A
:1032B000A091AF05B091B0050E94E728809124014C
:1032C000909125010497909325018093240117C1C3
:1032D000C0912401D0912501C134D10510F0C0E482
:1032E000D0E010E057C08091AD059091AE05A0915F
:1032F000AF05B091B0050097A105B10509F43DC037
:10330000E0919A05F0919B05E656FD4F80810E9461
:10331000E7288091AD059091AE05A091AF05B091E1
:10332000B0050197A109B1098093AD059093AE0551
:10333000A093AF05B093B00580919A0590919B053D
:10334000019690939B0580939A0580919A059091A0
:103350009B058050934020F010929B0510929A0597
:103360002FB7F89480919E0590919F0501979093B7
:103370009F0580939E052FBF03C08FEF0E94E72813
:1033800080912401909125010197909325018093CC
:1033900024011F5F812F90E08C179D0708F4A3CFB5
:1033A0008091240190912501892B09F054C38FEF5E
:1033B0000E94E7288FEF0E94E7288FEF0E94E728FE
:1033C0008F71853009F0FEC283E062E672E00E94F0
:1033D000712624E085C383E00E948326882309F0B8
:1033E000F1C28FEF0E94E7288F3F09F47CC38FEF73
:1033F0000E94E7288F3F09F476C38FEF0E94E728E9
:103400008F3F09F470C38FEF0E94E7288F3F09F0C8
:1034100022C369C38091C80086FFFCCF8091AD05AF
:103420009091AE05A091AF05B091B0050097A105B0
:10343000B10511F035E0EEC02091B1053091B20533
:10344000C90143E0969587954A95E1F7E82FF0E0AA
:10345000E65AFD4F30812770832F90E0022E02C084
:10346000959587950A94E2F780FF31C32EC26FB716
:10347000F89480919E0590919F0580509240A0F411
:1034800080919E0590919F052091AD053091AE05EC
:103490004091AF055091B005A0E0B0E082179307CE
:1034A000A407B50708F460C26FBF6091B3057091BF
:1034B000B4056F5F7F4F7093B4056093B30580E0F0
:1034C00090E02091A5053091A6054091A705509167
:1034D000A805620F731F841F951F0E94332A813035
:1034E00009F070C2D0922501C09224018FEF0E9492
:1034F000E7288FEF0E94E7288EEF0E94E72883E0FD
:1035000080935902A8C260E070E080E090E00E94E1
:10351000332A813009F056C2D0922501C09224018D
:103520008FEF0E94E7288FEF0E94E7288EEF0E941E
:10353000E72887E50E94E72884E50E94E72880E5E0
:103540000E94E72881E40E94E7288091240190915D
:1035500025010497909325018093240110E088E7CA
:103560000E94E7281F5F1C30D1F7809124019091C1
:1035700025010C979093250180932401CAE5D2E0A0
:1035800089910E94E728F2E0CA39DF07C9F78091E4
:1035900024019091250180549040909325018093BF
:1035A000240127E09DC2C0912401D0912501C1349E
:1035B000D10510F0C0E4D0E010E00DC08FEF0E9404
:1035C000E72880912401909125010197909325018E
:1035D000809324011F5F812F90E08C179D0770F36B
:1035E0008091240190912501892B09F034C28FEF3D
:1035F0000E94E7288FEF0E94E7288FEF0E94E728BC
:103600008F71853009F0DEC183E062E672E00E94CE
:10361000712638E0309359021EC283E00E9483264F
:10362000882309F0CFC18FEF0E94E7288F3F09F46C
:1036300060C28FEF0E94E7288F3F09F45AC28FEFD4
:103640000E94E7288F3F09F454C28FEF0E94E728B9
:103650008F3F09F000C24DC28091C80086FFFCCFA9
:1036600034C183E00E948326882309F0ABC18FEF29
:103670000E94E7288F3F69F40E94E7288F3F49F4B2
:103680000E94E7288F3F29F40E94E7288F3F09F422
:10369000E2C18E3F09F093C1D0922501C09224016E
:1036A0008FEF0E94E72890E0A0E0B0E0B82FAA27B3
:1036B000992788278093AD059093AE05A093AF0519
:1036C000B093B005E090AD05F090AE050091AF0568
:1036D0001091B0058FEF0E94E72890E0A0E0B0E0E5
:1036E000DC01992788278E299F29A02BB12B809355
:1036F000AD059093AE05A093AF05B093B005E090F3
:10370000AD05F090AE050091AF051091B0058FEFBB
:103710000E94E72890E0A0E0B0E0BA2FA92F982FF0
:1037200088278E299F29A02BB12B8093AD059093DC
:10373000AE05A093AF05B093B005E090AD05F09055
:10374000AE050091AF051091B0058FEF0E94E728FC
:1037500090E0A0E0B0E08E299F29A02BB12B8093B0
:10376000AD059093AE05A093AF05B093B0058091E1
:10377000AD059091AE05A091AF05B091B0058093D5
:10378000A9059093AA05A093AB05B093AC058091D1
:1037900024019091250104979093250180932401A1
:1037A00002C18091A405813009F404C1C0912401B3
:1037B000D0912501C134D10510F0C0E4D0E010E073
:1037C00054C08FEF0E94E728282F80912401909108
:1037D0002501019790932501809324018091AD05E7
:1037E0009091AE05A091AF05B091B0050097A105ED
:1037F000B105D1F18091AD059091AE05A091AF05D5
:10380000B091B0050197A109B1098093AD059093DE
:10381000AE05A093AF05B093B005E0919C05F09183
:103820009D05E656FD4F208380919C0590919D0556
:10383000019690939D0580939C0580919C059091A5
:103840009D058050934020F010929D0510929C059C
:103850002FB7F89480919E0590919F0501969093C3
:103860009F0580939E052FBF1F5F812F90E08C17CF
:103870009D0708F4A6CF8091240190912501892B02
:1038800009F0E9C08FEF0E94E7288FEF0E94E72838
:103890008091C80086FFFCCF0E94E2288FEF0E9433
:1038A000E728FBE0F09359028091AD059091AE05B9
:1038B000A091AF05B091B0050097A105B10509F041
:1038C000CAC08091C80086FFFCCF80925902C3C055
:1038D0006FB7F89480919E0590919F0520E033E0AA
:1038E000281B390BC90180509240C0F480919E057D
:1038F00090919F052091AD053091AE054091AF05A7
:103900005091B005E0E0F3E0E81BF90BCF01A0E037
:10391000B0E082179307A407B50730F16FBF60913D
:10392000B3057091B4056F5F7F4F7093B4056093DA
:10393000B30580E090E02091A5053091A605409167
:10394000A7055091A805620F731F841F951F0E9441
:10395000212A8130B9F583E06AE770E00E94712680
:10396000FCE0F093590277C06FBF75C083E00E94FE
:103970008326882339F58FEF0E94E7288F3F69F46B
:103980000E94E7288F3F49F40E94E7288F3F29F4DF
:103990000E94E7288F3F09F45EC08E3F81F4D092E9
:1039A0002501C0922401209259028091A405813002
:1039B00009F051C0309259021092A4054CC08F3FBB
:1039C00009F449C01092590246C0C0912401D09117
:1039D0002501C134D10510F0C0E4D0E010E00DC0E5
:1039E0008FEF0E94E7288091240190912501019793
:1039F00090932501809324011F5F812F90E08C1705
:103A00009D0770F38091240190912501892B19F570
:103A10008FEF0E94E7288FEF0E94E7288091C8006F
:103A200086FFFCCF0E94E2288FEF0E94E72880915A
:103A3000C80086FFFCCF809259028091A305813097
:103A400051F41092A3056091A1057091A205809197
:103A5000A0050E941D168091000190910101A09186
:103A60000201B0910301880F991FAA1FBB1F809309
:103A7000000190930101A0930201B0930301B7FFED
:103A80000CC084259525A625B72580930001909329
:103A90000101A0930201B09303010E9449268823EB
:103AA00021F00E944F260E942F270E94042888237D
:103AB00041F08091C00085FF04C00E940F288093D0
:103AC000C600E091E405F091E5050995D4C9C5016A
:103AD00002C0880F991F2A95E2F7382B308326E021
:103AE00020935902B8CF0E94E2288FEF0E94E72866
:103AF00091CC0E94E2288FEF0E94E728ADCD1F9362
:103B0000182F882311F484E005C0813011F080E083
:103B100008C088E00E943B26803118F0812F1111E7
:103B200081E01F910895CF92DF92EF92FF920F9361
:103B30001F93CF93DF9380914101882309F08BC0BD
:103B40000E947F1D80932E0681E00E947F1D80933E
:103B500047061092F6051092F7051092F80510929C
:103B6000F9058FEF9FEFA7E0B0E0809319069093DF
:103B70001A06A0931B06B0931C0601EC15E0C0E0EA
:103B8000D0E0E3E2CE2ED12CEE24E394CC9DF001E4
:103B9000CD9DF00DDC9DF00D1124EA51FA4F1082FD
:103BA000118611821086178216821282E482138295
:103BB00080899189A289B389878F90A3A1A3B2A399
:103BC00080899189A289B38984879587A687B787D9
:103BD000DE01A85DBE4F1C921582109227012FB7FF
:103BE000F89480899189A289B389808F918FA28F5F
:103BF000B38F84859585A685B785848B958BA68B99
:103C0000B78B148E158E168E2FBFCC2311F487E040
:103C100001C08BE00E943B268A3508F080E3F80162
:103C2000808311820E947D0EF801819391938F0110
:103C30002196C230D10509F0A9CF81E598E0909393
:103C4000E3058093E20510922E010E941F1481E08B
:103C500080934101CAC6813009F0C7C6809127010F
:103C600090913E01882309F02EC3292F30E095FF63
:103C70002CC1B9016870707093FF04C080913F013E
:103C800084FD0AC080913F0190E0AC014870507003
:103C900083FF4DC024FF4BC081E598E09093E3057E
:103CA0008093E20580912E012FB7F89490E043E2D3
:103CB00050E0849FF001859FF00D949FF00D11243A
:103CC000EA51FA4F80899189A289B389808F918FB7
:103CD000A28FB38F84859585A685B785848B958BB8
:103CE000A68BB78B148E158E168E2FBF80912E014A
:103CF000282F30E0249FF001259FF00D349FF00D18
:103D00001124EA51FA4F108617821682128213820A
:103D100091E0948311821092270164E042E120E057
:103D20000E94F72680912E0164E04BE120C1672BB1
:103D300051F120FD04C026703070232B21F081E06A
:103D40008093270134C3452B09F431C340912E01E0
:103D5000842F90E023E230E0829FF001839FF00DFA
:103D6000929FF00D1124EA51FA4F8281882331F499
:103D700081E08283842F64E040E14DC11282842F70
:103D800064E040E1F4C024FF35C082FF0CC08091A4
:103D90002E0161E040E050E00E94570E80912E011C
:103DA00064E04EE0FEC084FF02C340912E01842FE8
:103DB00090E023E230E0829FF001839FF00D929F1C
:103DC000F00D1124EA51FA4F8381882339F481E000
:103DD0008383842F64E041E120E405C01382842FB3
:103DE00064E041E120E00E94F72680912E010E94CC
:103DF000C30FDDC280FF16C080912E01682F70E0D6
:103E00002091450143E250E0649FF001659FF00D71
:103E1000749FF00D1124EA51FA4F208764E043E1CA
:103E20000E94F72680913F0181FF10C060914401FC
:103E3000669580912E010E94930E20914401269553
:103E400080912E0164E044E10E94F72680913F01B9
:103E500082FFADC220914501213099F0213030F030
:103E60002230D9F0233009F0A2C223C081E598E0C6
:103E70009093E3058093E20580912E0164E046E192
:103E800044C287E098E09093E3058093E205809137
:103E90002E0164E046E121E038C28CEC98E090937A
:103EA000E3058093E20580912E0164E046E122E083
:103EB0002CC28DE898E09093E3058093E205809111
:103EC0002E0164E046E123E020C290913F0190FF83
:103ED00024C020912E01822F90E0C3E2D0E08C9F7D
:103EE000F0018D9FF00D9C9FF00D1124EA51FA4FC7
:103EF0008081833039F4822F61E040E050E00E94FD
:103F00008D0D79C0822F61E040E050E00E94270DC6
:103F100080912E0164E043E044C091FF44C0609171
:103F20002E01862F90E0C3E2D0E08C9FF0018D9FA0
:103F3000F00D9C9FF00D1124EA51FA4F80818530DD
:103F4000C1F4862F61E040E050E00E94E10D8091D5
:103F50002E01282F30E02C9FF0012D9FF00D3C9F6B
:103F6000F00D1124EA51FA4F118264E049E020E09B
:103F7000CCC1208931894289538984859585A6855C
:103F8000B785281739074A075B0709F410C2862F3F
:103F900061E040E050E00E94150E80912E0164E047
:103FA00049E020E3B2C192FF3EC060912E01862F0E
:103FB00090E0C3E2D0E08C9FF0018D9FF00D9C9FBC
:103FC000F00D1124EA51FA4F8081882331F52089C0
:103FD00031894289538984859585A685B7852817B7
:103FE00039074A075B0709F4E2C1862F61E040E028
:103FF00050E00E94E10D80912E01282F30E02C9F8F
:10400000F0012D9FF00D3C9FF00D1124EA51FA4F65
:10401000118261E040E320E478C110821186862F8E
:1040200062E040E3A4CF94FF0BC080912E018F5F2C
:1040300080932E01823008F4BAC110922E01B7C1CC
:1040400096FFDAC060912E01809159028E3009F0FE
:10405000AEC1C62FD0E083E290E0C89FF001C99FB7
:10406000F00DD89FF00D1124EA51FA4F8581882375
:1040700009F09DC1662389F48681882349F4248947
:10408000358946895789808D918DA28DB38D10C059
:1040900024853585468557851CC08681882369F42B
:1040A000208D318D428D538D84899589A689B7895C
:1040B0002F5F3F4F4F4F5F4F08C0208931894289A2
:1040C000538984859585A685B785281B390B4A0BAE
:1040D0005B0B1FB7F8947FB7F8941092B20510925B
:1040E000B10581E090E0A0E0B0E08093A505909359
:1040F000A605A093A705B093A8051092B405109249
:10410000B30510929B0510929A0510929D0510928E
:104110009C0510929F0510929E052D3FFFEF3F07D3
:10412000F7E04F07F0E05F0748F42093A9053093CC
:10413000AA054093AB055093AC050CC08CEF9FEFE4
:10414000A7E0B0E08093A9059093AA05A093AB05E2
:10415000B093AC058091A9059091AA05A091AB05FB
:10416000B091AC058093AD059093AE05A093AF05DB
:10417000B093B00582E0809359027FBF2FB7F894C7
:104180008093B50583E290E0C89FF001C99FF00DD0
:10419000D89FF00D1124EA51FA4F81E08583662300
:1041A00059F48093BA051092B6051092B705109293
:1041B000B8051092B9050EC01092BA058FEF9FEFA7
:1041C000A7E0B0E08093B6059093B705A093B8053B
:1041D000B093B9051092B20081E68093B3008FEFDF
:1041E00087BB8091700084608093700082E0809330
:1041F000B1002FBF1FBFDBC097FF5DC010912E0124
:10420000809159028E3009F0D2C0812F90E023E2D4
:1042100030E0829FE001839FD00D929FD00D11244A
:10422000CA51DA4F8D81882309F0C1C00FB7F894C5
:1042300080E090E00E94DC1581E090E0A0E0B0E03A
:104240008093A9059093AA05A093AB05B093AC0504
:104250002FB7F89481E08093B5058D83112359F42D
:104260008093BA051092B6051092B7051092B80562
:104270001092B9050EC01092BA058FEF9FEFA7E01C
:10428000B0E08093B6059093B705A093B805B093BE
:10429000B9051092B20081E68093B3008FEF87BB1F
:1042A0008091700084608093700082E08093B10000
:1042B0002FBF0FBF7CC093FF7AC080E060E070E04A
:1042C0000E941D1674C090FF23C040912E01842FC0
:1042D00090E023E230E0829FF001839FF00D929FF7
:1042E000F00D1124EA51FA4F848D90914401891701
:1042F00009F45DC0948F842F0E94C30F2091440164
:10430000269580912E0164E04CE10E94F7264FC073
:1043100091FF20C040912E01842F90E023E230E0F5
:10432000829FF001839FF00D929FF00D1124EA51BE
:10433000FA4F858D909144018917C9F1958F842F8B
:104340000E94C30F20914401269580912E0164E0C4
:104350004DE1DBCF92FF20C040912E01842F90E0F1
:1043600023E230E0829FF001839FF00D929FF00DD9
:104370001124EA51FA4F868D909144018917B9F0C2
:10438000968F842F0E94C30F20914401269580911F
:104390002E0164E04EE1B9CF80913F0190E083FDB2
:1043A00004C080739070892B11F0109227018091C6
:1043B0006006882309F419C38AE291E00E949D26D1
:1043C00080912B018230C1F580912A01482F50E065
:1043D00083E290E0489FF001499FF00D589FF00D57
:1043E0001124EA51FA4F8081843021F0808182309B
:1043F00009F0FBC2FA01EC5FFE4F90912C01808125
:10440000981709F0F2C223E230E0429FF001439F87
:10441000F00D529FF00D1124EA51FA4F1082809155
:104420002A0190E0829FF001839FF00D929FF00D92
:104430001124EA51FA4F76C08130D9F510912A0142
:10444000212F30E0F901EC5FFE4F60912C01608379
:10445000F901E85DFE4F8081882349F0862F0E9494
:104460007D0EAC01812F62E00E94570EBEC283E236
:1044700090E0289FF001299FF00D389FF00D112446
:10448000EA51FA4F2089318942895389848595857B
:10449000A685B785281739074A075B0709F4A5C21F
:1044A000862F0E947D0EAC01812F62E00E948D0D4F
:1044B0009CC2843009F055C280912C0190E0FC012F
:1044C0003397EC31F10508F090C2E25CFF4FEE0F3C
:1044D000FF1F0590F491E02D099480912D01882310
:1044E00071F080912A01E82FF0E0EE0FFF1FEF53EB
:1044F000FA4F4081518162E00E94270D3EC08091B9
:104500002A0190E023E230E0829FF001839FF00DCA
:10451000929FF00D1124EA51FA4F8081833009F007
:1045200064C21082118661C280912D01882361F1DD
:1045300060912A01C62FD0E083E290E0C89FF0018D
:10454000C99FF00DD89FF00D1124EA51FA4F208930
:1045500031894289538984859585A685B785281731
:1045600039074A075B0709F440C2CC5FDE4F488138
:10457000862F62E050E00E94150EE0912A01F0E0E3
:10458000E85DFE4F108231C220912A01A22FB0E0D7
:1045900083E290E0A89FF001A99FF00DB89FF00D75
:1045A0001124EA51FA4F8081853009F01EC2AC5FB8
:1045B000BE4F4C91822F62E050E00E94E10D15C287
:1045C00080912D018823A9F080912A01E82FF0E045
:1045D000EE0FFF1FEF53FA4F4081518162E00E94BE
:1045E000570EE0912A01F0E0E85DFE4F81E0808304
:1045F000FCC180912A01A82FB0E083E290E0A89F3F
:10460000F001A99FF00DB89FF00D1124EA51FA4F67
:104610008081823009F0E9C110821186A85DBE4F09
:104620001C92E3C180912D01882381F080912A01A1
:1046300090E023E230E0829FF001839FF00D929F93
:10464000F00D1124EA51FA4F1182CFC180912A0155
:1046500090E023E230E0829FF001839FF00D929F73
:10466000F00D1124EA51FA4F81E08183BEC180919F
:104670002D01882389F080912A0190E023E230E027
:10468000829FF001839FF00D929FF00D1124EA515B
:10469000FA4F81E08283A9C180912A0190E023E250
:1046A00030E0829FF001839FF00D929FF00D112466
:1046B000EA51FA4F128299C180912D01882389F025
:1046C00080912A0190E023E230E0829FF001839FF5
:1046D000F00D929FF00D1124EA51FA4F81E083838F
:1046E0000FC080912A0190E023E230E0829FF00128
:1046F000839FF00D929FF00D1124EA51FA4F13821F
:1047000080912A012BC1A0912A01B0E083E290E0C0
:10471000A89FF001A99FF00DB89FF00D1124EA5158
:10472000FA4F1182108617821682128281E08483EA
:1047300013828483A85DBE4F1C923AC040912D0124
:10474000483008F052C180912A0190E023E230E025
:10475000829FF001839FF00D929FF00D1124EA518A
:10476000FA4F408742C180912A0160912D010E9439
:10477000930E3BC180912A0190E040912D0123E2EC
:1047800030E0829FF001839FF00D929FF00D112485
:10479000EA51FA4F478329C180912D01813059F0A8
:1047A000813030F0823051F0833009F01EC109C0F1
:1047B00081E598E008C087E098E005C08CEC98E0BF
:1047C00002C08DE898E09093E3058093E2050DC167
:1047D000CFB6F894D0902A010D2D10E054E0E52ECC
:1047E00051E0F52EE00EF11EF70180810E947D0E52
:1047F000000F111F0F531A4FF80191838083F701A7
:104800006081DD2019F487E090E005C0F1E0DF165B
:1048100021F48BE090E00E942D26CFBEE6C080916F
:104820002A0190912D01482F50E023E230E0429F71
:10483000F001439FF00D529FF00D1124EA51FA4F01
:10484000948F8CC080912A0190912D01482F50E0C7
:1048500023E230E0429FF001439FF00D529FF00DA4
:104860001124EA51FA4F958F79C080912A019091D5
:104870002D01482F50E023E230E0429FF001439F9A
:10488000F00D529FF00D1124EA51FA4F968F66C039
:1048900020912A014FB7F89430E083E290E0289FFE
:1048A000F001299FF00D389FF00D1124EA51FA4FC5
:1048B00080899189A289B389808F918FA28FB38FCC
:1048C00084859585A685B785848B958BA68BB78BBC
:1048D000148E158E168E4FBF88C080912A0140918C
:1048E0002D0150E0440F551F682F70E023E230E0A7
:1048F000629FF001639FF00D729FF00D1124EA5149
:10490000FA4F448F2BC080912A0140912D0150E035
:10491000440F551F682F70E023E230E0629FF001E2
:10492000639FF00D729FF00D1124EA51FA4F458FED
:1049300015C080912A0140912D0150E0440F551F70
:10494000682F70E023E230E0629FF001639FF00D7A
:10495000729FF00D1124EA51FA4F468F0E94C30F47
:1049600044C0873009F041C080912D01C82FD0E0AC
:10497000D695DC2FCC27D795C79580912C01C80FF1
:10498000D11D80E2C030D807D1F000912A01E0E2C9
:10499000C030DE0740F410E0F801EC5FFE4F80818C
:1049A0000E947D0E07C010E0F801EC5FFE4F808191
:1049B0000E947D0E8050904E8C1B9D0B09C0009173
:1049C0002A0110E0F801EC5FFE4F80810E947D0E0D
:1049D00023E230E0029FF001039FF00D129FF00DE3
:1049E0001124EA51FA4F938782878091B50583306D
:1049F00011F01092BF058091EF05813041F01092C7
:104A0000BB0580916F008F7D80936F00B59A809178
:104A10001206813031F01092BC051092680010929D
:104A20006D008091EF05823041F01092BD058091BC
:104A30006F008D7F80936F00B19A80911206823053
:104A400041F01092BE0580916F008B7F80936F00C4
:104A5000B29A8091EF05882361F48091B50588238F
:104A600031F0833021F08091BA05882311F410923F
:104A7000EB0580911206882361F48091B5058823A7
:104A800031F0833021F08091BA05813011F4109219
:104A90000E0680914401829586958770809345012A
:104AA00090913B019F7180FD906881FD906482FD33
:104AB000906290933B0130912E01292F207E432F4D
:104AC00050E083E290E0489FF001499FF00D589F2D
:104AD000F00D1124EA51FA4F8081833009F42160EE
:104AE00083E290E0489FF001499FF00D589FF00D40
:104AF0001124EA51FA4F8081843009F4246083E262
:104B000090E0489FF001499FF00D589FF00D11244F
:104B1000EA51FA4F8081853009F4226083E290E007
:104B2000489FF001499FF00D589FF00D1124EA5164
:104B3000FA4F8081823009F42760809142018130F0
:104B400009F42860313009F4206120933B0183E2AD
:104B500090E0489FF001499FF00D589FF00D1124FF
:104B6000EA51FA4F20893189428953898485958594
:104B7000A685B785281739074A075B0739F480915E
:104B80003C0182FD07C084E090E002C080E090E03C
:104B90000E94F313DF91CF911F910F91FF90EF903F
:104BA000DF90CF900895809141018823A1F40E9465
:104BB0007F1D80932E0681E00E947F1D8093470613
:104BC0008295807F90912E06982B90933B0181E0F7
:104BD00080934101089580913F01282F80FF11C0EB
:104BE00080912E068F5F80932E06803110F01092F8
:104BF0002E0680913B01807F90912E06892B809319
:104C00003B0121FF13C0809147068F5F80934706C9
:104C1000803110F01092470690913B019F70809177
:104C200047068295807F892B80933B0122FF14C029
:104C300084E090E060912E060E942D2688E090E0AE
:104C4000609147060E942D2683E99DE19093E5053A
:104C50008093E4051092410108959C01F999FECFDB
:104C60008FB7F89432BD21BD60BDFA9AF99A8FBF13
:104C700012BC11BC0895282FF999FECF8FB7F89474
:104C800030E032BD21BDF89A8FBF12BC11BC80B597
:104C900008958091C000881F8827881F08958091FB
:104CA000C6000895809164008D7F80936400809198
:104CB000C0008D7F8093C00088E18093C10087E2AF
:104CC0008093C40086E08093C2008091C00085FF7D
:104CD000FCCF8091C00087FF03C08091C600F9CF50
:104CE0000895E82FF0E080912C0690912D06EE0FAC
:104CF000FF1FDF01AB53BA4F8D939C93E353FA4FE1
:104D000071836083089520912C0630912D06E82F41
:104D1000F0E040E0EE0FFF1FDF01AB53BA4F8D9183
:104D20009C91281B390BE353FA4F808191812817FE
:104D3000390708F041E0842F0895CF93DF93EC0109
:104D400020916006222319F19091DD05E92FF0E012
:104D5000EE0FFF1FEE0FFF1FDF01A15DB94F119690
:104D60008C9111978983EF5CF94F80818A83139628
:104D70008C9113978B838C9188839F5F9093DD0533
:104D8000963010F01092DD05215020936006DF91DF
:104D9000CF910895CF93DF93EC01209160062630E8
:104DA00018F59091DC05E92FF0E0EE0FFF1FEE0FF4
:104DB000FF1FDF01A15DB94F898111968C93119777
:104DC000EF5CF94F8A8180838B8113968C931397C4
:104DD00088818C939F5F9093DC05963010F0109241
:104DE000DC052F5F20936006DF91CF91089530910D
:104DF0006106363008F59091DF05E92FF0E0EE0FFF
:104E0000FF1FEE0FFF1FDF01A85BB94F11966C93D8
:104E10001197E65BF94F408313962C93139780917B
:104E20002E068C939F5F9093DF05963010F01092C2
:104E3000DF053F5F30936106089589E08093DE05CA
:104E40001092E105109260061092DC051092DD05CB
:104E5000109261061092DF051092E00508951F93ED
:104E6000DF93CF9300D000D0CDB7DEB7282F87FFD8
:104E700041C0682F70E09B012F70307080912E062A
:104E8000482F50E02417350739F08091470690E00D
:104E90002817390709F0ADC0CB01807F90708039A9
:104EA000910519F41092DE051BC08038910539F484
:104EB00081E08093DE0524173507C9F414C0803CD7
:104EC000910511F482E00AC0803E910511F487E05B
:104ED00005C0803B910509F08CC083E08093DE051E
:104EE0002417350719F41092DA0586C081E0809303
:104EF000DA0582C01091DE05143009F458C015306F
:104F000058F41130C1F11130C8F0123009F446C024
:104F1000133009F06EC047C0173009F456C018307E
:104F200030F4153079F0163009F063C028C018301D
:104F300009F44FC0193009F05CC05EC08093DB05F6
:104F400085E058C03091DB054091DA05BE016F5F06
:104F50007F4F882329F482E08A833B831C8204C02C
:104F600081E08A833B832C834983CB010E94CA263C
:104F70001092DE0541C08093DB0586E03BC082E0F5
:104F80008A838091DB058B832C838091DA0589836A
:104F9000CE0101960E94CA2681E02CC083E08A835C
:104FA0002B831C821CC08093DB0584E023C01A8302
:104FB0008091DB058B832C838091DA058983CE0178
:104FC00001960E94CA2683E015C08093DB0588E025
:104FD00011C017E01A838091DB058B832C838091AD
:104FE000DA058983CE0101960E94CA261093DE0558
:104FF00003C089E08093DE050F900F900F900F9013
:10500000CF91DF911F91089580916106882311F05F
:1050100081E008958091E105811181E008958091FA
:10502000E105833009F491C0843038F4813009F40B
:1050300088C0823008F087C00DC0853009F48CC06C
:10504000853008F486C0863009F489C0873009F0BD
:1050500091C08BC020916106222339F19091E00527
:10506000E92FF0E0EE0FFF1FEE0FFF1FDF01A85B3F
:10507000B94F11968C9111978093D705E65BF94F44
:1050800080818093D80513968C9113978093D905CE
:105090008C918093D6059F5F9093E005963010F039
:1050A0001092E0052150209361062091D70522300F
:1050B000B9F0233020F4213009F05CC006C0233061
:1050C000F9F0243009F056C02BC09091D6059069B4
:1050D0008091D505891779F49091D80583E02AC08D
:1050E0009091D60590698091D505891721F490910A
:1050F000D80584E01FC09093D5052093E1053BC0FF
:105100009091D605906C8091D505891729F49091DE
:10511000D8051092E1052FC09093D50585E00AC00F
:105120009091D605906B8091D505891731F49091B7
:10513000D80587E08093E1051EC09093D50586E0F1
:10514000F9CF83E00DC084E00BC01092E10590E43C
:1051500012C01092E1050EC01092E10503C087E075
:105160008093E1059091D80506C01092E1059091D9
:10517000D90501C090E0892F08958AB18F7C8AB942
:105180008BB180638BB91092C900E4E6F0E08081B6
:10519000806180830895E4E6F0E080818F7E8083E3
:1051A000ECECF0E011821082549A80EC8093CA00FB
:1051B00088E18093C90081E090E091838083559AD3
:1051C0005D9A08955D9A08955D9A5D980895982F67
:1051D0008091C80085FFFCCF9093CE008091C800DD
:1051E00087FFFCCF8091CE0008958091C800806435
:1051F0008093C8008091C80085FFFCCF8FEF80931B
:10520000CE008091C80087FFFCCF8091CE008091B6
:10521000C80086FFFCCF08951F93282F5D9A5D98E4
:105220008091C80085FFFCCF8FEF8093CE008091E6
:10523000C80087FFFCCF8091CE0027FF7AC0809105
:10524000C80085FFFCCF87E78093CE008091C8001F
:1052500087FFFCCF8091CE008091C80085FFFCCFF6
:105260001092CE008091C80087FFFCCF8091CE00C5
:105270008091C80085FFFCCF1092CE008091C800BD
:1052800087FFFCCF8091CE008091C80085FFFCCFC6
:105290001092CE008091C80087FFFCCF8091CE0095
:1052A0008091C80085FFFCCF1092CE008091C8008D
:1052B00087FFFCCF8091CE008091C80085FFFCCF96
:1052C00081E08093CE008091C80087FFFCCF809161
:1052D000CE009AE03FEF8091C80085FFFCCF30936D
:1052E000CE008091C80087FFFCCF1091CE001F3FF9
:1052F00011F4915081F78091C80080648093C800B8
:105300008091C80085FFFCCF8FEF8093CE00809105
:10531000C80087FFFCCF8091CE008091C80086FF37
:10532000FCCF123010F05D9A89C05D9A2F775D9A9C
:105330005D988091C80085FFFCCF822F80648093A8
:10534000CE008091C80087FFFCCF8091CE00809175
:10535000C80085FFFCCF872F9927AA27BB278093FA
:10536000CE008091C80087FFFCCF8091CE00809155
:10537000C80085FFFCCFCB01AA27BB278093CE00B6
:105380008091C80087FFFCCF8091CE008091C8003B
:1053900085FFFCCFBB27A72F962F852F8093CE00AC
:1053A0008091C80087FFFCCF8091CE008091C8001B
:1053B00085FFFCCF4093CE008091C80087FFFCCFD3
:1053C0008091CE00222311F495E905C0283011F414
:1053D00097E801C091E08091C80085FFFCCF9093D1
:1053E000CE008091C80087FFFCCF8091CE002C308A
:1053F00069F48091C80085FFFCCF8FEF8093CE00C9
:105400008091C80087FFFCCF8091CE009AE03FEFEB
:105410008091C80085FFFCCF3093CE008091C800FA
:1054200087FFFCCF1091CE001F3F11F4915081F700
:10543000283021F02A3311F00E94F528812F1F9186
:105440000895AB01BC01E9E0440F551F661F771FAB
:10545000EA95D1F781E10E940C2990E0882309F4B4
:1054600091E0892F0895AB01BC01F9E0440F551F6D
:10547000661F771FFA95D1F788E10E940C2990E00A
:10548000882309F491E0892F0895DF93CF9300D00A
:1054900000D0CDB7DEB75D9A90E02FEF8091C800C5
:1054A00080648093C8008091C80085FFFCCF209362
:1054B000CE008091C80087FFFCCF8091CE009F5F17
:1054C000943161F78091C80086FFFCCF5D9A5D98AA
:1054D00020E030E09FEF8091C80080648093C80096
:1054E0008091C80085FFFCCF9093CE008091C800CA
:1054F00087FFFCCF8091CE002F5F3F4F82E02030AE
:10550000380749F78091C80086FFFCCF5D9A80E09C
:1055100040E050E060E070E00E940C298091C800FB
:1055200086FFFCCF5D9A80E040E050E060E070E0F4
:105530000E940C29813009F0B4C05D9A88E04AEAE3
:1055400051E060E070E00E940C29813009F076C0E3
:10555000FE0131969FEF9E012B5F3F4F8091C80067
:1055600085FFFCCF9093CE008091C80087FFFCCFD1
:105570008091CE008193E217F30781F70E94F5280E
:105580005D9A8B81813009F08CC08C818A3A09F058
:1055900088C083E064EC74E00E94712603C05D9AC9
:1055A0000E94CA0C83E00E948326882349F489EA7A
:1055B00040E050E060E070E00E940C29882379F719
:1055C00083E00E948326882331F06BC00E94F52877
:1055D0000E94CA0C5D9A83E00E948326882349F4C6
:1055E0008AE340E050E060E070E00E940C298823EC
:1055F00069F783E00E948326882309F052C090E077
:105600002FEF8091C80085FFFCCF2093CE008091C2
:10561000C80087FFFCCF8091CE009F5F943089F750
:105620000E94F5285D9A80E140E052E060E070E081
:105630000E940C295D9A0E94F52831C00E94F5282D
:105640005D9A89EA40E050E060E070E00E940C2939
:10565000823038F55D9A83E064EC74E00E94712634
:1056600003C00E94CA0C5D9A83E00E9483268823AF
:1056700049F489EA40E050E060E070E00E940C29C3
:10568000882379F783E00E948326882351F480E100
:1056900040E052E060E070E00E940C295D9A81E0F9
:1056A00001C080E05D9A0F900F900F900F90CF9106
:1056B000DF910895629FD001739FF001829FE00DFA
:1056C000F11D649FE00DF11D929FF00D839FF00D81
:1056D000749FF00D659FF00D9927729FB00DE11D2D
:1056E000F91F639FB00DE11DF91FBD01CF0111240A
:1056F0000895991B79E004C0991F961708F0961B2E
:10570000881F7A95C9F78095089597FB092E07267B
:105710000AD077FD04D02ED006D000201AF4709560
:1057200061957F4F0895F6F7909581959F4F089565
:10573000A1E21A2EAA1BBB1BFD010DC0AA1FBB1F95
:10574000EE1FFF1FA217B307E407F50720F0A21B07
:10575000B30BE40BF50B661F771F881F991F1A9474
:1057600069F760957095809590959B01AC01BD019E
:10577000CF010895AA1BBB1B51E107C0AA1FBB1F85
:10578000A617B70710F0A61BB70B881F991F5A95CD
:10579000A9F780959095BC01CD010895F894FFCFAD
:1057A000EFBE00003C3CFFFFA1F111E444D72FCB3A
:0E57B000C8BF04B5DBAA44A13798AC8F9C8714
:00000001FF
