:100000000C945A000C9477000C9477000C947700B1
:100010000C9477000C9477000C9467230C94770071
:100020000C9477000C94E0260C94E4240C94770054
:100030000C941B230C94B1230C944B240C94770048
:100040000C9477000C9477000C9477000C94770054
:100050000C9477000C9477000C9477000C94770044
:100060000C9477000C9477000C9477000C94770034
:100070000C9477000C9477000C947700E819231304
:10008000231323132313231372192313231323136B
:1000900023134B196119391923190819F718EE1888
:1000A000E018D0189C188C187C186C184B183A184B
:1000B0002918181811241FBECFEFD0E1DEBFCDBF25
:1000C00011E0A0E0B1E0EEE5FBE602C005900D9284
:1000D000AE31B107D9F726E0AEE1B1E001C01D9223
:1000E000A336B207E1F70E94CD2C0C94AD350C94E9
:1000F000FB268091E505833009F411C138F0843086
:1001000009F491C08530D1F080E00895813009F480
:10011000FFC08230C9F780912C049091EE0599239D
:10012000A1F380589091EE052FEF30E0092E01C029
:10013000220F0A94EAF782238058089580910506D9
:1001400090910606A0910706B091080685B9139A0A
:1001500013988091050690910606A0910706B0912C
:100160000806892F9A2FAB2FBB2785B9149A1498AC
:100170008091050690910606A0910706B0910806A9
:10018000CD01AA27BB2787709927AA27BB27886498
:1001900088B914B812988091EC05882309F438C105
:1001A00080912D0490912E04A0912F04B0913004E1
:1001B000892B8A2B8B2B09F08AC280913504909170
:1001C0003604A0913704B091380480932D049093A5
:1001D0002E04A0932F04B093300480913D048F5FD0
:1001E00080933D0490913D048091EC05981709F4AB
:1001F00006C3E0913D0420913504309136044091CE
:10020000370450913804F0E0EC5BFB4FA081B0E084
:100210000E94A23560930506709306068093070638
:10022000909308064FC18091050690910606A09113
:100230000706B091080685B9139A139880910506B0
:1002400090910606A0910706B0910806892F9A2F73
:10025000AB2FBB2785B9149A14988091050690910D
:100260000606A0910706B0910806CD01AA27BB2774
:1002700087709927AA27BB27886488B914B8129871
:100280008091EC05882309F449C180912D04909157
:100290002E04A0912F04B0913004892B8A2B8B2B34
:1002A00009F0EEC18091350490913604A091370495
:1002B000B091380480932D0490932E04A0932F04C2
:1002C000B093300480913D048F5F80933D04909102
:1002D0003D048091EC05981709F48EC2E0913D042D
:1002E0002091350430913604409137045091380400
:1002F000F0E0EC5BFB4FA081B0E00E94A235609380
:10030000050670930606809307069093080660C161
:1003100080914304982F9F5F9093430408958FEF3B
:1003200084B98091050690910606A0910706B091C8
:10033000080685B9139A13988091050690910606D0
:10034000A0910706B0910806892F9A2FAB2FBB27E3
:1003500085B9149A14988091050690910606A0918B
:100360000706B0910806CD01AA27BB2787709927F9
:10037000AA27BB27886488B980912C0485B980910D
:10038000050690910606A0910706B0910806019611
:10039000A11DB11D8093050690930606A093070644
:1003A000B09308068093F2059093F305A093F405AB
:1003B000B093F5058091050690910606A091070679
:1003C000B09108068093FA059093FB05A093FC0575
:1003D000B093FD054091F2055091F3056091F4054D
:1003E0007091F5058091160690911706A091180658
:1003F000B0911906481759076A077B0728F0109231
:10040000E50581E080933F041198119A80E00895FA
:100410008091E90540910506509106066091070616
:1004200070910806882309F479C18091FA059091AA
:10043000FB05A091FC05B091FD05481759076A0717
:100440007B0709F4CDC140910506509106066091E5
:100450000706709108068091FA059091FB05A0911E
:10046000FC05B091FD05481759076A077B0709F499
:10047000DAC1409105065091060660910706709119
:1004800008068091F2059091F305A091F405B091D2
:10049000F505481759076A077B0709F42AC28091B6
:1004A000050690910606A0910706B09108060196F0
:1004B000A11DB11D8093050690930606A093070623
:1004C000B093080683B1129A9FEF94B99091EE050C
:1004D000992361F080589091EE052FEF30E0092EBE
:1004E00001C0220F0A94EAF78223805820912C043D
:1004F000332727FD3095280F311D87FD3A95203889
:100500009FEF390714F420E83FEF2038310514F04D
:100510002FE730E025B91198119A08958091E905E7
:1005200040910506509106066091070670910806F5
:10053000882309F457C08091FA059091FB05A0919A
:10054000FC05B091FD05481759076A077B0709F4B8
:100550004DC14091050650910606609107067091C5
:1005600008068091FA059091FB05A091FC05B091D9
:10057000FD05481759076A077B0709F443C14091F5
:100580000506509106066091070670910806809155
:10059000F2059091F305A091F405B091F505481787
:1005A00059076A077B0709F493C18091050690916A
:1005B0000606A0910706B09108060196A11DB11D7F
:1005C0008093050690930606A0930706B09308064D
:1005D00083B1129A9FEF94B99091EE05992309F493
:1005E00094CD9FCD8091FE059091FF05A0910006CE
:1005F000B0910106481759076A077B0709F4DCC068
:100600004091050650910606609107067091080614
:100610008091FE059091FF05A0910006B091010622
:10062000481759076A077B0709F41FC1409105065F
:100630005091060660910706709108068091F605B4
:100640009091F705A091F805B091F9054817590761
:100650006A077B0709F41AC1809105069091060686
:10066000A0910706B09108060197A109B1098093EE
:10067000050690930606A0930706B0930806A8CF38
:100680008091050690910606A0910706B091080694
:100690000196A11DB11D8093050690930606A093B7
:1006A0000706B093080680912D0490912E04A09126
:1006B0002F04B09130040197A109B10980932D0452
:1006C00090932E04A0932F04B093300481CF809197
:1006D000050690910606A0910706B09108060196BE
:1006E000A11DB11D8093050690930606A0930706F1
:1006F000B093080680912D0490912E04A0912F04B0
:10070000B09130040197A109B10980932D04909311
:100710002E04A0932F04B0933004D4CE8091FE0514
:100720009091FF05A0910006B09101064817590766
:100730006A077B0709F44AC04091050650910606F6
:1007400060910706709108068091FE059091FF0563
:10075000A0910006B0910106481759076A077B0768
:1007600009F472C040910506509106066091070693
:10077000709108068091F6059091F705A091F80513
:10078000B091F905481759076A077B0709F48FC02C
:100790008091050690910606A0910706B091080683
:1007A0000197A109B1098093050690930606A093CD
:1007B0000706B093080686CE8091E605813009F0E1
:1007C0001FCF1092E5051092EF0502CF8091E6054C
:1007D000813009F0B1CF1092E5051092EF0572CE8D
:1007E0008091E605813009F02ECEF5CF8091E605A7
:1007F000813009F0AECEE5CF10923D046FCD10925E
:100800003D04F7CC8091FE059091FF05A091000674
:10081000B09101068093050690930606A093070603
:10082000B0930806D5CE8091FE059091FF05A0916A
:100830000006B09101068093050690930606A093EA
:100840000706B09308063ECE8091FA059091FB050D
:10085000A091FC05B091FD058093050690930606D6
:10086000A0930706B09308062DCE8091FA059091CB
:10087000FB05A091FC05B091FD05809305069093C2
:100880000606A0930706B0930806A2CE8091F20553
:100890009091F305A091F405B091F50580930506BC
:1008A00090930606A0930706B093080691CE809118
:1008B000F2059091F305A091F405B091F5058093B0
:1008C000050690930606A0930706B0930806FACD96
:1008D0008091F6059091F705A091F805B091F90582
:1008E0008093050690930606A0930706B09308062A
:1008F0006FCE8091F6059091F705A091F805B09123
:10090000F9058093050690930606A0930706B09319
:100910000806D8CD0F931F9380910906833009F400
:1009200025C148F0843009F49CC08530F1F080E0A6
:100930001F910F910895813009F40FC18230B9F7EA
:1009400080912C0490911206992391F380589091F4
:1009500012062FEF30E0092E01C0220F0A94EAF7A9
:10096000822380581F910F910895809129069091BC
:100970002A06A0912B06B0912C0685B9139A1398DC
:100980008091290690912A06A0912B06B0912C0601
:10099000892F9A2FAB2FBB2785B9149A149888B149
:1009A000887F88B928B18091290690912A06A09164
:1009B0002B06B0912C068A2F8770822B88B914B829
:1009C000129880911006882309F452C18091310455
:1009D00090913204A0913304B0913404892B8A2B76
:1009E0008B2B09F0A6C28091390490913A04A09112
:1009F0003B04B0913C048093310490933204A09363
:100A00003304B093340480913E048F5F80933E049E
:100A100090913E0480911006981709F422C3E0914A
:100A20003E042091390430913A0440913B045091A6
:100A30003C04F0E0EC53FB4FA081B0E00E94A235F3
:100A40000FEF1FEF27E030E0061B170B280B390BC9
:100A50000093290610932A0620932B0630932C0628
:100A600061C18091290690912A06A0912B06B09130
:100A70002C0685B9139A13988091290690912A061D
:100A8000A0912B06B0912C06892F9A2FAB2FBB2754
:100A900085B9149A149888B1887F88B928B1809153
:100AA000290690912A06A0912B06B0912C068A2F38
:100AB0008770822B88B914B8129880911006882309
:100AC00009F45EC18091310490913204A091330405
:100AD000B0913404892B8A2B8B2B09F003C28091AF
:100AE000390490913A04A0913B04B0913C04809366
:100AF000310490933204A0933304B0933404809172
:100B00003E048F5F80933E0490913E0480911006D6
:100B1000981709F4A3C2E0913E0420913904309162
:100B20003A0440913B0450913C04F0E0EC53FB4FFD
:100B3000A081B0E00E94A2350FEF1FEF27E030E068
:100B4000061B170B280B390B0093290610932A0656
:100B500020932B0630932C066DC180914605982F6B
:100B60009F5F909346051F910F9108958FEF84B971
:100B70008091290690912A06A0912B06B0912C060F
:100B800085B9139A13988091290690912A06A0910D
:100B90002B06B0912C06892F9A2FAB2FBB2785B936
:100BA000149A149888B1887F88B928B18091290651
:100BB00090912A06A0912B06B0912C068A2F87705F
:100BC000822B88B980912C0485B980912906909157
:100BD0002A06A0912B06B0912C060197A109B10914
:100BE0008093290690932A06A0932B06B0932C0697
:100BF0008091290690912A06A0912B06B0912C068F
:100C00008093160690931706A0931806B0931906C2
:100C10008091290690912A06A0912B06B0912C066E
:100C200080931E0690931F06A0932006B093210682
:100C30004091F2055091F3056091F4057091F5052E
:100C40008091160690911706A0911806B09119068A
:100C5000481759076A077B0728F01092090681E0B8
:100C600080933F041198119A80E01F910F9108958D
:100C700080910D064091290650912A0660912B061D
:100C800070912C06882309F47BC180911E069091F7
:100C90001F06A0912006B0912106481759076A0740
:100CA0007B0709F4CFC14091290650912A06609133
:100CB0002B0670912C0680911E0690911F06A09124
:100CC0002006B0912106481759076A077B0709F4E7
:100CD000DCC14091290650912A0660912B06709143
:100CE0002C068091160690911706A0911806B091D7
:100CF0001906481759076A077B0709F42CC2809127
:100D0000290690912A06A0912B06B0912C060197F6
:100D1000A109B1098093290690932A06A0932B0676
:100D2000B0932C0683B1129A9FEF94B9909112065A
:100D3000992361F08058909112062FEF30E0092E30
:100D400001C0220F0A94EAF78223805820912C04D4
:100D5000332727FD3095280F311D87FD3A95203820
:100D60009FEF390714F420E83FEF2038310514F0E5
:100D70002FE730E025B91198119A1F910F9108952E
:100D800080910D064091290650912A0660912B060C
:100D900070912C06882309F457C080911E0690910B
:100DA0001F06A0912006B0912106481759076A072F
:100DB0007B0709F44DC14091290650912A066091A4
:100DC0002B0670912C0680911E0690911F06A09113
:100DD0002006B0912106481759076A077B0709F4D6
:100DE00043C14091290650912A0660912B067091CB
:100DF0002C068091160690911706A0911806B091C6
:100E00001906481759076A077B0709F493C18091AF
:100E1000290690912A06A0912B06B0912C060197E5
:100E2000A109B1098093290690932A06A0932B0665
:100E3000B0932C0683B1129A9FEF94B99091120649
:100E4000992309F475CD82CD8091220690912306D5
:100E5000A0912406B0912506481759076A077B0719
:100E600009F4DCC04091290650912A0660912B06B6
:100E700070912C068091220690912306A091240661
:100E8000B0912506481759076A077B0709F41FC167
:100E90004091290650912A0660912B0670912C06EC
:100EA00080911A0690911B06A0911C06B0911D0618
:100EB000481759076A077B0709F41AC18091290668
:100EC00090912A06A0912B06B0912C060196A11DA7
:100ED000B11D8093290690932A06A0932B06B09308
:100EE0002C06A8CF8091290690912A06A0912B0666
:100EF000B0912C060197A109B1098093290690931E
:100F00002A06A0932B06B0932C0680913104909171
:100F10003204A0913304B09134040197A109B109BE
:100F20008093310490933204A0933304B09334043B
:100F300081CF8091290690912A06A0912B06B0912D
:100F40002C060197A109B1098093290690932A06DE
:100F5000A0932B06B0932C0680913104909132041B
:100F6000A0913304B09134040197A109B109809391
:100F7000310490933204A0933304B0933404D2CE5E
:100F80008091220690912306A0912406B091250617
:100F9000481759076A077B0709F44AC04091290698
:100FA00050912A0660912B0670912C0680912206A2
:100FB00090912306A0912406B09125064817590761
:100FC0006A077B0709F472C04091290650912A06EE
:100FD00060912B0670912C0680911A0690911B0649
:100FE000A0911C06B0911D06481759076A077B0798
:100FF00009F48FC08091290690912A06A0912B06B2
:10100000B0912C060196A11DB11D809329069093E5
:101010002A06A0932B06B0932C0684CE80910A0654
:10102000813009F01FCF109209061092130602CFEB
:1010300080910A06813009F0B1CF10920906109212
:10104000130670CE80910A06813009F02CCEF5CFC0
:1010500080910A06813009F0AECEE5CF10923E04B1
:101060005ACD10923E04DBCC80912206909123064B
:10107000A0912406B09125068093290690932A0614
:10108000A0932B06B0932C06D5CE8091220690918A
:101090002306A0912406B0912506809329069093FB
:1010A0002A06A0932B06B0932C063CCE80911E06F8
:1010B00090911F06A0912006B091210680932906E9
:1010C00090932A06A0932B06B0932C062BCE8091EA
:1010D0001E0690911F06A0912006B09121068093D4
:1010E000290690932A06A0932B06B0932C06A2CE35
:1010F0008091160690911706A0911806B0911906D6
:101100008093290690932A06A0932B06B0932C0671
:1011100091CE8091160690911706A0911806B09175
:1011200019068093290690932A06A0932B06B09364
:101130002C06F8CD80911A0690911B06A0911C06F2
:10114000B0911D068093290690932A06A0932B0642
:10115000B0932C066FCE80911A0690911B06A09139
:101160001C06B0911D068093290690932A06A09331
:101170002B06B0932C06D6CD8091420420914805D1
:10118000332727FD3095280F311D87FD3A952038EC
:101190004FEF340714F420E83FEF4091450580916C
:1011A0004C05992787FD9095840F911D47FD9A95D1
:1011B00081384FEF940714F481E89FEF2038310510
:1011C00014F02FE730E08038910514F08FE790E0BD
:1011D000289FA001299F500D389F500D112457FDC5
:1011E00018C0CA01082E892F000C881F990B000C0B
:1011F000881F991F80589095282F30916E0583176E
:1012000029F09FEF94B985B9159A159820936E052A
:101210000895415C5F4FE5CF2091420480914505E0
:10122000992787FD9095820F911D27FD9A95209112
:101230004805820F911D27FD9A9520914C05820F3C
:10124000911D27FD9A9520915505820F911D27FD2F
:101250009A9580382FEF920714F480E89FEF80383A
:10126000910514F08FE790E08058282F30916E059B
:10127000831729F09FEF94B985B9159A1598209393
:101280006E0508952091420480914805992787FDB5
:101290009095820F911D27FD9A9580382FEF920728
:1012A00014F480E89FEF4091450520914C053327C9
:1012B00027FD3095240F311D47FD3A9520384FEF1B
:1012C000340714F420E83FEF2038310514F02FE7FD
:1012D00030E0205830958038910514F08FE790E089
:1012E00080589095822790916E05891729F09FEF7D
:1012F00094B985B9159A159880936E050895209133
:10130000420480914805992787FD9095820F911D91
:1013100027FD9A9580382FEF920714F480E89FEF0D
:101320004091450520914C05332727FD3095240F2A
:10133000311D47FD3A9520384FEF340714F420E86B
:101340003FEF2038310514F02FE730E0205830957A
:101350008038910514F08FE790E0805890958223B3
:1013600090916E05891729F09FEF94B985B9159A68
:10137000159880936E0508952F923F924F925F9239
:101380006F927F928F929F92AF92BF92CF92DF9295
:10139000EF92FF920F931F93CF93DF93CDB7DEB7FA
:1013A00027970FB6F894DEBF0FBECDBF282E623050
:1013B00008F41AC12FB72D83F894062F613808F06E
:1013C00011C1422D50E05C834B835695542F442726
:1013D000579547955A8349839A012C5B3B4FF901F6
:1013E00080E081938F5F8017E0F3402E512C612CB9
:1013F000712CC0900001D0900101E0900201F090AA
:10140000030110E03F832E83D90119C075016401E7
:10141000C501B401A30192010E946E35FB0129812F
:101420003A81E20FF31FEC5BFB4F8081AE81BF81FD
:101430008D93BF83AE8330821F5F101790F43C9072
:1014400046015701880C991CAA1CBB1CF6FEDECF76
:10145000B5EB8B26B5E99B26BAEAAB26B0E2BB26F4
:10146000D5CF8092000190920101A0920201B0922A
:101470000301222009F478C0809116069091170686
:10148000A0911806B0911906CC24CA94DC2C37E040
:10149000E32EF12CA7019601281B390B4A0B5B0B9D
:1014A000CA01B901A30192010E946E35209339044B
:1014B00030933A0440933B0450933C0484E24B81C4
:1014C0005C81849FF001859FF00D1124EB51FA4F50
:1014D0000783FA01E35CFB4F10829A01220F331F4E
:1014E000220F331FF901EB5CFB4F80819181A281B8
:1014F000B381F901E35DFB4F80839183A283B383C2
:101500002091390430913A0440913B0450913C04BD
:10151000A091C404B0E00E94A235C61AD70AE80A16
:10152000F90AC0922906D0922A06E0922B06F09280
:101530002C065D815FBF27960FB6F894DEBF0FBE05
:10154000CDBFDF91CF911F910F91FF90EF90DF9072
:10155000CF90BF90AF909F908F907F906F905F9053
:101560004F903F902F9008956091F2057091F30590
:101570008091F4059091F505A30192010E946E35CA
:101580002093350430933604409337045093380445
:101590000093EC0510923D0480913504909136043F
:1015A000A0913704B091380480932D0490932E04B9
:1015B000A0932F04B0933004209135043091360469
:1015C0004091370450913804A0914404B0E00E9447
:1015D000A2356093050670930606809307069093E4
:1015E0000806A7CF00E8EDCE84E2289EF001112482
:1015F000EB51FA4F17829FCF4F925F926F927F927B
:101600008F929F92AF92BF92CF92DF92EF92FF9212
:10161000EFB7F89481119BC18091F2059091F30589
:10162000A091F405B091F505880F991FAA1FBB1F63
:10163000880F991FAA1FBB1F880F991FAA1FBB1FC6
:10164000892E9A2EAB2EBB24A0910206809104060F
:10165000B0E0A80FB11DA50194010E94A235F3E0EE
:101660009695879577956795FA95D1F76093FE05DE
:101670007093FF0580930006909301064090F20559
:101680005090F3056090F4057090F505F091030615
:10169000A0910406B0E00E94A2356B017C01A3E09A
:1016A000F694E794D794C794AA95D1F7C40CD51CA7
:1016B000E61CF71CAF2FB0E00E94A235B3E0969570
:1016C000879577956795BA95D1F7C61AD70AE80A2C
:1016D000F90AC092FA05D092FB05E092FC05F0925F
:1016E000FD054091FE055091FF0560910006709147
:1016F00001068091FA059091FB05A091FC05B0913F
:10170000FD0584179507A607B70708F0E7C2809183
:10171000E805813009F4F3C21092E9058091FE05D5
:101720009091FF05A0910006B09101064091FA0545
:101730005091FB056091FC057091FD054093FE05FD
:101740005093FF0560930006709301068093FA059D
:101750009093FB05A093FC05B093FD054091FE0519
:101760005091FF0560910006709101068091F2058D
:101770009091F305A091F405B091F50584179507B4
:10178000A607B707E0F48091FE059091FF05A091B0
:101790000006B09101064091F2055091F305609169
:1017A000F4057091F505841B950BA60BB70B809380
:1017B000FE059093FF05A0930006B09301064091AB
:1017C000FA055091FB056091FC057091FD05809133
:1017D000F2059091F305A091F405B091F5058417F9
:1017E0009507A607B70790F58091FA059091FB053C
:1017F000A091FC05B091FD054091F2055091F305D3
:101800006091F4057091F505841B950BA60BB70B41
:101810008093FA059093FB05A093FC05B093FD051A
:101820004091FA055091FB056091FC057091FD0512
:101830008091FE059091FF05A0910006B0910106F0
:10184000481759076A077B0709F4EAC24091FE0569
:101850005091FF0560910006709101068091FA0594
:101860009091FB05A091FC05B091FD0584179507AB
:10187000A607B70708F083C24091050650910606F7
:1018800060910706709108068091FE059091FF0512
:10189000A0910006B0910106481759076A077B0717
:1018A00008F006C2409105065091060660910706B1
:1018B000709108068091FA059091FB05A091FC05B6
:1018C000B091FD0584179507A607B70708F0F0C18A
:1018D0004091FE055091FF05609100067091010650
:1018E0008090050690900606A0900706B090080626
:1018F0008091050690910606A0910706B091080612
:10190000C090FA05D090FB05E090FC05F090FD0535
:10191000481959096A097B098C199D09AE09BF0943
:10192000481759076A077B0708F455C28091FE05DE
:101930009091FF05A0910006B091010680930506E5
:1019400090930606A0930706B0930806B1C1809154
:10195000160690911706A0911806B0911906CC248E
:10196000CA94DC2C77E0E72EF12CA7019601281B06
:10197000390B4A0B5B0BDA01C901880F991FAA1FAB
:10198000BB1F880F991FAA1FBB1F880F991FAA1F73
:10199000BB1F892E9A2EAB2EBB24A09126068091C8
:1019A0002806B0E0A80FB11DA50194010E94A23540
:1019B000F3E09695879577956795FA95D1F7C61ACE
:1019C000D70AE80AF90AC0922206D0922306E092CA
:1019D0002406F09225064090160650901706609057
:1019E000180670901906A0912706F0912806B0E01D
:1019F0000E94A2356B017C01A3E0F694E794D79492
:101A0000C794AA95D1F7C40CD51CE61CF71CAF2FC0
:101A1000B0E00E94A235B3E09695879577956795DB
:101A2000BA95D1F7C61AD70AE80AF90AC0921E0673
:101A3000D0921F06E0922006F092210640912206E5
:101A400050912306609124067091250680911E0610
:101A500090911F06A0912006B091210648175907C2
:101A60006A077B0708F032C180910C06813009F4C7
:101A700043C110920D068091220690912306A091F9
:101A80002406B091250640911E0650911F066091D4
:101A900020067091210640932206509323066093FE
:101AA00024067093250680931E0690931F06A0932C
:101AB0002006B093210640912206509123066091A2
:101AC0002406709125068091160690911706A09124
:101AD0001806B0911906481759076A077B07F8F4EA
:101AE0008091220690912306A0912406B0912506AC
:101AF00040911606509117066091180670911906CC
:101B00000197A84FBF4F841B950BA60BB70B809373
:101B1000220690932306A0932406B09325064091B5
:101B20001E0650911F06609120067091210680913B
:101B3000160690911706A0911806B091190648173D
:101B400059076A077B07A8F580911E0690911F062A
:101B5000A0912006B09121064091160650911706DB
:101B600060911806709119060197A84FBF4F841B0A
:101B7000950BA60BB70B80931E0690931F06A093A0
:101B80002006B093210640911E0650911F066091D9
:101B90002006709121068091220690912306A09143
:101BA0002406B0912506481759076A077B0709F4F0
:101BB00023C1409122065091230660912406709122
:101BC000250680911E0690911F06A0912006B091D7
:101BD0002106481759076A077B0708F093C0409110
:101BE000290650912A0660912B0670912C0680914F
:101BF000220690912306A0912406B0912506841711
:101C00009507A607B70708F053C0409129065091E1
:101C10002A0660912B0670912C0680911E069091E9
:101C20001F06A0912006B0912106481759076A07A0
:101C30007B07F0F54091290650912A0660912B060A
:101C400070912C068090220690902306A090240686
:101C5000B090250680911E0690911F06A091200647
:101C6000B0912106C0902906D0902A06E0902B065C
:101C7000F0902C06481959096A097B098C199D09AD
:101C8000AE09BF0984179507A607B70708F466C011
:101C90008091220690912306A0912406B0912506FA
:101CA0008093290690932A06A0932B06B0932C06C6
:101CB000EFBFFF90EF90DF90CF90BF90AF909F90DD
:101CC0008F907F906F905F904F90089580910C0659
:101CD000813079F081E080930D06EDCE8091E805AA
:101CE000813021F081E08093E90538CD1092E9053B
:101CF00035CD10920D06DFCE80930D06BCCE8093BD
:101D0000E9050CCD4091290650912A0660912B06D9
:101D100070912C068091220690912306A0912406B2
:101D2000B091250684179507A607B70708F4B0CF2A
:101D30004091290650912A0660912B0670912C063D
:101D400080911E0690911F06A0912006B091210659
:101D5000481759076A077B0708F0AACF80911E062B
:101D600090911F06A0912006B0912106809329062C
:101D700090932A06A0932B06B0932C0699CF4091FE
:101D8000050650910606609107067091080680913D
:101D9000FE059091FF05A0910006B091010648173D
:101DA00059076A077B0708F4C1CD40910506509199
:101DB000060660910706709108068091FA059091D9
:101DC000FB05A091FC05B091FD0584179507A607BA
:101DD000B70708F06DCF8091FA059091FB05A091AF
:101DE000FC05B091FD058093050690930606A0932F
:101DF0000706B09308065CCF80911E0690911F06DF
:101E0000A0912006B09121060196A11DB11D8093DD
:101E10001E0690931F06A0932006B0932106C9CEFC
:101E20008091FA059091FB05A091FC05B091FD050C
:101E30000197A109B1098093FA059093FB05A0933E
:101E4000FC05B093FD0502CD809160058823A1F0CB
:101E500080E00E946527882371F080915D0580FDF8
:101E60001CC085FD11C081E690E19093E40580934C
:101E7000E30510926005089568E970E00E94532719
:101E800081E080936005089586E59FE09093E405E6
:101E90008093E30510926005089588EB9DE190938F
:101EA000E4058093E3051092600508958091600534
:101EB0008823E1F180915C0580FF0EC020912F0600
:101EC0002F5F203108F04CC020932F0690916205BF
:101ED000907F922B9093620581FF11C090914806EC
:101EE0009F5F903108F040C090934806292F2295BB
:101EF000207F909162059F70922B9093620582FFE4
:101F0000089560912F0684E090E00E94122760916E
:101F1000480688E090E00E94122781E690E19093C5
:101F2000E4058093E30510926005089584E00E9423
:101F30001F27803108F080E080932F0688E00E9400
:101F40001F278031A8F090E181E0809348068091BE
:101F50002F06892B8093620581E0809360050895A8
:101F600010922F0620E0B2CF1092480620E0C1CF99
:101F7000982F9295907FE9CF0F931F93A82FB0E0F1
:101F800094E2899FF0011124EB51FA4F9581992336
:101F900031F090914F059150923008F44DC07FB7C9
:101FA000F89494E29A9FF0019B9FF00D1124EB515D
:101FB000FA4F93E09083018912892389348900A321
:101FC00011A322A333A301891289238934890587A8
:101FD00016872787308B0189128923893489018FDD
:101FE000128F238F348F0189128923893489058BBD
:101FF000168B278B308F178E10923F0462876230CA
:1020000041F16130E1F084E28A9FF0018B9FF00D95
:102010001124EB51FA4F81E085837FBF80917A00D4
:1020200086FD0AC080917900805880932C048091AD
:102030007A00806480937A001F910F91089588231D
:10204000A1F1DA9A84E08093680080E180936D00CA
:10205000DACF54874387811114C080918400909116
:102060008500840F951F9093890080938800B19A12
:1020700080916F00826080936F0081E08093810087
:10208000C2CF8091840090918500840F951F90931A
:102090008B0080938A00B29A80916F008460809355
:1020A0006F0081E080938100AECF809181008064D9
:1020B00080938100B59A80916F00806280936F0059
:1020C000A2CF84E00E941F27803108F080E0809337
:1020D0002F0688E00E941F27803108F081E080935E
:1020E00048061092F6051092F7051092F805109226
:1020F000F9058FEF9FEFA7E0B0E080931A06909369
:102100001B06A0931C06B0931D061092E5051092C5
:10211000EF051092E6051092EE051092ED05109273
:10212000EC051092E70581E08093E9051092E8053F
:102130008091F6059091F705A091F805B091F90509
:102140008093050690930606A0930706B0930806B1
:102150008091F6059091F705A091F805B091F905E9
:102160008093F2059093F305A093F405B093F505E1
:102170001092EB051092EA052FB7F8948091F605BE
:102180009091F705A091F805B091F9058093FE05AF
:102190009093FF05A0930006B09301068091F2058D
:1021A0009091F305A091F405B091F5058093FA059F
:1021B0009093FB05A093FC05B093FD0510920206D9
:1021C00010920306109204062FBF87E00E941F277B
:1021D0008A3508F4A9C024E030E0E0E0F0E0EE0F3A
:1021E000FF1FEA5FFE4F8081918102C0969587951F
:1021F0002A95E2F79093640580936305109209068F
:102200001092130610920A061092120610921106EE
:102210001092100610920B0681E080930D0610922A
:102220000C0680911A0690911B06A0911C06B09195
:102230001D068093290690932A06A0932B06B0933F
:102240002C0680911A0690911B06A0911C06B09155
:102250001D068093160690931706A0931806B09358
:10226000190610920F0610920E062FB7F89480915F
:102270001A0690911B06A0911C06B0911D06809332
:10228000220690932306A0932406B09325068091FE
:10229000160690911706A0911806B0911906809322
:1022A0001E0690931F06A0932006B093210610925D
:1022B000260610922706109228062FBF8BE00E9458
:1022C0001F278A35C0F124E030E0E0E0F0E0EE0FB7
:1022D000FF1FEA5FFE4F8081918102C0969587952E
:1022E0002A95E2F790936605809365058CE099E066
:1022F0009093E2058093E1051092670510926905BD
:1023000010926805109262051092B10568E970E0BC
:1023100082E00E94532783E193E19093E405809348
:10232000E3051092600508956CE00E946235E92F84
:10233000F0E0282F54CF6CE00E946235E92FF0E0E6
:10234000282FC5CFCF92DF92EF92FF92CF93DF93EA
:1023500020915E052E30D1F130914F05333039F0A8
:10236000DF91CF91FF90EF90DF90CF9008952B30C9
:1023700069F12D3001F12091B8052130E1F0809311
:10238000B9059093BA0581E08093BB058093B805A9
:102390009FB7F89410922701109226018091700047
:1023A0008B7F809370009FBFDF91CF91FF90EF9064
:1023B000DF90CF9008958093B9059093BA05DF918F
:1023C000CF91FF90EF90DF90CF900895CFB7F89422
:1023D000DFB7F894D82EDD0CDD0CC12C8FEFC81AB6
:1023E000D80AE12CF12CC701B6010E94AB2C813038
:1023F00051F1DFBF81E090E0A0E0B0E080932201E6
:1024000090932301A0932401B09325019FB7F894E2
:1024100083E080934F051092B20081E78093B30070
:102420008FEF87BB8091700084608093700082E0A2
:102430008093B1009FBFCFBFDF91CF91FF90EF900E
:10244000DF90CF900895C092B205D092B305E0928C
:10245000B405F092B5051092B7051092B60510922A
:102460002B0110922A01109229011092280110923A
:102470002701109226016AE770E083E00E9453274B
:1024800089E080935E05DFBFB5CFCF93C091600533
:10249000CC2369F0C13009F447C0C23001F1C33028
:1024A00009F48AC0C43009F470C0CF910895109225
:1024B0005E05109262051092B10568E970E082E055
:1024C0000E945327109261051092620581E080936B
:1024D000600561E371E080E0CF910C945327809117
:1024E0006105883050F580E00E9465278823C1F09F
:1024F00081E090E00090610502C0880F991F0A9466
:10250000E2F790916205982B909362056DE370E07D
:1025100080E00E945327809161058F5F8093610561
:1025200010925E05CF91089580E00E946527882370
:10253000B9F382E080936005F3CF80E00E946527C5
:10254000882371F368E970E080E00E9453278FEFE1
:1025500080934004909164009F7B90936400C093AB
:10256000B00091E09093B1001092B20090E8909387
:10257000B30087BBC093700092B1966092B984B9E2
:102580005F9A83E080936005CBCF80E00E9465274F
:10259000882331F2109262051092B10568E970E06B
:1025A00082E00E94532784E29FE09093E4058093A9
:1025B000E30510926005B4CF80E00E946527882370
:1025C00009F4AECF80914004823058F080914004ED
:1025D00082508093400464E070E080E00E945327C2
:1025E0009FCF109270001092B0001092B1008091B5
:1025F000640080648093640015B85F98109262054F
:102600001092B10568E970E082E00E94532782E1F0
:102610008093620562E672E080E00E94532784E0C6
:10262000809360057DCFCF92DF92EF92FF920F9360
:102630001F93CF93DF931F92CDB7DEB780916005D4
:10264000882309F4F1C060914F05633011F01092B6
:1026500055058091EF05813041F010924204809140
:102660006F008F7D80936F00B59A80911306813043
:1026700031F0109245051092680010926D00809123
:10268000EF05823041F01092480580916F008D7FF8
:1026900080936F00B19A80911306823041F01092BE
:1026A0004C0580916F008B7F80936F00B29A809170
:1026B000EF05811104C06111A3C01092EA05809159
:1026C000130681110BC0662309F495C0633009F429
:1026D00092C080915405813009F48DC080915805D5
:1026E00082958695877080937005209162052F7181
:1026F00080FD206881FD2064847009F020623091A3
:102700006705207E832F90E044E2349FF00111247E
:10271000EB51FA4F4081433009F461C144E2489FD4
:10272000F001499FF00D1124EB51FA4F40814430E4
:1027300009F459C144E2489FF001499FF00D11246A
:10274000EB51FA4F4081453009F44BC144E2489FB8
:10275000F001499FF00D1124EB51FA4F40814230B6
:1027600009F43BC140913F04413009F430C131309C
:1027700009F431C12093620534E2389FF001399F9A
:10278000F00D1124EB51FA4F418952896389748904
:1027900085859685A785B0893091B1054817590779
:1027A0006A077B07A9F1832F90E030FD2E7F81FD22
:1027B0002D7F82FD2B7F83FD277F84FD2F7E85FD6E
:1027C0002F7D86FD2F7B880F892F881F990B892BE2
:1027D000A9F4209362051092B10568E970E082E0E7
:1027E0000F90DF91CF911F910F91FF90EF90DF90AD
:1027F000CF900C94532710920E0670CF2F77E9CF0D
:10280000633009F45ACF80915405811158CF55CFC8
:1028100032FF0CC10F90DF91CF911F910F91FF906C
:10282000EF90DF90CF90089580916F0586FFDDC017
:1028300087FD7FC180915D0580FF17C0809159059C
:10284000811104C080915C0580FF11C080916705F3
:102850002091700534E2839FF0011124EB51FA4F6F
:10286000218743E164E00E94A72780915C0581FFF6
:1028700014C08091670544E2849FF0011124EB515C
:10288000FA4F9281911185C191E0928320E440E159
:1028900064E00E94A72780915C0582FD95C280912B
:1028A0005D0583FF04C090915905911104C090917A
:1028B0005C0593FF12C0209158052695109167057D
:1028C000622F812F29830E94BC09298144E164E0A1
:1028D000812F0E94A72780915D0584FF04C080910D
:1028E0005905811141C180915C0585FF16C0809119
:1028F0006705B4E28B9FF0011124EB51FA4F9381ED
:1029000091112BC191E0938320E441E164E00E94A6
:10291000A727809167050E94FC0A809161068823A1
:1029200009F491CE8AE695E00E947E2740916B05DE
:10293000423009F49FC2413009F4C2C2443009F464
:102940006AC3473009F07FCE20916D0580916C05F8
:1029500090E0E0E82E9F800D911D11248115F0E29A
:102960009F0709F4D4C640916A0550E0FA01EC5F74
:10297000FE4F708120E030E2281B390B6BEA769F16
:10298000612D1124669566956695862F880F860FB2
:10299000880F880F781BE72FF0E0EE0FFF1FEA5F2C
:1029A000FE4F8081918102C0969587956A95E2F7E6
:1029B000280F391F84E2849FF001859FF00D1124B8
:1029C000EB51FA4F3487238760914F053ECE286044
:1029D000313009F0CFCE2061CDCE2760C3CE21604B
:1029E0009DCE2260B3CE2460A5CE87FD1CC280910F
:1029F0005C0580FF38C010916705212F30E084E22C
:102A0000189FF0011124EB51FA4F8081833009F4B3
:102A100046C140E050E061E0812F0E94BC0F20E3FE
:102A200043E064E0812F0E94A72777CF832F90E0B7
:102A300030FD2E7F81FD2D7F82FD2B7F83FD277F43
:102A400084FD2F7E85FD2F7D86FD2F7B880F892FAE
:102A5000881F990B892B09F02F772093620584E05A
:102A60008093B105BACE81FF9DC0E09167058E2F9E
:102A7000EE2EF12C94E2E99FD0011124AB51BA4F14
:102A80009C91953009F4BFC651960D911D912D91E1
:102A90003C9154971D964D915D916D917C9150970D
:102AA000041715072607370709F437CF15969C91A9
:102AB000992329F090914F0591509230A0F18FB752
:102AC000F89494E29E9DD0019F9DB00D1124AB51CE
:102AD000BA4F95E09C9391E01A969C93EE2309F4EB
:102AE0005CC6DA9A94E09093680090E190936D0050
:102AF00094E29E9DF0019F9DF00D1124EB51FA4F41
:102B000091E095838FBF80917A0086FD0AC0809105
:102B10007900805880932C0480917A00806480939F
:102B20007A008091670520E349E064E00E94A727CE
:102B3000F4CE80915C0585FD06C180FFEECE8091CC
:102B40005E058E3009F0E9CE8CEC9EE19093E405B1
:102B50008093E30510926005E0CE138220E041E10E
:102B600064E00E94A727D5CE80917005813009F4DA
:102B7000FAC408F0C9C48CE099E09093E205809310
:102B8000E10520E046E164E0809167050E94A72707
:102B9000AACE128220E040E164E00E94A727809143
:102BA0005C057BCE82FF35C480916705E82FF0E09D
:102BB00024E2829FD0011124AB51BA4F51960D915E
:102BC0001D912D913C9154971D964D915D916D9164
:102BD0007C915097041715072607370709F49DCEF7
:102BE00015969C91992331F090914F059150923018
:102BF00008F445C09FB7F89424E22E9FD0012F9F80
:102C0000B00D1124AB51BA4F24E02C9313962C91A4
:102C10001397222309F4CDC555964D915D916D9181
:102C20007C91589790964D935D936D937C93939779
:102C300014961C9224E22E9FD0012F9FB00D1124D8
:102C4000AB51BA4F21E01A962C93882309F418C689
:102C5000DA9A84E08093680080E180936D0084E2DA
:102C60008E9FD0018F9FB00D1124AB51BA4F81E0E0
:102C700015968C939FBF80916705E82FF0E094E252
:102C80009E9FD0019F9FB00D1124AB51BA4F11965A
:102C90001C9220E440E361E00E94A7273ECE85819C
:102CA000882329F080914F0581508230E0F18FB761
:102CB000F89494E2929FF001939FF00D1124EB5150
:102CC000FA4F94E090839381992309F468C445896D
:102CD00056896789708D40A351A362A373A31482A0
:102CE00094E2929FF001939FF00D1124EB51FA4F63
:102CF00091E09287112309F4FEC4DA9A94E090934C
:102D0000680090E190936D0094E2929FF001939F90
:102D1000F00D1124EB51FA4F91E095838FBF109184
:102D20006705212F30E084E2829FF001839FF00D40
:102D30001124EB51FA4F118220E440E361E0812F2E
:102D40000E94A727EACD8CE099E09093E20580935A
:102D5000E105E09167053FB7F89424E22E9FF0016A
:102D60001124EB51FA4F81899289A389B489818F0B
:102D7000928FA38FB48F85859685A785B089858B23
:102D8000968BA78BB08F158E168E178E3FBF8091B6
:102D90006705289FF0011124EB51FA4F1186108628
:102DA00017821282138291E094831182168220E0AE
:102DB00042E164E00E94A72720E04BE164E08091BB
:102DC00067050E94A727A9CD809167059FB7F89452
:102DD000A4E28A9FF0011124EB51FA4F22E02083F4
:102DE00021E02287882309F408C3DA9A84E08093DB
:102DF000680080E180936D009FBF80917A0086FD1E
:102E00000AC080917900805880932C0480917A00C8
:102E1000806480937A0020E34EE064E0809167054F
:102E20000E94A7273CCD80915D0580FFD8C01091FE
:102E3000670524E2129FF0011124EB51FA4F858DB2
:102E400000915805801759F0058F812F0E94FC0AC8
:102E5000202F26954CE164E0812F0E94A7278091C6
:102E60005C0583FF5ACD80916805909169050E94A9
:102E7000A21153CDE0916A058E2F90E034E2E39FDA
:102E8000F0011124EB51FA4F2081243021F02081F0
:102E9000223009F0D8CBFC01EC5FFE4F30916C057D
:102EA00020813213D0CB24E2289FF001299FF00D1E
:102EB0001124EB51FA4F1082128660914F05C5CB59
:102EC00010916A05212F30E000916C05F901EC5F4B
:102ED000FE4F008384E2829FF001839FF00D112456
:102EE000EB51FA4F86818111BCC3418952896389B4
:102EF000748985859685A785B089481759076A071B
:102F00007B0709F4A0CB8BEA089F812D11248695BD
:102F100086958695982F990F980F990F990F091BF1
:102F2000A02FB0E0AA0FBB1FAA5FBE4F4D915C91CE
:102F300002C0569547958A95E2F78581882339F036
:102F400060914F05862F8150823008F480CB6FB797
:102F5000F89484E2829FF001839FF00D1124EB51DD
:102F6000FA4F84E080838381882309F40BC4858928
:102F70009689A789B08D80A391A3A2A3B3A314823D
:102F800084E2829FF001839FF00D1124EB51FA4FF0
:102F900082E08287548743878091840090918500E6
:102FA000840F951F1111E0C39093890080938800CE
:102FB000B19A80916F00826080936F0081E080936E
:102FC000810084E2829FF001839FF00D1124EB5178
:102FD000FA4F81E085836FBF60914F0536CB81FF4B
:102FE000A6C21091670534E2139FF0011124EB5142
:102FF000FA4F868D00915805801709F430CF068F5F
:10300000812F0E94FC0A202F26954DE164E0812F3C
:103010000E94A72724CF80916C0590E0FC01339794
:10302000EC31F10508F00FCBE25CFF4F0C949035CA
:1030300090916D05990F80916A05B4E28B9FF00124
:103040001124EB51FA4F978F0E94FC0A60914F05B3
:10305000FCCA90916D05990F80916A05A4E28A9F40
:10306000F0011124EB51FA4F968F0E94FC0A6091F7
:103070004F05EBCA90916D05990F80916A0544E266
:10308000849FF0011124EB51FA4F958F0E94FC0AA6
:1030900060914F05DACAE0916A052FB7F89434E2DF
:1030A000E39FF0011124EB51FA4F81899289A389A2
:1030B000B489818F928FA38FB48F85859685A785DC
:1030C000B089858B968BA78BB08F158E168E178E39
:1030D0002FBF60914F05B9CA90916D0580916A0527
:1030E00024E2829FF0011124EB51FA4F978F0E9446
:1030F000FC0A60914F05A9CA90916D0580916A05FF
:10310000B4E28B9FF0011124EB51FA4F968F0E948D
:10311000FC0A60914F0599CA90916D0580916A05EE
:10312000A4E28A9FF0011124EB51FA4F958F0E947F
:10313000FC0A60914F0589CA1FB7F89430916A055F
:10314000A32FB0E0FD01EC5FFE4F6081AA0FBB1F13
:10315000AD59BA4F2BEA629F212D11242695269551
:103160002695822F880F820F880F880FE62FE81B85
:10317000F0E0EE0FFF1FEA5FFE4F8081918102C0F9
:10318000969587952A95E2F78D939C93332309F4BE
:10319000CCC4313009F4C4C41FBF60914F0555CA77
:1031A00080916D05813009F4C5C408F0FDC38CE041
:1031B00099E09093E2058093E10560914F0545CA3F
:1031C000E0916A0580916D0594E2E99FF001112478
:1031D000EB51FA4F808760914F0537CA60916D05BA
:1031E00080916A050E94BC0960914F052ECA8091AA
:1031F0006D05883008F027CAE0916A0544E2E49F33
:10320000F0011124EB51FA4F818760914F051DCADF
:10321000E0916A0534E2E39FF0011124EB51FA4F8B
:103220001182118610861782128281E084831382B4
:10323000848316828CE099E09093E2058093E10507
:1032400060914F0502CA80916D05E0916A0588235F
:1032500009F4BBC3B4E2EB9FF0011124EB51FA4F28
:1032600081E0838380916A050E94FC0A60914F058A
:10327000ECC980916D05E0916A05882309F4ADC31E
:1032800094E2E99FF0011124EB51FA4F81E082832F
:1032900060914F05DAC980916D058111DDC3E09120
:1032A0006A0534E2E39FF0011124EB51FA4F80816B
:1032B000823009F0C8C910821286168260914F05CB
:1032C000C4C980916D05E0916A05882309F490C313
:1032D00044E2E49FF0011124EB51FA4F1182609116
:1032E0004F05B3C980916D05882309F412C310916D
:1032F0006A05212F30E094E2199FF0011124EB516F
:10330000FA4F418952896389748985859685A78595
:10331000B089481759076A077B0709F494C9D9018E
:10332000AC5FBE4F4C9150E08581882339F06091AD
:103330004F05862F8150823008F442C06FB7F89451
:1033400084E2829FF001839FF00D1124EB51FA4F2C
:1033500085E0808382E08287548743878091840060
:1033600090918500840F951F111168C39093890077
:1033700080938800B19A80916F00826080936F0083
:1033800081E08093810084E2829FF001839FF00DB1
:103390001124EB51FA4F81E085836FBF80917A0051
:1033A00086FD0AC080917900805880932C0480911A
:1033B0007A00806480937A0060914F0510916A05CD
:1033C000A4E21A9FF0011124EB51FA4F16823DC975
:1033D00080916D05811118C3E0916A0584E2E89F30
:1033E000F0011124EB51FA4F8081833009F02BC991
:1033F0001082128660914F0528C9809181008064F7
:1034000080938100B59A80916F00806280936F00F5
:10341000F3CC83FFCFC0E09167052E2F30E044E26C
:10342000E49F800111240B511A4FD8015196CD9081
:10343000DD90ED90FC9054971D964D915D916D91AE
:103440007C915097C416D506E606F70609F465CABE
:1034500015968C91882331F080914F0581508230F0
:1034600008F442C09FB7F89484E2829FD001839F02
:10347000B00D1124AB51BA4F84E08C9313968C910C
:103480001397882309F408C255964D915D916D916B
:103490007C91589790964D935D936D937C93939701
:1034A00014961C9284E2829FD001839FB00D112458
:1034B000AB51BA4F81E01A968C93EE2309F4FCC10C
:1034C000DA9A84E08093680080E180936D0084E262
:1034D000829FF001839FF00D1124EB51FA4F81E0A0
:1034E00085839FBFE0916705F4E2EF9FD00111242F
:1034F000AB51BA4F81E011968C9320E440E361E038
:103500008E2F0E94A72709CA8230D9F1833009F093
:10351000EAC982E499E09093E2058093E10523E013
:1035200046E164E0809167050E94A727DCC982FF1D
:1035300096CC1091670544E2149FF0011124EB51E1
:10354000FA4F878D00915805801709F488CC078FB2
:10355000812F0E94FC0A202F26954EE164E0812FE6
:103560000E94A7277CCC8CEB98E09093E205809397
:10357000E10521E046E164E0809167050E94A7270C
:10358000B2C98FE799E09093E2058093E10522E0CC
:1035900046E164E0809167050E94A727A4C9418D98
:1035A000528D638D748D40A351A362A373A391E0E8
:1035B000948396CB84FF0DC180916705A82FB0E05E
:1035C00024E2829FF0011124EB51FA4F9081911176
:1035D0008BC1018912892389348945855685678580
:1035E0007089041715072607370709F496C994E26E
:1035F0009A9FF0019B9FF00D1124EB51FA4F95819A
:10360000992329F090914F059150923010F12FB7E6
:10361000F89494E29A9FF0019B9FF00D1124EB51D6
:10362000FA4F94E0908331E03287882309F465C132
:10363000DA9A9093680080E180936D0084E28A9F1B
:10364000F0018B9FF00D1124EB51FA4F81E085833F
:103650002FBF20E440E361E0809167050E94A72727
:103660005CC92BEA029F212D1124269526952695CB
:10367000822F880F820F880F880FA02FA81BB0E021
:10368000AA0FBB1FAA5FBE4F8D919C9102C0969559
:1036900087952A95E2F75FB7F89422E02083228786
:1036A000948783872091840030918500280F391FEB
:1036B00011119CC03093890020938800B19A8091A9
:1036C0006F00826080936F00409381005FBF8091A4
:1036D0007A0086FF02C00C942313809179008058F1
:1036E00080932C0480917A00806480937A006091AA
:1036F0004F050C9425139091810090649093810064
:10370000B59A90916F00906290936F00FDCA2091DE
:103710006A0530E0F901EC5FFE4F90814BEA949F1F
:10372000412D1124469546954695842F880F840F88
:10373000880F880F981BE92FF0E0EE0FFF1FEA5F5C
:10374000FE4F8081918102C0969587954A95E2F758
:1037500044E2429FF001439FF00D1124EB51FA4FD8
:10376000948783870C94231390938B0080938A0013
:10377000B29A80916F00846080936F0081E08093A3
:1037800081001FCC818D928DA38DB48D80A391A3D8
:10379000A2A3B3A381E08483F3CB909181009064D2
:1037A00090938100B59A90916F00906290936F0012
:1037B0009FC959964D915D916D917C915C979096C2
:1037C0004D935D936D937C93939721E014962C9386
:1037D00031CA85FFA2C8809167058F5F8093670516
:1037E000823008F49AC81092670597C830938B000E
:1037F00020938A00B29A80916F00846080936F005A
:103800004093810063CF15968C91882329F0809195
:103810004F058150823028F19FB7F89484E28E9D45
:10382000D0018F9DB00D1124AB51BA4F84E08C9321
:1038300021E01A962C93EE2309F44AC0DA9A809379
:10384000680080E180936D0084E28E9DF0018F9D81
:10385000F00D1124EB51FA4F81E085839FBFE09179
:103860006705F4E2EF9FD0011124AB51BA4F1196D6
:103870001C9220E049E064E08E2F0E94A7274DC8EB
:1038800080918100806480938100B59A80916F005F
:10389000806280936F00E3C959964D915D916D915F
:1038A0007C915C9790964D935D936D937C939397E9
:1038B00081E014968C93F6CD809181008064809392
:1038C0008100B59A80916F00806280936F00FFCD78
:1038D00080918100806480938100B59A80916F000F
:1038E000806280936F00B0CF1082128620E040E3A8
:1038F00062E00E94A7270C948D148091810080645F
:1039000080938100B59A80916F00806280936F00F0
:1039100095CE20916A05822F90E0B4E22B9FF001B2
:103920001124EB51FA4F3081353011F00C942313F0
:10393000DC01AC5FBE4F4C9150E03581332341F048
:1039400060914F05362F3150323010F40C9427130C
:103950006FB7F89434E2389FF001399FF00D1124CD
:10396000EB51FA4F34E0308332E03287548743879B
:103970002111EAC02091840030918500240F351F69
:103980003093890020938800B19A20916F002260C3
:1039900020936F0021E02093810024E2289FF00112
:1039A000299FF00D112413CB823009F4AFC083306E
:1039B00011F00C94231382E499E09093E205809334
:1039C000E10560914F050C94251324E2E29FF0017C
:1039D0001124EB51FA4F138245CCA4E2EA9FF00187
:1039E0001124EB51FA4F128260914F050C9425136C
:1039F00084E2E89FF0011124EB51FA4F81E08183CA
:103A000060914F050C94251380916A05E82FF0E032
:103A1000EE0FFF1FED59FA4F4081518162E00E9485
:103A2000BC0FE0916A0544E2E49FF0011124EB51E0
:103A3000FA4F168260914F050C94251390938B00DA
:103A400080938A00B29A80916F00846080936F00A7
:103A500081E08093810097CC40916A05842F90E0AB
:103A6000FC01EE0FFF1FED59FA4F208131815FB746
:103A7000F89464E2689FF001699FF00D1124EB5106
:103A8000FA4F82E080838287348723878091840085
:103A900090918500820F931F41112AC09093890055
:103AA00080938800B19A80916F00826080936F004C
:103AB00081E0809381005FBF80917A0086FD0AC01B
:103AC00080917900805880932C0480917A008064E2
:103AD00080937A00E0916A0524E2E29FF0011124CC
:103AE000EB51FA4F81E0868360914F050C942513CA
:103AF00090938B0080938A00B29A80916F008460CB
:103B000080936F0081E080938100D5CF8FE799E0AB
:103B10009093E2058093E10560914F050C94251385
:103B20008BE090E00E94122737CB87E090E00E9464
:103B3000122732CB8CEB98E09093E2058093E1055D
:103B400060914F050C9425132091840030918500DD
:103B5000240F351F30938B0020938A00B29A209156
:103B60006F00246020936F0021E02093810015CF27
:103B700080916005882309F469C0813009F4C5C0CB
:103B8000823009F0089580915C0580FF06C0909115
:103B9000620521E092279093620581FF06C0909113
:103BA000620522E092279093620582FF06C0909101
:103BB000620524E092279093620583FF06C09091EE
:103BC000620528E092279093620584FF06C09091D9
:103BD000620520E192279093620585FF06C09091CF
:103BE000620520E292279093620586FD61C087FD01
:103BF000A9C080915905882329F23091B105832FFE
:103C000090E02091620530FD2E7F81FD2D7F82FDA9
:103C10002B7F83FD277F84FD2F7E85FD2F7D86FDF5
:103C20002F7B880F892F881F990B892B09F02F77FD
:103C3000209362051092B10568E970E082E00E946D
:103C4000532780915805809362050895109262056C
:103C50001092B10568E970E082E00E94532730912C
:103C6000B105832F90E02091620530FD2E7F81FD0C
:103C70002D7F82FD2B7F83FD277F84FD2F7E85FD99
:103C80002F7D86FD2F7B880F892F881F990B892B0D
:103C900009F02F772093620580EC8093B10568E9E5
:103CA00070E082E00E94532781E0809360050895D0
:103CB0003091B105832F90E02091620530FD2E7F79
:103CC00081FD2D7F82FD2B7F83FD277F84FD2F7E4D
:103CD00085FD2F7D86FD2F7B880F892F881F990BEF
:103CE000892B09F02F77209362051092B10568E9BE
:103CF00070E082E00E9453278091620590E489275A
:103D00008093620580915C0572CFF8948093E505FD
:103D10008093EF058093EF0580918100806480930C
:103D20008100B59A80916F00806280936F008CE073
:103D300099E09093E2058093E105789482E0809386
:103D4000600508953091B105832F90E020916205C0
:103D500030FD2E7F81FD2D7F82FD2B7F83FD277F10
:103D600084FD2F7E85FD2F7D86FD2F7B880F892F7B
:103D7000881F990B892B09F02F77209362051092E9
:103D8000B10568E970E082E00E94532780916205E6
:103D90008058809362052DCFBF92CF92DF92EF9231
:103DA000FF920F931F93CF93DF9380916005811152
:103DB0006EC080916805909169058038910508F082
:103DC00028C2482F2091B105822F90E020FD4E7F20
:103DD00081FD4D7F82FD4B7F83FD477F84FD4F7EBC
:103DE00085FD4F7D86FD4F7B9C01220F232F221FD7
:103DF000330B232B09F04F77409362051092B105E6
:103E000068E970E082E00E945327209168053091B4
:103E10006905F901F695E795F695E795F695E79525
:103E2000FF27EF58FA4F808190E02770332702C0B8
:103E3000959587952A95E2F780FF25C03091B105C9
:103E4000832F90E02091620530FD2E7F81FD2D7F34
:103E500082FD2B7F83FD277F84FD2F7E85FD2F7DB7
:103E600086FD2F7B880F892F881F990B892B09F0DE
:103E7000D8C12093620580E88093B10568E970E0BD
:103E800082E00E94532781E08093600519C08091F1
:103E90005F0581111FC080915E058111C4C1109220
:103EA00062051092B10568E970E082E00E94532734
:103EB00083E193E19093E4058093E305109260051C
:103EC000DF91CF911F910F91FF90EF90DF90CF90F6
:103ED000BF90089580915E058F3009F4A4C1809150
:103EE0005905882309F44BC080915A058111C8C136
:103EF00080915B054091680550916905882309F41C
:103F000004C24115510509F0FAC18FE790E0909382
:103F100069058093680547E050E02FE030E06FE7E7
:103F2000F901EF58FA4F808190E002C0959587958E
:103F30004A95E2F72091B10580FFBBC1822F90E046
:103F400020FD6E7F81FD6D7F82FD6B7F83FD677F2E
:103F500084FD6F7E85FD6F7D86FD6F7B880F892FC9
:103F6000881F990B892B09F06F776093620580E8B1
:103F70008093B10568E970E082E00E9453271091B8
:103F80005C0510FF1AC08091680590916905FC01DD
:103F9000F695E795F695E795F695E795FF27EF589F
:103FA000FA4F208130E0AC014770552702C03595AB
:103FB00027954A95E2F720FD5EC111FF7FC0C090B2
:103FC0006805D0906905F601F695E795F695E795B1
:103FD000F695E795FF27EF58FA4F808190E096011C
:103FE0002770332702C0959587952A95E2F780FFC1
:103FF00065C00091670580915E058E3009F05EC056
:10400000C02FD0E084E2089FF0011124EB51FA4F59
:104010008581811153C01FB7F894BFB6F894DC2C8A
:10402000CC24DD0CDD0C4FEFC41AD40AE12CF12CAA
:10403000C701B6010E94AB2C813009F44CC2BFBE4F
:1040400081E090E0A0E0B0E0809322019093230112
:10405000A0932401B09325012FB7F89481E08093B9
:104060004F0594E29C9FF0019D9FF00D1124EB51B0
:10407000FA4F8583002309F40EC2109254058FEF86
:104080009FEFA7E0B0E08093500590935105A09377
:104090005205B09353051092B20081E68093B300AD
:1040A0008FEF87BB8091700084608093700082E006
:1040B0008093B1002FBF1FBF10915C0512FF47C056
:1040C000F09067052F2D30E084E2F89EF001112476
:1040D000EB51FA4F418952896389748985859685A8
:1040E000A785B089481759076A077B0781F1D091E6
:1040F00068051091690580915E058E3009F41BC139
:104100003091B105832F90E02091620530FD2E7F24
:1041100081FD2D7F82FD2B7F83FD277F84FD2F7EF8
:1041200085FD2F7D86FD2F7B880F892F881F990B9A
:10413000892B09F02F772093620580E88093B105E1
:1041400068E970E082E00E94532710915C0513FF3C
:1041500057C08091680590916905FC01F695E79537
:10416000F695E795F695E795FF27EF58FA4F4081CA
:104170009C0127703327842F90E0022E02C0959572
:1041800087950A94E2F780FF3BC080915E058E30F0
:10419000B9F581E090E001C0880F2A95EAF7809593
:1041A0008423808386E080935E053091B105832F60
:1041B00090E02091620530FD2E7F81FD2D7F82FDF4
:1041C0002B7F83FD277F84FD2F7E85FD2F7D86FD40
:1041D0002F7B880F892F881F990B892B09F02F7748
:1041E000209362051092B10568E970E082E00E94B8
:1041F0005327809162058F778093620510915C054B
:1042000014FD4DCE812F807609F049CE17FF58CE90
:1042100046CE8FE790E090936905809368054FE75D
:10422000D1CD2F7726CECFB7F8940E94352AE1E77B
:10423000F5E0119245E0E13BF407D9F710924F0504
:104240001092B100809170008B7F8093700010926B
:10425000550510922B0110922A01109229011092FB
:10426000280110922701109226010E941E2A109206
:104270005E05CFBF14CE0E94A21110915C059DCEA9
:10428000809168059091690501968038910508F044
:1042900048C09093690580936805682F9C01369506
:1042A00027953695279536952795AC014770552764
:1042B00037CE822F90E020FD6E7F81FD6D7F82FDE5
:1042C0006B7F83FD677F84FD6F7E85FD6F7D86FD3F
:1042D0006F7B880F892F881F990B892B09F06F77C7
:1042E000609362051092B10568E970E082E00E9477
:1042F0005327809162058F778093620540CE4150AD
:1043000051095093690540936805642F9A013695C9
:104310002795369527953695279533274770552746
:10432000FFCD109269051092680540E050E020E052
:1043300030E060E0F5CD85818111E2CE8781F1101A
:1043400090C08111B3C085899689A789B08D418DB0
:10435000528D638D748D0196A11DB11D841B950B2B
:10436000A60BB70BCFB7F894EFB7F894D0936805C6
:10437000109369055D2F550F550F40E04F5F5F4F5C
:1043800060E070E04093B2055093B3056093B405CC
:104390007093B5051092B7051092B60510922B01D7
:1043A00010922A01109229011092280110922701DF
:1043B000109226018D3F4FEF940747E0A407B10507
:1043C00020F08CEF9FEFA7E0B0E080932201909364
:1043D0002301A0932401B0932501809122019091A3
:1043E0002301A0912401B091250180931E01909397
:1043F0001F01A0932001B093210182E080935E050C
:10440000EFBF4FB7F89480934F0584E2829FF0018D
:10441000839FF00D1124EB51FA4F81E08583FF203B
:1044200079F1109254058FEF9FEFA7E0B0E08093F1
:10443000500590935105A0935205B09353051092E7
:10444000B20081E68093B3008FEF87BB809170004C
:1044500084608093700082E08093B1004FBFCFBF33
:104460004FCE882341F181899289A389B4894585FA
:10447000568567857089841B950BA60BB70B72CF89
:1044800080935405109250051092510510925205D8
:1044900010925305D4CF809354051092500510927A
:1044A00051051092520510925305F5CD85859685DC
:1044B000A785B08957CF818D928DA38DB48D458905
:1044C00056896789708D0196A11DB11D841B950BBE
:1044D000A60BB70B47CFC092B205D092B305E092BE
:1044E000B405F092B5051092B7051092B60510927A
:1044F0002B0110922A01109229011092280110928A
:104500002701109226016AE770E083E00E9453279A
:1045100089E080935E05BFBE93CD809160058823BE
:10452000D9F1813031F1823009F0089580915E0532
:104530008E30D9F7109262051092B10568E970E0EB
:1045400082E00E9453278091620582608093620519
:1045500080915E05882321F080915C05882329F3F2
:1045600085E492E19093E4058093E3051092600561
:10457000089580915D0580FF02C087FD47C080914E
:104580005E058111D2CF85E492E19093E40580939A
:10459000E30510926005ECCF109262051092B10510
:1045A00068E970E082E00E9453271092E5051092BE
:1045B000EF0510920906109213063091B105832F72
:1045C00090E02091620530FD2E7F81FD2D7F82FDE0
:1045D0002B7F83FD277F84FD2F7E85FD2F7D86FD2C
:1045E0002F7B880F892F881F990B892B09F02F7734
:1045F0002093620581E88093B10568E970E082E06C
:104600000E94532781E080936005089586E080939F
:104610005E05109262051092B10568E970E082E0D3
:104620000E9453278091620581688093620582E031
:104630008093600508951F920F920FB60F92112478
:104640002F933F934F935F936F937F938F939F939A
:10465000AF93BF93EF93FF93469A8091E70588232A
:1046600079F18091E705811127C010924104E09112
:10467000E105F091E205099580917A0086FD0AC076
:1046800080917900805880932C0480917A00806416
:1046900080937A004698FF91EF91BF91AF919F91DF
:1046A0008F917F916F915F914F913F912F910F90DB
:1046B0000FBE0F901F901895809141048823A9F296
:1046C0000E9479000E94790080934204CECF1F920D
:1046D0000F920FB60F9211242F933F934F935F9336
:1046E0006F937F938F939F93AF93BF93EF93FF93BA
:1046F000479A80910B06882379F180910B068111EE
:1047000027C010924405E091E105F091E20509957A
:1047100080917A0086FD0AC080917900805880934C
:104720002C0480917A00806480937A00DA9AFF9159
:10473000EF91BF91AF919F918F917F916F915F9119
:104740004F913F912F910F900FBE0F901F90189592
:10475000809144058823A9F20E948A04809345052C
:10476000D0CF1F920F920FB60F9211240F931F9369
:104770002F933F934F935F936F937F938F939F9369
:10478000AF93BF93CF93DF93EF93FF93469A8091BC
:10479000E705882309F47AC08091E705811171C08B
:1047A0008091ED05882309F45DC0A091ED0520916D
:1047B000F0053091F105B0E00E9496352FE730E02A
:1047C00040E050E00E946E35009188001091890011
:1047D000C091F005D091F105609100017091010147
:1047E00080910201909103010E946E35C00FD11F8C
:1047F0004091490550914A05C40FD51FC61BD70BE0
:10480000D0938900C093880070934A05609349054E
:1048100010924705E091E105F091E205099580913C
:104820007A0086FD0AC080917900805880932C041C
:1048300080917A00806480937A00FF91EF91DF91FC
:10484000CF91BF91AF919F918F917F916F915F9128
:104850004F913F912F911F910F910F900FBE0F908D
:104860001F90189520918800309189008091F00563
:104870009091F105820F931F909389008093880097
:10488000C7CF80914705882309F48ACF0E94790019
:104890008093480585CF1F920F920FB60F92112477
:1048A0000F931F932F933F934F935F936F937F9338
:1048B0008F939F93AF93BF93CF93DF93EF93FF9328
:1048C00080910B06882309F47AC080910B06811130
:1048D00071C080911106882309F45DC0A091110672
:1048E0002091140630911506B0E00E9496352FE70E
:1048F00030E040E050E00E946E3500918A00109157
:104900008B00C0911406D091150660910001709142
:10491000010180910201909103010E946E35C00F48
:10492000D11F40914D0550914E05C40FD51FC61B98
:10493000D70BD0938B00C0938A0070934E05609381
:104940004D0510924B05E091E105F091E2050995C6
:1049500080917A0086FD0AC080917900805880930A
:104960002C0480917A00806480937A00FF91EF910B
:10497000DF91CF91BF91AF919F918F917F916F9177
:104980005F914F913F912F911F910F910F900FBE0B
:104990000F901F90189520918A0030918B00809184
:1049A000140690911506820F931F90938B008093AD
:1049B0008A00C7CF80914B05882309F48ACF0E94D3
:1049C0008A0480934C0585CF1F920F920FB60F92E9
:1049D00011242F933F934F935F936F937F938F9304
:1049E0009F93AF93BF93EF93FF9380914F058130D7
:1049F000B9F0823009F48DC0833009F409C1FF9108
:104A0000EF91BF91AF919F918F917F916F915F9146
:104A10004F913F912F910F900FBE0F901F901895BF
:104A20008091220190912301A0912401B091250150
:104A3000892B8A2B8B2B09F43EC180912601909102
:104A40002701892BE1F2E0912A01F0912B01E45D2D
:104A5000FE4F308180912A0190912B010196909315
:104A60002B0180932A0180912A0190912B018115BD
:104A7000934008F06AC18091260190912701019727
:104A80009093270180932601809122019091230128
:104A9000A0912401B09125010197A109B10980934A
:104AA000220190932301A0932401B09325018FEF5D
:104AB00084B98091500585B9139A13988091500557
:104AC00090915105A0915205B0915305492F5A2F4D
:104AD0006B2F772745B9149A149828B1287F28B9E5
:104AE00048B12A2F2770242B28B935B920915405B5
:104AF000213009F459C10197A109B10980935005EA
:104B000090935105A0935205B09353051198119AB3
:104B100076CF80912601909127018115934008F06E
:104B20006ECF8091220190912301A0912401B09138
:104B30002501892B8A2B8B2B09F4E6C08091500527
:104B400085B9139A13988091500590915105A091C1
:104B50005205B0915305492F5A2F6B2F772745B92E
:104B6000149A149828B1287F28B938B12A2F2770B1
:104B7000232B28B914B8129820915405213009F438
:104B8000E9C00197A109B10980935005909351059F
:104B9000A0935205B093530583B1129A9FEF94B935
:104BA000E0912801F0912901E45DFE4F808380911E
:104BB0002801909129010196909329018093280161
:104BC00080912801909129018115934020F0109245
:104BD00029011092280180912601909127010196C8
:104BE00090932701809326018091220190912301C7
:104BF000A0912401B09125010197A109B1098093E9
:104C0000220190932301A0932401B0932501F7CEB4
:104C10008091220190912301A0912401B09125015E
:104C2000892B8A2B8B2B09F47FC0809126019091D0
:104C30002701892B09F4E3CEE0912A01F0912B01A1
:104C4000E45DFE4F208180912A0190912B01019615
:104C500090932B0180932A0180912A0190912B013E
:104C60008115934020F010922B0110922A0180911F
:104C700026019091270101979093270180932601A7
:104C80008091220190912301A0912401B0912501EE
:104C90000197A109B1098093220190932301A09368
:104CA0002401B093250120935505E091E105F09191
:104CB000E2050995A4CE10924F051092B1008091A3
:104CC00070008B7F8093700080915405813009F4CF
:104CD00050C010920E068091500590915105A09100
:104CE0005205B09153058093160690931706A09332
:104CF0001806B093190680931E0690931F06A09382
:104D00002006B09321067BCE10924F051092B10081
:104D1000809170008B7F809370008091540581306A
:104D200029F110920E066BCE10924F051092B10031
:104D3000809170008B7F8093700010925505E091F8
:104D4000E105F091E20509955ACE10922B011092DF
:104D50002A0191CE0196A11DB11D8093500590931B
:104D60005105A0935205B093530516CF1092EA0552
:104D700046CE1092EA058091500590915105A09180
:104D80005205B09153058093F2059093F305A093DB
:104D9000F405B093F5058093FA059093FB05A09375
:104DA000FC05B093FD052BCE0196A11DB11D80938E
:104DB000500590935105A0935205B0935305A6CE8C
:104DC0001F920F920FB60F9211248F939F93909181
:104DD000400480915605891758F015B88F5F80936D
:104DE00056059F918F910F900FBE0F901F901895B1
:104DF0009FEF95B9F3CF1F920F920FB60F92112428
:104E00000F900FBE0F901F901895A89B0AC0A89AEC
:104E100080912D0690912E06019690932E068093F8
:104E20002D060895F999FECF2FB7F89492BD81BD54
:104E300060BDFA9AF99A2FBF12BC11BC0895F99976
:104E4000FECF2FB7F89490E092BD81BDF89A2FBFA6
:104E500012BC11BC80B508958091C000881F8827BE
:104E6000881F08958091C6000895809164008D7F09
:104E7000809364008091C0008D7F8093C00088E1A2
:104E80008093C10087E28093C40086E08093C200D3
:104E90008091C00085FFFCCF8091C00087FF0895FE
:104EA0008091C600F9CF90E020912D0630912E061A
:104EB000880F991FFC01EC53FA4F31832083FC01CA
:104EC000E453FA4F71836083089520912D06309149
:104ED0002E0690E0880F991FFC01EC53FA4F408199
:104EE0005181241B350BFC01E453FA4F81E04081D2
:104EF00051812417350708F480E00895DC01809182
:104F00006106882301F19091D405E92FF0E0EE0FBE
:104F1000FF1FEE0FFF1FE05DF94F218111962C93CB
:104F20001197228112962C931297238113962C931A
:104F3000139720812C939F5F963030F49093D40583
:104F400081508093610608951092D405F9CF909115
:104F500062069630C0F43091D505E32FF0E0EE0FF5
:104F6000FF1FEE0FFF1FE75BF94F6183428323832F
:104F700080912F0680833F5F363030F43093D50523
:104F80009F5F9093620608951092D505F9CF89E04E
:104F90008093D6051092D705109261061092D8051D
:104FA0001092D405109262061092D5051092D90580
:104FB000089587FD3EC09091D605943009F4D2C083
:104FC00070F1973009F493C008F065C0953009F48A
:104FD00068C09630C1F54091DB053091DA059091BB
:104FE00061069630C0F42091D805E22FF0E0EE0F74
:104FF000FF1FEE0FFF1FE05DF94F52E05183428328
:10500000838330832F5F263008F023C12093D80597
:105010009F5F9093610681E08093D605089591305B
:1050200009F46BC068F58093DB0585E08093D605B5
:105030000895982F9F7020912F06291741F03091E5
:105040004806391721F089E08093D6050895807FBE
:10505000803909F460C0803809F4CBC0803C09F481
:10506000CEC0803E09F44FC0803B69F783E0809357
:10507000D605291709F44CC081E08093DA0508951C
:10508000923009F44DC09330F1F68093DB0584E053
:105090008093D6050895983009F487C0993099F621
:1050A0000895882309F4B1C04091DB053091DA05F9
:1050B000909161069630C0F42091D805E22FF0E07F
:1050C000EE0FFF1FEE0FFF1FE05DF94F51E0518320
:1050D0004283838330832F5F263008F0C3C0209340
:1050E000D8059F5F909361061092D605089580932E
:1050F000DB0588E08093D60508958093DB0586E084
:105100008093D605089587E08093D6052913B4CF00
:105110001092DA0508951092D6052913ADCFF8CF75
:105120003091DA05909161069630C0F42091D8054F
:10513000E22FF0E0EE0FFF1FEE0FFF1FE05DF94FD3
:1051400043E041838283138230832F5F263008F04F
:105150007DC02093D8059F5F9093610682E0809385
:10516000D60508955091DB054091DA05209161063E
:105170002630B8F43091D805E32FF0E0EE0FFF1F92
:10518000EE0FFF1FE05DF94F9183528383834083CD
:105190003F5F363008F060C03093D8052F5F209312
:1051A000610683E08093D60508954091DB05309138
:1051B000DA05909161069630C0F42091D805E22F6F
:1051C000F0E0EE0FFF1FEE0FFF1FE05DF94F57E01D
:1051D00051834283838330832F5F263008F03FC0A2
:1051E0002093D8059F5F9093610687E08093D60552
:1051F000089581E08093D60529133FCF89CF82E0BF
:105200008093D605291338CF83CF3091DB052091C9
:10521000DA0580916106863008F066CF9091D80556
:10522000E92FF0E0EE0FFF1FEE0FFF1FE05DF94FDB
:1052300042E041833283138220839F5F9630A8F43B
:105240009093D8058F5F809361064ECF1092D8055A
:1052500082CF1092D805DCCE1092D8059FCF109245
:10526000D805C0CF1092D8053CCF1092D805EACF10
:1052700080916206811107C081E09091D70591115C
:10528000089580E0089581E008958091D7058330E6
:1052900009F468C068F0853009F44EC008F442C0D3
:1052A000863009F453C0873009F44BC080E008957C
:1052B000813009F451C0D0F580916206882309F449
:1052C00058C02091D905E22FF0E0EE0FFF1FEE0F3E
:1052D000FF1FE75BF94F91819093DD053281309399
:1052E000DE0533813093DF0530813093DC052F5F9D
:1052F0002630E0F52093D9058150809362069230E4
:1053000009F44CC0C8F5913089F68091DC058069BC
:105310002091E005281709F45BC08093E005909385
:10532000D70508951092D70580E0089584E0809312
:10533000D7058091DE0508951092D7058091DE058E
:1053400008951092D7058091DF05089587E0809336
:10535000D7058091DE05089583E08093D70580917D
:10536000DE0508951092D70580E408951092D905BE
:10537000C3CF9091DD05C3CF9330E9F0943009F0AD
:1053800095CF8091DC05806B9091E005981731F105
:105390008093E00596E09093D70508958091DC0511
:1053A00080692091E0052813B8CF8091DE0594E054
:1053B0009093D70508958091DC05806C9091E0056D
:1053C000981791F08093E00595E09093D7050895A4
:1053D0008091DE0593E09093D70508958091DE05D6
:1053E00097E09093D70508958091DE051092D70538
:1053F00008958091C80080648093C8008091C8009F
:1054000085FFFCCF8FEF8093CE008091C80087FF8F
:10541000FCCF8091CE008091C80086FFFCCF08951C
:105420008AB18F7C8AB98BB180638BB91092C90025
:10543000E4E6F0E08081806180830895E4E6F0E0B6
:1054400080818F7E8083ECECF0E011821082549A90
:1054500080EC8093CA0088E18093C90081E090E0ED
:1054600091838083559A5D9A08955D9A08955D9A17
:105470005D9808959091C80095FFFCCF8093CE0071
:105480008091C80087FFFCCF8091CE000895E82F5F
:105490005D9A5D989091C80095FFFCCF8FEF809347
:1054A000CE009091C80097FFFCCF8091CE00E7FD21
:1054B00081C08E2F80649091C80095FFFCCF8093AF
:1054C000CE009091C80097FFFCCF8091CE009091C4
:1054D000C80095FFFCCF7093CE009091C80097FF55
:1054E000FCCF8091CE009091C80095FFFCCF6093D7
:1054F000CE009091C80097FFFCCF8091CE00909194
:10550000C80095FFFCCF5093CE009091C80097FF44
:10551000FCCF8091CE009091C80095FFFCCF4093C6
:10552000CE009091C80097FFFCCF8091CE00EE2373
:1055300009F4C4C0E83009F0C7C087E89091C800FA
:1055400095FFFCCF8093CE009091C80097FFFCCFD1
:105550008091CE00EC3009F4A3C02AE03FEF909197
:10556000C80095FFFCCF3093CE009091C80097FF04
:10557000FCCF8091CE008F3F11F4215081F7E830AD
:10558000C1F0EA33B1F09091C80090649093C800E4
:105590009091C80095FFFCCF9FEF9093CE00909123
:1055A000C80097FFFCCF9091CE009091C80096FF65
:1055B000FCCF08958091C80085FFFCCF87E78093DA
:1055C000CE008091C80087FFFCCF8091CE008091F3
:1055D000C80085FFFCCF1092CE008091C80087FFE5
:1055E000FCCF8091CE008091C80085FFFCCF109247
:1055F000CE008091C80087FFFCCF8091CE008091C3
:10560000C80085FFFCCF1092CE008091C80087FFB4
:10561000FCCF8091CE008091C80085FFFCCF109216
:10562000CE008091C80087FFFCCF8091CE00809192
:10563000C80085FFFCCF81E08093CE008091C80038
:1056400087FFFCCF8091CE002AE03FEF9091C80009
:1056500095FFFCCF3093CE009091C80097FFFCCF10
:105660008091CE008F3F11F4215081F79091C800B6
:1056700090649093C8009091C80095FFFCCF9FEF75
:105680009093CE009091C80097FFFCCF9091CE00F0
:105690009091C80096FFFCCF5D9A823088F0089503
:1056A0008091C80085FFFCCF8FEF8093CE00809162
:1056B000C80087FFFCCF8091CE004FCF85E93ECF59
:1056C000EF775D9A5D98F5CE81E038CF1F93CF9349
:1056D000DF9300D000D0CDB7DEB75D9A94E12FEF15
:1056E0008091C80080648093C8008091C80085FFC5
:1056F000FCCF2093CE008091C80087FFFCCF809123
:10570000CE00915069F78091C80086FFFCCF5D9A6A
:105710005D9880E092E03FEF2091C80020642093E4
:10572000C8002091C80025FFFCCF3093CE00209107
:10573000C80027FFFCCF2091CE00019769F7809128
:10574000C80086FFFCCF5D9A40E050E0BA0180E0DF
:105750000E94472A8091C80086FFFCCF5D9A40E0F6
:1057600050E0BA0180E00E94472A813051F080E089
:105770005D9A0F900F900F900F90DF91CF911F9136
:1057800008955D9A4AEA51E060E070E088E00E9486
:10579000472A813009F445C08091C8008064809315
:1057A000C8008091C80085FFFCCF8FEF8093CE00AA
:1057B0008091C80087FFFCCF8091CE008091C80007
:1057C00086FFFCCF5D9A40E050E0BA0189EA0E9472
:1057D000472A823060F65D9A64EC74E083E00E94B0
:1057E00053270BC040E050E0BA0189EA0E94472AE3
:1057F000882341F00E9405275D9A83E00E94652777
:10580000882381F383E00E9465278111B0CF40E0B7
:1058100052E060E070E080E10E94472A5D9A81E0FA
:10582000A7CFFE013196CE0105963FEF2091C8002B
:1058300025FFFCCF3093CE002091C80027FFFCCF7E
:105840002091CE002193E817F90781F78091C800D5
:1058500080648093C8008091C80085FFFCCF8FEFE3
:105860008093CE008091C80087FFFCCF8091CE004E
:105870008091C80086FFFCCF5D9A8B81813009F052
:1058800076CF8C818A3A09F072CF64EC74E083E0C1
:105890000E9453270BC040E050E0BA0189EA0E9401
:1058A000472A882341F05D9A0E94052783E00E94E1
:1058B0006527882381F383E00E946527811157CFF4
:1058C0001FEF83E00E946527811121C040E050E076
:1058D000BA018AE30E94472A8823C9F08091C80050
:1058E00080648093C8008091C80085FFFCCF10932E
:1058F000CE008091C80087FFFCCF8091CE008091C0
:10590000C80086FFFCCF0E9405275D9ADACF83E0AE
:105910000E94652781112BCF84E09FEF2091C80062
:1059200025FFFCCF9093CE002091C80027FFFCCF2D
:105930002091CE00815091F70E94F9295D9A40E0B4
:1059400052E060E070E080E10E94472A5D9A0E9488
:10595000F92981E00DCFAB01BC0189E0440F551F4F
:10596000661F771F8A95D1F781E10E94472A91E04F
:10597000811190E0892F0895AB01BC0199E0440F9B
:10598000551F661F771F9A95D1F788E10E94472A15
:1059900091E0811190E0892F0895CF93DF93CDB7E7
:1059A000DEB72C970FB6F894DEBF0FBECDBF1FEF4A
:1059B0001093640085B78F7E85BF8FEE87B988E02E
:1059C00088B980E88AB91BB896E092B99EE391B98C
:1059D00014B985B9129A14B9159A15980E941E2AFD
:1059E00066E270E081E00E9453273D98459A80B1BD
:1059F000807C80935705109258051092590510929B
:105A00005A0510925B05109262051092B1058FB78E
:105A1000F89415B814B95F9A5F988FBF0E94C72792
:105A20000E943527809164008E7F8093640080E619
:105A300080937C0081E080937E0085E980937A00EA
:105A400080917A00806480937A00809164008F7DD9
:105A50008093640010926E0014BC16BC15BB1092AB
:105A60002E0610922D0683E085BD80916400877F0D
:105A70008093640010926F008FEF9FEF90938900E6
:105A80008093880090938B0080938A00109280000E
:105A900010928100109285001092840016BB109223
:105AA0005C0510925D0510925E0510925F0578947A
:105AB00085E492E19093E4058093E30510926005FC
:105AC0000DE8202E02E2302E99249A94C12C82E017
:105AD000D82E9EE0892E2DE0722E3AE0532EE12C36
