:100000000C945A000C9477000C9477000C947700B1
:100010000C9477000C9477000C944E1A0C94770093
:100020000C9477000C94A11D0C94C01B0C947700C9
:100030000C94071A0C94961A0C942B1B0C947700B2
:100040000C9477000C9477000C9477000C94770054
:100050000C9477000C9477000C9477000C94770044
:100060000C9477000C9477000C9477000C94770034
:100070000C9477000C9477000C94770035172A19AC
:100080002A192A192A192A1954172A192A192A1930
:100090002A199117BD17D417EB1704181B182A1823
:1000A00031183D185818881891189A18A318A818CC
:1000B000B518C21811241FBECFEFD0E1DEBFCDBFEF
:1000C00011E0A0E0B1E0E0E5F1E502C005900D929D
:1000D000AE31B107D9F726E0AEE1B1E001C01D9223
:1000E000A236B207E1F70E9411220C94A6280C94C4
:1000F000BC1D8091E6058330C1F030F4813059F0A9
:10010000823009F0A2C30EC0843009F48EC085305D
:1001100009F09BC307C280914304982F9F5F90937F
:100120004304089580912C04EBC18FEF84B9809132
:10013000050690910606A0910706B091080685B9BC
:10014000139A13988091050690910606A0910706D0
:10015000B0910806892F9A2FAB2FBB2785B9149A27
:1001600014988091050690910606A0910706B0911B
:100170000806CD01AA27BB2787709927AA27BB2786
:10018000886888B980912C0485B980910506909182
:100190000606A0910706B09108060196A11DB11DA3
:1001A0008093050690930606A0930706B093080671
:1001B0008091050690910606A0910706B091080669
:1001C0008093F2059093F305A093F405B093F505A1
:1001D0008091050690910606A0910706B091080649
:1001E0008093FA059093FB05A093FC05B093FD0561
:1001F0004091F2055091F3056091F4057091F50579
:100200008091150690911606A0911706B0911806D8
:10021000481759076A077B0728F01092E60581E026
:1002200080933F041198119A10C380910506909114
:100230000606A0910706B091080685B9139A13988F
:100240008091050690910606A0910706B0910806D8
:10025000892F9A2FAB2FBB2785B9149A14988091B8
:10026000050690910606A0910706B0910806CD01FB
:10027000AA27BB2787709927AA27BB27886888B930
:1002800014B812988091EC05882309F46AC0809113
:100290002D0490912E04A0912F04B0913004892B4D
:1002A0008A2B8B2B39F18091050690910606A0913F
:1002B0000706B09108060196A11DB11D80930506A1
:1002C00090930606A0930706B093080680912D042C
:1002D00090912E04A0912F04B09130040197A109B0
:1002E000B10980932D0490932E04A0932F04B09312
:1002F000300402C18091350490913604A0913704F6
:10030000B091380480932D0490932E04A0932F0471
:10031000B093300480913D048F5F80933D049091B1
:100320003D048091EC05981302C010923D04E091C9
:100330003D042091350430913604409137045091AA
:100340003804F0E0EC5BFB4FA081B0E00E949B28FA
:10035000609305067093060680930706909308063F
:10036000CBC08091EA054091050650910606609148
:1003700007067091080681115AC08091FE05909180
:10038000FF05A0910006B0910106481759076A07BA
:100390007B0729F48091E705813009F459C0409129
:1003A0000506509106066091070670910806809137
:1003B000FE059091FF05A0910006B0910106481737
:1003C00059076A077B0749F48091FA059091FB056C
:1003D000A091FC05B091FD0587C0409105065091A4
:1003E000060660910706709108068091F6059091C7
:1003F000F705A091F805B091F905481759076A0764
:100400007B0749F48091F2059091F305A091F405E2
:10041000B091F50569C08091050690910606A091FE
:100420000706B09108060197A109B1095DC0809146
:10043000FA059091FB05A091FC05B091FD054817C8
:1004400059076A077B0749F48091E705813029F451
:100450001092E6051092EF054FC0409105065091AD
:10046000060660910706709108068091FA05909142
:10047000FB05A091FC05B091FD05481759076A07D7
:100480007B0749F48091FE059091FF05A09100063D
:10049000B091010629C04091050650910606609171
:1004A0000706709108068091F2059091F305A091DE
:1004B000F405B091F505481759076A077B0749F419
:1004C0008091F6059091F705A091F805B091F90596
:1004D0000BC08091050690910606A0910706B09189
:1004E00008060196A11DB11D80930506909306068E
:1004F000A0930706B093080683B1129A9FEF94B9B0
:100500009091EE05992309F4A1C180589091EE05D0
:100510002FEF30E0092E01C0220F0A94EAF7822360
:10052000805808958091050690910606A0910706CF
:10053000B091080685B9139A139880910506909199
:100540000606A0910706B0910806892F9A2FAB2FB7
:10055000BB2785B9149A14988091050690910606D8
:10056000A0910706B0910806CD01AA27BB27877086
:100570009927AA27BB27886888B914B81298809150
:10058000EC05882309F46AC080912D0490912E0413
:10059000A0912F04B0913004892B8A2B8B2B39F139
:1005A0008091050690910606A0910706B091080675
:1005B0000196A11DB11D8093050690930606A09398
:1005C0000706B093080680912D0490912E04A09107
:1005D0002F04B09130040197A109B10980932D0433
:1005E00090932E04A0932F04B093300402C1809105
:1005F000350490913604A0913704B091380480936B
:100600002D0490932E04A0932F04B0933004809176
:100610003D048F5F80933D0490913D048091EC05F3
:10062000981302C010923D04E0913D0420913504DE
:10063000309136044091370450913804F0E0EC5B7F
:10064000FB4FA081B0E00E949B2860930506709349
:1006500006068093070690930806CBC08091EA05B2
:1006600040910506509106066091070670910806B4
:1006700081115AC08091FE059091FF05A09100065E
:10068000B0910106481759076A077B0729F4809142
:10069000E705813009F459C04091050650910606DE
:1006A00060910706709108068091FE059091FF0504
:1006B000A0910006B0910106481759076A077B0709
:1006C00049F48091FA059091FB05A091FC05B09149
:1006D000FD0587C04091050650910606609107060A
:1006E000709108068091F6059091F705A091F805A4
:1006F000B091F905481759076A077B0749F48091BB
:10070000F2059091F305A091F405B091F50569C04B
:100710008091050690910606A0910706B091080603
:100720000197A109B1095DC08091FA059091FB057F
:10073000A091FC05B091FD05481759076A077B0792
:1007400049F48091E705813029F41092E605109272
:10075000EF054FC0409105065091060660910706CF
:10076000709108068091FA059091FB05A091FC0517
:10077000B091FD05481759076A077B0749F4809136
:10078000FE059091FF05A0910006B091010629C0D9
:100790004091050650910606609107067091080683
:1007A0008091F2059091F305A091F405B091F505C3
:1007B000481759076A077B0749F48091F60590911D
:1007C000F705A091F805B091F9050BC080910506D9
:1007D00090910606A0910706B09108060196A11D0A
:1007E000B11D8093050690930606A0930706B0936B
:1007F000080683B1129A9FEF94B99091EE05992360
:1008000061F080589091EE052FEF30E0092E01C085
:10081000220F0A94EAF78223805820912C04332770
:1008200027FD3095280F311D87FD3A9520389FEF21
:10083000390714F420E83FEF2038310514F02FE792
:1008400030E025B91198119A089580E008950F932A
:100850001F93809109068330C1F030F4813059F044
:10086000823009F0B2C30EC0843009F48EC08530E6
:1008700009F0ABC30FC280914605982F9F5F9093FC
:100880004605A4C380912C04F3C18FEF84B98091F5
:10089000280690912906A0912A06B0912B0685B9C9
:1008A000139A13988091280690912906A0912A0600
:1008B000B0912B06892F9A2FAB2FBB2785B9149A9D
:1008C00014988091280690912906A0912A06B0914B
:1008D0002B06CD01AA27BB2787709927AA27BB27FC
:1008E000886888B980912C0485B9809128069091F8
:1008F0002906A0912A06B0912B060197A109B109FA
:100900008093280690932906A0932A06B0932B067D
:100910008091280690912906A0912A06B0912B0675
:100920008093150690931606A0931706B0931806A9
:100930008091280690912906A0912A06B0912B0655
:1009400080931D0690931E06A0931F06B093200669
:100950004091F2055091F3056091F4057091F50511
:100960008091150690911606A0911706B091180671
:10097000481759076A077B0728F01092090681E09B
:1009800080933F041198119A20C38091280690917A
:100990002906A0912A06B0912B0685B9139A1398BF
:1009A0008091280690912906A0912A06B0912B06E5
:1009B000892F9A2FAB2FBB2785B9149A1498809151
:1009C000280690912906A0912A06B0912B06CD0108
:1009D000AA27BB2787709927AA27BB27886888B9C9
:1009E00014B8129880910F06882309F472C0809180
:1009F000310490913204A0913304B0913404892BD6
:100A00008A2B8B2B39F18091280690912906A09191
:100A10002A06B0912B060197A109B10980932806F7
:100A200090932906A0932A06B0932B068091310457
:100A300090913204A0913304B09134040197A1093C
:100A4000B1098093310490933204A0933304B0939E
:100A500034040AC18091390490913A04A0913B0476
:100A6000B0913C048093310490933204A0933304FA
:100A7000B093340480913E048F5F80933E04909144
:100A80003E0480910F06981302C010923E04E0913C
:100A90003E042091390430913A0440913B04509136
:100AA0003C04F0E0EC53FB4FA081B0E00E949B2897
:100AB0000FEF1FEF27E030E0061B170B280B390B59
:100AC000009328061093290620932A0630932B06BC
:100AD000CBC080910D064091280650912906609167
:100AE0002A0670912B0681115AC08091210690919F
:100AF0002206A0912306B0912406481759076A07D9
:100B00007B0729F480910A06813009F459C040918D
:100B100028065091290660912A0670912B06809133
:100B2000210690912206A0912306B0912406481731
:100B300059076A077B0749F480911D0690911E06AC
:100B4000A0911F06B091200687C0409128065091C1
:100B5000290660912A0670912B06809119069091C2
:100B60001A06A0911B06B0911C06481759076A0780
:100B70007B0749F48091150690911606A0911706FF
:100B8000B091180669C08091280690912906A0911D
:100B90002A06B0912B060196A11DB11D5DC0809162
:100BA0001D0690911E06A0911F06B09120064817C1
:100BB00059076A077B0749F480910A06813029F4B6
:100BC00010920906109212064FC0409128065091CB
:100BD000290660912A0670912B0680911D0690913E
:100BE0001E06A0911F06B0912006481759076A07F4
:100BF0007B0749F48091210690912206A09123065B
:100C0000B091240629C04091280650912906609190
:100C10002A0670912B068091150690911606A091D8
:100C20001706B0911806481759076A077B0749F459
:100C30008091190690911A06A0911B06B0911C068E
:100C40000BC08091280690912906A0912A06B091A8
:100C50002B060197A109B1098093280690932906D4
:100C6000A0932A06B0932B0683B1129A9FEF94B9F2
:100C700090911106992309F4A9C180589091110609
:100C80002FEF30E0092E01C0220F0A94EAF78223E9
:100C900080589CC18091280690912906A0912A062F
:100CA000B0912B0685B9139A1398809128069091DC
:100CB0002906A0912A06B0912B06892F9A2FAB2FD7
:100CC000BB2785B9149A149880912806909129061B
:100CD000A0912A06B0912B06CD01AA27BB278770C9
:100CE0009927AA27BB27886888B914B812988091D9
:100CF0000F06882309F472C0809131049091320468
:100D0000A0913304B0913404892B8A2B8B2B39F1B9
:100D10008091280690912906A0912A06B0912B0671
:100D20000197A109B1098093280690932906A09301
:100D30002A06B0932B068091310490913204A09141
:100D40003304B09134040197A109B10980933104AF
:100D500090933204A0933304B09334040AC1809179
:100D6000390490913A04A0913B04B0913C048093E3
:100D7000310490933204A0933304B09334048091EF
:100D80003E048F5F80933E0490913E0480910F0655
:100D9000981302C010923E04E0913E042091390461
:100DA00030913A0440913B0450913C04F0E0EC5304
:100DB000FB4FA081B0E00E949B280FEF1FEF27E0C0
:100DC00030E0061B170B280B390B009328061093F5
:100DD000290620932A0630932B06CBC080910D065E
:100DE000409128065091290660912A0670912B06A1
:100DF00081115AC08091210690912206A09123066C
:100E0000B0912406481759076A077B0729F4809197
:100E10000A06813009F459C04091280650912906EC
:100E200060912A0670912B068091210690912206EE
:100E3000A0912306B0912406481759076A077B073B
:100E400049F480911D0690911E06A0911F06B09155
:100E5000200687C0409128065091290660912A06F5
:100E600070912B068091190690911A06A0911B068D
:100E7000B0911C06481759076A077B0749F480910F
:100E8000150690911606A0911706B091180669C034
:100E90008091280690912906A0912A06B0912B06F0
:100EA0000196A11DB11D5DC080911D0690911E0689
:100EB000A0911F06B0912006481759076A077B07C3
:100EC00049F480910A06813029F4109209061092A3
:100ED00012064FC0409128065091290660912A06BB
:100EE00070912B0680911D0690911E06A0911F0601
:100EF000B0912006481759076A077B0749F480918B
:100F0000210690912206A0912306B091240629C0C3
:100F1000409128065091290660912A0670912B066F
:100F20008091150690911606A0911706B0911806AB
:100F3000481759076A077B0749F480911906909171
:100F40001A06A0911B06B0911C060BC080912806C2
:100F500090912906A0912A06B0912B060197A1092C
:100F6000B1098093280690932906A0932A06B0938E
:100F70002B0683B1129A9FEF94B990911106992391
:100F800061F08058909111062FEF30E0092E01C0DA
:100F9000220F0A94EAF78223805820912C043327E9
:100FA00027FD3095280F311D87FD3A9520389FEF9A
:100FB000390714F420E83FEF2038310514F02FE70B
:100FC00030E025B91198119A01C080E01F910F916E
:100FD00008958091420420914805332727FD3095DC
:100FE000280F311D87FD3A9520384FEF340714F450
:100FF00020E83FEF4091450580914C05992787FDFA
:101000009095840F911D47FD9A9581384FEF940775
:1010100014F481E89FEF2038310514F02FE730E019
:101020008038910514F08FE790E0289FA001299F58
:10103000500D389F500D112457FF02C0415C5F4F87
:10104000CA0146E0959587954A95E1F780589095B5
:10105000282F30916905831729F09FEF94B985B93E
:10106000159A15982093690508952091420480915E
:101070004505992787FD9095820F911D27FD9A952B
:1010800020914805820F911D27FD9A9520914C05CE
:10109000820F911D27FD9A9520915505820F911D74
:1010A00027FD9A9580382FEF920714F480E89FEF80
:1010B0008038910514F08FE790E08058282F309108
:1010C0006905831729F09FEF94B985B9159A15988A
:1010D000209369050895209142048091480599273D
:1010E00087FD9095820F911D27FD9A9580382FEFEF
:1010F000920714F480E89FEF4091450520914C053C
:10110000332727FD3095240F311D47FD3A952038B0
:101110004FEF340714F420E83FEF2038310514F086
:101120002FE730E0205830958038910514F08FE794
:1011300090E080589095822790916905891729F051
:101140009FEF94B985B9159A15988093690508950C
:101150002091420480914805992787FD9095820F40
:10116000911D27FD9A9580382FEF920714F480E89F
:101170009FEF4091450520914C05332727FD309581
:10118000240F311D47FD3A9520384FEF340714F4F2
:1011900020E83FEF2038310514F02FE730E02058E9
:1011A00030958038910514F08FE790E08058909545
:1011B000822390916905891729F09FEF94B985B929
:1011C000159A15988093690508959FB7F89485B985
:1011D0008FEF84B95F9A5F989FBF08959FB7F89487
:1011E00083E080934F051092B20081E78093B300B3
:1011F0008FEF87BBE0E7F0E080818460808382E04E
:101200008093B1009FBF089540910001509101016A
:101210006091020170910301DB01CA01880F991FDF
:10122000AA1FBB1F76FF08C025EB822725E992275E
:101230002AEAA22720E2B2278093000190930101BD
:10124000A0930201B093030160910001709101012C
:10125000809102019091030108952F923F924F9245
:101260005F926F927F928F929F92AF92BF92CF9236
:10127000DF92EF92FF920F931F93CF93DF93382E5D
:10128000623008F4CDC09FB6F894862E80E88617A9
:1012900010F400E8802EC32DD0E09E013695322F49
:1012A0002227379527952C5B3B4F80E090E0F90192
:1012B000E80FF91F808301968815C8F36E01D69454
:1012C000DC2CCC24D794C794B4E4AB2EB4E0BB2E72
:1012D000AC0CBD1C00E010E0482C512C612C712C92
:1012E0007501E00EF11ED7012C900E940409A301A4
:1012F00092010E946728FB01EC0DFD1DEC5BFB4F8A
:101300008081D7018C9320820F5F1F4F081540F317
:10131000311015C06091F2057091F3058091F405CC
:101320009091F505A30192010E946728209335044E
:101330003093360440933704509338041CC0009116
:1013400015061091160620911706309118066FEFBA
:101350007FEF87E090E0601B710B820B930BA30182
:1013600092010E9467282093390430933A044093F5
:101370003B0450933C0483E28C9FF0018D9FF00D61
:101380001124EA51FA4F8682FE01E35CFB4F108282
:10139000CC0FDD1FCC0FDD1FFE01EB5CFB4F80810E
:1013A0009181A281B381C35DDB4F88839983AA8336
:1013B000BB83311016C02091350430913604409122
:1013C000370450913804A0914404B0E00E949B2857
:1013D00060930506709306068093070690930806AF
:1013E0001DC02091390430913A0440913B04509142
:1013F0003C04A091C404B0E00E949B280FEF1FEFB3
:1014000027E030E0061B170B280B390B009328064A
:101410001093290620932A0630932B069FBE07C0FF
:10142000B3E28B9FF0011124EA51FA4F1682DF914B
:10143000CF911F910F91FF90EF90DF90CF90BF90D1
:10144000AF909F908F907F906F905F904F903F9064
:101450002F9008954F925F926F927F928F929F92FA
:10146000AF92BF92CF92DF92EF92FF92EFB7F894D4
:101470008111E9C18090F2059090F305A090F405E8
:10148000B090F50583E0880C991CAA1CBB1C8A95BA
:10149000D1F7892C9A2CAB2CBB24A0910206809109
:1014A0000406B0E0A80FB11DA50194010E949B287D
:1014B000F3E09695879577956795FA95D1F76093C0
:1014C000FE057093FF0580930006909301064090FF
:1014D000F2055090F3056090F4057090F505F091D9
:1014E0000306A0910406B0E00E949B286B017C01DA
:1014F000A3E0F694E794D794C794AA95D1F7C40CC7
:10150000D51CE61CF71CAF2FB0E00E949B28B3E06F
:101510009695879577956795BA95D1F7C61AD70AA4
:10152000E80AF90AC092FA05D092FB05E092FC05A0
:10153000F092FD054091FE055091FF056091000677
:10154000709101068091FA059091FB05A091FC0530
:10155000B091FD0584179507A607B70750F5809150
:10156000E905813019F48093EA0502C01092EA057A
:101570008091FE059091FF05A0910006B0910106B3
:101580004091FA055091FB056091FC057091FD05B5
:101590004093FE055093FF0560930006709301068B
:1015A0008093FA059093FB05A093FC05B093FD058D
:1015B0000AC08091E905813019F41092EA0503C050
:1015C00081E08093EA054091FE055091FF0560910E
:1015D0000006709101068091F2059091F305A091AB
:1015E000F405B091F50584179507A607B707E0F451
:1015F0008091FE059091FF05A0910006B091010633
:101600004091F2055091F3056091F4057091F50554
:10161000841B950BA60BB70B8093FE059093FF05DB
:10162000A0930006B09301064091FA055091FB0586
:101630006091FC057091FD058091F2059091F30594
:10164000A091F405B091F50584179507A607B70793
:1016500008F044C08091FA059091FB05A091FC052B
:10166000B091FD054091F2055091F3056091F405AC
:101670007091F505841B950BA60BB70B8093FA05AB
:101680009093FB05A093FC05B093FD054091FA05EE
:101690005091FB056091FC057091FD058091FE0560
:1016A0009091FF05A0910006B091010648175907D7
:1016B0006A077B0799F48091FA059091FB05A09148
:1016C000FC05B091FD050197A109B1098093FA05C8
:1016D0009093FB05A093FC05B093FD054091FE059A
:1016E0005091FF0560910006709101068091FA0506
:1016F0009091FB05A091FC05B091FD05841795071D
:10170000A607B70708F05AC0409105065091060693
:1017100060910706709108068091FE059091FF0583
:10172000A0910006B0910106481759076A077B0788
:1017300008F086C2409105065091060660910706A2
:10174000709108068091FA059091FB05A091FC0527
:10175000B091FD0584179507A607B70708F070C27A
:101760004091FE055091FF056091000670910106C1
:101770008090050690900606A0900706B090080697
:101780008091050690910606A0910706B091080683
:10179000C090FA05D090FB05E090FC05F090FD05A7
:1017A000481959096A097B098C199D09AE09BF09B5
:1017B000481759076A077B07E8F115C040910506ED
:1017C0005091060660910706709108068091FE050B
:1017D0009091FF05A0910006B091010648175907A6
:1017E0006A077B0788F48091FE059091FF05A09120
:1017F0000006B09101068093050690930606A0931B
:101800000706B09308061CC24091050650910606D3
:1018100060910706709108068091FA059091FB058A
:10182000A091FC05B091FD0584179507A607B707A1
:1018300008F006C28091FA059091FB05A091FC0585
:10184000B091FD05D8CF8091150690911606A09114
:101850001706B0911806CC24CA94DC2C27E0E22E9F
:10186000F12C46015701881A990AAA0ABB0A33E0EB
:10187000880C991CAA1CBB1C3A95D1F7892C9A2C70
:10188000AB2CBB24A091250680912706B0E0A80FC1
:10189000B11DA50194010E949B28F3E096958795C0
:1018A00077956795FA95D1F7C61AD70AE80AF90A23
:1018B000C0922106D0922206E0922306F0922406DE
:1018C0004090150650901606609017067090180606
:1018D000A0912606F0912706B0E00E949B286B019C
:1018E0007C01A3E0F694E794D794C794AA95D1F726
:1018F000C40CD51CE61CF71CAF2FB0E00E949B283F
:10190000B3E09695879577956795BA95D1F7C61AFE
:10191000D70AE80AF90AC0921D06D0921E06E09284
:101920001F06F092200640912106509122066091F8
:1019300023067091240680911D0690911E06A091A9
:101940001F06B0912006481759076A077B0750F514
:1019500080910C06813019F480930D0602C010921C
:101960000D068091210690912206A0912306B09148
:10197000240640911D0650911E0660911F0670912D
:10198000200640932106509322066093230670930D
:10199000240680931D0690931E06A0931F06B09305
:1019A00020060AC080910C06813019F410920D06B1
:1019B00003C081E080930D064091210650912206DC
:1019C0006091230670912406809115069091160669
:1019D000A0911706B0911806481759076A077B07A8
:1019E000F8F48091210690912206A0912306B091EF
:1019F00024064091150650911606609117067091C5
:101A000018060197A84FBF4F841B950BA60BB70B69
:101A10008093210690932206A0932306B093240678
:101A200040911D0650911E0660911F067091200680
:101A30008091150690911606A0911706B091180690
:101A4000481759076A077B0708F047C080911D06B1
:101A500090911E06A0911F06B09120064091150698
:101A60005091160660911706709118060197A84FBD
:101A7000BF4F841B950BA60BB70B80931D0690934D
:101A80001E06A0931F06B093200640911D0650919C
:101A90001E0660911F06709120068091210690918C
:101AA0002206A0912306B0912406481759076A0719
:101AB0007B0799F480911D0690911E06A0911F0648
:101AC000B09120060196A11DB11D80931D06909333
:101AD0001E06A0931F06B093200640912106509148
:101AE0002206609123067091240680911D06909134
:101AF0001E06A0911F06B0912006481759076A07D5
:101B00007B0708F05AC04091280650912906609141
:101B10002A0670912B068091210690912206A091B1
:101B20002306B091240684179507A607B70708F087
:101B300087C0409128065091290660912A0670912D
:101B40002B0680911D0690911E06A0911F06B09154
:101B50002006481759076A077B0708F071C04091B3
:101B600028065091290660912A0670912B068090D4
:101B7000210690902206A0902306B0902406809122
:101B80001D0690911E06A0911F06B0912006C090E0
:101B90002806D0902906E0902A06F0902B064819D6
:101BA00059096A097B098C199D09AE09BF09841777
:101BB0009507A607B707A0F115C0409128065091D8
:101BC000290660912A0670912B068091210690913A
:101BD0002206A0912306B091240684179507A60734
:101BE000B70748F48091210690912206A091230620
:101BF000B09124061DC0409128065091290660919D
:101C00002A0670912B0680911D0690911E06A091C8
:101C10001F06B0912006481759076A077B0780F412
:101C200080911D0690911E06A0911F06B09120067E
:101C30008093280690932906A0932A06B0932B063A
:101C4000EFBFFF90EF90DF90CF90BF90AF909F904D
:101C50008F907F906F905F904F9008959FB7F8940A
:101C600023E2829FF0011124EA51FA4F4089518901
:101C700062897389408F518F628F738F4485558538
:101C800066857785448B558B668B778B148E158E86
:101C9000168E9FBF089540917A0550E090915D05A2
:101CA00020E030E061E070E0DA01022E02C0B5957C
:101CB000A7950A94E2F7A0FF0AC0DB01022E02C03A
:101CC000AA0FBB1F0A94E2F7FD01E0959E232F5F48
:101CD0003F4F2830310541F790935D0580937A0599
:101CE00068E970E082E00C94151E10925D0580E0BA
:101CF00090E00C944B0ECF93C0915B05C1110CC0CA
:101D00000E94750E10925C0510925D0581E0809333
:101D10005B0561E371E06BC0C13041F480E00E947B
:101D2000271E882309F491C082E04CC0C23009F01C
:101D30004CC080915C058830F8F480E00E94271E3A
:101D4000882309F482C081E090E000905C0502C025
:101D5000880F991F0A94E2F790915D05982B909354
:101D60005D056DE370E080E00E94151E80915C05CA
:101D70008F5F80935C0569C080E00E94271E8823E6
:101D800009F463C068E970E080E00E94151E8FEFDF
:101D900080934004909164009F7B90936400C09373
:101DA000B00091E09093B1001092B20090E890934F
:101DB000B30087BBC093700092B1966092B984B9AA
:101DC0005F9A83E080935B0540C0C33069F580E093
:101DD0000E94271E8823C9F180914004823058F068
:101DE0008091400482508093400464E070E080E081
:101DF000CF910C94151E109270001092B0001092AA
:101E0000B1008091640080648093640015B85F988D
:101E10000E94750E82E180935D0562E672E080E0CB
:101E20000E94151E84E0CECFC43079F480E00E9479
:101E3000271E882351F00E94750E85E291E1909350
:101E4000E5058093E40510925B05CF910895CF924C
:101E5000DF92EF92FF92CF93CFB7F894382F330FE2
:101E6000330F20E069018FEFC81AD80AE12CF12C5A
:101E7000C701B6010E94EF21813019F5C0927005AB
:101E8000D0927105E0927205F0927305109275057B
:101E90001092740510922B0110922A0110922901C0
:101EA0001092280110922701109226016AE770E033
:101EB00083E00E94151E89E080935905CFBF81E021
:101EC00002C0CFBF80E0CF91FF90EF90DF90CF9026
:101ED0000895E1E8F0E0808180648083B59AEFE6C0
:101EE000F0E0808180628083089593E2899FF00111
:101EF0001124EA51FA4F6187623039F553874287DE
:101F000081110FC08091840090918500840F951FEE
:101F10009093890080938800B19A80916F008260CD
:101F20000EC08091840090918500840F951F90933E
:101F30008B0080938A00B29A80916F0084608093B6
:101F40006F0081E0809381000895613059F4811120
:101F500002C00C94690FDA9A84E08093680080E1F3
:101F600080936D000895FF920F931F93CF93DF939B
:101F7000C82FD0E093E2899FF0011124EA51FA4F73
:101F80009581992329F090914F059150923080F1DD
:101F9000FFB6F89493E29C9FF0019D9FF00D1124F1
:101FA000EA51FA4F94E090839381992351F0048988
:101FB000158926893789078F10A321A332A314829C
:101FC0000AC0008D118D228D338D078F10A321A3A0
:101FD00032A391E094830E94750F83E28C9FF001FD
:101FE0008D9FF00D1124EA51FA4F81E08583FFBEE9
:101FF000DF91CF911F910F91FF9008951F93CF9381
:10200000DF93282F30E093E2899FF0011124EA51F9
:10201000FA4F9581992329F090914F059150923074
:1020200088F01FB7F89493E2929FE001939FD00D40
:102030001124CA51DA4F94E098830E94750F81E011
:102040008D831FBFDF91CF911F910895FF920F9352
:102050001F93CF93DF93282F30E093E2899FF00105
:102060001124EA51FA4F9581992331F090914F054F
:102070009150923008F442C0FFB6F89493E2929FD8
:10208000E001939FD00D1124CA51DA4F93E0988359
:10209000088919892A893B890F8F18A329A33AA394
:1020A000088919892A893B890C871D872E873F87D4
:1020B000088919892A893B89088F198F2A8F3B8FB4
:1020C000088919892A893B890C8B1D8B2E8B3F8BA4
:1020D0001E8E10923F040E94750F81E08D83FFBE1B
:1020E00080917A0086FD0AC08091790080588093A3
:1020F0002C0480917A00806480937A00DF91CF91E4
:102100001F910F91FF9008951F93CF93DF93282F76
:1021100030E093E2899FF0011124EA51FA4F958152
:10212000992329F090914F0591509230F8F01FB704
:10213000F89493E2929FE001939FD00D1124CA512D
:10214000DA4F95E098830E94750F81E08D831FBF61
:1021500080917A0086FD0AC0809179008058809332
:102160002C0480917A00806480937A00DF91CF9173
:102170001F910895CF93CFB7F89493E2899FF00110
:102180001124EA51FA4F92E090830E94750FCFBF5D
:1021900080917A0086FD0AC08091790080588093F2
:1021A0002C0480917A00806480937A00CF91089506
:1021B00080915B05811110C00E94750E1092E6059A
:1021C0001092EF05109209061092120681E890E035
:1021D0000E944B0E81E013C08130C9F480915805F4
:1021E00080FF10C087FF0EC086E0809359050E94D3
:1021F000750E80915D05816880935D0582E0809316
:102200005B0508958091590581111EC015C082306B
:10221000D9F4809159058E30B9F40E94750E8091E1
:102220005D05826080935D0580915905882321F0CA
:1022300080915705882341F08BE79EE09093E50558
:102240008093E40510925B05089580915B058111F0
:1022500008C068E970E00E94151E81E080935B056C
:10226000089580E00E94271E8823A1F080915805E0
:1022700080FF03C08DE891E107C085FF03C082E1C4
:1022800092E102C088E792E19093E5058093E4052E
:1022900010925B050895CF93209159052E3009F4D3
:1022A00006C030914F053330B1F52B30A1F4CFB7D4
:1022B000F8940E94270F81E090E0A0E0B0E08093C6
:1022C000220190932301A0932401B09325010E9441
:1022D000EE08CFBF20C02D3021F0209176052130AF
:1022E00029F4909378058093770515C0909378052D
:1022F0008093770581E080937905809376059FB779
:10230000F8941092270110922601809170008B7F23
:10231000809370009FBFCF91089580915B058111DC
:1023200008C00E94750E80EC90E00E944B0E81E088
:1023300017C08130C1F4F8948093E6058093EF05CF
:102340008093EF050E94690F85E398E09093E30581
:102350008093E205789480916B0580937B0582E001
:1023600080935B050895823009F05BC0809157052A
:1023700080FF06C090915D0521E0922790935D0556
:1023800081FF06C090915D0522E0922790935D0544
:1023900082FF06C090915D0524E0922790935D0531
:1023A00083FF06C090915D0528E0922790935D051C
:1023B00084FF06C090915D0520E1922790935D0512
:1023C00085FF06C090915D0520E2922790935D0500
:1023D00086FF0AC080E090E00E944B0E80915D0570
:1023E00090E4892780935D058091570587FF09C098
:1023F00080E090E00E944B0E80915D0580588093B4
:102400005D0590917B0580916B05981751F080E0F8
:1024100090E00E944B0E80916B0580935D05809348
:102420007B05089580915B0581111DC084E00E94A9
:10243000E01D803108F080E080932E0688E00E9445
:10244000E01D803108F081E08093470620E1829F03
:10245000C001112490912E06982B90935D0581E088
:1024600080935B0508952091570520FF12C080914D
:102470002E068F5F803118F480932E0602C01092D2
:102480002E0680915D05807F90912E06892B80938A
:102490005D0521FF16C0809147068F5F803118F4DB
:1024A0008093470602C0109247068091470630E1AC
:1024B000839FC001112490915D059F70982B90938C
:1024C0005D0522FF14C060912E0684E090E00E941A
:1024D000D31D6091470688E090E00E94D31D88E7F5
:1024E00092E19093E5058093E40510925B050895D1
:1024F0008F929F92AF92BF92CF92DF92EF92FF9214
:102500000F931F93CF93DF931F92CDB7DEB7F09059
:102510005B05F1108DC084E00E94E01D803108F061
:1025200080E080932E0688E00E94E01D803108F054
:1025300081E0809347061092F6051092F7051092FD
:10254000F8051092F9058FEF9FEFA7E0B0E08093B8
:10255000190690931A06A0931B06B0931C060EE56D
:1025600015E070E6872E75E0972EE12CF12CE3E262
:10257000CE2EBB24B394FCE0DF2ECE9CF001CF9C8A
:10258000F00D1124EA51FA4F108211861182108643
:10259000178216821282B482138280899189A2895D
:1025A000B389878F90A3A1A3B2A380899189A289BF
:1025B000B38984879587A687B787D8011D928D0137
:1025C00015828E2D0E942E0EE11002C087E001C000
:1025D0008BE00E94E01D8A3508F080E36D2D0E949B
:1025E0005B28E92FF0E0EE0FFF1FEA5FFE4F20812E
:1025F000318102C0369527958A95E2F7F40121933F
:1026000031934F01FFEFEF1AFF0A22E0E216F104C7
:1026100009F0B3CF85E398E09093E3058093E2055A
:10262000109264050E94750E81E080935B0512C6CE
:1026300041E0F4120FC680916A0586FF30C287FF21
:1026400075C18091570585FF24C085E398E090937C
:10265000E3058093E20510916405812F0E942E0E00
:1026600083E2189FF0011124EA51FA4F1086178275
:10267000168212821382F482118220E042E164E029
:10268000812F0E948E1E20E04BE164E08091640562
:102690000BC380FFEFC010916405809159058E3007
:1026A00009F04DC3212F30E093E2199FD00111248E
:1026B000AA51BA4F15968C911597811140C3169661
:1026C0008C91111123C0811112C083E2829FA0015D
:1026D000839F500D11244A515A4FFA0184899589DC
:1026E000A689B789408D518D628D738D22C083E29A
:1026F000829FD001839FB00D1124AA51BA4F1C961E
:102700008D919D910D90BC91A02D2CC0811115C073
:1027100083E2829FA001839F500D11244A515A4F9A
:10272000FA01808D918DA28DB38D4489558966897A
:1027300077890196A11DB11D11C083E2829FA0017E
:10274000839F500D11244A515A4FFA018089918973
:10275000A289B3894485558566857785841B950B49
:10276000A60BB70BFFB7F894EFB7F89410926F056C
:1027700010926E0541E050E060E070E0409370051B
:1027800050937105609372057093730510927505EF
:102790001092740510922B0110922A0110922901B7
:1027A0001092280110922701109226018D3F4FEFC1
:1027B000940747E0A407B10508F404C08CEF9FEF2D
:1027C000A7E0B0E08093220190932301A09324011D
:1027D000B09325018091220190912301A0912401C1
:1027E000B091250180931E0190931F01A0932001B9
:1027F000B093210182E080935905EFBF4FB7F89461
:1028000080934F0583E2829FD001839FB00D1124F6
:10281000AA51BA4F81E015968C9311110BC0809389
:1028200054051092500510925105109252051092C5
:1028300053050EC0109254058FEF9FEFA7E0B0E054
:102840008093500590935105A0935205B093530582
:102850001092B20081E68093B3008FEF87BB809126
:10286000700084608093700082E08093B1004FBF5D
:10287000FFBF65C281FF63C2109164058091590555
:102880008E3009F05CC283E2189F60011124A6EE2D
:10289000B5E0CA0EDB1EF6018581811150C20FB76B
:1028A000F89480E090E00E94270F81E090E0A0E0A3
:1028B000B0E08093220190932301A0932401B09370
:1028C00025012FB7F894F0924F05D6011596FC928A
:1028D00011110CC081E080935405109250051092A4
:1028E000510510925205109253050EC010925405D6
:1028F0008FEF9FEFA7E0B0E08093500590935105D4
:10290000A0935205B09353051092B20081E68093D4
:10291000B3008FEF87BB809170008460809370005C
:1029200082E08093B1002FBF0FBF09C2809158058C
:1029300080FF15C090916B0580916C05981779F018
:102940008091640520916D05B3E28B9FF001112405
:10295000EA51FA4F208743E164E00E948E1E809185
:10296000570581FF15C08091640523E2829FF00125
:102970001124EA51FA4F9281911104C091E092839F
:1029800020E402C0128220E040E164E00E948E1E3A
:102990008091570582FF0EC01091640540E050E021
:1029A00061E0812F0E94BA1020E34EE064E0812FA5
:1029B0000E948E1E8091580583FF06C090916B0582
:1029C00080916C05981304C08091570583FF10C057
:1029D00020916B05269510916405622F812F298324
:1029E0000E942D09298144E164E0812F0E948E1EFE
:1029F0008091580584FF35C090916B0580916C05DE
:102A0000981779F180916D05813071F028F082304E
:102A100099F0833031F518C085E398E09093E30591
:102A20008093E20520E017C089EE97E09093E305DC
:102A30008093E20521E00FC088EA98E09093E305D7
:102A40008093E20522E007C08BE698E09093E305CF
:102A50008093E20523E046E164E0809164050E94F2
:102A60008E1E8091570585FF6AC18091640543E2FF
:102A7000849FF0011124EA51FA4F9381911104C00F
:102A800091E0938320E402C0138220E041E164E0FE
:102A90000E948E1E809164050E942A0A50C187FF01
:102AA00053C08091580580FF15C01091640583E2E2
:102AB000189FF0011124EA51FA4F848D00916B05A3
:102AC0008017C9F1048F812F0E942A0A202F269592
:102AD0004CE12DC081FF15C01091640593E2199F50
:102AE000F0011124EA51FA4F858D00916B05801792
:102AF00011F1058F812F0E942A0A202F26954DE182
:102B000016C082FF18C010916405A3E21A9FF0015D
:102B10001124EA51FA4F868D00916B05801759F008
:102B2000068F812F0E942A0A202F26954EE164E00D
:102B3000812F0E948E1E8091570583FF00C180E087
:102B400090E00E944B11FBC08091570580FF22C08E
:102B500010916405B3E21B9F70011124E6EEF5E0CD
:102B6000EE0EFF1ED7018C9140E050E061E0833013
:102B700049F4812F0E94B30FF701118220E440E352
:102B800061E006C0812F0E94261020E343E064E04C
:102B9000812F8AC081FF35C0F0906405F3E2FF9E6B
:102BA0006001112486EE95E0C80ED91ED6018C91E5
:102BB000853051F440E050E061E08F2D0E94FE0F1F
:102BC000F601118220E01AC0D60150960D911D9198
:102BD0002D913C9153971C964D915D916D917C91F7
:102BE0001F97041715072607370709F4A8C040E008
:102BF00050E061E08F2D0E94841020E349E064E002
:102C000091C082FF26C0F0906405B3E2FB9E600194
:102C10001124E6EEF5E0CE0EDF1ED60150960D91A2
:102C20001D912D913C9153971C964D915D916D9105
:102C30007C911F97041715072607370709F47FC0F3
:102C400040E050E061E08F2D0E94B30FF601118249
:102C500058C083FF2CC0E0906405F3E2EF9E600152
:102C6000112486EE95E0C80ED91ED60150960D911E
:102C70001D912D913C9153971C964D915D916D91B5
:102C80007C911F97041715072607370709F457C0CB
:102C900040E050E061E08E2D0E94B30FF601F1821A
:102CA00020E440E361E08E2D0E948E1E48C084FF28
:102CB0003BC0F09064052F2D30E043E2F49EF0011C
:102CC0001124EA51FA4F808181111FC083E2829F53
:102CD000F001839FF00D1124EA51FA4F0089118908
:102CE00022893389448555856685778504171507BC
:102CF0002607370721F140E050E061E08F2D0E9468
:102D0000FE0F20E440E361E00DC083E2829FF0010A
:102D1000839FF00D1124EA51FA4F1082118620E0B2
:102D200040E362E08F2DC0CF85FF09C0809164052C
:102D30008F5F80936405823010F01092640580915B
:102D40006B0580936C0580916006882309F482C22C
:102D500085E695E00E94671E80916605823011F538
:102D6000E09165058E2F90E0A3E2EA9FF001112427
:102D7000EA51FA4F2081243021F02081223009F0DD
:102D800069C2FC01EC5FFE4F309167052081321370
:102D900061C223E2289FF001299FF00D1124EA511E
:102DA000FA4F7FC0813009F050C0A09165052A2FED
:102DB00030E080916705F901EC5FFE4F8083F901F7
:102DC000E25AFA4F90819923A9F06CE00E945B28A7
:102DD000E92FF0E0EE0FFF1FEA5FFE4F40815181C7
:102DE00002C0569547958A95E2F762E08A2F0E94C5
:102DF000BA1030C293E2929FF001939FF00D11241C
:102E0000EA51FA4F00891189228933894485558511
:102E100066857785041715072607370709F41AC250
:102E20006CE00E945B28E92FF0E0EE0FFF1FEA5FE5
:102E3000FE4F4081518102C0569547958A95E2F731
:102E400062E08A2F0E94B30F05C2843009F0A9C145
:102E50008091670590E0FC013397EC31F10508F0B3
:102E6000F9C1E25CFF4F0C9489289091680580912C
:102E70006505992361F0A82FB0E0AA0FBB1FA05AE7
:102E8000BA4F4D915C9162E00E94261031C0B3E2CE
:102E90008B9FF0011124EA51FA4F8081833009F0B1
:102EA000D9C110821186D6C19091680580916505BF
:102EB000992311F1A82FB0E023E2829FF0011124A1
:102EC000EA51FA4F00891189228933894485558551
:102ED00066857785041715072607370709F4BAC1F1
:102EE000FD01EC5FFE4F408150E062E00E948410E3
:102EF000E0916505F0E03DC0282F30E043E2849F7B
:102F0000F0011124EA51FA4F9081953009F0A2C1E5
:102F1000F901EC5FFE4F408150E062E00E94FE0F3D
:102F200099C19091680580916505992399F0A82F22
:102F3000B0E0AA0FBB1FA05ABA4F4D915C9162E05E
:102F40000E94BA10E0916505F0E0E25AFA4F81E084
:102F5000808380C1282F30E093E2899FF001112403
:102F6000EA51FA4F8081823009F074C110821186D3
:102F7000F901E25AFA4F10826DC180916805E09123
:102F80006505882341F0A3E2EA9FF0011124EA518C
:102F9000FA4F11825FC1B3E2EB9FF0011124EA51B5
:102FA000FA4F81E0818356C180916805E091650503
:102FB000882349F023E2E29FF0011124EA51FA4FFD
:102FC00081E0828347C143E2E49FF0011124EA518A
:102FD000FA4F12823FC180916805E0916505882310
:102FE00049F083E2E89FF0011124EA51FA4F81E0B1
:102FF000838307C093E2E99FF0011124EA51FA4F5D
:10300000138280916505CAC0E0916505AE2FB0E0DE
:1030100023E2E29FF0011124EA51FA4F1182108657
:1030200017821682128281E0848313828483A25ADB
:10303000BA4F1C922DC080916805883008F00AC1F3
:10304000E091650543E2E49FF0011124EA51FA4F53
:10305000808700C160916805809165050E942D09F7
:10306000F9C0E09165058091680593E2E99FF00160
:103070001124EA51FA4F8783EDC0809168058130B1
:1030800051F030F0823071F0833009F0E3C00DC0B0
:1030900085E398E002C089EE97E09093E305809382
:1030A000E205D8C088EA98E0F8CF8BE698E0F5CF43
:1030B0001FB7F89450916505A52FB0E0FD01EC5FB6
:1030C000FE4F4081AA0FBB1FA05ABA4F842F6CE05D
:1030D0000E945B28E92FF0E0EE0FFF1FEA5FFE4F32
:1030E0002081318102C0369527958A95E2F72D938C
:1030F0003C93511104C0642F87E090E005C051302B
:1031000029F4642F8BE090E00E94D31D1FBFA2C062
:103110009091680580916505A3E28A9FF0011124D2
:1031200020C09091680580916505B3E28B9FF00106
:10313000112424C0909168058091650523E2829F47
:10314000F001112428C0809165050E942E0E82C0D6
:1031500090916805990F8091650543E2849FF00185
:103160001124EA51FA4F948F19C090916805990F74
:1031700080916505A3E28A9FF0011124EA51FA4F7C
:10318000958F0CC090916805990F80916505B3E209
:103190008B9FF0011124EA51FA4F968F0E942A0A60
:1031A00059C0873009F056C08091680520916705A5
:1031B00030E0E0E88E9F200D311D1124A0916505BF
:1031C0002115F0E23F0731F1B0E0FD01EC5FFE4F69
:1031D000808140E050E2421B530B6CE00E945B2870
:1031E000E92FF0E0EE0FFF1FEA5FFE4F20813181F3
:1031F00002C0369527958A95E2F7420F531F83E266
:103200008A9FF0018B9FF00D1124EA51FA4F5387EA
:10321000428720C04A2F50E0FA01EC5FFE4F8081C8
:103220006CE00E945B28E92FF0E0EE0FFF1FEA5FE1
:10323000FE4F2081318102C0369527958A95E2F7AD
:1032400083E2849FF001859FF00D1124EA51FA4F2B
:103250003387228780914F05833011F010925505F6
:103260008091EF05813041F01092420480916F000F
:103270008F7D80936F00B59A80911206813031F076
:10328000109245051092680010926D008091EF0534
:10329000823041F01092480580916F008D7F8093BD
:1032A0006F00B19A80911206823041F010924C0565
:1032B00080916F008B7F80936F00B29A8091EF05B1
:1032C00081110CC080914F05882331F0833021F0AB
:1032D00080915405811102C01092EB058091120675
:1032E00081110CC080914F05882331F0833021F08B
:1032F00080915405813011F410920E0680916B0577
:1033000082958695877080936D0520915D052F715C
:1033100080FD206881FD2064847009F02062309176
:103320006405207E832F90E0A3E23A9FF0011124F0
:10333000EA51FA4F4081433009F4216043E2489F4B
:10334000F001499FF00D1124EA51FA4F40814430B9
:1033500009F4246043E2489FF001499FF00D1124D5
:10336000EA51FA4F4081453009F4226043E2489F18
:10337000F001499FF00D1124EA51FA4F408142308B
:1033800009F4276040913F04413009F4286031304E
:1033900009F4206120935D0523E2289FF001299F15
:1033A000F00D1124EA51FA4F4089518962897389DD
:1033B00084859585A685B785481759076A077B07D1
:1033C00039F480917A0582FD14C084E090E002C057
:1033D00080E090E00F90DF91CF911F910F91FF90CF
:1033E000EF90DF90CF90BF90AF909F908F900C9414
:1033F0004B0E0F90DF91CF911F910F91FF90EF90A7
:10340000DF90CF90BF90AF909F908F9008951F92C4
:103410000F920FB60F9211242F933F934F935F9308
:103420006F937F938F939F93AF93BF93EF93FF938C
:103430008091E805882341F08091E805882341F0D8
:1034400080914104882321F00E94790080934204F6
:1034500010924104E091E205F091E3050995809115
:103460007A0086FD0AC080917900805880932C04F0
:1034700080917A00806480937A00FF91EF91BF91F0
:10348000AF919F918F917F916F915F914F913F91FC
:103490002F910F900FBE0F901F9018951F920F92B3
:1034A0000FB60F9211242F933F934F935F936F9317
:1034B0007F938F939F93AF93BF93EF93FF938091ED
:1034C0000B06882341F080910B06882341F0809100
:1034D0004405882321F00E9427048093450510921B
:1034E0004405E091E205F091E305099580917A00A9
:1034F00086FD0AC080917900805880932C048091C9
:103500007A00806480937A00DA9AFF91EF91BF91FC
:10351000AF919F918F917F916F915F914F913F916B
:103520002F910F900FBE0F901F9018951F920F9222
:103530000FB60F9211240F931F932F933F934F9326
:103540005F936F937F938F939F93AF93BF93CF932B
:10355000DF93EF93FF938091E805882341F08091FA
:10356000E805882341F080914705882321F00E94D7
:103570007900809348058091ED058823A1F1A09101
:10358000ED052091F0053091F105B0E00E948F2803
:103590002FE730E040E050E00E946728009188006B
:1035A00010918900C091F005D091F1056091000162
:1035B0007091010180910201909103010E9467289E
:1035C000C00FD11F4091490550914A05C40FD51F26
:1035D000C61BD70BD0938900C093880070934A050F
:1035E000609349050EC02091880030918900809138
:1035F000F0059091F105820F931F909389008093BD
:10360000880010924705E091E205F091E3050995E5
:1036100080917A0086FD0AC080917900805880935D
:103620002C0480917A00806480937A00FF91EF915E
:10363000DF91CF91BF91AF919F918F917F916F91CA
:103640005F914F913F912F911F910F910F900FBE5E
:103650000F901F9018951F920F920FB60F92112482
:103660000F931F932F933F934F935F936F937F938A
:103670008F939F93AF93BF93CF93DF93EF93FF937A
:1036800080910B06882341F080910B06882341F03E
:1036900080914B05882321F00E94270480934C05DC
:1036A000809110068823A1F1A091100620911306A5
:1036B00030911406B0E00E948F282FE730E040E000
:1036C00050E00E94672800918A0010918B00C09101
:1036D0001306D09114066091000170910101809150
:1036E0000201909103010E946728C00FD11F4091F1
:1036F0004D0550914E05C40FD51FC61BD70BD09357
:103700008B00C0938A0070934E0560934D050EC0E8
:1037100020918A0030918B008091130690911406BD
:10372000820F931F90938B0080938A0010924B0519
:10373000E091E205F091E305099580917A0086FD1C
:103740000AC080917900805880932C0480917A007F
:10375000806480937A00FF91EF91DF91CF91BF91C8
:10376000AF919F918F917F916F915F914F913F9119
:103770002F911F910F910F900FBE0F901F901895D2
:103780001F920F920FB60F9211242F933F934F93D6
:103790005F936F937F938F939F93AF93BF93EF93B9
:1037A000FF9380914F05813009F0BEC080912201C6
:1037B00090912301A0912401B0912501892B8A2B9E
:1037C0008B2B09F476C08091260190912701892BDB
:1037D00009F4A6C1E0912A01F0912B01E45DFE4FAE
:1037E000208180912A0190912B01019690932B01C9
:1037F00080932A0180912A0190912B018115934099
:1038000020F010922B0110922A01809126019091B4
:10381000270101979093270180932601809122012F
:1038200090912301A0912401B09125010197A10954
:10383000B1098093220190932301A0932401B093B6
:1038400025018FEF84B98091500585B9139A13989B
:10385000409150055091510560915205709153056A
:10386000BB27A72F962F852F85B9149A1498CB01C3
:10387000AA27BB2787709927AA27BB27886888B9FA
:1038800025B980915405813029F44F5F5F4F6F4F08
:103890007F4F04C04150510961097109409350059F
:1038A0005093510560935205709353051198119AE6
:1038B00037C110924F051092B100809170008B7F3C
:1038C000809370002091540580915005909151058E
:1038D000A0915205B0915305213099F41092EB0557
:1038E0008093F2059093F305A093F405B093F5054A
:1038F0008093FA059093FB05A093FC05B093FD051A
:103900000FC110920E068093150690931606A09391
:103910001706B093180680931D0690931E06A09379
:103920001F06B0932006FCC0823009F098C0809139
:103930002601909127018115934008F0F1C08091F4
:10394000220190912301A0912401B0912501892B9E
:103950008A2B8B2B09F470C08091500585B9139A7E
:103960001398409150055091510560915205709106
:103970005305BB27A72F962F852F85B9149A149826
:10398000CB01AA27BB2787709927AA27BB2788685E
:1039900088B914B8129880915405813029F44F5F8A
:1039A0005F4F6F4F7F4F04C041505109610971094A
:1039B0004093500550935105609352057093530501
:1039C00083B1129A9FEF94B9E0912801F0912901F7
:1039D000E45DFE4F8083809128019091290101963A
:1039E00090932901809328018091280190912901C9
:1039F0008115934020F010922901109228018091A6
:103A0000260190912701019690932701809326012A
:103A10008091220190912301A0912401B091250170
:103A20000197A109B1098093220190932301A093EA
:103A30002401B093250174C010924F051092B1007B
:103A4000809170008B7F809370008091540581304D
:103A500019F41092EB0564C010920E0661C0833019
:103A600009F05EC08091220190912301A091240170
:103A7000B0912501892B8A2B8B2B09F446C08091AC
:103A8000260190912701892B09F44AC0E0912A016F
:103A9000F0912B01E45DFE4F208180912A019091ED
:103AA0002B01019690932B0180932A0180912A018A
:103AB00090912B018115934020F010922B011092D0
:103AC0002A01809126019091270101979093270167
:103AD000809326018091220190912301A0912401DD
:103AE000B09125010197A109B1098093220190931A
:103AF0002301A0932401B093250120935505E09163
:103B0000E205F091E30509950BC010924F05109264
:103B1000B100809170008B7F8093700010925505EA
:103B2000FF91EF91BF91AF919F918F917F916F9195
:103B30005F914F913F912F910F900FBE0F901F906B
:103B400018951F920F920FB60F9211248F939F9387
:103B50009091400480915605891718F49FEF95B90C
:103B600001C015B88F5F809356059F918F910F907C
:103B70000FBE0F901F9018951F920F920FB60F92C5
:103B800011240F900FBE0F901F901895A89B0AC08C
:103B9000A89A80912C0690912D06019690932D065F
:103BA00080932C060895F999FECF2FB7F89492BD13
:103BB00081BD60BDFA9AF99A2FBF12BC11BC08955D
:103BC000F999FECF2FB7F89490E092BD81BDF89A95
:103BD0002FBF12BC11BC80B508958091C000881F12
:103BE0008827881F08958091C600089580916400F9
:103BF0008D7F809364008091C0008D7F8093C00092
:103C000088E18093C10087E28093C40086E08093BE
:103C1000C2008091C00085FFFCCF02C08091C60029
:103C20000E94ED1D8111FACF089590E020912C069D
:103C300030912D06880F991FFC01EB53FA4F318309
:103C40002083FC01E353FA4F718360830895209130
:103C50002C0630912D0690E0880F991FFC01EB5344
:103C6000FA4F40815181241B350BFC01E353FA4F7D
:103C700081E0408151812417350708F480E00895E0
:103C8000DC0180916006863008F59091D905119687
:103C90002C91119734E0939FF0011124E15DF94FCD
:103CA000218312962C911297228313962C911397AD
:103CB00023832C9120839F5F963018F49093D9052D
:103CC00002C01092D9058F5F809360060895DC01D1
:103CD00080916006882309F19091D50524E0929F98
:103CE000F0011124E15DF94F218111962C93119778
:103CF000228112962C931297238113962C9313975B
:103D000020812C939F5F963018F49093D50502C0C4
:103D10001092D505815080936006089580916106C8
:103D20008630C8F49091D60534E0939FF0011124B9
:103D3000E85BF94F61834283238320912E06208321
:103D40009F5F963018F49093D60502C01092D60566
:103D50008F5F80936106089589E08093D705109264
:103D6000D805109260061092D9051092D5051092D0
:103D700061061092D6051092DA0508951F93CF932D
:103D8000DF9300D000D0CDB7DEB787FF2FC0982FCC
:103D90009F7020912E06921721F0309147069313C1
:103DA0009FC0807F803919F41092D70516C08038E3
:103DB00031F481E08093D705921315C010C0803C88
:103DC00011F482E008C0803E11F487E004C0803B1B
:103DD00009F086C083E08093D705921303C0109248
:103DE000DB0581C081E08093DB057DC01091D705A4
:103DF000143009F453C050F41130A1F1C0F0123066
:103E000009F443C0133009F06BC044C0173009F403
:103E100053C030F4153079F0163009F061C026C077
:103E2000183009F44DC0193009F05AC05CC08093B5
:103E3000DC0585E056C09091DC05811105C082E06B
:103E40008A839B831C8204C021E02A839B838C830A
:103E50008091DB058983CE0101960E94401E10925D
:103E6000D70541C08093DC0586E03BC092E09A8391
:103E70009091DC059B838C838091DB058983CE0147
:103E800001960E94401E81E02CC093E09A838B83B0
:103E90001C821CC08093DC0584E023C01A839091AF
:103EA000DC059B838C838091DB058983CE010196A1
:103EB0000E94401E83E015C08093DC0588E011C09D
:103EC00017E01A839091DC059B838C838091DB053E
:103ED0008983CE0101960E94401E1093D70503C02E
:103EE00089E08093D7050F900F900F900F90DF918E
:103EF000CF911F91089580916106811107C081E0E3
:103F00009091D805911103C080E0089581E0089553
:103F10008091D805833009F487C030F4813009F4EA
:103F20007BC008F07BC00CC0853009F484C008F465
:103F30007FC0863009F482C0873009F086C080C017
:103F4000809161068823F9F09091DA0524E0929F30
:103F5000F0011124E85BF94F21812093DE052281D5
:103F60002093DF0523812093E00520812093DD0548
:103F70009F5F963018F49093DA0502C01092DA052C
:103F80008150809361069091DE059230B1F020F46B
:103F9000913009F05AC006C09330E9F0943009F02E
:103FA00054C029C08091DD0580692091E105281366
:103FB0000FC08091DF0593E02CC08091DD05806902
:103FC0002091E105281304C08091DF0594E021C011
:103FD0008093E1051EC08091DD05806C9091E10524
:103FE000981305C08091DF051092D805089580933D
:103FF000E10595E00EC08091DD05806B9091E105B3
:10400000981304C08091DF0597E003C08093E10519
:1040100096E09093D805089583E001C084E08093F2
:10402000D8058091DF0508951092D80580E40895A1
:104030001092D8050AC01092D805F3CF87E0EFCFD1
:104040001092D8058091E005089580E008958AB126
:104050008F7C8AB98BB180638BB91092C900E4E67A
:10406000F0E08081806180830895E4E6F0E0808163
:104070008F7E8083ECECF0E011821082549A80EC09
:104080008093CA0088E18093C90081E090E0918329
:104090008083559A5D9A08955D9A08955D9A5D981A
:1040A00008959091C80095FFFCCF8093CE00809139
:1040B000C80087FFFCCF8091CE0008958091C80092
:1040C00080648093C8008FEF0E9451208091C800C7
:1040D00086FFFCCF0895DF92EF92FF920F931F931C
:1040E000CF93DF93C82F042FF52EE62ED72E0E94F4
:1040F0004E208FEF0E945120C7FF31C087E70E94FA
:10410000512080E00E94512080E00E94512080E0F8
:104110000E94512080E00E94512081E00E945120A5
:104120001AE08FEF0E945120D82F8F3F11F41150C9
:10413000C1F79091C80090649093C8008FEF0E94DF
:1041400051208091C80086FFFCCFD23018F00E9429
:104150004C2034C00E944C20CF770E944E208C2FE0
:1041600080640E9451208D2D0E9451208E2D0E942E
:1041700051208F2D0E945120802F0E945120CC234E
:1041800021F0C83021F081E003C085E901C087E853
:104190000E945120CC3019F48FEF0E9451201AE078
:1041A0008FEF0E945120D82F8F3F11F41150C1F78B
:1041B000C83021F0CA3311F00E945E208D2FDF91AC
:1041C000CF911F910F91FF90EF90DF900895EF92A4
:1041D000FF920F931F93CF93DF9300D000D01F92D5
:1041E000CDB7DEB70E944C2014E18091C8008064F6
:1041F0008093C8008FEF0E9451201150B1F7809139
:10420000C80086FFFCCF0E944E2000E012E08091A3
:10421000C80080648093C8008FEF0E945120015035
:104220001109A9F78091C80086FFFCCF0E944C209D
:1042300040E050E0BA0180E00E946B208091C8000D
:1042400086FFFCCF0E944C2040E050E0BA0180E0A5
:104250000E946B20813011F080E0B1C00E944C20A0
:104260004AEA51E060E070E088E00E946B20813013
:1042700009F06EC08E010F5F1F4F7E0185E0E80ED2
:10428000F11C8FEF0E945120F80181938F01EE15F0
:10429000FF05B9F70E945E200E944C208B8181307F
:1042A000D9F68C818A3AC1F664EC74E083E00E940E
:1042B000151E04C00E944C200E94C61D83E00E946F
:1042C000271E882331F083E00E94271E882381F077
:1042D000C3CF40E050E0BA0189EA0E946B2081110F
:1042E000E9CFF1CF0E945E200E94C61D0E944C20A3
:1042F00083E00E94271E882331F083E00E94271E5E
:10430000882351F0A9CF40E050E0BA018AE30E942F
:104310006B208111E7CFF1CF8FEF0E9451208FEFFB
:104320000E9451208FEF0E9451208FEF0E94512058
:104330000E945E200E944C2040E052E060E070E06D
:1043400080E10E946B200E944C200E945E2036C0BB
:104350000E945E200E944C2040E050E0BA0189EAB1
:104360000E946B20823008F077CF0E944C2064ECD2
:1043700074E083E00E94151E04C00E94C61D0E94C6
:104380004C2083E00E94271E882331F083E00E94A6
:10439000271E811161CF09C040E050E0BA0189EACF
:1043A0000E946B208111E9CFF1CF40E052E060E044
:1043B00070E080E10E946B200E944C2081E08D83A0
:1043C0000E944C208D810F900F900F900F900F90B6
:1043D000DF91CF911F910F91FF90EF900895AB0166
:1043E000BC0189E0440F551F661F771F8A95D1F7DE
:1043F00081E10E946B2091E0811190E0892F089566
:10440000AB01BC0199E0440F551F661F771F9A95B9
:10441000D1F788E10E946B2091E0811190E0892F13
:104420000895CFEFC093640085B78F7E85BF8FEE70
:1044300087B988E088B980E88AB91BB896E092B954
:104440009EE391B9C4B985B9129AC4B9159A159861
:104450000E94352066E270E081E00E94151E3D98C2
:10446000459A80B1807C80937C0510926B051092F8
:104470005D0510927A0580E00E94E5080E94AC1E5E
:104480000E94F61D809164008E7F8093640080E618
:1044900080937C0081E080937E0085E980937A00A0
:1044A00080917A00806480937A00809164008F7D8F
:1044B0008093640010926E0014BC16BCC5BB1092B1
:1044C0002D0610922C0683E085BD80916400877FC5
:1044D0008093640010926F008FEF9FEF909389009C
:1044E0008093880090938B0080938A0010928000C4
:1044F000109281001092850010928400C6BB109229
:104500005705109258051092590510925A05789443
:104510008BE79EE09093E5058093E40510925B05A0
:10452000CC24CA94EE24E394F12CC0E0D2E06CE0F9
:10453000362E77E0972EEBE08E2EFEE0DF2EADE0FC
:10454000BA2EB4E02B2E1AE0A12E81E00E94271E85
:104550008823D9F09FB7F894C5B814B843980000E1
:10456000000083B1809580935805439AC4B89FBFDB
:10457000359904C081E080935A0502C010925A0513
:1045800066E270E081E00E94151E909158058091CE
:104590007D05809589238093570580958923809395
:1045A0006A0590937D0520912C0630912D0680910F
:1045B0007E0590917F0528173907C9F180912C0657
:1045C00090912D0690937F0580937E0580B1807C2D
:1045D00080937C0590918005891749F1811106C06F
:1045E000903809F417C0903401F51AC0803431F4C2
:1045F000911101C00FC0903CC1F412C0803C31F455
:10460000903409F407C0903881F40AC0803869F406
:10461000903C21F490916B05915005C0911105C01B
:1046200090916B059F5F90936B05809380050E942E
:10463000C61D80917A058823E1F182E00E94271E41
:104640008823B9F120917A0530E0F0918105E0915D
:104650005D0580E090E0B901082E02C07595679570
:104660000A94E2F760FF0EC0B701082E02C0660F81
:10467000771F0A94E2F7AB01FF2311F0E62B02C08B
:104680004095E42301968830910529F7E0935D0574
:1046900081E090918105911180E08093810568E926
:1046A00070E082E00E94151E80915D050E94E50881
:1046B0000BC010915D0580918205811729F0812F33
:1046C0000E94E5081093820590915A058091590542
:1046D000911104C0882309F4B5C4EAC4863009F4F2
:1046E0004BC280F4823009F4D3C030F48823E9F05F
:1046F000813009F0A7C422C0843009F4B8C108F0A1
:10470000F2C132C18A3009F459C330F4883009F457
:10471000BEC208F0D0C281C28C3009F42EC408F4A5
:10472000E2C38D3009F08EC449C481E080935905FD
:1047300064EC74E083E00E94151E84C483E00E9450
:10474000271E882309F47EC41092790510927605FD
:104750000E94E720813009F099C060E070E0CB0151
:104760000E94EF21813009F058C06AE770E083E0D1
:104770000E94151E02C00E94C61D83E00E94271ED3
:10478000882351F08FEF0E945120182F8FEF0E9445
:104790005120843559F406C08FEF0E9451208E3F7E
:1047A00051F7F0CF66246394173509F0612C8FEF31
:1047B0000E945120803509F0612C8FEF0E9451201A
:1047C000813409F0612C0CE010E08FEF0E94512041
:1047D00001501109D1F771E067120FC005E815E02B
:1047E0008FEF0E945120F80181938F01F5E0053C85
:1047F0001F07B1F702EB11E009C000E410E08FEFF2
:104800000E94512001501109D1F7F4CF8FEF0E947F
:10481000512001501109D1F701C0612C8091C800CD
:1048200086FFFCCF0E944C208FEF0E94512021E098
:10483000621219C0D0925905809164008F7B8093D9
:10484000640082E08093B0001092B1001092B20038
:1048500081E78093B300C7BA1092700010924F05A1
:1048600010925505EFC38FE080935905E5E8F5E018
:10487000119235E0E53CF307D9F788ED90E190938C
:10488000E5058093E40510925B05DCC38FE0FCC175
:104890002FB7F894809126019091270181159240BD
:1048A000A0F4809126019091270140911E01509122
:1048B0001F016091200170912101A0E0B0E08417F8
:1048C0009507A607B70708F455C12FBF609170057B
:1048D0007091710580917205909173050E9400227C
:1048E000813009F0E5C3D0938405C09383058FEF31
:1048F0000E9451208FEF0E9451208EEF0E94512084
:1049000080911E0190911F01A0912001B091210181
:104910008B2F0E94512060911E0170911F01809188
:104920002001909121010E94512080911E019091BF
:104930001F01A0912001B0912101892F0E945120D7
:1049400080911E0190911F01A0912001B091210141
:104950000E94512080918305909184050497909343
:1049600084058093830504C100918305109184051B
:104970000134110510F000E410E0612C56C0809164
:104980001E0190911F01A0912001B0912101892B5E
:104990008A2B8B2BE9F1E0912A01F0912B01E45D48
:1049A000FE4F80810E94512080911E0190911F0135
:1049B000A0912001B09121010197A109B109809333
:1049C0001E0190931F01A0932001B09321018091BB
:1049D0002A0190912B01019690932B0180932A013B
:1049E00080912A0190912B018115934020F0109223
:1049F0002B0110922A012FB7F894809126019091F3
:104A00002701019790932701809326012FBF03C0B0
:104A10008FEF0E945120809183059091840501972A
:104A200090938405809383056394862D90E080178E
:104A3000910708F4A4CF8091830590918405892B78
:104A400009F000C38FEF0E9451208FEF0E94512088
:104A50008FEF0E9451208F71853009F029C362E6E3
:104A600072E083E00E94151E20925905EBC283E09C
:104A70000E94271E81111CC314E08FEF0E94512059
:104A80008F3F09F409C31150C1F7DCC28091C800FF
:104A900086FFFCCF80911E0190911F01A091200103
:104AA000B0912101892B8A2B8B2B11F085E0ECC072
:104AB00020916E0530916F05F90143E0F695E79579
:104AC0004A95E1F7FF27EB57FA4F408127703327CC
:104AD000842F90E0022E02C0959587950A94E2F704
:104AE00080FFCCC2D6C22FB7F89480912601909156
:104AF00027018115924098F4809126019091270119
:104B000040911E0150911F0160912001709121017F
:104B1000A0E0B0E084179507A607B70758F12FBFAC
:104B200020917405309175052F5F3F4F30937505C7
:104B300020937405609170057091710580917205E4
:104B400090917305620F731F811D911D0E940022B9
:104B5000813009F0ADC2D0938405C09383058FEFF7
:104B60000E9451208FEF0E9451208EEF0E94512011
:104B700083E08AC02FBF66C260E070E0CB010E9474
:104B80000022813009F094C2D0938405C09383053C
:104B90008FEF0E9451208FEF0E9451208EEF0E94D4
:104BA000512087E50E94512084E50E94512080E534
:104BB0000E94512081E40E945120809183059091B0
:104BC0008405049790938405809383051CE088E70F
:104BD0000E9451201150D9F780918305909184054E
:104BE0000C97909384058093830505E815E0F80100
:104BF00081918F010E945120F5E0053C1F07B9F714
:104C00008091830590918405805491099093840547
:104C1000809383059092590515C2009183051091E8
:104C200084050134110510F000E410E0612C0DC082
:104C30008FEF0E9451208091830590918405019708
:104C400090938405809383056394862D90E080176C
:104C5000910770F38091830590918405892B09F069
:104C6000F1C18FEF0E9451208FEF0E9451208FEFF2
:104C70000E9451208F71853009F01AC262E672E0FD
:104C800083E00E94151E88E080935905DBC183E014
:104C90000E94271E81110CC214E08FEF0E94512048
:104CA0008F3F09F4FFC11150C1F7CCC18091C800FA
:104CB00086FFFCCFEEC183E00E94271E8111F8C160
:104CC00014E08FEF0E9451208F3F19F41150C9F763
:104CD000B9C18E3F09F0ECC1D0938405C093830520
:104CE0008FEF0E94512090E0A0E0B0E0B82FAA27FB
:104CF0009927882780931E0190931F01A09320017C
:104D0000B093210140901E0150901F01609020013E
:104D1000709021018FEF0E945120B301A201682BF6
:104D200040931E0150931F01609320017093210155
:104D300040901E0150901F01609020017090210151
:104D40008FEF0E945120B301A201582B40931E0106
:104D500050931F01609320017093210140901E0128
:104D600050901F0160902001709021018FEF0E94F0
:104D70005120B301A201482B40931E0150931F0103
:104D8000609320017093210180911E0190911F0179
:104D9000A0912001B09121018093220190932301E1
:104DA000A0932401B09325018091830590918405FF
:104DB00004979093840580938305F4C080917605D1
:104DC000813009F4F6C00091830510918405013407
:104DD000110510F000E410E0612C55C08FEF0E9427
:104DE0005120209183053091840521503109309361
:104DF00084052093830540911E0150911F0160910D
:104E0000200170912101452B462B472BD9F1409170
:104E10001E0150911F0160912001709121014150AC
:104E200051096109710940931E0150931F0160935C
:104E3000200170932101E0912801F0912901E45DA6
:104E4000FE4F8083809128019091290101969093D3
:104E500029018093280180912801909129018115D1
:104E6000934020F010922901109228012FB7F89456
:104E700080912601909127010196909327018093BC
:104E800026012FBF6394862D90E08017910708F4C8
:104E9000A5CF8091830590918405892B09F0D2C01C
:104EA0008FEF0E9451208FEF0E9451208091C80007
:104EB00086FFFCCF0E944C208FEF0E9451208092F1
:104EC000590580911E0190911F01A0912001B09180
:104ED0002101892B8A2B8B2B09F0B4C08091C8004B
:104EE00086FFFCCFD6C0EFB7F89420912601309111
:104EF000270180E093E0AC01421B530B9A0121157E
:104F00003240A8F4209126013091270140911E01E2
:104F100050911F016091200170912101821B930B20
:104F2000A0E0B0E084179507A607B70720F1EFBF10
:104F300020917405309175052F5F3F4F30937505B3
:104F400020937405609170057091710580917205D0
:104F500090917305620F731F811D911D0E94EF21B7
:104F6000813009F0A5C06AE770E083E00E94151E59
:104F70003092590567C0EFBF65C083E00E94271ECD
:104F8000811196C014E08FEF0E9451208F3F19F4D9
:104F90001150C9F757C08E3F09F08AC0D0938405DD
:104FA000C0938305A092590580917605813009F060
:104FB00049C0B09259051092760544C0009183050E
:104FC000109184050134110510F000E410E0612C0B
:104FD0000DC08FEF0E945120809183059091840530
:104FE000019790938405809383056394862D90E0C8
:104FF0008017910770F38091830590918405892B28
:1050000009F58FEF0E9451208FEF0E94512080916F
:10501000C80086FFFCCF0E944C208FEF0E945120D9
:105020008091C80086FFFCCFD09259058091790508
:10503000813041F41092790580917705909178053F
:105040000E944B110E9404090E94ED1D882321F04B
:105050000E94F31D0E94BE1E0E947B1F882341F008
:105060008091C00085FF04C00E94881F8093C60005
:10507000E091E405F091E505099567CAB70102C022
:10508000660F771F2A95E2F79B01242B208386E089
:10509000FBCDD0925905D6CF0E944C208FEF0E94B5
:1050A0005120F4CC0E944C208FEF0E945120FECD65
:1050B00010925905C7CF991B79E004C0991F961724
:1050C00008F0961B881F7A95C9F780950895A1E28C
:1050D0001A2EAA1BBB1BFD010DC0AA1FBB1FEE1F72
:1050E000FF1FA217B307E407F50720F0A21BB30BBD
:1050F000E40BF50B661F771F881F991F1A9469F739
:1051000060957095809590959B01AC01BD01CF0194
:105110000895EE0FFF1F0590F491E02D0994A29FD2
:10512000B001B39FC001A39F01D0B29F700D811D3C
:105130001124911D08950E948F28A59F900DB49F62
:10514000900DA49F800D911D11240895F894FFCF18
:10515000EFBE00003C3CFFFFA1F111E444D72FCB90
:0E516000C8BF04B5DBAA44A13798AC8F9C876A
:00000001FF
