:100000000C943E000C945B000C945B000C945B0021
:100010000C945B000C945B000C945B000C945B00F4
:100020000C945B000C944B010C945B000C945B00F3
:100030000C945D000C94CD000C945B000C945B0060
:100040000C945B000C945B000C945B000C945B00C4
:100050000C945B000C945B000C945B000C945B00B4
:100060000C945B000C945B000C945B000C945B00A4
:100070000C945B000C945B000C945B0011241FBE7D
:10008000CFEFD0E1DEBFCDBF11E0A0E0B1E0ECE406
:10009000FBE002C005900D92A430B107D9F711E042
:1000A000A4E0B1E001C01D92A837B107E1F70E94BA
:1000B000DD020C94A4050C9466011F920F920FB6FA
:1000C0000F9211242F933F934F935F938F939F939E
:1000D00080911C0187FF05C080911C018195809350
:1000E0001C0190911C0180911D01882391F4809145
:1000F0001101803110F490E001C0990F8F5F80935F
:100100001101803211F4109211018FEF84B995B969
:1001100029C0592F56955695809110014091120192
:10012000813089F4242F30E08FEF90E0851B910916
:100130002817390724F4540F509312010EC08FEF83
:100140008093120108C0541720F4451B40931201FC
:1001500004C010921201109210018FEF84B98091A7
:10016000120185B9159A159880917A0086FD0AC00A
:1001700080917900805880931C0180917A0080647E
:1001800080937A009F918F915F914F913F912F9132
:100190000F900FBE0F901F9018951F920F920FB6E1
:1001A0000F9211242F933F934F935F938F939F93BD
:1001B00080911C0187FF05C080911C01819580936F
:1001C0001C0190911C0180911D01882391F4809164
:1001D0000E01803110F490E001C0990F8F5F809381
:1001E0000E01803211F410920E018FEF84B995B98F
:1001F00029C0592F5695569580910D0140910F01B8
:10020000813089F4242F30E08FEF90E0851B910935
:100210002817390724F4540F50930F010EC08FEFA5
:1002200080930F0108C0541720F4451B40930F0121
:1002300004C010920F0110920D018FEF84B98091CC
:100240000F0185B9159A15988091880090918900C1
:1002500020911E0130911F01280F391F3093890012
:100260002093880080917A0086FD0AC080917900F1
:10027000805880931C0180917A00806480937A007A
:100280009F918F915F914F913F912F910F900FBE52
:100290000F901F9018951F920F920FB60F92112476
:1002A0008F939F938091150190910C01981718F4EA
:1002B0008FEF85B901C015B89F5F90930C019F9196
:1002C0008F910F900FBE0F901F9018951F920F9255
:1002D0000FB60F9211240F900FBE0F901F9018951C
:1002E000A89B0AC0A89A8091760190917701019607
:1002F00090937701809376010895282F90E0FC0178
:1003000075E0EE0FFF1F7A95E1F7880F991FE80F50
:10031000F91FEE5CFE4F6087623049F550931F0174
:1003200040931E01222379F48091840090918500EE
:10033000840F951F9093890080938800B19A8091D3
:100340006F0082600EC08091840090918500840FC0
:10035000951F90938B0080938A00B29A80916F00D2
:10036000846080936F0081E0809381000895613004
:10037000A9F4222361F4809181008064809381003C
:10038000B59A80916F00806280936F000895DA9A29
:1003900084E08093680080E180936D0008959091DF
:1003A000170190FF0FC010926F0080E062E041EBF8
:1003B00058E20E947D018091130191E0892780938A
:1003C00013011CC091FF07C010926F0080E062E033
:1003D00049E554E111C092FF07C010926F0080E020
:1003E00062E04CE25AE008C093FF0BC010926F002D
:1003F00080E061E040E050E00E947D0110921D012C
:10040000089594FF07C010926F0080E062E041EB16
:1004100058E211C095FF07C010926F0080E062E0C3
:1004200049E554E108C096FF0CC010926F0080E0CF
:1004300061E040E050E00E947D0181E080931D0179
:10044000089597FF04C010926F00109281000895E4
:10045000A82F80911401682F70E05091130120E0C3
:1004600030E0E1E0F0E0CB01022E02C095958795E7
:100470000A94E2F780FF09C0CF01022E02C0880F64
:10048000991F0A94E2F7809558232F5F3F4F283039
:10049000310549F750931301A093140182E068E9F4
:1004A00070E00E94780508951092130180E090E0BA
:1004B0000E942802089580911901882341F40E9426
:1004C000540280EC90E00E94280281E013C0813049
:1004D000A1F4F8948093320180933A0180E061E0C6
:1004E00040E050E00E947D01789480911B01809350
:1004F0000B0182E0809319010895823009F05CC0FD
:1005000080911701282F80FF06C08091130191E090
:1005100089278093130121FF06C08091130192E087
:1005200089278093130122FF06C08091130194E074
:1005300089278093130123FF06C08091130198E05F
:1005400089278093130124FF06C08091130190E155
:1005500089278093130125FF06C08091130190E243
:1005600089278093130126FF0AC080E090E00E9453
:1005700028028091130190E48927809313018091D0
:10058000170187FF09C080E090E00E942802809157
:10059000130180588093130190910B0180911B01EE
:1005A000981751F080E090E00E94280280911B0192
:1005B0008093130180930B010895CF92DF92EF9205
:1005C000FF921F93CF93DF931FEF1093640085B7C3
:1005D0008F7E85BF8FEE87B988E088B990E89AB999
:1005E0001BB886E082B98EE381B914B995B9129A25
:1005F00014B9159A159881E066E270E00E947805BA
:100600003D98459A80B1807C80931A0110921B011D
:1006100010921301109214018FB7F89415B814B901
:100620005F9A5F988FBF0E945905809164008E7F0A
:100630008093640080E680937C0081E080937E005C
:1006400085E980937A0080917A00806480937A00B3
:10065000809164008F7D8093640010926E0014BCC2
:1006600016BC15BB109277011092760183E085BD10
:1006700080916400877F8093640010926F008FEFF9
:100680009FEF909389008093880090938B008093D4
:100690008A001092800010928100109285001092C2
:1006A000840016BB109217011092160110921801C7
:1006B000789480E694E09093310180933001109219
:1006C0001901C1E0D0E0F5EBCF2EF5E9DF2EFAEA13
:1006D000EF2EF0E2FF2E81E00E948A058823D9F0F8
:1006E0009FB7F89415B914B843980000000083B17F
:1006F000809580931601439A14B99FBF359904C021
:1007000081E08093180102C01092180181E066E236
:1007100070E00E9478059091160180910401809507
:1007200089238093170190930401209176013091E1
:100730007701809105019091060128173907B1F1E1
:100740008091760190917701909306018093050145
:1007500090B1907C90931A0180910701981731F124
:10076000992329F48038A9F08034F1F418C090342A
:1007700029F4882371F0803CB9F411C0903C29F42D
:10078000803439F0803881F40AC0903869F4803CB4
:1007900021F480911B01815005C0882329F48091A8
:1007A0001B018F5F80931B01909307010E947001D2
:1007B00080911401882309F44AC082E00E948A05CE
:1007C000882309F444C080911401682F70E0E091FF
:1007D00009015091130120E030E0CB01022E02C04C
:1007E000959587950A94E2F780FF14C0EE2349F0AF
:1007F000CE01022E02C0880F991F0A94E2F7582BEF
:1008000009C0CE01022E02C0880F991F0A94E2F798
:10081000809558232F5F3F4F28303105F1F65093D4
:10082000130110920901EE2319F481E0809309016C
:1008300082E068E970E00E947805809113019FB71B
:10084000F89485B914B95F9A5F989FBF11C09091D1
:10085000130180910801891759F08FB7F89495B961
:1008600014B95F9A5F988FBF80911301809308013C
:100870008091000190910101A0910201B0910301CA
:10088000880F991FAA1FBB1F80930001909301013D
:10089000A0930201B0930301B7FF0CC08C259D25E6
:1008A000AE25BF258093000190930101A093020122
:1008B000B0930301E0913001F091310109950BCF24
:1008C0001F9310911901112369F40E945402109290
:1008D0000A011092130181E08093190180E061E325
:1008E00071E06AC0113041F480E00E948A058823DB
:1008F00009F491C082E07BC0123009F04AC08091B7
:100900000A018830F8F480E00E948A05882309F4FF
:1009100082C081E090E000900A0102C0880F991F18
:100920000A94E2F720911301282B2093130180E011
:100930006DE370E00E94780580910A018F5F8093DB
:100940000A0169C080E00E948A05882309F463C017
:1009500080E068E970E00E9478059FEF90931501B0
:10096000809164008F7B809364001093B00081E0DD
:100970008093B1001092B20080E88093B30097BBDF
:100980001093700082B1866082B994B95F9A83E057
:100990002EC0133079F580E00E948A058823D9F1B2
:1009A00080911501823058F080911501825080931A
:1009B000150180E064E070E00E9478052CC0109280
:1009C00070001092B0001092B100809164008064B9
:1009D0008093640015B85F980E94540281E180936F
:1009E000130180E062E672E00E94780584E0809363
:1009F000190111C0143079F480E00E948A0588231F
:100A000051F00E9454028DE095E090933101809363
:100A10003001109219011F910895809119018823C6
:100A200041F468E970E00E94780581E08093190143
:100A3000089580E00E948A058823A9F0809116011C
:100A400080FF09C08BE592E09093310180933001E3
:100A50001092190108958FEC91E0909331018093E9
:100A600030011092190108959C01F999FECF8FB7BA
:100A7000F89432BD21BD60BDFA9AF99A8FBF12BCBD
:100A800011BC0895282FF999FECF8FB7F89430E064
:100A900032BD21BDF89A8FBF12BC11BC80B508953C
:100AA0008091C000881F8827881F08958091C60004
:100AB0000895809164008D7F809364008091C000D0
:100AC0008D7F8093C00088E18093C10087E280938E
:100AD000C40086E08093C2008091C00085FFFCCFF7
:100AE0008091C00087FF03C08091C600F9CF0895B0
:100AF000E82FF0E08091760190917701EE0FFF1FD3
:100B0000DF01A05EBE4F8D939C93E85DFE4F718325
:100B1000608308952091760130917701E82FF0E00D
:100B200040E0EE0FFF1FDF01A05EBE4F8D919C9154
:100B3000281B390BE85DFE4F80819181281739070A
:0C0B400008F041E0842F0895F894FFCFE6
:040B4C00EFBE0000F8
:00000001FF
