:100000000C945A000C9477000C9477000C947700B1
:100010000C9477000C9477000C9454090C9477009E
:100020000C9477000C94D20A0C9477000C9477000F
:100030000C940C090C949E090C94380A0C947700CB
:100040000C9477000C9477000C9477000C94770054
:100050000C9477000C9477000C9477000C94770044
:100060000C9477000C9477000C9477000C94770034
:100070000C9477000C9477000C947700C81A861EB5
:10008000861E861E861E861E0D1B861E861E861ECC
:10009000861E8C1BDA1B011C281C511CD01CE61C64
:1000A000ED1C001D1C1D431D571D6B1D7F1DFA1DE2
:1000B000111E281E11241FBECFEFD0E1DEBFCDBF21
:1000C00011E0A0E0B1E0E6EFF2E502C005900D928C
:1000D000AE31B107D9F713E0AEE1B1E001C01D9236
:1000E000A333B107E1F70E9484120C9479290C9490
:1000F000ED0A80917D028330C9F0843030F4813084
:1001000059F0823009F08EC00EC0843009F48CC0E2
:10011000853009F087C00DC2409136014F5F409392
:1001200036014150A3C340915602F1C18FEF84B90B
:1001300080919B0290919C02A0919D02B0919E02A1
:1001400085B9139A139880919B0290919C02A0917B
:100150009D02B0919E02892F9A2FAB2FBB2785B9A4
:10016000149A149880919B0290919C02A0919D02F8
:10017000B0919E02CD01AA27BB278770886888B9F5
:100180008091560285B980919B0290919C02A0912A
:100190009D02B0919E020196A11DB11D80939B020C
:1001A00090939C02A0939D02B0939E0280919B022B
:1001B00090919C02A0919D02B0919E028093880232
:1001C00090938902A0938A02B0938B0280919B0244
:1001D00090919C02A0919D02B0919E02809390020A
:1001E00090939102A0939202B0939302209188027F
:1001F0003091890240918A0250918B028091AA022B
:100200009091AB02A091AC02B091AD0228173907D2
:100210004A075B0728F010927D0281E0809340013D
:100220001198119A40E022C380919B0290919C0208
:10023000A0919D02B0919E0285B9139A1398809166
:100240009B0290919C02A0919D02B0919E02892FE9
:100250009A2FAB2FBB2785B9149A149880919B02D3
:1002600090919C02A0919D02B0919E02CD01AA277F
:10027000BB278770886888B914B812988091820269
:10028000882309F46CC080914E0190914F01A09198
:100290005001B09151010097A105B10539F180914C
:1002A0009B0290919C02A0919D02B0919E020196AA
:1002B000A11DB11D80939B0290939C02A0939D026F
:1002C000B0939E0280914E0190914F01A0915001F8
:1002D000B09151010197A109B10980934E0190930A
:1002E0004F01A0935001B09351010DC1809146017F
:1002F00090914701A0914801B091490180934E012E
:1003000090934F01A0935001B0935101809144010B
:100310008F5F8093440190914401809182029817ED
:1003200011F410924401E091440120914601309172
:1003300047014091480150914901F0E0EA5AFE4FCF
:10034000608170E080E090E00E94052960939B024C
:1003500070939C0280939D0290939E02D4C08091E2
:100360008102882309F062C020919B0230919C0297
:1003700040919D0250919E0280919402909195022D
:10038000A0919602B0919702281739074A075B0798
:1003900029F480917E02813009F461C020919B0292
:1003A00030919C0240919D0250919E028091940256
:1003B00090919502A0919602B09197022817390763
:1003C0004A075B0749F48091900290919102A091B5
:1003D0009202B09193028FC020919B0230919C02B7
:1003E00040919D0250919E0280918C0290918D02CD
:1003F000A0918E02B0918F02281739074A075B0738
:1004000049F48091880290918902A0918A02B0916A
:100410008B0271C080919B0290919C02A0919D02E1
:10042000B0919E020197A109B10965C020919B027C
:1004300030919C0240919D0250919E0280919002C9
:1004400090919102A0919202B091930228173907DE
:100450004A075B0749F480917E02813029F41092AB
:100460007D02109285024FC020919B0230919C0228
:1004700040919D0250919E02809190029091910234
:10048000A0919202B0919302281739074A075B079F
:1004900049F48091940290919502A0919602B091B6
:1004A000970229C020919B0230919C0240919D02AD
:1004B00050919E028091880290918902A0918A02B7
:1004C000B0918B02281739074A075B0749F48091DE
:1004D0008C0290918D02A0918E02B0918F020BC080
:1004E00080919B0290919C02A0919D02B0919E02EE
:1004F0000196A11DB11D80939B0290939C02A09335
:100500009D02B0939E0243B1129A8FEF84B98091FD
:100510008402882309F4AAC14058209184028FEFF5
:1005200090E002C0880F991F2A95E2F748234058AF
:100530009DC180919B0290919C02A0919D02B091DF
:100540009E0285B9139A139880919B0290919C0208
:10055000A0919D02B0919E02892F9A2FAB2FBB27AD
:1005600085B9149A149880919B0290919C02A09155
:100570009D02B0919E02CD01AA27BB278770886893
:1005800088B914B8129880918202882309F46CC04B
:1005900080914E0190914F01A0915001B091510175
:1005A0000097A105B10539F180919B0290919C02C1
:1005B000A0919D02B0919E020196A11DB11D809354
:1005C0009B0290939C02A0939D02B0939E02809107
:1005D0004E0190914F01A0915001B09151010197AE
:1005E000A109B10980934E0190934F01A09350014E
:1005F000B09351010DC18091460190914701A091A6
:100600004801B091490180934E0190934F01A0930E
:100610005001B0935101809144018F5F8093440158
:100620009091440180918202981711F41092440134
:10063000E0914401209146013091470140914801E9
:1006400050914901F0E0EA5AFE4F608170E080E08D
:1006500090E00E94052960939B0270939C02809316
:100660009D0290939E02D4C080918102882309F05C
:1006700062C020919B0230919C0240919D0250915A
:100680009E028091940290919502A0919602B09161
:100690009702281739074A075B0729F480917E02E1
:1006A000813009F461C020919B0230919C024091FD
:1006B0009D0250919E028091940290919502A0918A
:1006C0009602B0919702281739074A075B0749F449
:1006D0008091900290919102A0919202B091930228
:1006E0008FC020919B0230919C0240919D025091BD
:1006F0009E0280918C0290918D02A0918E02B09109
:100700008F02281739074A075B0749F4809188024E
:1007100090918902A0918A02B0918B0271C0809160
:100720009B0290919C02A0919D02B0919E02019724
:10073000A109B10965C020919B0230919C024091B2
:100740009D0250919E028091900290919102A09101
:100750009202B0919302281739074A075B0749F4C0
:1007600080917E02813029F410927D0210928502E0
:100770004FC020919B0230919C0240919D0250916C
:100780009E028091900290919102A0919202B0916C
:100790009302281739074A075B0749F480919402AE
:1007A00090919502A0919602B091970229C0209154
:1007B0009B0230919C0240919D0250919E0280913B
:1007C000880290918902A0918A02B0918B02281729
:1007D00039074A075B0749F480918C0290918D029A
:1007E000A0918E02B0918F020BC080919B029091DC
:1007F0009C02A0919D02B0919E020196A11DB11D87
:1008000080939B0290939C02A0939D02B0939E02C2
:1008100043B1129A8FEF84B980918402882361F0EA
:100820004058209184028FEF90E002C0880F991FFA
:100830002A95E2F748234058242F332727FD309587
:1008400080915602992787FD9095280F391F8FEFC9
:100850002038380714F420E83FEFC901203831056B
:1008600014F08FE790E085B91198119A842F0895BC
:1008700080919F028330C9F0843030F4813059F088
:10088000823009F08EC00EC0843009F48CC08530EF
:1008900009F087C015C2409132014F5F4093320189
:1008A0004150B3C340915602F9C18FEF84B9809192
:1008B000BD029091BE02A091BF02B091C00285B965
:1008C000139A13988091BD029091BE02A091BF022D
:1008D000B091C002892F9A2FAB2FBB2785B9149AEC
:1008E00014988091BD029091BE02A091BF02B09178
:1008F000C002CD01AA27BB278770886888B980917C
:10090000560285B98091BD029091BE02A091BF02AE
:10091000B091C0020197A109B1098093BD029093E3
:10092000BE02A093BF02B093C0028091BD0290911D
:10093000BE02A091BF02B091C0028093AA02909320
:10094000AB02A093AC02B093AD028091BD02909136
:10095000BE02A091BF02B091C0028093B2029093F8
:10096000B302A093B402B093B502209188023091F3
:10097000890240918A0250918B028091AA02909143
:10098000AB02A091AC02B091AD02281739074A071B
:100990005B0728F010929F0281E08093400111983C
:1009A000119A40E032C38091BD029091BE02A091A5
:1009B000BF02B091C00285B9139A13988091BD020D
:1009C0009091BE02A091BF02B091C002892F9A2FD0
:1009D000AB2FBB2785B9149A14988091BD029091D2
:1009E000BE02A091BF02B091C002CD01AA27BB27D1
:1009F0008770886888B914B812988091A4028823F7
:100A000009F474C08091520190915301A091540156
:100A1000B09155010097A105B10539F18091BD0252
:100A20009091BE02A091BF02B091C0020197A109AE
:100A3000B1098093BD029093BE02A093BF02B09310
:100A4000C0028091520190915301A0915401B09144
:100A500055010197A109B109809352019093530167
:100A6000A0935401B093550115C180914A01909112
:100A70004B01A0914C01B0914D0180935201909394
:100A80005301A0935401B0935501809145018F5FAC
:100A900080934501909145018091A402981711F42B
:100AA00010924501E091450120914A0130914B019E
:100AB00040914C0150914D01F0E0EA52FE4F6081AF
:100AC00070E080E090E00E9405292FEF3FEF47E0C3
:100AD00050E0261B370B480B590B2093BD02309377
:100AE000BE024093BF025093C002D4C08091A302C3
:100AF000882309F062C02091BD023091BE0240916E
:100B0000BF025091C0028091B6029091B702A091AD
:100B1000B802B091B902281739074A075B0729F4D0
:100B20008091A002813009F461C02091BD02309112
:100B3000BE024091BF025091C0028091B6029091D6
:100B4000B702A091B802B091B902281739074A0735
:100B50005B0749F48091B2029091B302A091B40274
:100B6000B091B5028FC02091BD023091BE0240917C
:100B7000BF025091C0028091AE029091AF02A0914D
:100B8000B002B091B102281739074A075B0749F450
:100B90008091AA029091AB02A091AC02B091AD02FB
:100BA00071C08091BD029091BE02A091BF02B09130
:100BB000C0020196A11DB11D65C02091BD023091FA
:100BC000BE024091BF025091C0028091B20290914A
:100BD000B302A091B402B091B502281739074A07B1
:100BE0005B0749F48091A002813029F410929F02A2
:100BF0001092A7024FC02091BD023091BE024091D9
:100C0000BF025091C0028091B2029091B302A091B4
:100C1000B402B091B502281739074A075B0749F4B7
:100C20008091B6029091B702A091B802B091B9023A
:100C300029C02091BD023091BE024091BF02509167
:100C4000C0028091AA029091AB02A091AC02B09137
:100C5000AD02281739074A075B0749F48091AE02B5
:100C60009091AF02A091B002B091B1020BC08091FF
:100C7000BD029091BE02A091BF02B091C002019747
:100C8000A109B1098093BD029093BE02A093BF0257
:100C9000B093C00243B1129A8FEF84B98091A6023B
:100CA000882309F4B2C140582091A6028FEF90E04A
:100CB00002C0880F991F2A95E2F748234058A5C122
:100CC0008091BD029091BE02A091BF02B091C0027E
:100CD00085B9139A13988091BD029091BE02A0919C
:100CE000BF02B091C002892F9A2FAB2FBB2785B9C5
:100CF000149A14988091BD029091BE02A091BF02F7
:100D0000B091C002CD01AA27BB278770886888B937
:100D100014B812988091A402882309F474C08091B9
:100D2000520190915301A0915401B0915501009747
:100D3000A105B10539F18091BD029091BE02A0914B
:100D4000BF02B091C0020197A109B1098093BD0211
:100D50009093BE02A093BF02B093C0028091520153
:100D600090915301A0915401B09155010197A109AF
:100D7000B1098093520190935301A0935401B09311
:100D8000550115C180914A0190914B01A0914C01F0
:100D9000B0914D018093520190935301A09354015F
:100DA000B0935501809145018F5F809345019091EB
:100DB00045018091A402981711F410924501E09129
:100DC000450120914A0130914B0140914C015091D5
:100DD0004D01F0E0EA52FE4F608170E080E090E06B
:100DE0000E9405292FEF3FEF47E050E0261B370B0D
:100DF000480B590B2093BD023093BE024093BF02B3
:100E00005093C002D4C08091A302882309F062C02D
:100E10002091BD023091BE024091BF025091C002AC
:100E20008091B6029091B702A091B802B091B90238
:100E3000281739074A075B0729F48091A0028130FF
:100E400009F461C02091BD023091BE024091BF0201
:100E50005091C0028091B6029091B702A091B80261
:100E6000B091B902281739074A075B0749F4809106
:100E7000B2029091B302A091B402B091B5028FC0BA
:100E80002091BD023091BE024091BF025091C0023C
:100E90008091AE029091AF02A091B002B091B102E8
:100EA000281739074A075B0749F48091AA029091F5
:100EB000AB02A091AC02B091AD0271C08091BD02B5
:100EC0009091BE02A091BF02B091C0020196A11DF7
:100ED000B11D65C02091BD023091BE024091BF029C
:100EE0005091C0028091B2029091B302A091B402DD
:100EF000B091B502281739074A075B0749F480917A
:100F0000A002813029F410929F021092A7024FC0D4
:100F10002091BD023091BE024091BF025091C002AB
:100F20008091B2029091B302A091B402B091B50247
:100F3000281739074A075B0749F48091B602909158
:100F4000B702A091B802B091B90229C02091BD02A8
:100F50003091BE024091BF025091C0028091AA021E
:100F60009091AB02A091AC02B091AD022817390765
:100F70004A075B0749F48091AE029091AF02A091BD
:100F8000B002B091B1020BC08091BD029091BE023F
:100F9000A091BF02B091C0020197A109B10980934D
:100FA000BD029093BE02A093BF02B093C00243B1B2
:100FB000129A8FEF84B98091A602882361F040587D
:100FC0002091A6028FEF90E002C0880F991F2A950A
:100FD000E2F748234058242F332727FD309580918E
:100FE0005602992787FD9095280F391F8FEF2038DB
:100FF000380714F420E83FEFC9012038310514F018
:101000008FE790E085B91198119A842F0895809107
:101010005902682F772767FD7095809157029927AD
:1010200087FD9095680F791F8FEF6038780714F46B
:1010300060E87FEF80915A02282F332727FD3095F3
:1010400080915802992787FD9095280F391F8FEFBF
:101050002138380714F421E83FEFA9012038310581
:1010600014F04FE750E09B016038710514F02FE752
:1010700030E0429FC001439F900D529F900D11247C
:1010800060E470E00E943029605880915B0268172C
:1010900029F08FEF84B965B9159A159860935B02B2
:1010A0004798089580915802282F332727FD3095BF
:1010B00080915702992787FD9095280F391F8091BD
:1010C0005902992787FD9095280F391F80915A0260
:1010D000992787FD9095280F391F8FEF2038380703
:1010E00014F420E83FEFC9012038310514F08FE7F0
:1010F00090E0982F905880915B02981729F08FEF1D
:1011000084B995B9159A159890935B0247980895FC
:1011100080915902482F552747FD509580915702DD
:10112000992787FD9095480F591F8FEF4038580732
:1011300014F440E85FEF80915A02282F332727FDEF
:10114000309580915802992787FD9095280F391F77
:101150008FEF2038380714F420E83FEF20383105AE
:1011600014F02FE730E0CA014038510514F08FE742
:1011700090E0922F982780915B02981729F08FEFCB
:1011800084B995B9159A159890935B02479808957C
:1011900080915902482F552747FD5095809157025D
:1011A000992787FD9095480F591F8FEF40385807B2
:1011B00014F440E85FEF80915A02282F332727FD6F
:1011C000309580915802992787FD9095280F391FF7
:1011D0008FEF2038380714F420E83FEFC90120389A
:1011E000310514F08FE790E0282F2058CA014038CD
:1011F000510514F08FE790E0982F9058922380913A
:101200005B02981729F08FEF84B995B9159A159854
:1012100090935B02479808951F920F920FB60F921A
:1012200011242F933F934F935F936F937F938F93EB
:101230009F93AF93BF93EF93FF93479A80917F0261
:10124000882341F080917F02882341F0809138010A
:10125000882321F00E947900809357021092380170
:10126000E0917902F0917A02099580917A0086FDE9
:101270000AC08091790080588093560280917A004C
:10128000806480937A00FF91EF91BF91AF919F911D
:101290008F917F916F915F914F913F912F910F901F
:1012A0000FBE0F901F9018951F920F920FB60F92BE
:1012B00011242F933F934F935F936F937F938F935B
:1012C0009F93AF93BF93EF93FF93349B26C0479AAE
:1012D0008091A102882341F08091A102882341F0EE
:1012E00080913701882321F00E94380480935802AE
:1012F00010923701E0917902F0917A02099580917C
:101300007A0086FD0AC08091790080588093560249
:1013100080917A00806480937A00FF91EF91BF9171
:10132000AF919F918F917F916F915F914F913F917D
:101330002F910F900FBE0F901F9018951F920F9234
:101340000FB60F921124EF92FF920F931F932F93DA
:101350003F934F935F936F937F938F939F93AF933D
:10136000BF93EF93FF93479A80917F02882341F0C8
:1013700080917F02882341F080913301882321F0FE
:101380000E94790080935902809183028823C1F1E1
:1013900020918302609186027091870280E090E044
:1013A00030E040E050E00E9405292FE730E040E0C7
:1013B00050E00E944329E0908800F090890000915D
:1013C0008602109187026091000170910101809165
:1013D0000201909103010E9443290E0D1F1D2091CF
:1013E000340130913501020F131F061B170B1093A8
:1013F00089000093880070933501609334010EC01A
:101400002091880030918900809186029091870216
:10141000820F931F9093890080938800109233016C
:10142000E0917902F0917A02099580917A0086FD27
:101430000AC08091790080588093560280917A008A
:10144000806480937A00FF91EF91BF91AF919F915B
:101450008F917F916F915F914F913F912F911F914C
:101460000F91FF90EF900F900FBE0F901F90189567
:101470001F920F920FB60F921124EF92FF920F93CB
:101480001F932F933F934F935F936F937F938F930C
:101490009F93AF93BF93EF93FF93479A8091A102DD
:1014A000882341F08091A102882341F080912F018F
:1014B000882321F00E94380480935A028091A5026B
:1014C0008823C1F12091A5026091A8027091A90220
:1014D00080E090E030E040E050E00E9405292FE7F6
:1014E00030E040E050E00E944329E0908A00F09014
:1014F0008B000091A8021091A902609100017091E7
:10150000010180910201909103010E9443290E0D77
:101510001F1D2091300130913101020F131F061B56
:10152000170B10938B0000938A0070933101609326
:1015300030010EC020918A0030918B008091A8026A
:101540009091A902820F931F90938B0080938A0041
:1015500010922F01E0917902F0917A020995809121
:101560007A0086FD0AC080917900805880935602E7
:1015700080917A00806480937A00FF91EF91BF910F
:10158000AF919F918F917F916F915F914F913F911B
:101590002F911F910F91FF90EF900F900FBE0F9022
:1015A0001F9018951F920F920FB60F9211248F93D0
:1015B0009F9380913B0190912E01981718F48FEF23
:1015C00085B901C015B89F5F90932E019F918F91AF
:1015D0000F900FBE0F901F9018951F920F920FB68D
:1015E0000F9211240F900FBE0F901F901895282F67
:1015F00090E0FC01B5E0EE0FFF1FBA95E1F7880F10
:10160000991FE80FF91FE358FD4F60876230A9F575
:10161000822F90E0FC0175E0EE0FFF1F7A95E1F755
:10162000880F991FE80FF91FE358FD4F5287418734
:10163000222379F48091840090918500840F951F76
:101640009093890080938800B19A80916F008260A6
:101650000EC08091840090918500840F951F909317
:101660008B0080938A00B29A80916F00846080938F
:101670006F0081E08093810008956130A9F42223F6
:1016800061F480918100806480938100B59A80919B
:101690006F00806280936F000895DA9A84E08093EF
:1016A000680080E180936D000895DF92EF92FF92D1
:1016B0000F931F93DFB6F894282F30E0F90105E06F
:1016C000EE0FFF1F0A95E1F7220F331FE20FF31F02
:1016D000E358FD4F93E09083282F30E0F901B5E007
:1016E000EE0FFF1FBA95E1F7220F331FE20FF31F32
:1016F000E358FD4FE784F08801891289282F30E0F4
:10170000F90175E0EE0FFF1F7A95E1F7220F331F05
:10171000E20FF31FE358FD4FE68EF78E00A311A3EF
:10172000282F30E0F901B5E0EE0FFF1FBA95E1F781
:10173000220F331FE20FF31FE358FD4FE784F088B9
:1017400001891289282F30E0F90175E0EE0FFF1FA3
:101750007A95E1F7220F331FE20FF31FE358FD4F95
:10176000E386F48605871687282F30E0F901B5E077
:10177000EE0FFF1FBA95E1F7220F331FE20FF31FA1
:10178000E358FD4FE784F08801891289282F30E063
:10179000F90175E0EE0FFF1F7A95E1F7220F331F75
:1017A000E20FF31FE358FD4FE78AF08E018F128F8F
:1017B000282F30E0F901B5E0EE0FFF1FBA95E1F7F1
:1017C000220F331FE20FF31FE358FD4FE784F08829
:1017D00001891289282F30E0F90175E0EE0FFF1F13
:1017E0007A95E1F7220F331FE20FF31FE358FD4F05
:1017F000E38AF48A058B168B282F30E0F90105E087
:10180000EE0FFF1F0A95E1F7220F331FE20FF31FC0
:10181000E358FD4F158E109240010E94F70ADFBE7B
:1018200080917A0086FD0AC080917900805880936B
:10183000560280917A00806480937A001F910F9104
:10184000FF90EF90DF9008951F93782FDA011FB774
:10185000F89490E0FC0135E0EE0FFF1F3A95E1F7B8
:10186000880F991FE80FF91FE358FD4F84E080832C
:10187000872F90E0FC0155E0EE0FFF1F5A95E1F72E
:10188000880F991FE80FF91FE358FD4F83818823C4
:10189000A9F1872F90E0FC0135E0EE0FFF1F3A958C
:1018A000E1F7880F991FE80FF91FE358FD4F2389CF
:1018B000348945895689872F90E0FC01689414F893
:1018C000EE0FFF1F1694E1F7880F991FE80FF91F1D
:1018D000E358FD4F268F378F40A351A3872F90E009
:1018E000FC0155E0EE0FFF1F5A95E1F7880F991F95
:1018F000E80FF91FE358FD4F148235C0872F90E0A1
:10190000FC0135E0EE0FFF1F3A95E1F7880F991FB4
:10191000E80FF91FE358FD4F2789308D418D528D17
:10192000872F90E0FC01689414F8EE0FFF1F1694C7
:10193000E1F7880F991FE80FF91FE358FD4F268F35
:10194000378F40A351A3872F90E0FC0135E0EE0FC5
:10195000FF1F3A95E1F7880F991FE80FF91FE35829
:10196000FD4F81E08483872FAD010E94F70A1FBFDE
:101970001F9108951F931FB7F894282F30E0F901A5
:10198000A5E0EE0FFF1FAA95E1F7220F331FE20F2C
:10199000F31FE358FD4F92E090830E94F70A1FBFA8
:1019A00080917A0086FD0AC08091790080588093EA
:1019B000560280917A00806480937A001F91089586
:1019C000282F6CE00E942429E92FF0E0EE0FFF1F82
:1019D000EA5FFE4F822F0E9424292081318102C0BC
:1019E000369527958A95E2F7C90108952F923F927F
:1019F0004F925F926F927F928F929F92AF92BF921F
:101A0000CF92DF92EF92FF920F931F93DF93CF93CA
:101A100000D00F92CDB7DEB7282E623008F4F4C0A4
:101A20008FB78983F894662E90E8961710F470E8C3
:101A3000672E822C9924D401B695BA2FAA27B79580
:101A4000A795AA5ABE4FBB83AA83FD0180E081936C
:101A50008F5F8615E0F3E0900001F09001010091A6
:101A60000201109103017724A62CBB24CC24DD2491
:101A700024015694542C442457944794EA81FB81C2
:101A80003080EE0CFF1C001F111F17FF08C085EBF4
:101A900095E9AAEAB0E2E826F9260A271B27C80139
:101AA000B701A60195010E944329F201E60FF11D3D
:101AB000EA5AFE4F8081AA81BB818D93BB83AA83A2
:101AC000308273947614D0F2E0920001F09201011A
:101AD00000930201109303012220B9F4609188025F
:101AE0007091890280918A0290918B02A6019501E2
:101AF0000E944329C901DA0180934601909347016E
:101B0000A0934801B09349011EC02091AA023091D0
:101B1000AB024091AC025091AD026FEF7FEF87E0D6
:101B200090E0621B730B840B950BA60195010E943C
:101B30004329C901DA0180934A0190934B01A09394
:101B40004C01B0934D01F401EE0FFF1FC40125E0DD
:101B5000880F991F2A95E1F7E80FF91FE358FD4F09
:101B60006582F401EC5BFE4F1082F401EE0FFF1F63
:101B7000EE0FFF1FDF01AA5BBE4F8D919D910D906F
:101B8000BC91A02DE25BFE4F80839183A283B3833F
:101B90002220C1F420914601309147014091480133
:101BA000509149016091560170E080E090E00E9400
:101BB000052960939B0270939C0280939D029093F1
:101BC0009E021FC020914A0130914B0140914C016F
:101BD00050914D016091D60170E080E090E00E944C
:101BE00005292FEF3FEF47E050E0261B370B480B4E
:101BF000590B2093BD023093BE024093BF02509315
:101C0000C002B981BFBF0EC090E0FC0105E0EE0F3D
:101C1000FF1F0A95E1F7880F991FE80FF91FE35896
:101C2000FD4F15820F900F900F90CF91DF911F9174
:101C30000F91FF90EF90DF90CF90BF90AF909F906B
:101C40008F907F906F905F904F903F902F9008956E
:101C50002F923F924F925F926F927F928F929F92BC
:101C6000AF92BF92CF92DF92EF92FF920F931F93AA
:101C7000DF93CF930F92CDB7DEB79FB79983F894D8
:101C8000882309F0F4C1A0908802B0908902C09026
:101C90008A02D0908B0273E0AA0CBB1CCC1CDD1C0A
:101CA0007A95D1F7AB2CBC2CCD2CDD246091980219
:101CB00020919A0270E0620F711D80E090E0A60111
:101CC00095010E94052953E096958795779567952C
:101CD0005A95D1F76093940270939502809396027F
:101CE00090939702209088023090890240908A0257
:101CF00050908B026090990220919A0230E040E06F
:101D000050E0C601B5010E9405297B018C0143E02A
:101D100016950795F794E7944A95D1F7E20CF31CD2
:101D2000041D151D772488249924C601B501A4013A
:101D300093010E94052933E09695879577956795DD
:101D40003A95D1F7E61AF70A080B190BE0929002C0
:101D5000F0929102009392021093930220919402C8
:101D60003091950240919602509197028091900295
:101D700090919102A0919202B091930282179307E1
:101D8000A407B50750F580918002813019F4809343
:101D9000810202C01092810220919402309195023A
:101DA00040919602509197028091900290919102F9
:101DB000A0919202B0919302809394029093950225
:101DC000A0939602B09397022093900230939102D1
:101DD00040939202509393020AC080918002813016
:101DE00019F41092810203C081E080938102209156
:101DF0009402309195024091960250919702809101
:101E0000880290918902A0918A02B0918B02821778
:101E10009307A407B507E0F480919402909195028E
:101E2000A0919602B0919702209188023091890288
:101E300040918A0250918B02821B930BA40BB50B2D
:101E40008093940290939502A0939602B093970288
:101E50002091900230919102409192025091930210
:101E60008091880290918902A0918A02B0918B02A0
:101E700082179307A407B50708F044C08091900229
:101E800090919102A0919202B091930220918802C8
:101E90003091890240918A0250918B02821B930BF0
:101EA000A40BB50B8093900290939102A0939202A1
:101EB000B09393022091900230919102409192024E
:101EC000509193028091940290919502A091960274
:101ED000B0919702281739074A075B0799F4809158
:101EE000900290919102A0919202B0919302019779
:101EF000A109B1098093900290939102A09392025C
:101F0000B0939302209194023091950240919602F1
:101F1000509197028091900290919102A09192022B
:101F2000B091930282179307A407B50708F05AC02F
:101F300020919B0230919C0240919D0250919E0203
:101F40008091940290919502A0919602B09197028F
:101F5000281739074A075B0708F094C220919B02B3
:101F600030919C0240919D0250919E02809190027E
:101F700090919102A0919202B091930282179307DF
:101F8000A407B50708F07EC2209194023091950213
:101F90004091960250919702A0909B02B0909C02B3
:101FA000C0909D02D0909E0280919B0290919C02D5
:101FB000A0919D02B0919E02E0909002F09091025B
:101FC00000919202109193022A193B094C095D0974
:101FD0008E199F09A00BB10B281739074A075B0719
:101FE000A8F115C020919B0230919C0240919D0266
:101FF00050919E028091940290919502A091960238
:10200000B0919702281739074A075B0748F4809177
:10201000940290919502A0919602B09197021EC0F1
:1020200020919B0230919C0240919D0250919E0212
:102030008091900290919102A0919202B0919302AE
:1020400082179307A407B50708F01CC2809190027D
:1020500090919102A0919202B091930280939B0281
:1020600090939C02A0939D02B0939E020BC280911C
:10207000AA029091AB02A091AC02B091AD022FEFF9
:10208000E22E2FEFF22E27E0022F112D57016801CB
:10209000A81AB90ACA0ADB0A83E0AA0CBB1CCC1C2A
:1020A000DD1C8A95D1F7AB2CBC2CCD2CDD246091A6
:1020B000BA022091BC0270E0620F711D80E090E0D6
:1020C000A60195010E940529A3E09695879577952D
:1020D0006795AA95D1F7E61AF70A080B190BE09253
:1020E000B602F092B7020093B8021093B9022090A2
:1020F000AA023090AB024090AC025090AD02209109
:10210000BB026090BC0230E040E050E0C601B50187
:102110000E9405297B018C01F3E016950795F79441
:10212000E794FA95D1F7E20CF31C041D151D7724F2
:1021300088249924C601B501A40193010E940529B0
:10214000E3E09695879577956795EA95D1F7E61A36
:10215000F70A080B190BE092B202F092B302009357
:10216000B4021093B5022091B6023091B7024091AB
:10217000B8025091B9028091B2029091B302A0913D
:10218000B402B091B502281739074A075B0750F52A
:102190008091A202813019F48093A30202C01092B0
:1021A000A3022091B6023091B7024091B80250913B
:1021B000B9028091B2029091B302A091B402B091A1
:1021C000B5028093B6029093B702A093B802B09381
:1021D000B9022093B2023093B3024093B4025093F9
:1021E000B5020AC08091A202813019F41092A302B4
:1021F00003C081E08093A3022091B6023091B70220
:102200004091B8025091B9028091AA029091AB021C
:10221000A091AC02B091AD02281739074A075B07BD
:1022200000F58091B6029091B702A091B802B091EA
:10223000B9022091AA023091AB024091AC025091B8
:10224000AD0281509040A84FBF4F821B930BA40B4F
:10225000B50B8093B6029093B702A093B802B093E7
:10226000B9022091B2023091B3024091B402509170
:10227000B5028091AA029091AB02A091AC02B091FC
:10228000AD02281739074A075B0708F048C080915C
:10229000B2029091B302A091B402B091B502209124
:1022A000AA023091AB024091AC025091AD02815034
:1022B0009040A84FBF4F821B930BA40BB50B80938C
:1022C000B2029093B302A093B402B093B5022091EE
:1022D000B2023091B3024091B4025091B5028091A4
:1022E000B6029091B702A091B802B091B902281736
:1022F00039074A075B0799F48091B2029091B302C3
:10230000A091B402B091B5020196A11DB11D8093B8
:10231000B2029093B302A093B402B093B50220919D
:10232000B6023091B7024091B8025091B902809143
:10233000B2029091B302A091B402B091B5022817F5
:1023400039074A075B0708F05AC02091BD02309157
:10235000BE024091BF025091C0028091B60290919E
:10236000B702A091B802B091B90282179307A407EF
:10237000B50708F087C02091BD023091BE024091A0
:10238000BF025091C0028091B2029091B302A0911D
:10239000B402B091B502281739074A075B0708F065
:1023A00071C02091BD023091BE024091BF02509198
:1023B000C002A090B602B090B702C090B802D09010
:1023C000B9028091B2029091B302A091B402B0918F
:1023D000B502E090BD02F090BE020091BF021091E4
:1023E000C0022A193B094C095D098E199F09A00BEF
:1023F000B10B82179307A407B507A0F115C0209170
:10240000BD023091BE024091BF025091C002809146
:10241000B6029091B702A091B802B091B9028217AA
:102420009307A407B50748F48091B6029091B702CC
:10243000A091B802B091B9021DC02091BD023091A7
:10244000BE024091BF025091C0028091B2029091B1
:10245000B302A091B402B091B502281739074A0718
:102460005B0780F48091B2029091B302A091B40214
:10247000B091B5028093BD029093BE02A093BF02BB
:10248000B093C002E981EFBF0F90CF91DF911F9110
:102490000F91FF90EF90DF90CF90BF90AF909F9003
:1024A0008F907F906F905F904F903F902F90089506
:1024B000A82F80913A01682F70E05091390120E0F7
:1024C00030E0E1E0F0E0CB01022E02C09595879567
:1024D0000A94E2F780FF09C0CF01022E02C0880FE4
:1024E000991F0A94E2F7809558232F5F3F4F2830B9
:1024F000310549F750933901A0933A0182E068E928
:1025000070E00E94A3200895CF92DF92EF92FF9295
:102510001F93CF93DF939FEF9093640085B78F7ED7
:1025200085BF8FEE87B988E088B920E82AB91BB843
:1025300086E082B98EE381B994B925B9129A94B92B
:10254000159A159881E066E270E00E94A32080B1A0
:10255000807C8093410110924201109239011092C7
:102560003A018FB7F89415B81FEF14B95F9A5F98C6
:102570008FBF0E9422210E948420809164008E7F60
:102580008093640080E680937C0081E080937E00ED
:1025900085E980937A0080917A00806480937A0044
:1025A000809164008F7D8093640010926E0014BC53
:1025B00016BC15BB1092C2021092C10283E085BD09
:1025C00080916400877F8093640010926F008FEF8A
:1025D0009FEF909389008093880090938B00809365
:1025E0008A00109280001092810010928500109253
:1025F000840016BB0E942C2880933C0110923E015F
:1026000010923D0178948EE194E190937C02809346
:102610007B0210923F01C1E0D0E0F5EBCF2EF5E94F
:10262000DF2EFAEAEF2EF0E2FF2E81E00E94B520C5
:10263000882399F09FB7F89415B914B8439800000F
:10264000000083B1809580933D01439A14B99FBFE8
:1026500081E066E270E00E94A32090913D018091AC
:102660001E018095892380933E0190931E01209145
:10267000C1023091C20280911F0190912001281760
:102680003907B1F18091C1029091C202909320016B
:1026900080931F0190B1907C909341018091210122
:1026A000981731F1992329F48038A9F08034F1F496
:1026B00018C0903429F4882371F0803CB9F411C01B
:1026C000903C29F4803439F0803881F40AC0903885
:1026D00069F4803C21F4809142018F5F05C088231A
:1026E00029F480914201815080934201909321010D
:1026F000A89B0AC0A89A8091C1029091C20201963B
:102700009093C2028093C10280913A01882309F418
:102710004AC082E00E94B520882309F444C0809119
:102720003A01682F70E0E09123015091390120E0D7
:1027300030E0CB01022E02C0959587950A94E2F70E
:1027400080FF14C0EE2349F0CE01022E02C0880F94
:10275000991F0A94E2F7582B09C0CE01022E02C03D
:10276000880F991F0A94E2F7809558232F5F3F4FF7
:1027700028303105F1F65093390110922301EE23F0
:1027800019F481E08093230182E068E970E00E94FF
:10279000A320809139019FB7F89485B914B95F9A45
:1027A0005F989FBF0FC090913901809122018917D6
:1027B00049F08FB7F89495B914B95F9A5F988FBFB5
:1027C000909322018091000190910101A09102015A
:1027D000B0910301880F991FAA1FBB1F80930001AE
:1027E00090930101A0930201B0930301B7FF0CC0C5
:1027F0008C259D25AE25BF25809300019093010176
:10280000A0930201B09303010E947B20882321F052
:102810000E9481200E9434210E948D22882341F051
:102820008091C00085FF04C00E9498228093C6005A
:10283000E0917B02F0917C020995F7CE1F931091F5
:102840003F01112389F41092390180E090E00E9449
:102850005812109224011092390181E080933F01B7
:1028600080E061E371E06BC0113041F480E00E94D0
:10287000B520882309F49AC082E080C0123009F0A4
:102880004AC0809124018830F8F480E00E94B5208D
:10289000882309F48BC081E090E00090240102C0FD
:1028A000880F991F0A94E2F720913901282B209371
:1028B000390180E06DE370E00E94A3208091240143
:1028C0008F5F8093240172C080E00E94B52088232E
:1028D00009F46CC080E068E970E00E94A3209FEFDB
:1028E00090933B01809164008F7B809364001093F0
:1028F000B00081E08093B1001092B20080E8809334
:10290000B30097BB1093700082B1866082B994B90E
:102910005F9A83E033C01330A1F580E00E94B520B8
:10292000882309F443C080913B01823058F08091A4
:102930003B01825080933B0180E064E070E00E94A4
:10294000A32034C0109270001092B0001092B10019
:102950008091640080648093640015B85F98109241
:10296000390180E090E00E94581280E180933901A3
:1029700080E062E672E00E94A32084E080933F0141
:1029800015C0143099F480E00E94B520882371F0BE
:102990001092390180E090E00E94581288ED94E195
:1029A00090937C0280937B0210923F011F910895C7
:1029B00080913F01882341F468E970E00E94A320E0
:1029C00081E080933F01089580E00E94B520882334
:1029D000D1F080913D0180FF03C083EC9FE104C0F2
:1029E00085FF09C089E69FE190937C0280937B027A
:1029F00010923F01089588E195E190937C028093C5
:102A00007B0210923F0108951F93182F882311F421
:102A100084E005C0813011F080E008C088E00E94A9
:102A20006D20803118F0812F111181E01F910895E0
:102A3000CF92DF92EF92FF920F931F93CF93DF938A
:102A400010913F01112309F0ACC080E00E940415F1
:102A50008093C30281E00E9404158093DC021092EF
:102A60008C0210928D0210928E0210928F028FEFC4
:102A70009FEFA7E0B0E08093AE029093AF02A093E7
:102A8000B002B093B1020CE512E0C0E0D0E0EE2459
:102A9000E3949E01220F331FCE0175E0880F991F2A
:102AA0007A95E1F7280F391F23583D4FF90110821D
:102AB00010861182178216821582FE0164E0EE0FE5
:102AC000FF1F6A95E1F7EC0FFD1FEE0FFF1FE158A6
:102AD000FD4F1082F901E482138287859089A189D4
:102AE000B289868F978FA0A3B1A387859089A1898A
:102AF000B28983879487A587B687FE01EA5DFE4F7A
:102B00001082109225012FB7F894FE01EE0FFF1FDF
:102B1000CE0135E0880F991F3A95E1F7E80FF91FCC
:102B2000E358FD4F87859089A189B289878B908F63
:102B3000A18FB28F83859485A585B685838B948B71
:102B4000A58BB68B138E148E158E2FBFCC2311F44C
:102B500087E001C08BE00E946D208A3508F080E399
:102B6000F801808311820E94E00CF8018193919317
:102B70008F012196C230D10509F08BCF82E598E014
:102B800090937A028093790210922C01109239016D
:102B900080E090E00E94581281E080933F010C9405
:102BA000861E113011F00C94861E809125019091A3
:102BB0003D01882309F0B9C3292F30E095FFF6C104
:102BC000B9016870707093FF04C080913E0184FD6C
:102BD0000AC080913E0190E0AC014870507083FFC4
:102BE000F8C024FFF6C082E598E090937A028093C3
:102BF00079029FB7F89480912C01282F30E0F901D9
:102C000005E0EE0FFF1F0A95E1F7220F331FE20FD9
:102C1000F31FE358FD4F4785508961897289282F3A
:102C200030E0F901B5E0EE0FFF1FBA95E1F7220F92
:102C3000331FE20FF31FE358FD4F478B508F618F17
:102C4000728F282F30E0F90145E0EE0FFF1F4A9503
:102C5000E1F7220F331FE20FF31FE358FD4F4385C7
:102C6000548565857685282F30E0F90115E0EE0F53
:102C7000FF1F1A95E1F7220F331FE20FF31FE358EE
:102C8000FD4F438B548B658B768B282F30E0F901F9
:102C9000A5E0EE0FFF1FAA95E1F7220F331FE20F09
:102CA000F31FE358FD4F138E282F30E0F90165E044
:102CB000EE0FFF1F6A95E1F7220F331FE20FF31F9C
:102CC000E358FD4F148E282F30E0F90145E0EE0F58
:102CD000FF1F4A95E1F7220F331FE20FF31FE3585E
:102CE000FD4F158E9FBF282F30E0F90115E0EE0F44
:102CF000FF1F1A95E1F7220F331FE20FF31FE3586E
:102D0000FD4F1782282F30E0F901A5E0EE0FFF1FDD
:102D1000AA95E1F7220F331FE20FF31FE358FD4F8F
:102D20001682282F30E0F90165E0EE0FFF1F6A954B
:102D3000E1F7220F331FE20FF31FE358FD4F158217
:102D4000282F30E0F90144E0EE0FFF1F4A95E1F72C
:102D5000E20FF31FEE0FFF1FE158FD4F1082282FE7
:102D600030E0F90195E0EE0FFF1F9A95E1F7220F91
:102D7000331FE20FF31FE358FD4F1382282F30E07B
:102D8000F90115E0EE0FFF1F1A95E1F7220F331F2F
:102D9000E20FF31FE358FD4F91E09483282F30E0BA
:102DA000F901A5E0EE0FFF1FAA95E1F7220F331FEF
:102DB000E20FF31FE358FD4F11821092250164E0EA
:102DC00042E120E00E94FB2080912C0164E04BE175
:102DD00057C1672B59F120FD04C026703070232B9A
:102DE00021F081E08093250143C3452B09F440C3C2
:102DF00020912C01822F90E0FC0164E0EE0FFF1F78
:102E00006A95E1F7E80FF91FEE0FFF1FE158FD4F3C
:102E10008081882331F481E08083822F64E040E167
:102E2000F4C11082822F64E040E12AC124FF52C025
:102E300082FF0CC080912C0161E040E050E00E94D4
:102E4000BA0C80912C0164E04EE071C184FF10C384
:102E500020912C01822F90E0FC0145E0EE0FFF1F36
:102E60004A95E1F7880F991FE80FF91FE358FD4FC6
:102E700083818823A9F4822F90E0FC0105E0EE0F06
:102E8000FF1F0A95E1F7880F991FE80FF91FE35814
:102E9000FD4F81E08383822F64E041E120E413C091
:102EA000822F90E0FC01B5E0EE0FFF1FBA95E1F72D
:102EB000880F991FE80FF91FE358FD4F1382822FE7
:102EC00064E041E120E00E94FB2080912C010E94FF
:102ED000280ECEC280FF17C080912C0120914301A3
:102EE000482F50E0FA0175E0EE0FFF1F7A95E1F7E9
:102EF000440F551FE40FF51FE358FD4F278364E08F
:102F000043E10E94FB2080913E0181FF10C060914F
:102F10004201669580912C010E94F60C209142019D
:102F2000269580912C0164E044E10E94FB20809171
:102F30003E0182FF9DC220914301213099F0213052
:102F400030F02230D9F0233009F092C223C082E55C
:102F500098E090937A028093790280912C0164E04A
:102F600046E115C287E098E090937A028093790257
:102F700080912C0164E046E121E009C288EC98E0F0
:102F800090937A028093790280912C0164E046E16B
:102F900022E0FDC188E898E090937A02809379025C
:102FA00080912C0164E046E123E0F1C190913E0163
:102FB00090FF25C020912C01822F90E0FC0135E08C
:102FC000EE0FFF1F3A95E1F7880F991FE80FF91FE1
:102FD000E358FD4F8081833039F4822F61E040E077
:102FE00050E00E94240CFEC0822F61E040E050E0DF
:102FF0000E94550B80912C0164E043E098C091FF42
:1030000098C060912C01862F90E0FC0115E0EE0F36
:10301000FF1F1A95E1F7880F991FE80FF91FE35872
:10302000FD4F8081853071F51FB7F894862F90E0B1
:10303000FC01A5E0EE0FFF1FAA95E1F7880F991F8D
:10304000E80FF91FE358FD4F84E08083862F61E08D
:1030500040E050E00E94F70A1FBF80912C01282F0A
:1030600030E0F90155E0EE0FFF1F5A95E1F7220F0E
:10307000331FE20FF31FE358FD4F118264E049E074
:1030800020E085C1862F90E0FC0125E0EE0FFF1FB8
:103090002A95E1F7880F991FE80FF91FE358FD4FB4
:1030A0002785308941895289862F90E0FC0115E0FF
:1030B000EE0FFF1F1A95E1F7880F991FE80FF91F10
:1030C000E358FD4F83859485A585B6852817390774
:1030D0004A075B0709F4CCC11FB7F894862F90E02C
:1030E000FC01A5E0EE0FFF1FAA95E1F7880F991FDD
:1030F000E80FF91FE358FD4F85E08083862F61E0DC
:1031000040E050E00E94F70A1FBF80917A0086FDE0
:103110000AC08091790080588093560280917A008D
:10312000806480937A0080912C0164E049E020E380
:103130002EC192FF8EC060912C01862F90E0FC0181
:1031400055E0EE0FFF1F5A95E1F7880F991FE80F22
:10315000F91FE358FD4F8081882309F058C0862F5E
:1031600090E0FC0135E0EE0FFF1F3A95E1F7880F84
:10317000991FE80FF91FE358FD4F278530894189D2
:103180005289862F90E0FC0105E0EE0FFF1F0A95A3
:10319000E1F7880F991FE80FF91FE358FD4F83856A
:1031A0009485A585B685281739074A075B0709F472
:1031B0005FC11FB7F894862F90E0FC01B5E0EE0FD9
:1031C000FF1FBA95E1F7880F991FE80FF91FE35821
:1031D000FD4F84E08083862F61E040E050E00E9454
:1031E000F70A1FBF80912C01282F30E0F90175E00C
:1031F000EE0FFF1F7A95E1F7220F331FE20FF31F47
:10320000E358FD4F118261E040E320E4C0C0862F07
:1032100090E0FC0155E0EE0FFF1F5A95E1F7880F93
:10322000991FE80FF91FE358FD4F1082862F90E099
:10323000FC0135E0EE0FFF1F3A95E1F7880F991F6B
:10324000E80FF91FE358FD4F1086862F62E040E338
:1032500017CF93FF44C060912C01862F90E0FC01B2
:1032600005E0EE0FFF1F0A95E1F7880F991FE80FA1
:10327000F91FE358FD4F2785308941895289862FF0
:1032800090E0FC01A5E0EE0FFF1FAA95E1F7880F83
:10329000991FE80FF91FE358FD4F83859485A58595
:1032A000B685281739074A075B0709F4E1C0862F5E
:1032B00061E040E050E00E94240C80912C01282F16
:1032C00030E0F90105E0EE0FFF1F0A95E1F7220F4C
:1032D000331FE20FF31FE358FD4F118394CF94FF88
:1032E0000BC080912C018F5F80932C01823008F4F9
:1032F000BFC010922C01BCC096FF0EC0809143014C
:103300000E94F524882309F4B3C080912C016091B8
:1033100043010E94BA26ACC097FFAAC080912C013D
:10332000609143010E940A25A3C0892F90E080FF8D
:1033300031C020912C01822FFC01A5E0EE0FFF1F70
:10334000AA95E1F7880F991FE80FF91FE358FD4F81
:10335000838D30914201831709F48AC0822F90E057
:10336000FC0165E0EE0FFF1F6A95E1F7880F991FDA
:10337000E80FF91FE358FD4F338F822F0E94280E6C
:1033800020914201269580912C0164E04CE10E943D
:10339000FB206EC081FF30C020912C01822F90E075
:1033A000FC0145E0EE0FFF1F4A95E1F7880F991FDA
:1033B000E80FF91FE358FD4F848D309142018317C8
:1033C00009F456C0822F90E0FC0105E0EE0FFF1FCC
:1033D0000A95E1F7880F991FE80FF91FE358FD4F91
:1033E000348F822F0E94280E2091420126958091D1
:1033F0002C0164E04DE1CBCF82FF2FC020912C0146
:10340000822F90E0FC01B5E0EE0FFF1FBA95E1F7C7
:10341000880F991FE80FF91FE358FD4F858D3091F4
:103420004201831729F1822F90E0FC0175E0EE0F35
:10343000FF1F7A95E1F7880F991FE80FF91FE358EE
:10344000FD4F358F822F0E94280E20914201269534
:1034500080912C0164E04EE19ACF80913E0190E092
:1034600083FD04C080739070892B11F010922501A8
:103470008091F502882309F449C488E291E00E9412
:10348000CF2080912901823089F580912801282F51
:1034900030E0F901EE0FFF1FC90145E0880F991FC9
:1034A0004A95E1F7E80FF91FE358FD4F808184301A
:1034B00021F08081823009F029C4F901EC5FFE4FD0
:1034C00090912A018081981709F020C4F90195E0B4
:1034D000EE0FFF1F9A95E1F7220F331FE20FF31F44
:1034E000E358FD4F10828091280188C08130E1F5BA
:1034F00010912801212F30E0F901EC5FFE4F60911F
:103500002A016083F901EA5DFE4F8081882349F03A
:10351000862F0E94E00CAC01812F62E00E94BA0C61
:10352000F5C3F90105E0EE0FFF1F0A95E1F7220F41
:10353000331FE20FF31FE358FD4F27853089418980
:10354000528983859485A585B685281739074A074A
:103550005B0709F4DBC3862F0E94E00CAC01812FCE
:1035600062E00E94240CD2C3843009F08AC38091A7
:103570002A0190E0FC013397EC31F10508F0C6C355
:10358000E25CFF4FEE0FFF1F0590F491E02D0994D0
:1035900080912B01882371F080912801E82FF0E0C1
:1035A000EE0FFF1FE45AFD4F4081518162E00E94FF
:1035B000550B7FC020912801822F90E0FC0175E01F
:1035C000EE0FFF1F7A95E1F7880F991FE80FF91F9B
:1035D000E358FD4F8081833009F098C3822F90E03B
:1035E000FC0155E0EE0FFF1F5A95E1F7880F991F78
:1035F000E80FF91FE358FD4F1082822F90E0FC0185
:1036000035E0EE0FFF1F3A95E1F7880F991FE80F9D
:10361000F91FE358FD4F108679C380912B01882351
:1036200009F44AC000912801602F70E0FB01EE0F01
:10363000FF1FCB0115E0880F991F1A95E1F7E80FDE
:10364000F91FE358FD4F27853089418952898385C9
:103650009485A585B685281739074A075B0709F4BD
:1036600055C3FB01EC5FFE4F40811FB7F894FB018F
:10367000B5E0EE0FFF1FBA95E1F7660F771FE60F73
:10368000F71FE358FD4F85E08083802F62E050E014
:103690000E94F70A1FBF80917A0086FD0AC08091C0
:1036A000790080588093560280917A0080648093DC
:1036B0007A00E09128017AC050912801252F30E04E
:1036C000F901EE0FFF1FC90145E0880F991F4A95C8
:1036D000E1F7E80FF91FE358FD4F8081853009F0CD
:1036E00015C3F901EC5FFE4F40811FB7F894F90153
:1036F00085E0EE0FFF1F8A95E1F7220F331FE20FDF
:10370000F31FE358FD4F84E08083852F62E050E093
:103710000E94F70A1FBFFAC280912B01882399F0FB
:1037200080912801E82FF0E0EE0FFF1FE45AFD4FD3
:103730004081518162E00E94BA0CE0912801F0E0E2
:10374000EA5DFE4F71C020912801822F90E0FC01BC
:10375000A5E0EE0FFF1FAA95E1F7880F991FE80F6C
:10376000F91FE358FD4F8081823009F0CFC2822FCC
:1037700090E0FC0165E0EE0FFF1F6A95E1F7880F0E
:10378000991FE80FF91FE358FD4F1082822F90E038
:10379000FC0145E0EE0FFF1F4A95E1F7880F991FE6
:1037A000E80FF91FE358FD4F1086E22FF0E0EA5DC5
:1037B000FE4F4CC080912B01882389F08091280115
:1037C00090E0FC0105E0EE0FFF1F0A95E1F7880F7E
:1037D000991FE80FF91FE358FD4F118297C280919E
:1037E000280190E0FC01B5E0EE0FFF1FBA95E1F76C
:1037F000880F991FE80FF91FE358FD4F81E081837F
:1038000085C280912B01882391F08091280190E05E
:10381000FC0174E0EE0FFF1F7A95E1F7E80FF91F46
:10382000EE0FFF1FE158FD4F81E080836FC2809152
:10383000280190E0FC0154E0EE0FFF1F5A95E1F7DC
:10384000E80FF91FEE0FFF1FE158FD4F10825EC217
:1038500080912B01882391F08091280190E0FC0158
:1038600035E0EE0FFF1F3A95E1F7880F991FE80F3B
:10387000F91FE358FD4F81E0838310C08091280138
:1038800090E0FC0105E0EE0FFF1F0A95E1F7880FBD
:10389000991FE80FF91FE358FD4F1382809128010B
:1038A000EDC120912801822F90E0FC01B5E0EE0FE0
:1038B000FF1FBA95E1F7880F991FE80FF91FE3582A
:1038C000FD4F1182822F90E0FC0175E0EE0FFF1F8B
:1038D0007A95E1F7880F991FE80FF91FE358FD4F1C
:1038E0001782822F90E0FC0155E0EE0FFF1F5A95E2
:1038F000E1F7880F991FE80FF91FE358FD4F168273
:10390000822F90E0FC0135E0EE0FFF1F3A95E1F7C2
:10391000880F991FE80FF91FE358FD4F1582A22F5A
:10392000B0E0FD0114E0EE0FFF1F1A95E1F7EA0F7A
:10393000FB1FEE0FFF1FE158FD4F1082822F90E01A
:10394000FC0165E0EE0FFF1F6A95E1F7880F991FF4
:10395000E80FF91FE358FD4F31E03483822F90E0E8
:10396000FC0145E0EE0FFF1F4A95E1F7880F991F14
:10397000E80FF91FE358FD4F1382822F90E0FC01FE
:1039800015E0EE0FFF1F1A95E1F7880F991FE80F5A
:10399000F91FE358FD4F3483AA5DBE4F1C923CC013
:1039A00020912B01283008F0B1C18091280190E0CE
:1039B000FC0165E0EE0FFF1F6A95E1F7880F991F84
:1039C000E80FF91FE358FD4F2783A0C1809128011C
:1039D00060912B010E94F60C99C180912B012091DE
:1039E000280130E0F90145E0EE0FFF1F4A95E1F7AD
:1039F000220F331FE20FF31FE358FD4F868386C16A
:103A000080912B01813059F0813030F0823051F0BB
:103A1000833009F07BC109C082E598E008C087E0E7
:103A200098E005C088EC98E002C088E898E09093A0
:103A30007A02809379026AC1CFB6F894D0902801B7
:103A40000D2D10E084E0E82E81E0F82EE00EF11E4E
:103A5000F70180810E94E00C000F111F045A1D4FD6
:103A6000F80191838083F7016081DD2019F487E0FC
:103A700090E005C0F1E0DF1621F48BE090E00E94B9
:103A80005F20CFBE43C18091280190912B01282F48
:103A900030E0F901A5E0EE0FFF1FAA95E1F7220F34
:103AA000331FE20FF31FE358FD4F938FE7C0809160
:103AB000280190912B01282F30E0F90165E0EE0FED
:103AC000FF1F6A95E1F7220F331FE20FF31FE35840
:103AD000FD4F948FD3C08091280190912B01282F06
:103AE00030E0F90145E0EE0FFF1F4A95E1F7220FA4
:103AF000331FE20FF31FE358FD4F958FBFC07FB711
:103B0000F89460912801862F90E0FC0115E0EE0FFB
:103B1000FF1F1A95E1F7880F991FE80FF91FE35867
:103B2000FD4F2785308941895289862F90E0FC011D
:103B3000A5E0EE0FFF1FAA95E1F7880F991FE80F88
:103B4000F91FE358FD4F278B308F418F528F862FFF
:103B500090E0FC0115E0EE0FFF1F1A95E1F7880FCA
:103B6000991FE80FF91FE358FD4F238534854585DC
:103B70005685862F90E0FC01A5E0EE0FFF1FAA9569
:103B8000E1F7880F991FE80FF91FE358FD4F238BCA
:103B9000348B458B568B862F90E0FC0115E0EE0FA1
:103BA000FF1F1A95E1F7880F991FE80FF91FE358D7
:103BB000FD4F138E862F90E0FC01A5E0EE0FFF1F56
:103BC000AA95E1F7880F991FE80FF91FE358FD4FF9
:103BD000148E862F90E0FC0145E0EE0FFF1F4A9502
:103BE000E1F7880F991FE80FF91FE358FD4F158E75
:103BF0007FBF8CC08091280140912B0150E0440F81
:103C0000551F282F30E0F90195E0EE0FFF1F9A9520
:103C1000E1F7220F331FE20FF31FE358FD4F438FED
:103C20002DC08091280140912B0150E0440F551F79
:103C3000282F30E0F901B5E0EE0FFF1FBA95E1F74C
:103C4000220F331FE20FF31FE358FD4F448F16C0BE
:103C50008091280140912B0150E0440F551F282FDF
:103C600030E0F90165E0EE0FFF1F6A95E1F7220FE2
:103C7000331FE20FF31FE358FD4F458F0E94280EBC
:103C800045C0873009F042C080912B01C82FD0E099
:103C9000D695DC2FCC27D795C79580912A01C80FE0
:103CA000D11D80E2C030D807D1F000912801E0E2B8
:103CB000C030DE0740F410E0F801EC5FFE4F808179
:103CC0000E94E00C07C010E0F801EC5FFE4F80811D
:103CD0000E94E00C8050904E8C1B9D0B09C00091FF
:103CE000280110E0F801EC5FFE4F80810E94E00C9B
:103CF000F80135E0EE0FFF1F3A95E1F7000F111FB5
:103D0000E00FF11FE358FD4F928781878091850274
:103D1000813041F01092570280916F008F7D809327
:103D20006F00B59A8091A702813031F0109258024D
:103D30001092680010926D0080918502823041F0EF
:103D40001092590280916F008D7F80936F00B19A1D
:103D50008091A702823041F010925A0280916F0048
:103D60008B7F80936F00B29A80918502882321F423
:103D700010925702109259028091A702882321F4D1
:103D80001092580210925A028091420182958695B3
:103D9000877080934301909139019F7180FD9068F5
:103DA00081FD906482FD90629093390160912C01B5
:103DB000292F207E862F90E0FC0105E0EE0FFF1FEB
:103DC0000A95E1F7880F991FE80FF91FE358FD4F97
:103DD0008081833009F42160862F90E0FC01B5E0FA
:103DE000EE0FFF1FBA95E1F7880F991FE80FF91F33
:103DF000E358FD4F8081843009F42460862F90E0E1
:103E0000FC0175E0EE0FFF1F7A95E1F7880F991F0F
:103E1000E80FF91FE358FD4F8081853009F42260D7
:103E2000862F90E0FC0145E0EE0FFF1F4A95E1F779
:103E3000880F991FE80FF91FE358FD4F80818230EA
:103E400009F4276080914001813009F428606130D5
:103E500009F4206120933901862F90E0FC0105E0F0
:103E6000EE0FFF1F0A95E1F7880F991FE80FF91F62
:103E7000E358FD4F2785308941895289862F90E08C
:103E8000FC01B5E0EE0FFF1FBA95E1F7880F991F0F
:103E9000E80FF91FE358FD4F83859485A585B68506
:103EA000281739074A075B0739F480913A0182FDE8
:103EB00007C084E090E002C080E090E00E945812C9
:103EC000DF91CF911F910F91FF90EF90DF90CF90F6
:103ED000089580913F018823A1F40E9404158093E6
:103EE000C30281E00E9404158093DC028295807FEA
:103EF0009091C302982B9093390181E080933F0108
:103F0000089580913E01282F80FF11C08091C30247
:103F10008F5F8093C302803110F01092C3028091B2
:103F20003901807F9091C302892B8093390121FF51
:103F300013C08091DC028F5F8093DC02803110F02F
:103F40001092DC02909139019F708091DC02829581
:103F5000807F892B8093390122FF14C084E090E098
:103F60006091C3020E945F2088E090E06091DC02D3
:103F70000E945F2088E195E190937C0280937B0210
:103F800010923F01089580913F01882361F41092BF
:103F9000390180E090E00E94581280EC90E00E948D
:103FA000581281E019C08130D1F4F89480937D02D9
:103FB0008093850280E061E040E050E00E94F70AD3
:103FC00082E598E090937A028093790278948091C8
:103FD000420180932D0182E080933F010895823059
:103FE00009F06CC080913E01282F80FF06C08091AF
:103FF000390191E089278093390121FF06C0809122
:10400000390192E089278093390122FF06C080910F
:10401000390194E089278093390123FF06C08091FC
:10402000390198E089278093390124FF06C08091E7
:10403000390190E189278093390125FF06C08091DD
:10404000390190E289278093390126FF11C08091C0
:104050003C01882319F00E94BB2408C080E090E056
:104060000E9458128091390190E489278093390188
:1040700080913E0187FF12C080913C01882329F086
:10408000809142010E94D02409C080E090E00E940B
:1040900058128091390180588093390190912D01F7
:1040A00080914201981751F080E090E00E945812F0
:1040B000809142018093390180932D0108959C01E4
:1040C000F999FECF8FB7F89432BD21BD60BDFA9A41
:1040D000F99A8FBF12BC11BC0895282FF999FECF11
:1040E0008FB7F89430E032BD21BDF89A8FBF12BC73
:1040F00011BC80B508958091C000881F8827881F53
:1041000008958091C6000895809164008D7F80930A
:1041100064008091C0008D7F8093C00088E180930F
:10412000C10087E28093C40086E08093C200809142
:10413000C00085FFFCCF8091C00087FF03C0809145
:10414000C600F9CF0895E82FF0E08091C102909168
:10415000C202EE0FFF1FDF01A05ABD4F8D939C934B
:10416000EA59FD4F7183608308952091C102309117
:10417000C202E82FF0E040E0EE0FFF1FDF01A05A7F
:10418000BD4F8D919C91281B390BEA59FD4F8081C1
:1041900091812817390708F041E0842F0895CF93C3
:1041A000DF93AC012091F502222311F1909174026A
:1041B000E92FF0E0EE0FFF1FEE0FFF1FDF01AC5302
:1041C000BD4FED018981EA018983EA53FD4F80816A
:1041D0008A83FD0183818B838C9188839F5F909379
:1041E0007402963010F01092740221502093F50260
:1041F000DF91CF910895CF93DF933091F60236305F
:10420000F0F490917602E92FF0E0EE0FFF1FEE0F31
:10421000FF1FDF01A352BD4FED016983E152FD4F46
:1042200040832B838091C3028C939F5F909376028F
:10423000963010F0109276023F5F3093F602DF91D5
:10424000CF91089589E080937502109278021092C0
:10425000F50210927302109274021092F6021092FC
:104260007602109277020895CF93DF93382F87FF5D
:1042700041C0682F70E09B012F7030708091C302A5
:10428000482F50E02417350739F08091DC0290E088
:104290002817390709F03BC1CB01807F9070803926
:1042A000910519F4109275021BC08038910539F4FC
:1042B00081E08093750224173507C9F414C0803C4F
:1042C000910511F482E00AC0803E910511F487E067
:1042D00005C0803B910509F01AC183E08093750207
:1042E0002417350719F41092710214C181E08093EC
:1042F000710210C190917502943009F4B7C09530E5
:1043000060F4913009F45EC09130C8F0923009F445
:1043100084C0933009F0FBC0A5C0973009F4CCC02D
:10432000983030F4953079F0963009F0F0C04EC0F6
:10433000983009F4C5C0993009F0E9C0EBC080930A
:10434000720285E0E5C040917202509171022091A5
:10435000F5028823A9F4263090F590917302E92F95
:10436000F0E0EE0FFF1FEE0FFF1FDF01AC53BD4F5C
:1043700082E0ED018983EA53FD4F40831B8214C024
:104380002630E8F490917302E92FF0E0EE0FFF1F62
:10439000EE0FFF1FDF01AC53BD4F81E0ED018983BC
:1043A000EA53FD4F40833B835C939F5F909373027E
:1043B000963010F0109273022F5F2093F502109246
:1043C0007502A8C08093720286E0A2C0409172027A
:1043D000509171022091F5022630E8F49091730219
:1043E000E92FF0E0EE0FFF1FEE0FFF1FDF01AC53D0
:1043F000BD4F82E0ED018983EA53FD4F40833B834B
:104400005C939F5F90937302963010F0109273024A
:104410002F5F2093F50281E07BC0409171022091D3
:10442000F5022630E8F490917302E92FF0E0EE0FE8
:10443000FF1FEE0FFF1FDF01AC53BD4F83E0ED0107
:104440008983EA53FD4F30831B824C939F5F909387
:104450007302963010F0109273022F5F2093F502D2
:1044600082E056C08093720284E052C04091720292
:10447000509171022091F5022630E0F48091730290
:10448000E82FF0E0EE0FFF1FEE0FFF1FDF01AC5330
:10449000BD4FED019983EA53FD4F40833B835C930D
:1044A0008F5F80937302863010F0109273022F5F3B
:1044B0002093F50283E02CC08093720288E028C02C
:1044C00040917202509171022091F5022630E8F479
:1044D00090917302E92FF0E0EE0FFF1FEE0FFF1F28
:1044E000DF01AC53BD4F87E0ED018983EA53FD4FF7
:1044F00040833B835C939F5F90937302963010F0F0
:10450000109273022F5F2093F50287E001C089E0CB
:1045100080937502DF91CF9108958091F6028823F0
:1045200011F081E0089580917802811181E0089571
:10453000CF93DF9380917802833009F48EC084306A
:1045400038F4813009F485C0823008F084C00DC091
:10455000853009F489C0853008F483C0863009F4B9
:1045600086C0873009F08EC088C02091F6022223D1
:1045700021F190917702E92FF0E0EE0FFF1FEE0F8F
:10458000FF1FDF01A352BD4FED01898180936E02B1
:10459000E152FD4F808180936F028B818093700286
:1045A0008C9180936D029F5F90937702963010F00C
:1045B0001092770221502093F60220916E02223051
:1045C000B9F0233020F4213009F05CC006C023305C
:1045D000F9F0243009F056C02BC090916D0290691B
:1045E00080916C02891779F490916F0283E02AC060
:1045F00090916D02906980916C02891721F49091DD
:104600006F0284E01FC090936C02209378023BC03D
:1046100090916D02906C80916C02891729F49091B1
:104620006F02109278022FC090936C0285E00AC04E
:1046300090916D02906B80916C02891731F490918A
:104640006F0287E0809378021EC090936C0286E030
:10465000F9CF83E00DC084E00BC01092780290E4A3
:1046600012C0109278020EC01092780203C087E048
:104670008093780290916F0206C010927802909118
:10468000700201C090E0892FDF91CF9108955D9A6B
:104690005D988091C80085FFFCCF85E08093CE00B7
:1046A0008091C80087FFFCCF8091CE008091C80028
:1046B00085FFFCCF8FEF8093CE008091C80087FFED
:1046C000FCCF8091CE005D9A8095817008950E9404
:1046D00047238823E1F35D9A5D988091C80085FFA8
:1046E000FCCF86E08093CE008091C80087FFFCCF8E
:1046F0008091CE005D9A0895EF92FF920F931F93E1
:104700007B018C010E9447238823E1F35D9A5D9829
:104710008091C80085FFFCCF82E08093CE0080911D
:10472000C80087FFFCCF8091CE008091C80085FF34
:10473000FCCFC801AA27BB278093CE008091C80078
:1047400087FFFCCF8091CE008091C80085FFFCCF11
:10475000BB27A12F902F8F2D8093CE008091C80072
:1047600087FFFCCF8091CE008091C80085FFFCCFF1
:10477000E092CE008091C80087FFFCCF8091CE00F0
:104780001F910F91FF90EF900895EF92FF920F937A
:104790001F937B018C010E9447238823E1F35D9ADC
:1047A0005D988091C80085FFFCCF83E08093CE00A8
:1047B0008091C80087FFFCCF8091CE008091C80017
:1047C00085FFFCCFC801AA27BB278093CE0080912C
:1047D000C80087FFFCCF8091CE008091C80085FF84
:1047E000FCCFBB27A12F902F8F2D8093CE008091DF
:1047F000C80087FFFCCF8091CE008091C80085FF64
:10480000FCCFE092CE008091C80087FFFCCF809162
:10481000CE001F910F91FF90EF900895EF92FF92BD
:104820000F931F937B018C010E9447238823E1F3A0
:104830005D9A5D988091C80085FFFCCF80E28093EF
:10484000CE008091C80087FFFCCF8091CE00809180
:10485000C80085FFFCCFC801AA27BB278093CE00E4
:104860008091C80087FFFCCF8091CE008091C80066
:1048700085FFFCCFBB27A12F902F8F2D8093CE00DB
:104880008091C80087FFFCCF8091CE008091C80046
:1048900085FFFCCF1092CE008091C80087FFFCCF2F
:1048A0008091CE005D9A1F910F91FF90EF90089537
:1048B0000E9447238823E1F35D9A5D988091C800A8
:1048C00085FFFCCF80E58093CE008091C80087FFF4
:1048D000FCCF8091CE005D9A5D9A5D988091C80072
:1048E00085FFFCCF81E08093CE008091C80087FFD8
:1048F000FCCF8091CE008091C80085FFFCCF8CE377
:104900008093CE008091C80087FFFCCF8091CE00BD
:104910005D9A08950E9447238823E1F35D9A5D988C
:104920008091C80085FFFCCF80E58093CE00809108
:10493000C80087FFFCCF8091CE005D9A5D9A5D989C
:104940008091C80085FFFCCF81E08093CE008091EC
:10495000C80087FFFCCF8091CE008091C80085FF02
:10496000FCCF1092CE008091C80087FFFCCF8091D1
:10497000CE005D9A089560E070E180E090E00E94D2
:10498000C5238091C80085FFFCCF8FEF8093CE00B8
:104990008091C80087FFFCCF8091CE005D9A08957A
:1049A0001F93182F0E948A240E94672360E070E101
:1049B00080E090E00E940E240E94672360E070E196
:1049C00080E090E00E947C238091C80085FFFCCFAE
:1049D0001093CE008091C80087FFFCCF8091CE005D
:1049E0005D9A0E9458241F91089520E0E82FF0E07E
:1049F000EE0FFF1FEE0FFF1FE950FD4F80819181E9
:104A0000A281B38181509040A840B04008F421E0D9
:104A1000822F08952F923F924F925F926F927F92D2
:104A20008F929F92AF92BF92CF92DF92EF92FF92BE
:104A30000F931F93DF93CF93CDB7DEB728970FB6B1
:104A4000F894DEBF0FBECDBF8A83882389F46090BF
:104A500090027090910280909202909093028091C7
:104A6000940290919502A0919602B091970210C085
:104A70006090B6027090B7028090B8029090B90230
:104A80008091B2029091B302A091B402B091B502AC
:104A9000681A790A8A0A9B0A8A8190E0FC01B5E0CB
:104AA000EE0FFF1FBA95E1F7880F991FE80FF91F66
:104AB000E358FD4FA788B08CC18CD28C862F90E034
:104AC00001961C01442437FC4094542C019798878C
:104AD0008F83F3E1220C331C441C551CFA95D1F74B
:104AE0000E948A2482017101D201C101805090404C
:104AF000A84FBF4F8B839C83AD83BE830E946723E7
:104B00000E9447238823E1F35D9A5D988091C80055
:104B100085FFFCCF98ED9093CE008091C80087FF71
:104B2000FCCF8091CE008091C80085FFFCCFC801EA
:104B3000AA27BB278093CE008091C80087FFFCCFB7
:104B40008091CE008091C80085FFFCCFBB27A12FAC
:104B5000902F8F2D8093CE008091C80087FFFCCFCF
:104B60008091CE008091C80085FFFCCF1092CE00CE
:104B70008091C80087FFFCCF8091CE005D9A80E0D5
:104B800090E0A1E0B0E0E80EF91E0A1F1B1F8B8128
:104B90009C81AD81BE81E816F9060A071B0709F062
:104BA000ADCF9FB79983F894EE24FF24870159C0B5
:104BB0000E946723C801B701620D731D841D951DF6
:104BC0000E947C23A8019701E12C61E0F62E012DC3
:104BD000112DE20EF31E041F151FA5B8139A13988A
:104BE000BB27AD2D9C2D8B2D85B9149A1498C60129
:104BF000AA27BB278770886088B914B8129800006C
:104C0000000093B1129AAFEFA4B9BA81BB2331F47B
:104C10000894A11CB11CC11CD11C05C00894A1089A
:104C2000B108C108D1088091C80085FFFCCF9093DE
:104C3000CE008091C80087FFFCCF8091CE002F5F0F
:104C40003F4F4F4F5F4F261537054805590531F047
:104C50002E153F054007510709F0BFCF5D9A790136
:104C60008A01E614F7040805190508F4A1CFEF81BD
:104C7000F885EE0FFF1FEE0FFF1FE950FD4F60821A
:104C80007182828293820E948A240E94672360E05C
:104C900070E080E090E00E940E240E94672360E0B4
:104CA00070E080E090E00E947C23E7EFF2E020815A
:104CB0003181428153818091C80085FFFCCF852FCF
:104CC0009927AA27BB278093CE008091C80087FF31
:104CD000FCCF8091CE008091C80085FFFCCFCA0137
:104CE000AA27BB278093CE008091C80087FFFCCF06
:104CF0008091CE008091C80085FFFCCFBB27A52FF7
:104D0000942F832F8093CE008091C80087FFFCCF23
:104D10008091CE008091C80085FFFCCF2093CE000B
:104D20008091C80087FFFCCF8091CE003496B3E01D
:104D3000E333FB0709F0BBCF5D9A0E945824E98159
:104D4000EFBF28960FB6F894DEBF0FBECDBFCF9150
:104D5000DF911F910F91FF90EF90DF90CF90BF9068
:104D6000AF909F908F907F906F905F904F903F900B
:104D70002F9008958F929F92AF92BF92DF92EF9201
:104D8000FF920F931F93CF93DF93D82EC62FD0E0BF
:104D90002196BE01882777FD8095982F219743E1C2
:104DA000660F771F881F991F4A95D1F70E94C52368
:104DB0006FB7F8948D2D90E0FC0135E0EE0FFF1FEA
:104DC0003A95E1F7880F991FE80FF91FE358FD4F57
:104DD00027853089418952898D2D90E0FC0105E0BD
:104DE000EE0FFF1F0A95E1F7880F991FE80FF91FD3
:104DF000E358FD4F268F378F40A351A38D2D90E0B0
:104E0000FC01B5E0EE0FFF1FBA95E1F7880F991F7F
:104E1000E80FF91FE358FD4F2785308941895289F2
:104E20008D2D90E0FC0175E0EE0FFF1F7A95E1F704
:104E3000880F991FE80FF91FE358FD4F278B308F1C
:104E4000418F528F8FEF84B9129ACC0FDD1FCC0F98
:104E5000DD1FC950DD4F88809980AA80BB80EE2479
:104E6000FF2487017FEF9CC08091C80085FFFCCFA5
:104E70007093CE008091C80087FFFCCF2091CE00B8
:104E80008D2D90E0FC01B5E0EE0FFF1FBA95E1F724
:104E9000880F991FE80FF91FE358FD4F868D978DF6
:104EA000A0A1B1A185B9139A13988D2D90E0FC01B2
:104EB00055E0EE0FFF1F5A95E1F7880F991FE80F95
:104EC000F91FE358FD4F868D978DA0A1B1A1892FC1
:104ED0009A2FAB2FBB2785B9149A14988D2D90E08B
:104EE000FC01B5E0EE0FFF1FBA95E1F7880F991F9F
:104EF000E80FF91FE358FD4F868D978DA0A1B1A152
:104F0000CD01AA27BB278770886088B925B9119879
:104F1000119ADD20C1F480E090E0FC0155E0EE0F35
:104F2000FF1F5A95E1F7880F991FE80FF91FE35803
:104F3000FD4F268D378D40A151A12F5F3F4F4F4F21
:104F40005F4F80E017C08D2D90E0FC0135E0EE0F43
:104F5000FF1F3A95E1F7880F991FE80FF91FE358F3
:104F6000FD4F268D378D40A151A12150304040404A
:104F700050408D2D90E0FC01B5E0EE0FFF1FBA957B
:104F8000E1F7880F991FE80FF91FE358FD4F268FAF
:104F9000378F40A351A30894E11CF11C011D111D82
:104FA000E814F9040A051B0508F45ECF5D9A8D2DFF
:104FB00090E0FC0115E0EE0FFF1F1A95E1F7880F56
:104FC000991FE80FF91FE358FD4F268D378D40A13B
:104FD00051A18D2D90E0FC01A5E0EE0FFF1FAA95D9
:104FE000E1F7880F991FE80FF91FE358FD4F23875A
:104FF0003487458756878D2D90E0FC0135E0EE0F14
:10500000FF1F3A95E1F7880F991FE80FF91FE35842
:10501000FD4F268D378D40A151A18D2D90E0FC01D3
:1050200005E0EE0FFF1F0A95E1F7880F991FE80FC3
:10503000F91FE358FD4F238B348B458B568B6FBF85
:10504000DF91CF911F910F91FF90EF90DF90BF9074
:10505000AF909F908F900895EF92FF920F931F93C0
:10506000809164008F7E809364001092CD00109236
:10507000CC00549A83EC8093CA0088E18093C900E5
:1050800081E090E09093CD008093CC00559A5D9A9A
:105090005D9A5D988091C80085FFFCCF8FE9809371
:1050A000CE008091C80087FFFCCF8091CE00809118
:1050B000C80085FFFCCF8FEF8093CE008091C800A1
:1050C00087FFFCCF2091CE008091C80085FFFCCFE8
:1050D0008FEF8093CE008091C80087FFFCCF909126
:1050E000CE008091C80085FFFCCF8FEF8093CE006B
:1050F0008091C80087FFFCCF8091CE005D9A2F3B46
:1051000009F074C0953209F071C08B3409F06EC09B
:1051100060E070E080E090E00E94C523E7EFF2E0FD
:105120007FEF8091C80085FFFCCF7093CE00809107
:10513000C80087FFFCCF2091CE008091C80085FF7A
:10514000FCCF7093CE008091C80087FFFCCF909178
:10515000CE008091C80085FFFCCF7093CE00809177
:10516000C80087FFFCCF6091CE008091C80085FF0A
:10517000FCCF7093CE008091C80087FFFCCFE090F9
:10518000CE0030E040E050E0522F44273327222762
:10519000892F90E0A0E0B0E0DC0199278827282B38
:1051A000392B4A2B5B2BFF2400E010E02E293F29EE
:1051B000402B512B862F90E0A0E0B0E0BA2FA92F12
:1051C000982F8827282B392B4A2B5B2B219331933F
:1051D0004193519383E0E333F80709F0A2CF5D9A3E
:1051E00081E01F910F91FF90EF9008958AB18F7C1D
:1051F0008AB98BB180638BB91092C9008091640029
:1052000080618093640080E0ECCF629FD001739F47
:10521000F001829FE00DF11D649FE00DF11D929F52
:10522000F00D839FF00D749FF00D659FF00D992791
:10523000729FB00DE11DF91F639FB00DE11DF91FB5
:10524000BD01CF0111240895991B79E004C0991F75
:10525000961708F0961B881F7A95C9F780950895D0
:1052600097FB092E07260AD077FD04D02ED006D052
:1052700000201AF4709561957F4F0895F6F7909588
:1052800081959F4F0895A1E21A2EAA1BBB1BFD0119
:105290000DC0AA1FBB1FEE1FFF1FA217B307E40715
:1052A000F50720F0A21BB30BE40BF50B661F771F6D
:1052B000881F991F1A9469F760957095809590954D
:1052C0009B01AC01BD01CF010895AA1BBB1B51E19D
:1052D00007C0AA1FBB1FA617B70710F0A61BB70B66
:1052E000881F991F5A95A9F780959095BC01CD010B
:0652F0000895F894FFCFC1
:1052F600EFBE00003C3CFFFFA1F111E444D72FCBE9
:0E530600C8BF04B5DBAA44A13798AC8F9C87C2
:00000001FF
