:100000000C943E000C9450000C9450000C94500042
:100010000C9450000C9450000C94B4010C945000BB
:100020000C9450000C94D2010C9450000C9450008D
:100030000C943F010C94BE010C94C8010C94500028
:100040000C9450000C9450000C9450000C945000F0
:100050000C9450000C9450000C9450000C945000E0
:100060000C9450000C9450000C9450000C945000D0
:100070000C9450000C9450000C94500011241FBE9E
:10008000CFEFD0E1DEBFCDBF13E0A0E0B1E001C013
:100090001D92AE3FB107E1F70E9411020C94220AB3
:1000A0000C94DC01CF92DF92EF92FF920F931F939B
:1000B0006B017C01F894A1E3B3E040E050E08C9147
:1000C0008823B1F59A01220F331F240F351F220F09
:1000D000331F220F331F89010A5D1C4F81E0F80195
:1000E0008387B701A601ACE0440F551F661F771F39
:1000F000AA95D1F74083518362837383265D3C4F79
:10010000F601EE0FFF1FEE0FFF1FEA5DFE4F80812D
:100110009181A281B381840F951FA61FB71FF9019A
:1001200080839183A283B383F8011186128606C06F
:100130004F5F5F4F1C964430510509F678941F912C
:100140000F91FF90EF90DF90CF900895CF93DF93C2
:10015000682F70E0FB01EE0FFF1FE60FF71FEE0F99
:10016000FF1FEE0FFF1FEA5DFC4F8385813011F00A
:1001700080E082C080819181A281B38185B9139A88
:100180001398292F3A2F4B2F552725B9149A1498D5
:10019000CD01AA27BB278770886888B914B8129840
:1001A0000000000083B180931F01129A2FEF24B941
:1001B00090E0FB01EE0FFF1FE60FF71FEE0FFF1F92
:1001C000EE0FFF1FEA5DFC4F018402C095958795F5
:1001D0000A94E2F780FD03C08285815002C08285C7
:1001E0008F5F8287FB01EE0FFF1FE60FF71FEE0FF9
:1001F000FF1FEE0FFF1FEA5DFC4F81858F5F818738
:10020000883061F4118680819181A281B381019649
:10021000A11DB11D80839183A283B383FB01EE0FE7
:10022000FF1FE60FF71FEE0FFF1FEE0FFF1FEF017F
:10023000CA5DDC4FE65DFC4F288139814A815B81D4
:1002400080819181A281B381281739074A075B0712
:1002500039F4188219821A821B8219861A861B8623
:10026000FB01EE0FFF1FE60FF71FEE0FFF1FEE0F54
:10027000FF1FEA5DFC4F8285DF91CF9108951F92A9
:100280000F920FB60F921124DF92EF92FF920F930D
:100290001F932F933F934F935F936F937F938F930E
:1002A0009F93AF93BF93EF93FF9380E00E94A600CC
:1002B000E82E81E00E94A600D82E82E00E94A600CF
:1002C000082F83E00E94A6002D2D332727FD3095AF
:1002D000FF24E7FCF0942E0D3F1D112707FD10951C
:1002E000200F311F992787FD9095280F391F8FEF19
:1002F0002038380714F420E83FEFC90120383105D1
:1003000014F08FE790E0982F90588091560398173B
:1003100029F08FEF84B995B9159A159890935603E3
:1003200080917A0086FD0AC0809179008058809380
:10033000200180917A00806480937A00FF91EF9190
:10034000BF91AF919F918F917F916F915F914F91ED
:100350003F912F911F910F91FF90EF90DF900F90A1
:100360000FBE0F901F9018951F920F920FB60F920D
:1003700011240F900FBE0F901F9018951F920F928F
:100380000FB60F9211240F900FBE0F901F9018956B
:100390001F920F920FB60F9211240F900FBE0F9065
:1003A0001F9018951F920F920FB60F9211240F9065
:1003B0000FBE0F901F9018951F920F920FB60F92BD
:1003C00011240F900FBE0F901F9018959FB7F894AF
:1003D00085B98FEF84B95F9A5F989FBF0895A89BF6
:1003E0000AC0A89A8091C8039091C903019690937E
:1003F000C9038093C80308951F93182FF894812F81
:100400000E94E60183E062E672E00E94390502C0C4
:100410000E94EF0183E00E944B058823C9F31095E9
:10042000EECF7F928F929F92AF92BF92CF92DF9248
:10043000EF92FF920F931F93CF93DF932FEF2093B1
:10044000640085B78F7E85BF8FEE87B988E088B955
:1004500090E89AB91BB886E082B98EE381B924B9D5
:1004600095B9129A24B9159A1598809164008E7FD7
:100470008093640080E680937C0081E080937E001E
:1004800085E980937A0080917A00806480937A0075
:1004900080916400877F8093640010926F008FEFDB
:1004A0009FEF909389008093880090938B008093B6
:1004B0008A001092800010928100109285001092A4
:1004C000840026BB80918100806480938100B59A6E
:1004D00080916F00806280936F00DA9A84E080934D
:1004E000680080E180936D00809164008F7D80932F
:1004F000640010926E0014BC16BC25BB1092C90398
:100500001092C80383E085BD81E066E270E00E943E
:1005100039053D98459A80B1807C809323011092E3
:1005200024010E94E5050E941A050E94930710927B
:100530001701109218011092190110921A0183E00C
:1005400064EC74E00E94390502C00E94EF0183E070
:100550000E944B058823C9F30E940D09882319F4D2
:1005600085E50E94FC01AA24BB24650145010E9487
:10057000AC07C601B5010E94E908813009F057C0F7
:1005800083E06AE770E00E94390502C00E94EF0133
:1005900083E00E944B05882329F48FEF0E94AF0768
:1005A0008E3FA1F7C0E0D0E08FEF0E94AF078093AD
:1005B0001601E0901701F0901801009119011091B7
:1005C0001A019FEF94B9E5B8139A13985527412F54
:1005D000302F2F2D25B9149A1498980144275527A8
:1005E0002770286828B985B91198119A0894E11CD8
:1005F000F11C011D111DE0921701F09218010093EA
:10060000190110931A01219682E0C030D80761F6D3
:100610008FEF0E94AF078FEF0E94AF07E3E0959442
:100620008794EA95E1F7882D0E94E60103C083E0F4
:100630000E94FC018091C80086FFFCCF0E94AA079F
:100640000894A11CB11CC11CD11CE0E0AE16E4E072
:10065000BE06E0E0CE06E0E0DE0609F087CF0E94AD
:10066000AC0760E074E080E090E00E94E90881302F
:1006700009F08BC083E06AE770E00E94390502C090
:100680000E94EF0183E00E944B05882329F48FEF3D
:100690000E94AF078E3FA1F7C6E2D1E08FEF0E9424
:1006A000AF0790E0A0E0B0E08093060190930701CF
:1006B000A0930801B09309018FEF0E94AF0790E06B
:1006C000A0E0B0E080930A0190930B01A0930C018D
:1006D000B0930D018FEF0E94AF0790E0A0E0B0E073
:1006E00080930E0190930F01A0931001B09311011C
:1006F0008FEF0E94AF0790E0A0E0B0E0809312017E
:1007000090931301A0931401B0931501E0900E0192
:10071000F0900F0100911001109111018701FF2449
:10072000EE2420910A0130910B0140910C0150916F
:100730000D01542F432F322F2227E22AF32A042BB4
:10074000152B20910601309107014091080150912D
:100750000901E22AF32A042B152BB82FAA2799277F
:100760008827E82AF92A0A2B1B2BE992F992099388
:100770001993F3E0C632DF0709F090CF8FEF0E94A4
:10078000AF078FEF0E94AF0703C083E00E94FC0118
:100790008091C80086FFFCCF0E94AA070E948507AF
:1007A00081E00E94E6011092CA0389E08093E3038E
:1007B0007894FF24FA94C4E7D3E092E0892E912C38
:1007C0008C0E9D1E8E010C5F1F4F86E0A82EB12C53
:1007D000AC0EBD1EB9E07B2E0E94EF0181E00E94AD
:1007E0004B058823D9F09FB7F894F5B814B843980F
:1007F0000000000083B1809580932101439AF4B8F2
:100800009FBF359904C081E08093250102C01092FA
:10081000250181E066E270E00E94390580912101A6
:10082000C0901B01C094C822C092220180931B017A
:100830002091C8033091C90380911C0190911D0142
:1008400028173907B1F18091C8039091C90390939B
:100850001D0180931C0190B1907C909323018091A5
:100860001E01981731F1992329F48038A9F08034BA
:10087000F1F418C0903429F4882371F0803CB9F465
:1008800011C0903C29F4803439F0803881F40AC0DA
:10089000903869F4803C21F480912401815005C096
:1008A000882329F4809124018F5F80932401909301
:1008B0001E01E0902401809105018E1559F0E0920F
:1008C00005018E2D0E94E6016E2D70E080E090E023
:1008D0000E945200DC2CC0FE16C0809104018823C7
:1008E00019F0E0927403198260917403709175039A
:1008F000882777FD8095982F0E94520081E00E9402
:10090000E60110920401D1FE17C0809104018823F2
:1009100021F0E0927603F4011182609176037091E8
:100920007703882777FD8095982F0E94520082E0F8
:100930000E94E60110920401D2FE17C080910401CA
:10094000882321F0E0927803F80111826091780306
:1009500070917903882777FD8095982F0E94520027
:1009600084E00E94E60110920401D3FE17C080913A
:100970000401882321F0E0927A03F501118260914D
:100980007A0370917B03882777FD8095982F0E94CA
:10099000520088E00E94E60110920401C7FE06C0E2
:1009A00081E08093040180E80E94E6010E94110525
:1009B000882321F00E9417050E94F70580E091E04E
:1009C0000E94650580910101813009F005CF809179
:1009D00002010E94E6016091020170E080E090E077
:1009E0000E94520070920101F7CE9C01F999FECF4E
:1009F0008FB7F89432BD21BD60BDFA9AF99A8FBFC6
:100A000012BC11BC0895282FF999FECF8FB7F89426
:100A100030E032BD21BDF89A8FBF12BC11BC80B549
:100A200008958091C000881F8827881F08958091AD
:100A3000C6000895809164008D7F8093640080914A
:100A4000C0008D7F8093C00088E18093C10087E261
:100A50008093C40086E08093C2008091C00085FF2F
:100A6000FCCF8091C00087FF03C08091C600F9CF02
:100A70000895E82FF0E08091C8039091C903EE0F2C
:100A8000FF1FDF01A95ABC4F8D939C93E15AFC4F85
:100A90007183608308952091C8033091C903E82FC2
:100AA000F0E040E0EE0FFF1FDF01A95ABC4F8D912F
:100AB0009C91281B390BE15AFC4F808191812817AA
:100AC000390708F041E0842F0895CF93DF93EC01BC
:100AD0002091FC03222319F190916F03E92FF0E09C
:100AE000EE0FFF1FEE0FFF1FDF01A553BC4F119646
:100AF0008C9111978983E353FC4F80818A831396ED
:100B00008C9113978B838C9188839F5F90936F0355
:100B1000963010F010926F0321502093FC03DF9168
:100B2000CF910895CF93DF93EC012091FC03263001
:100B300018F590916E03E92FF0E0EE0FFF1FEE0F16
:100B4000FF1FDF01A553BC4F898111968C9311972C
:100B5000E353FC4F8A8180838B8113968C93139788
:100B600088818C939F5F90936E03963010F0109263
:100B70006E032F5F2093FC03DF91CF910895309196
:100B8000FD03363008F590917103E92FF0E0EE0F88
:100B9000FF1FEE0FFF1FDF01AC51BC4F11966C938E
:100BA0001197EA51FC4F408313962C931397809131
:100BB000CA038C939F5F90937103963010F010924C
:100BC00071033F5F3093FD03089589E080937003C4
:100BD000109273031092FC0310926E0310926F0335
:100BE0001092FD03109271031092720308951F93E7
:100BF000DF93CF9300D000D0CDB7DEB7282F87FF8B
:100C000041C0682F70E09B012F7030708091CA0343
:100C1000482F50E02417350739F08091E30390E026
:100C20002817390709F0ADC0CB01807F907080395B
:100C3000910519F4109270031BC08038910539F4A6
:100C400081E08093700324173507C9F414C0803CF9
:100C5000910511F482E00AC0803E910511F487E00D
:100C600005C0803B910509F08CC083E08093700340
:100C70002417350719F410926C0386C081E0809325
:100C80006C0382C010917003143009F458C0153001
:100C900058F41130C1F11130C8F0123009F446C0D7
:100CA000133009F06EC047C0173009F456C0183031
:100CB00030F4153079F0163009F063C028C01830D0
:100CC00009F44FC0193009F05CC05EC080936D0319
:100CD00085E058C030916D0340916C03BE016F5F99
:100CE0007F4F882329F482E08A833B831C8204C0DF
:100CF00081E08A833B832C834983CB010E94920548
:100D00001092700341C080936D0386E03BC082E087
:100D10008A8380916D038B832C8380916C038983FC
:100D2000CE0101960E94920581E02CC083E08A8367
:100D30002B831C821CC080936D0384E023C01A8324
:100D400080916D038B832C8380916C038983CE010A
:100D500001960E94920583E015C080936D0388E0A0
:100D600011C017E01A8380916D038B832C838091CF
:100D70006C038983CE0101960E9492051093700343
:100D800003C089E0809370030F900F900F900F9035
:100D9000CF91DF911F9108958091FD03882311F079
:100DA00081E0089580917303811181E0089580911D
:100DB0007303833009F491C0843038F4813009F42E
:100DC00088C0823008F087C00DC0853009F48CC01F
:100DD000853008F486C0863009F489C0873009F070
:100DE00091C08BC02091FD03222339F190917203B1
:100DF000E92FF0E0EE0FFF1FEE0FFF1FDF01AC51F8
:100E0000BC4F11968C91119780936903EA51FC4F66
:100E1000808180936A0313968C91139780936B0360
:100E20008C91809368039F5F90937203963010F0CB
:100E30001092720321502093FD0320916903223008
:100E4000B9F0233020F4213009F05CC006C0233013
:100E5000F9F0243009F056C02BC0909168039069D6
:100E600080916703891779F490916A0383E02AC01F
:100E700090916803906980916703891721F490919C
:100E80006A0384E01FC090936703209373033BC001
:100E900090916803906C80916703891729F4909171
:100EA0006A03109273032FC09093670385E00AC012
:100EB00090916803906B80916703891731F490914A
:100EC0006A0387E0809373031EC09093670386E0F4
:100ED000F9CF83E00DC084E00BC01092730390E45F
:100EE00012C0109273030EC01092730303C087E008
:100EF0008093730390916A0306C0109273039091DC
:100F00006B0301C090E0892F08958AB18F7C8AB964
:100F10008BB180638BB91092C900E4E6F0E0808168
:100F2000806180830895E4E6F0E080818F7E808395
:100F3000ECECF0E011821082549A80EC8093CA00AD
:100F400088E18093C90081E090E091838083559A85
:100F50005D9A08955D9A08955D9A5D980895982F19
:100F60008091C80085FFFCCF9093CE008091C8008F
:100F700087FFFCCF8091CE0008958091C8008064E7
:100F80008093C8008091C80085FFFCCF8FEF8093CD
:100F9000CE008091C80087FFFCCF8091CE00809169
:100FA000C80086FFFCCF08951F93282F5D9A5D9897
:100FB0008091C80085FFFCCF8FEF8093CE00809199
:100FC000C80087FFFCCF8091CE0027FF7AC08091B8
:100FD000C80085FFFCCF87E78093CE008091C800D2
:100FE00087FFFCCF8091CE008091C80085FFFCCFA9
:100FF0001092CE008091C80087FFFCCF8091CE0078
:101000008091C80085FFFCCF1092CE008091C8006F
:1010100087FFFCCF8091CE008091C80085FFFCCF78
:101020001092CE008091C80087FFFCCF8091CE0047
:101030008091C80085FFFCCF1092CE008091C8003F
:1010400087FFFCCF8091CE008091C80085FFFCCF48
:1010500081E08093CE008091C80087FFFCCF809113
:10106000CE009AE03FEF8091C80085FFFCCF30931F
:10107000CE008091C80087FFFCCF1091CE001F3FAB
:1010800011F4915081F78091C80080648093C8006A
:101090008091C80085FFFCCF8FEF8093CE008091B8
:1010A000C80087FFFCCF8091CE008091C80086FFEA
:1010B000FCCF123010F05D9A89C05D9A2F775D9A4F
:1010C0005D988091C80085FFFCCF822F806480935B
:1010D000CE008091C80087FFFCCF8091CE00809128
:1010E000C80085FFFCCF872F9927AA27BB278093AD
:1010F000CE008091C80087FFFCCF8091CE00809108
:10110000C80085FFFCCFCB01AA27BB278093CE0068
:101110008091C80087FFFCCF8091CE008091C800ED
:1011200085FFFCCFBB27A72F962F852F8093CE005E
:101130008091C80087FFFCCF8091CE008091C800CD
:1011400085FFFCCF4093CE008091C80087FFFCCF85
:101150008091CE00222311F495E905C0283011F4C6
:1011600097E801C091E08091C80085FFFCCF909383
:10117000CE008091C80087FFFCCF8091CE002C303C
:1011800069F48091C80085FFFCCF8FEF8093CE007B
:101190008091C80087FFFCCF8091CE009AE03FEF9E
:1011A0008091C80085FFFCCF3093CE008091C800AD
:1011B00087FFFCCF1091CE001F3F11F4915081F7B3
:1011C000283021F02A3311F00E94BD07812F1F9192
:1011D0000895AB01BC01E9E0440F551F661F771F5E
:1011E000EA95D1F781E10E94D40790E0882309F4C1
:1011F00091E0892F0895AB01BC01F9E0440F551F20
:10120000661F771FFA95D1F788E10E94D40790E016
:10121000882309F491E0892F0895DF93CF9300D0BC
:1012200000D0CDB7DEB75D9A90E02FEF8091C80077
:1012300080648093C8008091C80085FFFCCF209314
:10124000CE008091C80087FFFCCF8091CE009F5FC9
:10125000943161F78091C80086FFFCCF5D9A5D985C
:1012600020E030E09FEF8091C80080648093C80048
:101270008091C80085FFFCCF9093CE008091C8007C
:1012800087FFFCCF8091CE002F5F3F4F82E0203060
:10129000380749F78091C80086FFFCCF5D9A80E04F
:1012A00040E050E060E070E00E94D4078091C80008
:1012B00086FFFCCF5D9A80E040E050E060E070E0A7
:1012C0000E94D407813009F0B4C05D9A88E04AEAF0
:1012D00051E060E070E00E94D407813009F076C0F0
:1012E000FE0131969FEF9E012B5F3F4F8091C8001A
:1012F00085FFFCCF9093CE008091C80087FFFCCF84
:101300008091CE008193E217F30781F70E94BD0719
:101310005D9A8B81813009F08CC08C818A3A09F00A
:1013200088C083E064EC74E00E94390503C05D9AD4
:101330000E94EF0183E00E944B05882349F489EA6B
:1013400040E050E060E070E00E94D407882379F725
:1013500083E00E944B05882331F06BC00E94BD07DB
:101360000E94EF015D9A83E00E944B05882349F4B7
:101370008AE340E050E060E070E00E94D4078823F8
:1013800069F783E00E944B05882309F052C090E082
:101390002FEF8091C80085FFFCCF2093CE00809175
:1013A000C80087FFFCCF8091CE009F5F943089F703
:1013B0000E94BD075D9A80E140E052E060E070E08D
:1013C0000E94D4075D9A0E94BD0731C00E94BD07EC
:1013D0005D9A89EA40E050E060E070E00E94D40746
:1013E000823038F55D9A83E064EC74E00E94390540
:1013F00003C00E94EF015D9A83E00E944B058823A1
:1014000049F489EA40E050E060E070E00E94D407CF
:10141000882379F783E00E944B05882351F480E10B
:1014200040E052E060E070E00E94D4075D9A81E005
:1014300001C080E05D9A0F900F900F900F90CF91B8
:08144000DF910895F894FFCF3D
:00000001FF
