:10F000000C943E780C945B780C945B780C945B7851
:10F010000C945B780C945B780C945B780C945B7824
:10F020000C945B780C945B780C945B780C945B7814
:10F030000C945B780C945B780C945B780C945B7804
:10F040000C945B780C945B780C945B780C945B78F4
:10F050000C945B780C945B780C945B780C945B78E4
:10F060000C945B780C945B780C945B780C945B78D4
:10F070000C945B780C945B780C945B7811241FBE25
:10F08000CFEFD0E1DEBFCDBF11E0A0E0B1E0EEE315
:10F09000F9EF02C005900D92A830B107D9F723E02F
:10F0A000A8E0B1E001C01D92A032B207E1F70E94D2
:10F0B000F97A0C949D7C0C94007885B98FEF84B913
:10F0C0005F9A5F980895A89B0AC0A89A80911E0332
:10F0D00090911F03019690931F0380931E03089540
:10F0E000CF92DF92EF92FF921F93CF93DF93EB01CA
:10F0F000BC0180E090E00E94C37A8130F1F5C090BD
:10F100001E03D0901F03E12CF12C8AE7C80ED11CFE
:10F11000E11CF11C02C00E94637880911E03909153
:10F120001F03A0E0B0E08C159D05AE05BF0588F07B
:10F1300040911E0350911F0360E070E011E0C4167F
:10F14000D506E606F70608F410E07E018EEFF81A01
:10F1500006C08FEF0E9425798E3FE9F6E9CF8FEF49
:10F160000E9425798993CE15DF05C9F78FEF0E949C
:10F1700025798FEF0E94257901C010E08091C800A9
:10F1800086FFFCCF0E9420798FEF0E942579812F86
:10F19000DF91CF911F91FF90EF90DF90CF90089576
:10F1A00090E020911E0330911F03880F991FFC01EE
:10F1B000E25FFC4F31832083FC01EA5EFC4F7183E8
:10F1C0006083089520911E0330911F0390E0880F03
:10F1D000991FFC01E25FFC4F40815181241B350BDC
:10F1E000FC01EA5EFC4F81E0408151812417350724
:10F1F00008F480E008958AB18F7C8AB98BB180636E
:10F200008BB91092C900E4E6F0E0808180618083D0
:10F210000895E4E6F0E080818F7E8083ECECF0E0FE
:10F2200011821082549A80EC8093CA0088E1809306
:10F23000C90081E090E091838083559A5D9A08959A
:10F240005D9A08955D9A5D9808959091C80095FF24
:10F25000FCCF8093CE008091C80087FFFCCF8091C7
:10F26000CE0008958091C80080648093C8008FEF1D
:10F270000E9425798091C80086FFFCCF0895DF9217
:10F28000EF92FF920F931F93CF93DF93C82F042F1A
:10F29000F52EE62ED72E0E9422798FEF0E94257937
:10F2A000C7FF31C087E70E94257980E00E94257959
:10F2B00080E00E94257980E00E94257980E00E940C
:10F2C000257981E00E9425791AE08FEF0E94257947
:10F2D000D82F8F3F11F41150C1F79091C80090645E
:10F2E0009093C8008FEF0E9425798091C80086FF17
:10F2F000FCCFD23018F00E94207934C00E942079CF
:10F30000CF770E9422798C2F80640E9425798D2DE1
:10F310000E9425798E2D0E9425798F2D0E942579B6
:10F32000802F0E942579CC2321F0C83021F081E084
:10F3300003C085E901C087E80E942579CC3019F423
:10F340008FEF0E9425791AE08FEF0E942579D82F40
:10F350008F3F11F41150C1F7C83021F0CA3311F0BA
:10F360000E9432798D2FDF91CF911F910F91FF90E5
:10F37000EF90DF900895EF92FF920F931F93CF933A
:10F38000DF9300D000D01F92CDB7DEB70E94207966
:10F3900014E18091C80080648093C8008FEF0E94C0
:10F3A00025791150B1F78091C80086FFFCCF0E94EB
:10F3B000227900E012E08091C80080648093C80048
:10F3C0008FEF0E94257901501109A9F78091C8009B
:10F3D00086FFFCCF0E94207940E050E0BA0180E037
:10F3E0000E943F798091C80086FFFCCF0E9420795F
:10F3F00040E050E0BA0180E00E943F79813011F096
:10F4000080E0B1C00E9420794AEA51E060E070E0FB
:10F4100088E00E943F79813009F06EC08E010F5F55
:10F420001F4F7E0185E0E80EF11C8FEF0E942579C9
:10F43000F80181938F01EE15FF05B9F70E9432792B
:10F440000E9420798B818130D9F68C818A3AC1F66D
:10F4500064EC74E083E00E94D07804C00E942079BC
:10F460000E94637883E00E94E278882331F083E091
:10F470000E94E278882381F0C3CF40E050E0BA01D7
:10F4800089EA0E943F798111E9CFF1CF0E94327958
:10F490000E9463780E94207983E00E94E2788823AA
:10F4A00031F083E00E94E278882351F0A9CF40E058
:10F4B00050E0BA018AE30E943F798111E7CFF1CF92
:10F4C0008FEF0E9425798FEF0E9425798FEF0E94A0
:10F4D00025798FEF0E9425790E9432790E94207948
:10F4E00040E052E060E070E080E10E943F790E94DD
:10F4F00020790E94327936C00E9432790E942079A8
:10F5000040E050E0BA0189EA0E943F79823008F079
:10F5100077CF0E94207964EC74E083E00E94D07879
:10F5200004C00E9463780E94207983E00E94E27800
:10F53000882331F083E00E94E278811161CF09C015
:10F5400040E050E0BA0189EA0E943F798111E9CF99
:10F55000F1CF40E052E060E070E080E10E943F794E
:10F560000E94207981E08D830E9420798D810F9007
:10F570000F900F900F900F90DF91CF911F910F91EF
:10F58000FF90EF900895AB01BC0189E0440F551F37
:10F59000661F771F8A95D1F781E10E943F7991E03C
:10F5A000811190E0892F0895AB01BC0199E0440FCF
:10F5B000551F661F771F9A95D1F788E10E943F7902
:10F5C00091E0811190E0892F0895362F20E02827BF
:10F5D000392748E0C901880F991F37FF05C021E28C
:10F5E00030E12827392701C09C01415099F7C90112
:10F5F00008955F926F927F928F929F92AF92BF9287
:10F60000CF92DF92EF92FF920F931F93CF93DF93EE
:10F61000F8948FEE87B988E088B980E88AB91BB87A
:10F6200086E082B98EE381B9CFEFC4B980E00E9451
:10F630005D78809164008F7D8093640010926E00ED
:10F6400014BC16BCC5BB10921F0310921E0383E0AE
:10F6500085BD0E940979C5B914B84398000000001F
:10F66000000000000000000083B18095439A9FEFE6
:10F6700094B987FF46C180FF44C129C183E00E943D
:10F680005D7802C00E94637880911E0390911F03F1
:10F6900082369240B8F30E94BB79813009F0FAC0FB
:10F6A00087E00E945D7868E071E080E090E00E9471
:10F6B0007078813009F0EEC0E8E0F1E0A0E0B1E060
:10F6C00091918D919813E6C061E0E031F607C1F7A2
:10F6D00080911001C0901101D12CE12CF12C760108
:10F6E000DD24CC24F82A80911301C82A80911201CC
:10F6F000D82AC0920803D0920903E0920A03F0923C
:10F700000B039091140180E020911501822B9093BE
:10F710000D0380930C038FE00E945D786F2D772797
:10F720008827992780E090E00E94E57AA701662764
:10F730007727642F0E94E57A77276F2D5E2D4D2D58
:10F74000642F0E94E57A6C2D0E94E57A5C0101E04D
:10F7500010E0C0E0D2E0C12CD12C76011EC0C11552
:10F7600082E0D80761F468E071E0C8010E94707817
:10F77000882309F48FC00F5F1F4FC0E0D0E0FE0167
:10F78000E85FFE4F6081C5010E94E57A5C01219629
:10F79000AFEFCA1ADA0AEA0AFA0A809108039091CE
:10F7A0000903A0910A03B0910B03C816D906EA0613
:10F7B000FB06A8F2C0910C0360910D03C5010E94E5
:10F7C000E57A6C2F0E94E57A892B09F063C085C029
:10F7D000C115B2E0DB07B9F468E071E0C8010E942E
:10F7E0007078882381F00F5F1F4FB394E7E0EB152B
:10F7F00008F4B12CF0E2BF9EC00111248F610E9479
:10F800005D78C0E0D0E0F999FECFC601F601A09284
:10F810005700E89507B600FCFDCF20E030E0AE01D0
:10F82000485F5E4FDA01A20FB31F6C91F901E80F38
:10F83000F91F11969C90812CD401A62BBD010B01C0
:10F8400070925700E89511242E5F3F4F2115B1E0CB
:10F850003B0741F7D395FC0160925700E89507B646
:10F8600000FCFDCF50925700E895FFEFDF1AEF0A3A
:10F87000FF0A8091080390910903A0910A03B091B7
:10F880000B03C816D906EA06FB0608F4A1CF8FEFD2
:10F890000E945D780E946378C0901E03D0901F0381
:10F8A000E12CF12C24ECC20E24E0D21EE11CF11C50
:10F8B00002C00E94637880911E0390911F03A0E014
:10F8C000B0E08C159D05AE05BF0598F31AC081E028
:10F8D0000E945D783599DECFD1CE8FE10E945D78B0
:10F8E000B12C01E010E0C0E0D2E0C12CD12C7601B7
:10F8F00063E0A62E7724739475E0672EE1E15E2E17
:10F90000B8CF0E94FB7815BC809164008062809320
:10F9100064000C94000080E090E0DF91CF911F9193
:10F920000F91FF90EF90DF90CF90BF90AF909F909E
:0EF930008F907F906F905F900895F894FFCFB6
:08F93E0057545041424F4F5451
:040000030000F00009
:00000001FF
