:10F000000C943E780C945B780C945B780C945B7851
:10F010000C945B780C945B780C945B780C945B7824
:10F020000C945B780C945B780C945B780C945B7814
:10F030000C945B780C945B780C945B780C945B7804
:10F040000C945B780C945B780C945B780C945B78F4
:10F050000C945B780C945B780C945B780C945B78E4
:10F060000C945B780C945B780C945B780C945B78D4
:10F070000C945B780C945B780C945B7811241FBE25
:10F08000CFEFD0E1DEBFCDBF11E0A0E0B1E0EAE319
:10F09000FBEF02C005900D92A830B107D9F713E03D
:10F0A000A8E0B1E001C01D92A032B107E1F70E94D3
:10F0B000EE780C949B7D0C940078A89B0AC0A89ACB
:10F0C00080911E0390911F03019690931F038093DC
:10F0D0001E030895362F20E02827392740E061E2FB
:10F0E00070E1C901880F991F37FF04C09C012627D2
:10F0F000372701C09C014F5F483099F7C901089537
:10F10000AF92BF92CF92DF92EF92FF920F931F9335
:10F11000CF93DF936B01A0E0B0E0BC01CD010E9472
:10F12000627C813011F0DD2444C080911E039091F7
:10F130001F037C0100E010E08AE790E0A0E0B0E06F
:10F14000E80EF91E0A1F1B1F02C00E945D78809105
:10F150001E0390911F03A0E0B0E08E159F05A0074D
:10F16000B10728F48FEF0E94287B8E3F71F7A090A3
:10F170001E03B0901F03C0E0D0E08FEF0E94287BF9
:10F18000D6018D936D012196B2E0C030DB07A9F75F
:10F19000DD24C501A0E0B0E0E816F9060A071B0768
:10F1A00010F0DD24D3948FEF0E94287B8FEF0E9414
:10F1B000287B8091C80086FFFCCF0E94237B8FEFC5
:10F1C0000E94287B8D2DDF91CF911F910F91FF9091
:10F1D000EF90DF90CF90BF90AF9008954F925F92E5
:10F1E0006F927F928F929F92AF92BF92CF92DF9257
:10F1F000EF92FF920F931F93CF93DF93F8948FEECC
:10F2000087B988E088B980E88AB91BB886E082B9F6
:10F210008EE381B91FEF14B915B814B95F9A5F98DE
:10F22000809164008F7D8093640010926E0014BC06
:10F2300016BC15BB10921F0310921E0383E085BD00
:10F240000E940C7B15B914B8439800000000000020
:10F2500000000000000083B18095439A9FEF94B9AD
:10F2600087FF69C180FF67C181E085B994B95F9A62
:10F270005F98359941C183E085B994B95F9A5F98E9
:10F2800002C00E945D7880911E0390911F038256F8
:10F290009240B8F30E94867C813009F02DC187E04E
:10F2A00085B98FEF84B95F9A5F9880E090E06EE057
:10F2B00071E00E948078813009F01EC1E0E0F1E049
:10F2C000AEE0B1E09C918081981709F015C11196CC
:10F2D000319681E0A631B807A9F7FD0131969F016B
:10F2E0002F5F3F4F1196EC901197FF2400E010E044
:10F2F0008701FF24EE248C9190E0A0E0B0E0B82FCD
:10F30000AA2799278827E82AF92A0A2B1B2B81810B
:10F3100090E0A0E0B0E0BA2FA92F982F8827E82A24
:10F32000F92A0A2B1B2BF9013196D90111968C91E0
:10F3300090E0A0E0B0E0E82AF92A0A2B1B2BE0922B
:10F340000A01F0920B0100930C0110930D01318121
:10F3500020E0828190E0822B932B9093090180938F
:10F3600008018FE085B98FEF84B95F9A5F98212FEC
:10F3700033274427552780E090E0622F0E946A7867
:10F38000980144275527622F0E946A785527412FFC
:10F39000302F2F2D622F0E946A786E2D0E946A787E
:10F3A0005C01A1E0CA2ED12CC0E0D2E0EE24FF2403
:10F3B00087011FC0B2E0C030DB0769F4C6016EE010
:10F3C00071E00E948078882309F496C00894C11CDB
:10F3D000D11CC0E0D0E0FE01E25FFE4FC5016081BC
:10F3E0000E946A785C0121960894E11CF11C011DC1
:10F3F000111D80910A0190910B01A0910C01B09117
:10F400000D01E816F9060A071B07A0F21091080182
:10F4100060910901C5010E946A78612F0E946A7893
:10F42000892B09F4A5C068C0E2E0C030DE07D1F442
:10F43000C5016EE071E00E948078882399F0939472
:10F44000F7E0F91508F499240894A11CB11C892D42
:10F450008295880F807E8F6185B944B85F9A5F98E6
:10F46000C0E0D0E0F999FECF9701F7015092570024
:10F47000E89507B600FCFDCFDE01A25FBE4FF901A3
:10F48000A90140505F4F8C9190E01196DC9011974C
:10F49000CC248C299D290C0160925700E8951124F9
:10F4A00012963296E417F50771F7C050DF4FF90155
:10F4B00070925700E89507B600FCFDCF8092570088
:10F4C000E89580E091E0A0E0B0E0E80EF91E0A1FA8
:10F4D0001B1F80910A0190910B01A0910C01B0912A
:10F4E0000D01E816F9060A071B0708F49DCF8FEFF8
:10F4F00085B984B95F9A5F980E945D7880911E03F8
:10F5000090911F037C0100E010E084EC94E0A0E007
:10F51000B0E0E80EF91E0A1F1B1F02C00E945D78B2
:10F5200080911E0390911F03A0E0B0E08E159F050F
:10F53000A007B10798F30E94FE7A15BC8091640081
:10F540008062809364000C94000080E090E0DF9182
:10F55000CF911F910F91FF90EF90DF90CF90BF90D0
:10F56000AF909F908F907F906F905F904F90089595
:10F570008FE185B98FEF84B95F9A5F98EE24FF24FD
:10F580008701C0E0D2E0F1E0AF2EB12C99244424F1
:10F590004A94E3E05E2E6624639475E0772E61E181
:10F5A000862E97CFE82FF0E080911E0390911F03E5
:10F5B000EE0FFF1FDF01A25FBC4F8D939C93EA5EAD
:10F5C000FC4F71836083089520911E0330911F03C7
:10F5D000E82FF0E040E0EE0FFF1FDF01A25FBC4F1D
:10F5E0008D919C91281B390BEA5EFC4F80819181A3
:10F5F0002817390708F041E0842F08958AB18F7CDD
:10F600008AB98BB180638BB91092C900E4E6F0E04F
:10F610008081806180830895E4E6F0E080818F7EC0
:10F620008083ECECF0E011821082549A80EC80939D
:10F63000CA0088E18093C90081E090E091838083D3
:10F64000559A5D9A08955D9A08955D9A5D9808951A
:10F65000982F8091C80085FFFCCF9093CE008091B9
:10F66000C80087FFFCCF8091CE0008958091C8002C
:10F6700080648093C8008091C80085FFFCCF8FEF25
:10F680008093CE008091C80087FFFCCF8091CE0090
:10F690008091C80086FFFCCF08951F93282F5D9AA4
:10F6A0005D988091C80085FFFCCF8FEF8093CE00DE
:10F6B0008091C80087FFFCCF8091CE0027FF7AC0E1
:10F6C0008091C80085FFFCCF87E78093CE008091B2
:10F6D000C80087FFFCCF8091CE008091C80085FFD5
:10F6E000FCCF1092CE008091C80087FFFCCF8091A4
:10F6F000CE008091C80085FFFCCF1092CE00809193
:10F70000C80087FFFCCF8091CE008091C80085FFA4
:10F71000FCCF1092CE008091C80087FFFCCF809173
:10F72000CE008091C80085FFFCCF1092CE00809162
:10F73000C80087FFFCCF8091CE008091C80085FF74
:10F74000FCCF81E08093CE008091C80087FFFCCF82
:10F750008091CE009AE03FEF8091C80085FFFCCFFA
:10F760003093CE008091C80087FFFCCF1091CE006F
:10F770001F3F11F4915081F78091C80080648093FD
:10F78000C8008091C80085FFFCCF8FEF8093CE002A
:10F790008091C80087FFFCCF8091CE008091C80087
:10F7A00086FFFCCF123010F05D9A89C05D9A2F77EA
:10F7B0005D9A5D988091C80085FFFCCF822F8064A0
:10F7C0008093CE008091C80087FFFCCF8091CE004F
:10F7D0008091C80085FFFCCF872F9927AA27BB27D8
:10F7E0008093CE008091C80087FFFCCF8091CE002F
:10F7F0008091C80085FFFCCFCB01AA27BB2780934F
:10F80000CE008091C80087FFFCCF8091CE00809110
:10F81000C80085FFFCCFBB27A72F962F852F80938D
:10F82000CE008091C80087FFFCCF8091CE008091F0
:10F83000C80085FFFCCF4093CE008091C80087FFB1
:10F84000FCCF8091CE00222311F495E905C0283029
:10F8500011F497E801C091E08091C80085FFFCCFCA
:10F860009093CE008091C80087FFFCCF8091CE009E
:10F870002C3069F48091C80085FFFCCF8FEF809316
:10F88000CE008091C80087FFFCCF8091CE009AE027
:10F890003FEF8091C80085FFFCCF3093CE00809170
:10F8A000C80087FFFCCF1091CE001F3F11F491508C
:10F8B00081F7283021F02A3311F00E94367B812F06
:10F8C0001F910895AB01BC01E9E0440F551F661F6D
:10F8D000771FEA95D1F781E10E944D7B90E0882364
:10F8E00009F491E0892F0895AB01BC01F9E0440FC0
:10F8F000551F661F771FFA95D1F788E10E944D7B4F
:10F9000090E0882309F491E0892F0895DF93CF9345
:10F9100000D000D0CDB7DEB75D9A90E02FEF809198
:10F92000C80080648093C8008091C80085FFFCCF28
:10F930002093CE008091C80087FFFCCF8091CE003D
:10F940009F5F943161F78091C80086FFFCCF5D9A7C
:10F950005D9820E030E09FEF8091C8008064809344
:10F96000C8008091C80085FFFCCF9093CE008091A5
:10F97000C80087FFFCCF8091CE002F5F3F4F82E011
:10F980002030380749F78091C80086FFFCCF5D9A88
:10F9900080E040E050E060E070E00E944D7B8091AC
:10F9A000C80086FFFCCF5D9A80E040E050E060E058
:10F9B00070E00E944D7B813009F0B4C05D9A88E010
:10F9C0004AEA51E060E070E00E944D7B813009F02E
:10F9D00076C0FE0131969FEF9E012B5F3F4F8091D5
:10F9E000C80085FFFCCF9093CE008091C80087FFB0
:10F9F000FCCF8091CE008193E217F30781F70E943C
:10FA0000367B5D9A8B81813009F08CC08C818A3A7B
:10FA100009F088C083E064EC74E00E94D27A03C0ED
:10FA20005D9A0E945D7883E00E94E47A882349F41D
:10FA300089EA40E050E060E070E00E944D7B88235E
:10FA400079F783E00E94E47A882331F06BC00E944A
:10FA5000367B0E945D785D9A83E00E94E47A882379
:10FA600049F48AE340E050E060E070E00E944D7BA2
:10FA7000882369F783E00E94E47A882309F052C062
:10FA800090E02FEF8091C80085FFFCCF2093CE003F
:10FA90008091C80087FFFCCF8091CE009F5F94309B
:10FAA00089F70E94367B5D9A80E140E052E060E099
:10FAB00070E00E944D7B5D9A0E94367B31C00E94AF
:10FAC000367B5D9A89EA40E050E060E070E00E9499
:10FAD0004D7B823038F55D9A83E064EC74E00E94DF
:10FAE000D27A03C00E945D785D9A83E00E94E47A36
:10FAF000882349F489EA40E050E060E070E00E9429
:10FB00004D7B882379F783E00E94E47A882351F4BF
:10FB100080E140E052E060E070E00E944D7B5D9A41
:10FB200081E001C080E05D9A0F900F900F900F90E0
:0AFB3000CF91DF910895F894FFCF04
:08FB3A0057545041424F4F5453
:040000030000F00009
:00000001FF
