:100000000C945A000C9477000C9477000C947700B1
:100010000C9477000C9477000C944F090C947700A3
:100020000C9477000C94C90A0C9477000C94770018
:100030000C9408090C9497090C94300A0C947700DE
:100040000C9477000C9477000C9477000C94770054
:100050000C9477000C9477000C9477000C94770044
:100060000C9477000C9477000C9477000C94770034
:100070000C9477000C9477000C9477000A1D9A205A
:100080009A209A209A209A204F1D9A209A209A20EE
:100090009A20A31DEE1D151E3C1E651EE41EFA1EB1
:1000A000011F141F301F571F6B1F7F1F931F0E2030
:1000B00025203C2011241FBECFEFD0E1DEBFCDBFF5
:1000C00011E0A0E0B1E0E4EFFEE402C005900D9283
:1000D000AE31B107D9F713E0AEE1B1E001C01D9236
:1000E000A334B107E1F70E9470140C9478270C94A4
:1000F000E40A8091C9028330C9F0843030F4813041
:1001000059F0823009F08EC00EC0843009F48CC0E2
:10011000853009F087C00DC2409138014F5F409390
:1001200038014150A3C340915802F1C18FEF84B907
:100130008091E7029091E802A091E902B091EA0271
:1001400085B9139A13988091E7029091E802A091E3
:10015000E902B091EA02892F9A2FAB2FBB2785B90C
:10016000149A14988091E7029091E802A091E90214
:10017000B091EA02CD01AA27BB278770886888B9A9
:100180008091580285B98091E7029091E802A09190
:10019000E902B091EA020196A11DB11D8093E70228
:1001A0009093E802A093E902B093EA028091E702FB
:1001B0009091E802A091E902B091EA028093D40202
:1001C0009093D502A093D602B093D7028091E70214
:1001D0009091E802A091E902B091EA028093DC02DA
:1001E0009093DD02A093DE02B093DF022091D4024F
:1001F0003091D5024091D6025091D7028091F602FB
:100200009091F702A091F802B091F90228173907EE
:100210004A075B0728F01092C90281E080934201EF
:100220001198119A40E022C38091E7029091E80270
:10023000A091E902B091EA0285B9139A13988091CE
:10024000E7029091E802A091E902B091EA02892FB9
:100250009A2FAB2FBB2785B9149A14988091E70287
:100260009091E802A091E902B091EA02CD01AA279B
:10027000BB278770886888B914B812988091CE021D
:10028000882309F46CC08091500190915101A09194
:100290005201B09153010097A105B10539F1809148
:1002A000E7029091E802A091E902B091EA0201967A
:1002B000A11DB11D8093E7029093E802A093E9028B
:1002C000B093EA028091500190915101A0915201A6
:1002D000B09153010197A109B10980935001909306
:1002E0005101A0935201B09353010DC18091480177
:1002F00090914901A0914A01B0914B018093500126
:1003000090935101A0935201B09353018091460103
:100310008F5F80934601909146018091CE0298179D
:1003200011F410924601E09146012091480130916C
:10033000490140914A0150914B01F0E0E85AFE4FCB
:10034000608170E080E090E00E9404276093E70203
:100350007093E8028093E9029093EA02D4C08091FE
:10036000CD02882309F062C02091E7023091E802B3
:100370004091E9025091EA028091E0029091E102FD
:10038000A091E202B091E302281739074A075B0700
:1003900029F48091CA02813009F461C02091E702FA
:1003A0003091E8024091E9025091EA028091E00226
:1003B0009091E102A091E202B091E302281739077F
:1003C0004A075B0749F48091DC029091DD02A0911D
:1003D000DE02B091DF028FC02091E7023091E80287
:1003E0004091E9025091EA028091D8029091D9029D
:1003F000A091DA02B091DB02281739074A075B07A0
:1004000049F48091D4029091D502A091D602B09186
:10041000D70271C08091E7029091E802A091E902B1
:10042000B091EA020197A109B10965C02091E702E4
:100430003091E8024091E9025091EA028091DC0299
:100440009091DD02A091DE02B091DF0228173907FA
:100450004A075B0749F48091CA02813029F410925F
:10046000C9021092D1024FC02091E7023091E802F8
:100470004091E9025091EA028091DC029091DD0204
:10048000A091DE02B091DF02281739074A075B0707
:1004900049F48091E0029091E102A091E202B091D2
:1004A000E30229C02091E7023091E8024091E9027D
:1004B0005091EA028091D4029091D502A091D60287
:1004C000B091D702281739074A075B0749F4809192
:1004D000D8029091D902A091DA02B091DB020BC050
:1004E0008091E7029091E802A091E902B091EA02BE
:1004F0000196A11DB11D8093E7029093E802A0939D
:10050000E902B093EA0243B1129A8FEF84B9809165
:10051000D002882309F4AAC140582091D0028FEF5D
:1005200090E002C0880F991F2A95E2F748234058AF
:100530009DC18091E7029091E802A091E902B091FB
:10054000EA0285B9139A13988091E7029091E80224
:10055000A091E902B091EA02892F9A2FAB2FBB2715
:1005600085B9149A14988091E7029091E802A091BD
:10057000E902B091EA02CD01AA27BB2787708868FB
:1005800088B914B812988091CE02882309F46CC0FF
:100590008091500190915101A0915201B09153016D
:1005A0000097A105B10539F18091E7029091E80229
:1005B000A091E902B091EA020196A11DB11D8093BC
:1005C000E7029093E802A093E902B093EA028091D7
:1005D000500190915101A0915201B09153010197A6
:1005E000A109B1098093500190935101A093520148
:1005F000B09353010DC18091480190914901A091A0
:100600004A01B0914B018093500190935101A09306
:100610005201B0935301809146018F5F8093460150
:10062000909146018091CE02981711F410924601E4
:10063000E0914601209148013091490140914A01E1
:1006400050914B01F0E0E85AFE4F608170E080E08D
:1006500090E00E9404276093E7027093E802809381
:10066000E9029093EA02D4C08091CD02882309F078
:1006700062C02091E7023091E8024091E902509176
:10068000EA028091E0029091E102A091E202B09131
:10069000E302281739074A075B0729F48091CA0249
:1006A000813009F461C02091E7023091E802409165
:1006B000E9025091EA028091E0029091E102A0915A
:1006C000E202B091E302281739074A075B0749F4B1
:1006D0008091DC029091DD02A091DE02B091DF02F8
:1006E0008FC02091E7023091E8024091E9025091D9
:1006F000EA028091D8029091D902A091DA02B091D9
:10070000DB02281739074A075B0749F48091D402B6
:100710009091D502A091D602B091D70271C080917C
:10072000E7029091E802A091E902B091EA020197F4
:10073000A109B10965C02091E7023091E80240911A
:10074000E9025091EA028091DC029091DD02A091D1
:10075000DE02B091DF02281739074A075B0749F428
:100760008091CA02813029F41092C9021092D102FC
:100770004FC02091E7023091E8024091E902509188
:10078000EA028091DC029091DD02A091DE02B0913C
:10079000DF02281739074A075B0749F48091E00216
:1007A0009091E102A091E202B091E30229C0209170
:1007B000E7023091E8024091E9025091EA0280910B
:1007C000D4029091D502A091D602B091D7022817F9
:1007D00039074A075B0749F48091D8029091D90202
:1007E000A091DA02B091DB020BC08091E7029091F8
:1007F000E802A091E902B091EA020196A11DB11DA3
:100800008093E7029093E802A093E902B093EA0292
:1008100043B1129A8FEF84B98091D002882361F09E
:1008200040582091D0028FEF90E002C0880F991FAE
:100830002A95E2F748234058242F332727FD309587
:1008400080915802992787FD9095280F391F8FEFC7
:100850002038380714F420E83FEFC901203831056B
:1008600014F08FE790E085B91198119A842F0895BC
:100870008091EB028330C9F0843030F4813059F03C
:10088000823009F08EC00EC0843009F48CC08530EF
:1008900009F087C015C2409134014F5F4093340185
:1008A0004150B3C340915802F9C18FEF84B9809190
:1008B000090390910A03A0910B03B0910C0385B931
:1008C000139A13988091090390910A03A0910B0346
:1008D000B0910C03892F9A2FAB2FBB2785B9149A9F
:1008E00014988091090390910A03A0910B03B09191
:1008F0000C03CD01AA27BB278770886888B980912F
:10090000580285B98091090390910A03A0910B03C5
:10091000B0910C030197A109B10980930903909349
:100920000A03A0930B03B0930C03809109039091E9
:100930000A03A0910B03B0910C038093F6029093ED
:10094000F702A093F802B093F90280910903909105
:100950000A03A0910B03B0910C038093FE029093C5
:10096000FF02A0930003B09301032091D4023091C1
:10097000D5024091D6025091D7028091F602909113
:10098000F702A091F802B091F902281739074A0737
:100990005B0728F01092EB0281E0809342011198EE
:1009A000119A40E032C38091090390910A03A0910B
:1009B0000B03B0910C0385B9139A13988091090326
:1009C00090910A03A0910B03B0910C03892F9A2FE9
:1009D000AB2FBB2785B9149A149880910903909185
:1009E0000A03A0910B03B0910C03CD01AA27BB27EA
:1009F0008770886888B914B812988091F0028823AB
:100A000009F474C08091540190915501A091560150
:100A1000B09157010097A105B10539F18091090303
:100A200090910A03A0910B03B0910C030197A109C7
:100A3000B1098093090390930A03A0930B03B09329
:100A40000C038091540190915501A0915601B091F1
:100A500057010197A109B109809354019093550161
:100A6000A0935601B093570115C180914C0190910C
:100A70004D01A0914E01B0914F018093540190938C
:100A80005501A0935601B0935701809147018F5FA4
:100A900080934701909147018091F002981711F4DB
:100AA00010924701E091470120914C0130914D0196
:100AB00040914E0150914F01F0E0E852FE4F6081AD
:100AC00070E080E090E00E9404272FEF3FEF47E0C6
:100AD00050E0261B370B480B590B2093090330932A
:100AE0000A0340930B0350930C03D4C08091EF0290
:100AF000882309F062C02091090330910A034091D4
:100B00000B0350910C038091020390910303A09179
:100B10000403B0910503281739074A075B0729F436
:100B20008091EC02813009F461C020910903309179
:100B30000A0340910B0350910C03809102039091A2
:100B40000303A0910403B0910503281739074A074E
:100B50005B0749F48091FE029091FF02A09100038F
:100B6000B09101038FC02091090330910A03409195
:100B70000B0350910C038091FA029091FB02A0911B
:100B8000FC02B091FD02281739074A075B0749F4B8
:100B90008091F6029091F702A091F802B091F902CB
:100BA00071C08091090390910A03A0910B03B09149
:100BB0000C030196A11DB11D65C020910903309160
:100BC0000A0340910B0350910C038091FE02909117
:100BD000FF02A0910003B0910103281739074A07CB
:100BE0005B0749F48091EC02813029F41092EB020A
:100BF0001092F3024FC02091090330910A034091F3
:100C00000B0350910C038091FE029091FF02A09182
:100C10000003B0910103281739074A075B0749F41D
:100C20008091020390910303A0910403B091050306
:100C300029C02091090330910A0340910B03509180
:100C40000C038091F6029091F702A091F802B09106
:100C5000F902281739074A075B0749F48091FA021D
:100C60009091FB02A091FC02B091FD020BC080911B
:100C7000090390910A03A0910B03B0910C03019713
:100C8000A109B1098093090390930A03A0930B0370
:100C9000B0930C0343B1129A8FEF84B98091F202A2
:100CA000882309F4B2C140582091F2028FEF90E0FE
:100CB00002C0880F991F2A95E2F748234058A5C122
:100CC0008091090390910A03A0910B03B0910C034A
:100CD00085B9139A13988091090390910A03A09102
:100CE0000B03B0910C03892F9A2FAB2FBB2785B92B
:100CF000149A14988091090390910A03A0910B0310
:100D0000B0910C03CD01AA27BB278770886888B9EA
:100D100014B812988091F002882309F474C080916D
:100D2000540190915501A0915601B091570100973F
:100D3000A105B10539F18091090390910A03A091B1
:100D40000B03B0910C030197A109B109809309032A
:100D500090930A03A0930B03B0930C03809154016A
:100D600090915501A0915601B09157010197A109A9
:100D7000B1098093540190935501A0935601B0930B
:100D8000570115C180914C0190914D01A0914E01E8
:100D9000B0914F018093540190935501A093560157
:100DA000B0935701809147018F5F809347019091E5
:100DB00047018091F002981711F410924701E091D9
:100DC000470120914C0130914D0140914E015091CD
:100DD0004F01F0E0E852FE4F608170E080E090E06B
:100DE0000E9404272FEF3FEF47E050E0261B370B10
:100DF000480B590B2093090330930A0340930B03CC
:100E000050930C03D4C08091EF02882309F062C094
:100E10002091090330910A0340910B0350910C0378
:100E20008091020390910303A0910403B091050304
:100E3000281739074A075B0729F48091EC028130B3
:100E400009F461C02091090330910A0340910B031A
:100E500050910C038091020390910303A09104032D
:100E6000B0910503281739074A075B0749F48091B9
:100E7000FE029091FF02A0910003B09101038FC088
:100E80002091090330910A0340910B0350910C0308
:100E90008091FA029091FB02A091FC02B091FD02B8
:100EA000281739074A075B0749F48091F6029091A9
:100EB000F702A091F802B091F90271C08091090384
:100EC00090910A03A0910B03B0910C030196A11D10
:100ED000B11D65C02091090330910A0340910B03B5
:100EE00050910C038091FE029091FF02A0910003AB
:100EF000B0910103281739074A075B0749F480912D
:100F0000EC02813029F41092EB021092F3024FC0F0
:100F10002091090330910A0340910B0350910C0377
:100F20008091FE029091FF02A0910003B091010315
:100F3000281739074A075B0749F48091020390910B
:100F40000303A0910403B091050329C02091090374
:100F500030910A0340910B0350910C038091F602EB
:100F60009091F702A091F802B091F9022817390781
:100F70004A075B0749F48091FA029091FB02A09125
:100F8000FC02B091FD020BC08091090390910A030D
:100F9000A0910B03B0910C030197A109B1098093B3
:100FA000090390930A03A0930B03B0930C0343B17E
:100FB000129A8FEF84B98091F202882361F0405831
:100FC0002091F2028FEF90E002C0880F991F2A95BE
:100FD000E2F748234058242F332727FD309580918E
:100FE0005802992787FD9095280F391F8FEF2038D9
:100FF000380714F420E83FEFC9012038310514F018
:101000008FE790E085B91198119A842F0895809107
:10101000A102682F772767FD709580919F0299271D
:1010200087FD9095680F791F8FEF6038780714F46B
:1010300060E87FEF8091A202282F332727FD3095AB
:101040008091A002992787FD9095280F391F8FEF77
:101050002138380714F421E83FEFA9012038310581
:1010600014F04FE750E09B016038710514F02FE752
:1010700030E0429FC001439F900D529F900D11247C
:1010800060E470E00E942F2760588091A3026817E7
:1010900029F08FEF84B965B9159A15986093A3026A
:1010A00008958091A002282F332727FD3095809145
:1010B0009F02992787FD9095280F391F8091A102E3
:1010C000992787FD9095280F391F8091A2029927B3
:1010D00087FD9095280F391F8FEF2038380714F4BB
:1010E00020E83FEFC9012038310514F08FE790E088
:1010F000982F90588091A302981729F08FEF84B908
:1011000095B9159A15989093A30208958091A1021C
:10111000482F552747FD509580919F02992787FDBD
:101120009095480F591F8FEF4038580714F440E846
:101130005FEF8091A202282F332727FD3095809101
:10114000A002992787FD9095280F391F8FEF20382F
:10115000380714F420E83FEF2038310514F02FE76A
:1011600030E0CA014038510514F08FE790E0922F2B
:1011700098278091A302981729F08FEF84B995B929
:10118000159A15989093A30208958091A102482F73
:10119000552747FD509580919F02992787FD90958F
:1011A000480F591F8FEF4038580714F440E85FEF9D
:1011B0008091A202282F332727FD30958091A0022D
:1011C000992787FD9095280F391F8FEF2038380712
:1011D00014F420E83FEFC9012038310514F08FE7FF
:1011E00090E0282F2058CA014038510514F08FE7AD
:1011F00090E0982F905892238091A302981729F09D
:101200008FEF84B995B9159A15989093A302089514
:101210001F920F920FB60F9211242F933F934F936B
:101220005F936F937F938F939F93AF93BF93EF934E
:10123000FF938091CB02882341F08091CB028823D9
:1012400041F080913A01882321F00E947900809337
:101250009F0210923A01E091C502F091C6020995F1
:1012600080917A0086FD0AC0809179008058809331
:10127000580280917A00806480937A00FF91EF9108
:10128000BF91AF919F918F917F916F915F914F919E
:101290003F912F910F900FBE0F901F9018951F92A6
:1012A0000F920FB60F9211242F933F934F935F939A
:1012B0006F937F938F939F93AF93BF93EF93FF931E
:1012C0008091ED02882341F08091ED02882341F066
:1012D00080913901882321F00E9438048093A00274
:1012E00010923901E091C502F091C60209958091F2
:1012F0007A0086FD0AC08091790080588093580258
:1013000080917A00806480937A00DA9AFF91EF915D
:10131000BF91AF919F918F917F916F915F914F910D
:101320003F912F910F900FBE0F901F9018951F9215
:101330000F920FB60F921124EF92FF920F931F930B
:101340002F933F934F935F936F937F938F939F93CD
:10135000AF93BF93EF93FF938091CB02882341F02B
:101360008091CB02882341F080913501882321F0C0
:101370000E9479008093A1028091CF028823C1F15D
:101380002091CF026091D2027091D30280E090E070
:1013900030E040E050E00E9404272FE730E040E0DA
:1013A00050E00E944227E0908800F0908900009170
:1013B000D2021091D30260910001709101018091DD
:1013C0000201909103010E9442270E0D1F1D2091E2
:1013D000360130913701020F131F061B170B1093B4
:1013E00089000093880070933701609336010EC026
:1013F00020918800309189008091D2029091D3028F
:10140000820F931F9093890080938800109235017A
:10141000E091C502F091C602099580917A0086FD9F
:101420000AC08091790080588093580280917A0098
:10143000806480937A00FF91EF91BF91AF919F916B
:101440008F917F916F915F914F913F912F911F915C
:101450000F91FF90EF900F900FBE0F901F90189577
:101460001F920F920FB60F921124EF92FF920F93DB
:101470001F932F933F934F935F936F937F938F931C
:101480009F93AF93BF93EF93FF938091ED028823D7
:1014900041F08091ED02882341F080913101882351
:1014A00021F00E9438048093A2028091F1028823E7
:1014B000C1F12091F1026091F4027091F50280E097
:1014C00090E030E040E050E00E9404272FE730E059
:1014D00040E050E00E944227E0908A00F0908B00AC
:1014E0000091F4021091F5026091000170910101E8
:1014F00080910201909103010E9442270E0D1F1D51
:101500002091320130913301020F131F061B170B7C
:1015100010938B0000938A00709333016093320123
:101520000EC020918A0030918B008091F40290913E
:10153000F502820F931F90938B0080938A00109284
:101540003101E091C502F091C602099580917A00BF
:1015500086FD0AC08091790080588093580280915E
:101560007A00806480937A00FF91EF91BF91AF91F0
:101570009F918F917F916F915F914F913F912F91AB
:101580001F910F91FF90EF900F900FBE0F901F9043
:1015900018951F920F920FB60F9211248F939F935D
:1015A00080913D0190913001981718F48FEF85B923
:1015B00001C015B89F5F909330019F918F910F905C
:1015C0000FBE0F901F9018951F920F920FB60F929B
:1015D00011240F900FBE0F901F901895A89B0AC062
:1015E000A89A80910D0390910E03019690930E039B
:1015F00080930D030895282F90E0FC01B5E0EE0FD5
:10160000FF1FBA95E1F7880F991FE80FF91FE753FD
:10161000FD4F60876230A9F5822F90E0FC0175E0F4
:10162000EE0FFF1F7A95E1F7880F991FE80FF91F5A
:10163000E753FD4F52874187222379F4809184003C
:1016400090918500840F951F909389008093880066
:10165000B19A80916F0082600EC080918400909159
:101660008500840F951F90938B0080938A00B29A17
:1016700080916F00846080936F0081E0809381008F
:1016800008956130A9F4222361F48091810080647F
:1016900080938100B59A80916F00806280936F0083
:1016A0000895DA9A84E08093680080E180936D0069
:1016B0000895DF92EF92FF920F931F93DFB6F89495
:1016C000282F30E0F90105E0EE0FFF1F0A95E1F742
:1016D000220F331FE20FF31FE753FD4F93E0908378
:1016E000282F30E0F901B5E0EE0FFF1FBA95E1F7C2
:1016F000220F331FE20FF31FE753FD4FE784F088FB
:1017000001891289282F30E0F90175E0EE0FFF1FE3
:101710007A95E1F7220F331FE20FF31FE753FD4FD6
:10172000E68EF78E00A311A3282F30E0F901B5E073
:10173000EE0FFF1FBA95E1F7220F331FE20FF31FE1
:10174000E753FD4FE784F08801891289282F30E0A4
:10175000F90175E0EE0FFF1F7A95E1F7220F331FB5
:10176000E20FF31FE753FD4FE386F48605871687E4
:10177000282F30E0F901B5E0EE0FFF1FBA95E1F731
:10178000220F331FE20FF31FE753FD4FE784F0886A
:1017900001891289282F30E0F90175E0EE0FFF1F53
:1017A0007A95E1F7220F331FE20FF31FE753FD4F46
:1017B000E78AF08E018F128F282F30E0F901B5E013
:1017C000EE0FFF1FBA95E1F7220F331FE20FF31F51
:1017D000E753FD4FE784F08801891289282F30E014
:1017E000F90175E0EE0FFF1F7A95E1F7220F331F25
:1017F000E20FF31FE753FD4FE38AF48A058B168B44
:10180000282F30E0F90105E0EE0FFF1F0A95E1F700
:10181000220F331FE20FF31FE753FD4F158E109277
:1018200042010E94FB0ADFBE80917A0086FD0AC059
:101830008091790080588093580280917A0080646A
:1018400080937A001F910F91FF90EF90DF900895A1
:101850001F93782FDA011FB7F89490E0FC0135E070
:10186000EE0FFF1F3A95E1F7880F991FE80FF91F58
:10187000E753FD4F84E0808380913B018068809333
:101880003B01872F90E0FC0155E0EE0FFF1F5A95BA
:10189000E1F7880F991FE80FF91FE753FD4F838188
:1018A0008823A9F1872F90E0FC0135E0EE0FFF1FA0
:1018B0003A95E1F7880F991FE80FF91FE753FD4F9D
:1018C0002389348945895689872F90E0FC016894E3
:1018D00014F8EE0FFF1F1694E1F7880F991FE80F19
:1018E000F91FE753FD4F268F378F40A351A3872F52
:1018F00090E0FC0155E0EE0FFF1F5A95E1F7880FCD
:10190000991FE80FF91FE753FD4F148235C0872F49
:1019100090E0FC0135E0EE0FFF1F3A95E1F7880FEC
:10192000991FE80FF91FE753FD4F2789308D418D2F
:10193000528D872F90E0FC01689414F8EE0FFF1F82
:101940001694E1F7880F991FE80FF91FE753FD4F31
:10195000268F378F40A351A3872F90E0FC0135E0FD
:10196000EE0FFF1F3A95E1F7880F991FE80FF91F57
:10197000E753FD4F81E08483872FAD010E94FB0A6E
:101980001FBF1F9108951F931FB7F894282F30E0B1
:10199000F901A5E0EE0FFF1FAA95E1F7220F331F13
:1019A000E20FF31FE753FD4F95E090830E94FB0A7F
:1019B0001FBF80917A0086FD0AC08091790080580F
:1019C0008093580280917A00806480937A001F91FE
:1019D00008951F931FB7F894282F30E0F90195E080
:1019E000EE0FFF1F9A95E1F7220F331FE20FF31F4F
:1019F000E753FD4F92E090830E94FB0A1FBF809146
:101A00007A0086FD0AC08091790080588093580240
:101A100080917A00806480937A001F910895282F26
:101A20006CE00E942327E92FF0E0EE0FFF1FEA5F32
:101A3000FE4F822F0E9423272081318102C03695DC
:101A400027958A95E2F7C90108952F923F924F9208
:101A50005F926F927F928F929F92AF92BF92CF923E
:101A6000DF92EF92FF920F931F93DF93CF9300D0FB
:101A70000F92CDB7DEB7282E623008F4F4C08FB7CE
:101A80008983F894662E90E8961710F420E8622E69
:101A9000822C9924D401B695BA2FAA27B795A79579
:101AA000A85ABE4FBB83AA83FD0180E081938F5F5C
:101AB0008615E0F3E0900001F09001010091020131
:101AC000109103017724A62CBB24CC24DD2424010F
:101AD0005694542C442457944794EA81FB813080D7
:101AE000EE0CFF1C001F111F17FF08C085EB95E9C6
:101AF000AAEAB0E2E826F9260A271B27C801B7019F
:101B0000A60195010E944227F201E60FF11DE85A55
:101B1000FE4F8081AA81BB818D93BB83AA833082D3
:101B200073947614D0F2E0920001F09201010093D8
:101B30000201109303012220B9F46091D402709144
:101B4000D5028091D6029091D702A60195010E94FC
:101B50004227C901DA018093480190934901A0937B
:101B60004A01B0934B011EC02091F6023091F7025A
:101B70004091F8025091F9026FEF7FEF87E090E01B
:101B8000621B730B840B950BA60195010E944227E3
:101B9000C901DA0180934C0190934D01A0934E014D
:101BA000B0934F01F401EE0FFF1FC40175E0880FE1
:101BB000991F7A95E1F7E80FF91FE753FD4F65820A
:101BC000F401EA5BFE4F1082F401EE0FFF1FEE0FEF
:101BD000FF1FDF01A85BBE4F8D919D910D90BC91C1
:101BE000A02DE05BFE4F80839183A283B3832220EC
:101BF000C1F4209148013091490140914A0150912E
:101C00004B016091580170E080E090E00E94042751
:101C10006093E7027093E8028093E9029093EA02EE
:101C20001FC020914C0130914D0140914E015091C7
:101C30004F016091D80170E080E090E00E9404279D
:101C40002FEF3FEF47E050E0261B370B480B590BB7
:101C50002093090330930A0340930B0350930C0322
:101C6000B981BFBF0EC090E0FC0155E0EE0FFF1F31
:101C70005A95E1F7880F991FE80FF91FE753FD4FB9
:101C800015820F900F900F90CF91DF911F910F91C0
:101C9000FF90EF90DF90CF90BF90AF909F908F908C
:101CA0007F906F905F904F903F902F9008952F926C
:101CB0003F924F925F926F927F928F929F92AF92DC
:101CC000BF92CF92DF92EF92FF920F931F93DF9319
:101CD000CF930F92CDB7DEB79FB79983F89488233F
:101CE00009F0F4C1A090D402B090D502C090D60201
:101CF000D090D70203E0AA0CBB1CCC1CDD1C0A95BB
:101D0000D1F7AB2CBC2CCD2CDD246091E4022091CA
:101D1000E60270E0620F711D80E090E0A60195017F
:101D20000E940427B3E09695879577956795BA95B5
:101D3000D1F76093E0027093E1028093E202909306
:101D4000E3022090D4023090D5024090D602509009
:101D5000D7026090E5022091E60230E040E050E0DA
:101D6000C601B5010E9404277B018C01A3E01695F2
:101D70000795F794E794AA95D1F7E20CF31C041D9C
:101D8000151D772488249924C601B501A401930167
:101D90000E940427F3E09695879577956795FA95C5
:101DA000D1F7E61AF70A080B190BE092DC02F09261
:101DB000DD020093DE021093DF022091E0023091F9
:101DC000E1024091E2025091E3028091DC029091A5
:101DD000DD02A091DE02B091DF0282179307A40713
:101DE000B50750F58091CC02813019F48093CD0273
:101DF00002C01092CD022091E0023091E1024091A8
:101E0000E2025091E3028091DC029091DD02A09108
:101E1000DE02B091DF028093E0029093E102A09392
:101E2000E202B093E3022093DC023093DD024093A0
:101E3000DE025093DF020AC08091CC02813019F497
:101E40001092CD0203C081E08093CD022091E00288
:101E50003091E1024091E2025091E3028091D4027C
:101E60009091D502A091D602B091D7028217930724
:101E7000A407B507E0F48091E0029091E102A091FF
:101E8000E202B091E3022091D4023091D502409158
:101E9000D6025091D702821B930BA40BB50B8093F3
:101EA000E0029093E102A093E202B093E30220915A
:101EB000DC023091DD024091DE025091DF02809120
:101EC000D4029091D502A091D602B091D702821788
:101ED0009307A407B50708F044C08091DC029091F5
:101EE000DD02A091DE02B091DF022091D402309198
:101EF000D5024091D6025091D702821B930BA40BBE
:101F0000B50B8093DC029093DD02A093DE02B093C8
:101F1000DF022091DC023091DD024091DE0250911F
:101F2000DF028091E0029091E102A091E202B09183
:101F3000E302281739074A075B0799F48091DC020E
:101F40009091DD02A091DE02B091DF020197A1091C
:101F5000B1098093DC029093DD02A093DE02B0937E
:101F6000DF022091E0023091E1024091E2025091C3
:101F7000E3028091DC029091DD02A091DE02B0913B
:101F8000DF0282179307A407B50708F05AC0209113
:101F9000E7023091E8024091E9025091EA02809113
:101FA000E0029091E102A091E202B091E3022817D1
:101FB00039074A075B0708F094C22091E702309185
:101FC000E8024091E9025091EA028091DC0290918E
:101FD000DD02A091DE02B091DF0282179307A40711
:101FE000B50708F07EC22091E0023091E1024091F5
:101FF000E2025091E302A090E702B090E802C090A4
:10200000E902D090EA028091E7029091E802A09163
:10201000E902B091EA02E090DC02F090DD0200916A
:10202000DE021091DF022A193B094C095D098E1965
:102030009F09A00BB10B281739074A075B07A8F1C6
:1020400015C02091E7023091E8024091E9025091D9
:10205000EA028091E0029091E102A091E202B09147
:10206000E302281739074A075B0748F48091E0022A
:102070009091E102A091E202B091E3021EC0209192
:10208000E7023091E8024091E9025091EA02809122
:10209000DC029091DD02A091DE02B091DF02821796
:1020A0009307A407B50708F01CC28091DC02909149
:1020B000DD02A091DE02B091DF028093E7029093EF
:1020C000E802A093E902B093EA020BC28091F60203
:1020D0009091F702A091F802B091F902EFEFEE2E85
:1020E000EFEFFE2EE7E00E2F112D57016801A81A21
:1020F000B90ACA0ADB0A73E0AA0CBB1CCC1CDD1CA3
:102100007A95D1F7AB2CBC2CCD2CDD246091060345
:102110002091080370E0620F711D80E090E0A6013D
:1021200095010E94042753E09695879577956795CA
:102130005A95D1F7E61AF70A080B190BE092020339
:10214000F092030300930403109305032090F6021A
:102150003090F7024090F8025090F9022091070366
:102160006090080330E040E050E0C601B5010E94F5
:1021700004277B018C0143E016950795F794E794BB
:102180004A95D1F7E20CF31C041D151D7724882411
:102190009924C601B501A40193010E94042733E0EC
:1021A00096958795779567953A95D1F7E61AF70A48
:1021B000080B190BE092FE02F092FF02009300035D
:1021C0001093010320910203309103034091040313
:1021D000509105038091FE029091FF02A0910003AF
:1021E000B0910103281739074A075B0750F5809122
:1021F000EE02813019F48093EF0202C01092EF02D8
:102200002091020330910303409104035091050390
:102210008091FE029091FF02A0910003B091010312
:102220008093020390930303A0930403B0930503E8
:102230002093FE023093FF0240930003509301036A
:102240000AC08091EE02813019F41092EF0203C0AF
:1022500081E08093EF0220910203309103034091CB
:102260000403509105038091F6029091F702A0912A
:10227000F802B091F902281739074A075B0700F501
:102280008091020390910303A0910403B091050390
:102290002091F6023091F7024091F8025091F90234
:1022A00081509040A84FBF4F821B930BA40BB50BDE
:1022B0008093020390930303A0930403B093050358
:1022C0002091FE023091FF024091000350910103E2
:1022D0008091F6029091F702A091F802B091F90274
:1022E000281739074A075B0708F048C08091FE02AB
:1022F0009091FF02A0910003B09101032091F6029A
:102300003091F7024091F8025091F90281509040CB
:10231000A84FBF4F821B930BA40BB50B8093FE02FB
:102320009093FF02A0930003B09301032091FE025B
:102330003091FF024091000350910103809102030C
:1023400090910303A0910403B09105032817390766
:102350004A075B0799F48091FE029091FF02A091D9
:102360000003B09101030196A11DB11D8093FE02EF
:102370009093FF02A0930003B09301032091020306
:102380003091030340910403509105038091FE02B4
:102390009091FF02A0910003B09101032817390723
:1023A0004A075B0708F05AC02091090330910A03DD
:1023B00040910B0350910C03809102039091030311
:1023C000A0910403B091050382179307A407B507F2
:1023D00008F087C02091090330910A0340910B0354
:1023E00050910C038091FE029091FF02A091000396
:1023F000B0910103281739074A075B0708F071C03D
:102400002091090330910A0340910B0350910C0372
:10241000A0900203B0900303C0900403D090050382
:102420008091FE029091FF02A0910003B091010300
:10243000E0900903F0900A0300910B0310910C0344
:102440002A193B094C095D098E199F09A00BB10B94
:1024500082179307A407B507A0F115C020910903BF
:1024600030910A0340910B0350910C0380910203B9
:1024700090910303A0910403B09105038217930781
:10248000A407B50748F48091020390910303A0913B
:102490000403B09105031DC02091090330910A0384
:1024A00040910B0350910C038091FE029091FF022A
:1024B000A0910003B0910103281739074A075B0771
:1024C00080F48091FE029091FF02A0910003B091F0
:1024D00001038093090390930A03A0930B03B09325
:1024E0000C03E981EFBF0F90CF91DF911F910F9106
:1024F000FF90EF90DF90CF90BF90AF909F908F9024
:102500007F906F905F904F903F902F900895A82FED
:1025100080913C01682F70E050913B0120E030E059
:10252000E1E0F0E0CB01022E02C0959587950A9478
:10253000E2F780FF09C0CF01022E02C0880F991F69
:102540000A94E2F7809558232F5F3F4F28303105DA
:1025500049F750933B01A0933C0182E068E970E0A9
:102560000E941B22089510923B0180E090E00E949F
:102570008712089580914101882381F40E94B3124B
:102580001092C9021092D1021092EB021092F30243
:1025900081E890E00E94871281E013C0813009F544
:1025A00080913E0180FF10C087FF0EC085E08093C0
:1025B00059020E94B31280913B01816880933B01D4
:1025C00082E080934101089580915902882331F57A
:1025D00087E993E19093C8028093C702109241016A
:1025E00008958230D9F4809159028930B9F40E945B
:1025F000B31280913B01826080933B01809159022C
:10260000882321F080913F01882341F087E993E1FD
:102610009093C8028093C70210924101089580915F
:102620004101882341F40E94B31280EC90E00E94A3
:10263000871281E019C08130D1F4F8948093C902E7
:102640008093D10280E061E040E050E00E94FB0A0C
:1026500081E598E09093C6028093C50278948091BA
:10266000440180932F0182E08093410108958230DC
:1026700009F05CC080913F01282F80FF06C0809147
:102680003B0191E0892780933B0121FF06C08091A7
:102690003B0192E0892780933B0122FF06C0809195
:1026A0003B0194E0892780933B0123FF06C0809182
:1026B0003B0198E0892780933B0124FF06C080916D
:1026C0003B0190E1892780933B0125FF06C0809163
:1026D0003B0190E2892780933B0126FF0AC080E0FE
:1026E00090E00E94871280913B0190E489278093BB
:1026F0003B0180913F0187FF09C080E090E00E948C
:10270000871280913B01805880933B0190912F016B
:1027100080914401981751F080E090E00E94871268
:102720008091440180933B0180932F0108951F9372
:1027300010914101112369F40E94B31210922601F5
:1027400010923B0181E08093410180E061E371E000
:102750006AC0113041F480E00E942D22882309F4E0
:1027600091C082E07BC0123009F04AC080912601FE
:102770008830F8F480E00E942D22882309F482C07A
:1027800081E090E00090260102C0880F991F0A9412
:10279000E2F720913B01282B20933B0180E06DE381
:1027A00070E00E941B22809126018F5F809326019A
:1027B00069C080E00E942D22882309F463C080E074
:1027C00068E970E00E941B229FEF90933D01809189
:1027D00064008F7B809364001093B00081E080934D
:1027E000B1001092B20080E88093B30097BB1093C1
:1027F000700082B1866082B994B95F9A83E02EC07E
:10280000133079F580E00E942D228823D9F1809140
:102810003D01823058F080913D01825080933D010E
:1028200080E064E070E00E941B222CC010927000D7
:102830001092B0001092B100809164008064809387
:10284000640015B85F980E94B31280E180933B0149
:1028500080E062E672E00E941B2284E080934101E6
:1028600011C0143079F480E00E942D22882351F0A9
:102870000E94B31284E494E19093C8028093C7024B
:10288000109241011F91089580914101882341F4E4
:1028900068E970E00E941B2281E080934101089565
:1028A00080E00E942D228823D1F080913E0180FF9C
:1028B00003C08FE093E104C085FF09C08DE791E27A
:1028C0009093C8028093C70210924101089582EA52
:1028D00097E19093C8028093C70210924101089536
:1028E0002F923F924F925F926F927F928F929F9220
:1028F000AF92BF92CF92DF92EF92FF920F931F930E
:10290000CF93DF931FEF1093640085B78F7E85BF51
:102910008FEE87B988E088B990E89AB91BB886E04D
:1029200082B98EE381B914B995B9129A14B9159A7E
:1029300015980E94752481E066E270E00E941B22D7
:102940003D98459A80B1807C809343011092440168
:1029500010923B0110923C018FB7F89415B814B94E
:102960005F9A5F988FBF0E94C7220E94FC218091CE
:1029700064008E7F8093640080E680937C0081E019
:1029800080937E0085E980937A0080917A0080644C
:1029900080937A00809164008F7D80936400109210
:1029A0006E0014BC16BC15BB10920E0310920D03E2
:1029B00083E085BD80916400877F809364001092DE
:1029C0006F008FEF9FEF9093890080938800909322
:1029D0008B0080938A0010928000109281001092E8
:1029E00085001092840016BB10923F0110923E01A8
:1029F000109259021092400110929A0210929B027A
:102A000010929C0210929D02789487E993E1909332
:102A1000C8028093C70210924101FF24FA94F1E0AA
:102A20008F2E912CEAE0EE2E7AEB672E72E1772E54
:102A300069E0362E412C52E0552E46E0242E35EB2F
:102A4000A32E35E9B32E3AEAC32E30E2D32E81E02D
:102A50000E942D228823D9F09FB7F894F5B814B8B6
:102A600043980000000083B1809580933E01439A13
:102A7000F4B89FBF359904C081E08093400102C043
:102A80001092400181E066E270E00E941B2290916A
:102A90003E0180911E018095892380933F01909390
:102AA0001E0120910D0330910E0380911F01909122
:102AB000200128173907B1F180910D0390910E0381
:102AC0009093200180931F0190B1907C90934301DB
:102AD00080912101981731F1992329F48038A9F0C8
:102AE0008034F1F418C0903429F4882371F0803CCC
:102AF000B9F411C0903C29F4803439F0803881F465
:102B00000AC0903869F4803C21F4809144018150DE
:102B100005C0882329F4809144018F5F809344018C
:102B2000909321010E94EE0A80913C01882309F4D0
:102B30004AC082E00E942D22882309F444C080917B
:102B40003C01682F70E0E091230150913B0120E0AF
:102B500030E0CB01022E02C0959587950A94E2F7EA
:102B600080FF14C0EE2349F0C401022E02C0880F7A
:102B7000991F0A94E2F7582B09C0C401022E02C023
:102B8000880F991F0A94E2F7809558232F5F3F4FD3
:102B900028303105F1F650933B0110922301EE23CA
:102BA00019F481E08093230182E068E970E00E94DB
:102BB0001B2280913B019FB7F89485B9F4B85F9AC6
:102BC0005F989FBF11C090913B01809122018917AE
:102BD00059F08FB7F89495B9F4B85F9A5F988FBFA2
:102BE00080913B0180932201809140019091590294
:102BF000882321F4992309F455C152C1913091F0F1
:102C0000913038F0953009F499C0963009F04AC1F6
:102C1000E9C081E08093590283E064EC74E00E9493
:102C20001B2240C183E00E942D22882309F43AC16F
:102C30000E94EF25813009F07EC060E070E080E006
:102C400090E00E94CB25813011F010E056C083E067
:102C50006AE770E00E941B2202C00E94EE0A83E035
:102C60000E942D22882329F48FEF0E9491248E3F09
:102C7000A1F78FEF0E949124082F8FEF0E949124DB
:102C8000843511F010E004C010E0073509F411E0BC
:102C90008FEF0E949124803509F010E08FEF0E94A1
:102CA0009124813409F010E0C0E0D0E08FEF0E9461
:102CB00091242196CC30D105C9F7113059F4CAE5D9
:102CC000D2E08FEF0E949124899382E0CA39D8071D
:102CD000C1F709C0C0E0D0E08FEF0E949124219697
:102CE000C034D105C9F7C0E0D0E08FEF0E94912435
:102CF000219681E0C23BD807C1F78091C80086FFCA
:102D0000FCCF0E948C248FEF0E949124113019F483
:102D100030925902C7C0E0925902EAE5F2E01192FE
:102D200082E0EA39F807D9F77092C8026092C702C8
:102D300010924101B7C0E0925902B4C060E070E067
:102D400080E090E00E94DD25813009F0A9C050921A
:102D50002501409224018FEF0E9491248FEF0E9461
:102D600091248EEF0E94912487E50E94912484E5AE
:102D70000E94912480E50E94912481E40E94912484
:102D800080912401909125010497909325018093CF
:102D9000240110E088E70E9491241F5F1C30D1F7C6
:102DA00080912401909125010C97909325018093A7
:102DB0002401CAE5D2E089910E94912482E0CA39B7
:102DC000D807C9F780912401909125018054904043
:102DD000909325018093240181E080939E022092AC
:102DE000590260C080919E028823B9F1C0912401EC
:102DF000D0912501C134D10510F0C0E4D0E010E03D
:102E00000DC08FEF0E9491248091240190912501A3
:102E1000019790932501809324011F5F812F90E0FB
:102E20008C179D0770F38091240190912501892BC7
:102E3000C9F58FEF0E9491248FEF0E9491248FEFAC
:102E40000E9491248F71853059F583E062E672E02B
:102E50000E941B2210929E0225C083E00E942D2218
:102E60008823F1F410E001E016C08FEF0E94912456
:102E70008F3F11F01F5F0DC00E948C248FEF0E94C6
:102E800091248091C80086FFFCCF00939E0230926F
:102E90005902143038F480919E02882331F302C025
:102EA000109259028091000190910101A0910201BC
:102EB000B0910301880F991FAA1FBB1F80930001C7
:102EC00090930101A0930201B0930301B7FF0CC0DE
:102ED0008A259B25AC25BD25809300019093010197
:102EE000A0930201B09303010E94F321882321F0F3
:102EF0000E94F9210E94D9220E94AE23882341F02A
:102F00008091C00085FF04C00E94B9238093C60051
:102F1000E091C702F091C802099599CD1F93182F2F
:102F2000882311F484E005C0813011F080E008C0EE
:102F300088E00E94E521803118F0812F111181E095
:102F40001F910895CF92DF92EF92FF920F931F93FC
:102F5000CF93DF9310914101112309F09CC080E0D1
:102F60000E948E1780930F0381E00E948E1780933A
:102F700028031092D8021092D9021092DA0210920D
:102F8000DB028FEF9FEFA7E0B0E08093FA0290930F
:102F9000FB02A093FC02B093FD0204EA12E0C0E041
:102FA000D0E0EE24E3949E01220F331FCE0145E0D2
:102FB000880F991F4A95E1F7280F391F27533D4F76
:102FC000F901108210861182178216821582FE0185
:102FD00094E0EE0FFF1F9A95E1F7EC0FFD1FEE0F47
:102FE000FF1FE553FD4F1082F901E48213828785AC
:102FF0009089A189B289868F978FA0A3B1A3878575
:103000009089A189B28983879487A587B687FE01B5
:10301000E85DFE4F1082109227014FB7F894F90136
:1030200087859089A189B289878B908FA18FB28F74
:1030300083859485A585B685838B948BA58BB68B6C
:10304000138E148E158E4FBFCC2311F487E001C070
:103050008BE00E94E5218A3508F080E3F801808347
:1030600011820E940F0DF801819391938F01219697
:10307000C230D10509F097CF81E598E09093C60260
:103080008093C50210922E010E94B31281E08093BA
:1030900041010C949A20113011F00C949A208091E7
:1030A000270190913E01882309F081C3292F30E048
:1030B00095FFF8C1B9016870707093FF04C08091EA
:1030C0003F0184FD0AC080913F0190E0AC0148704F
:1030D000507083FFFAC024FFF8C081E598E0909318
:1030E000C6028093C50260912E017FB7F894862FA7
:1030F00090E0FC0105E0EE0FFF1F0A95E1F7880F55
:10310000991FE80FF91FE753FD4F27853089418943
:103110005289862F90E0FC01B5E0EE0FFF1FBA95B3
:10312000E1F7880F991FE80FF91FE753FD4F278B31
:10313000308F418F528F862F90E0FC0105E0EE0F1B
:10314000FF1F0A95E1F7880F991FE80FF91FE75352
:10315000FD4F2385348545855685862F90E0FC01FB
:10316000B5E0EE0FFF1FBA95E1F7880F991FE80F42
:10317000F91FE753FD4F238B348B458B568B862FDE
:1031800090E0FC0105E0EE0FFF1F0A95E1F7880FC4
:10319000991FE80FF91FE753FD4F138E862F90E01C
:1031A000FC01B5E0EE0FFF1FBA95E1F7880F991FFC
:1031B000E80FF91FE753FD4F148E862F90E0FC01B6
:1031C00065E0EE0FFF1F6A95E1F7880F991FE80F82
:1031D000F91FE753FD4F158E7FBF80912E01282FD9
:1031E00030E0F90145E0EE0FFF1F4A95E1F7220FAD
:1031F000331FE20FF31FE753FD4F1782282F30E0F4
:10320000F90105E0EE0FFF1F0A95E1F7220F331FCA
:10321000E20FF31FE753FD4F1682282F30E0F9012C
:10322000B5E0EE0FFF1FBA95E1F7220F331FE20F53
:10323000F31FE753FD4F1582282F30E0F90174E0AA
:10324000EE0FFF1F7A95E1F7E20FF31FEE0FFF1F5E
:10325000E553FD4F1082282F30E0F90155E0EE0FC5
:10326000FF1F5A95E1F7220F331FE20FF31FE753B9
:10327000FD4F1382282F30E0F90195E0EE0FFF1F7C
:103280009A95E1F7220F331FE20FF31FE753FD4F2B
:1032900091E09483282F30E0F90115E0EE0FFF1F35
:1032A0001A95E1F7220F331FE20FF31FE753FD4F8B
:1032B00011821092270164E042E120E00E94A122E5
:1032C00080912E0164E04BE11DC2672B59F120FD76
:1032D00004C026703070232B21F081E080932701F9
:1032E00009C3452B09F406C320912E01822F90E0DB
:1032F000FC01A4E0EE0FFF1FAA95E1F7E80FF91F0C
:10330000EE0FFF1FE553FD4F8081882331F481E0EC
:103310008083822F64E040E1D2C11082822F64E07A
:1033200040E1F0C124FF52C082FF0CC080912E0109
:1033300061E040E050E00E94E90C80912E0164E0E1
:103340004EE04FC184FFD6C220912E01822F90E023
:10335000FC0165E0EE0FFF1F6A95E1F7880F991FEA
:10336000E80FF91FE753FD4F83818823A9F4822FCB
:1033700090E0FC0145E0EE0FFF1F4A95E1F7880F52
:10338000991FE80FF91FE753FD4F81E08383822FD8
:1033900064E041E120E413C0822F90E0FC0105E0ED
:1033A000EE0FFF1F0A95E1F7880F991FE80FF91F2D
:1033B000E753FD4F1382822F64E041E120E00E9439
:1033C000A12280912E010E94570E94C280FF17C047
:1033D00080912E0120914501482F50E0FA01B5E07F
:1033E000EE0FFF1FBA95E1F7440F551FE40FF51FCD
:1033F000E753FD4F278364E043E10E94A1228091BF
:103400003F0181FF10C060914401669580912E01BB
:103410000E94250D20914401269580912E0164E0A3
:1034200044E10E94A12280913F0182FF63C220916A
:103430004501213099F0213030F02230D9F023308D
:1034400009F058C223C081E598E09093C6028093AA
:10345000C50280912E0164E046E1DBC187E098E07F
:103460009093C6028093C50280912E0164E046E1EC
:1034700021E0CFC185EC98E09093C6028093C5020D
:1034800080912E0164E046E122E0C3C186E898E025
:103490009093C6028093C50280912E0164E046E1BC
:1034A00023E0B7C180913F0190E080FF24C02091CC
:1034B0002E01822FFC0175E0EE0FFF1F7A95E1F7D8
:1034C000880F991FE80FF91FE753FD4F8081833064
:1034D00039F4822F61E040E050E00E94280CDCC00B
:1034E000822F61E040E050E00E94590B80912E0154
:1034F00064E043E076C081FF76C060912E01862FA4
:1035000090E0FC0155E0EE0FFF1F5A95E1F7880FA0
:10351000991FE80FF91FE753FD4F8081853069F54A
:103520001FB7F894862F90E0FC0135E0EE0FFF1FE7
:103530003A95E1F7880F991FE80FF91FE753FD4F00
:1035400084E08083862F61E040E050E00E94FB0A27
:103550001FBF80912E01282F30E0F90195E0EE0F7A
:10356000FF1F9A95E1F7220F331FE20FF31FE75376
:10357000FD4F118264E049E0C5C0862F90E0FC0158
:1035800015E0EE0FFF1F1A95E1F7880F991FE80F5E
:10359000F91FE753FD4F2785308941895289862FCE
:1035A00090E0FC01A5E0EE0FFF1FAA95E1F7880F60
:1035B000991FE80FF91FE753FD4F83859485A58573
:1035C000B685281739074A075B0709F493C1862F88
:1035D00061E040E050E00E94C30C80912E0164E065
:1035E00049E020E316C182FF8FC060912E01862F33
:1035F00090E0FC0155E0EE0FFF1F5A95E1F7880FB0
:10360000991FE80FF91FE753FD4F8081882309F0C8
:1036100058C0862F90E0FC0135E0EE0FFF1F3A9571
:10362000E1F7880F991FE80FF91FE753FD4F278532
:10363000308941895289862F90E0FC0105E0EE0F28
:10364000FF1F0A95E1F7880F991FE80FF91FE7534D
:10365000FD4F83859485A585B685281739074A07C8
:103660005B0709F447C11FB7F894862F90E0FC016F
:10367000B5E0EE0FFF1FBA95E1F7880F991FE80F2D
:10368000F91FE753FD4F84E08083862F61E040E01F
:1036900050E00E94FB0A1FBF80912E01282F30E0CE
:1036A000F90175E0EE0FFF1F7A95E1F7220F331F46
:1036B000E20FF31FE753FD4F118261E040E320E486
:1036C000A8C0862F90E0FC0155E0EE0FFF1F5A9531
:1036D000E1F7880F991FE80FF91FE753FD4F10829C
:1036E000862F90E0FC0135E0EE0FFF1F3A95E1F7E1
:1036F000880F991FE80FF91FE753FD4F1086862F9B
:1037000062E040E320E085C083FF44C060912E0169
:10371000862F90E0FC0105E0EE0FFF1F0A95E1F710
:10372000880F991FE80FF91FE753FD4F2785308950
:1037300041895289862F90E0FC01A5E0EE0FFF1F22
:10374000AA95E1F7880F991FE80FF91FE753FD4F7E
:1037500083859485A585B685281739074A075B07B1
:1037600009F4C8C0862F61E040E050E00E94280CB8
:1037700080912E01282F30E0F90195E0EE0FFF1F18
:103780009A95E1F7220F331FE20FF31FE753FD4F26
:10379000118393CF84FFAEC080912E018F5F809301
:1037A0002E01823008F4A6C010922E01A3C0892FEA
:1037B00090E080FF31C020912E01822FFC0115E0A6
:1037C000EE0FFF1F1A95E1F7880F991FE80FF91FF9
:1037D000E753FD4F838D30914401831709F48AC06C
:1037E000822F90E0FC01A5E0EE0FFF1FAA95E1F704
:1037F000880F991FE80FF91FE753FD4F338F822F72
:103800000E94570E20914401269580912E0164E07C
:103810004CE10E94A1226EC081FF30C020912E0198
:10382000822F90E0FC0165E0EE0FFF1F6A95E1F743
:10383000880F991FE80FF91FE753FD4F848D3091D2
:103840004401831709F456C0822F90E0FC0145E043
:10385000EE0FFF1F4A95E1F7880F991FE80FF91F38
:10386000E753FD4F348F822F0E94570E2091440161
:10387000269580912E0164E04DE1CBCF82FF2FC0D1
:1038800020912E01822F90E0FC0115E0EE0FFF1F2A
:103890001A95E1F7880F991FE80FF91FE753FD4FBD
:1038A000858D30914401831729F1822F90E0FC012E
:1038B000A5E0EE0FFF1FAA95E1F7880F991FE80F0B
:1038C000F91FE753FD4F358F822F0E94570E20912D
:1038D0004401269580912E0164E04EE19ACF8091BB
:1038E0003F0190E083FD04C080739070892B11F03C
:1038F0001092270180914103882309F41BC48AE2B6
:1039000091E00E94472280912B01823089F58091BD
:103910002A01282F30E0F901EE0FFF1FC90155E001
:10392000880F991F5A95E1F7E80FF91FE753FD4FEC
:103930008081843021F08081823009F0FBC3F9015D
:10394000EC5FFE4F90912C018081981709F0F2C333
:10395000F90145E0EE0FFF1F4A95E1F7220F331FF3
:10396000E20FF31FE753FD4F108280912A0188C0B8
:103970008130E1F510912A01212F30E0F901EC5F4F
:10398000FE4F60912C016083F901E85DFE4F80815C
:10399000882349F0862F0E940F0DAC01812F62E031
:1039A0000E94E90CC7C3F90185E0EE0FFF1F8A955D
:1039B000E1F7220F331FE20FF31FE753FD4F278577
:1039C00030894189528983859485A585B6852817D4
:1039D00039074A075B0709F4ADC3862F0E940F0D14
:1039E000AC01812F62E00E94280CA4C3843009F04E
:1039F0005CC380912C0190E0FC013397EC31F10520
:103A000008F098C3E25CFF4FEE0FFF1F0590F491A2
:103A1000E02D099480912D01882371F080912A0175
:103A2000E82FF0E0EE0FFF1FEC55FD4F4081518174
:103A300062E00E94590B5EC020912A01822F90E023
:103A4000FC01B5E0EE0FFF1FBA95E1F7880F991F53
:103A5000E80FF91FE753FD4F8081833009F06AC3F7
:103A6000822F90E0FC0175E0EE0FFF1F7A95E1F7E1
:103A7000880F991FE80FF91FE753FD4F1082822F1F
:103A800090E0FC0155E0EE0FFF1F5A95E1F7880F1B
:103A9000991FE80FF91FE753FD4F10864BC3809124
:103AA0002D01882369F160912A01C62FD0E0FE0123
:103AB000EE0FFF1FCE0125E0880F991F2A95E1F731
:103AC000E80FF91FE753FD4F278530894189528957
:103AD00083859485A585B685281739074A075B072E
:103AE00009F428C3CC5FDE4F4881862F62E050E0A6
:103AF0000E94C30CE0912A01F0E0E85DFE4FBAC0DD
:103B000020912A01E22FF0E0DF01AA0FBB1FCF01B5
:103B100015E0880F991F1A95E1F7A80FB91FA75351
:103B2000BD4F8C91853009F005C3EC5FFE4F40819D
:103B30001FB7F89484E08C93822F62E050E00E94DB
:103B4000FB0A1FBFF7C280912D01882399F0809155
:103B50002A01E82FF0E0EE0FFF1FEC55FD4F4081EA
:103B6000518162E00E94E90CE0912A01F0E0E85DF9
:103B7000FE4F6EC020912A01822F90E0FC01A5E04B
:103B8000EE0FFF1FAA95E1F7880F991FE80FF91FA5
:103B9000E753FD4F8081823009F0CCC2822F90E044
:103BA000FC0165E0EE0FFF1F6A95E1F7880F991F92
:103BB000E80FF91FE753FD4F1082822F90E0FC01C0
:103BC00045E0EE0FFF1F4A95E1F7880F991FE80FB8
:103BD000F91FE753FD4F1086E22F8ECF80912D0104
:103BE000882389F080912A0190E0FC0105E0EE0F26
:103BF000FF1F0A95E1F7880F991FE80FF91FE75398
:103C0000FD4F118297C280912A0190E0FC01B5E03E
:103C1000EE0FFF1FBA95E1F7880F991FE80FF91F04
:103C2000E753FD4F81E0818385C280912D01882378
:103C300091F080912A0190E0FC0174E0EE0FFF1FEB
:103C40007A95E1F7E80FF91FEE0FFF1FE553FD4FDF
:103C500081E080836FC280912A0190E0FC0154E0F2
:103C6000EE0FFF1F5A95E1F7E80FF91FEE0FFF1F48
:103C7000E553FD4F10825EC280912D01882391F0A3
:103C800080912A0190E0FC0135E0EE0FFF1F3A958C
:103C9000E1F7880F991FE80FF91FE753FD4F81E007
:103CA000838310C080912A0190E0FC0105E0EE0FB3
:103CB000FF1F0A95E1F7880F991FE80FF91FE753D7
:103CC000FD4F138280912A01EDC120912A01822F9C
:103CD00090E0FC01B5E0EE0FFF1FBA95E1F7880F09
:103CE000991FE80FF91FE753FD4F1182822F90E0D3
:103CF000FC0175E0EE0FFF1F7A95E1F7880F991F21
:103D0000E80FF91FE753FD4F1782822F90E0FC0167
:103D100055E0EE0FFF1F5A95E1F7880F991FE80F46
:103D2000F91FE753FD4F1682822F90E0FC0135E02A
:103D3000EE0FFF1F3A95E1F7880F991FE80FF91F63
:103D4000E753FD4F1582A22FB0E0FD0114E0EE0F06
:103D5000FF1F1A95E1F7EA0FFB1FEE0FFF1FE55358
:103D6000FD4F1082822F90E0FC0165E0EE0FFF1FF7
:103D70006A95E1F7880F991FE80FF91FE753FD4F88
:103D800031E03483822F90E0FC0145E0EE0FFF1F0D
:103D90004A95E1F7880F991FE80FF91FE753FD4F88
:103DA0001382822F90E0FC0115E0EE0FFF1F1A95A1
:103DB000E1F7880F991FE80FF91FE753FD4F348390
:103DC000A85DBE4F1C923CC020912D01283008F008
:103DD000B1C180912A0190E0FC0165E0EE0FFF1F68
:103DE0006A95E1F7880F991FE80FF91FE753FD4F18
:103DF0002783A0C180912A0160912D010E94250D89
:103E000099C180912D0120912A0130E0F90145E00E
:103E1000EE0FFF1F4A95E1F7220F331FE20FF31F4A
:103E2000E753FD4F868386C180912D01813059F083
:103E3000813030F0823051F0833009F07BC109C00D
:103E400081E598E008C087E098E005C085EC98E03F
:103E500002C086E898E09093C6028093C5026AC1CA
:103E6000CFB6F894D0902A010D2D10E084E0E82E12
:103E700081E0F82EE00EF11EF70180810E940F0D07
:103E8000000F111F0C551D4FF80191838083F7011E
:103E90006081DD2019F487E090E005C0F1E0DF16D5
:103EA00021F48BE090E00E94D721CFBE43C18091E6
:103EB0002A0190912D01282F30E0F901A5E0EE0FA5
:103EC000FF1FAA95E1F7220F331FE20FF31FE753FD
:103ED000FD4F938FE7C080912A0190912D01282FEB
:103EE00030E0F90165E0EE0FFF1F6A95E1F7220F60
:103EF000331FE20FF31FE753FD4F948FD3C0809120
:103F00002A0190912D01282F30E0F90145E0EE0FB4
:103F1000FF1F4A95E1F7220F331FE20FF31FE7530C
:103F2000FD4F958FBFC060912A017FB7F894862F0F
:103F300090E0FC0115E0EE0FFF1F1A95E1F7880FE6
:103F4000991FE80FF91FE753FD4F278530894189F5
:103F50005289862F90E0FC01A5E0EE0FFF1FAA9585
:103F6000E1F7880F991FE80FF91FE753FD4F278BE3
:103F7000308F418F528F862F90E0FC0115E0EE0FBD
:103F8000FF1F1A95E1F7880F991FE80FF91FE753F4
:103F9000FD4F2385348545855685862F90E0FC01AD
:103FA000A5E0EE0FFF1FAA95E1F7880F991FE80F14
:103FB000F91FE753FD4F238B348B458B568B862F90
:103FC00090E0FC0115E0EE0FFF1F1A95E1F7880F56
:103FD000991FE80FF91FE753FD4F138E862F90E0CE
:103FE000FC01A5E0EE0FFF1FAA95E1F7880F991FCE
:103FF000E80FF91FE753FD4F148E862F90E0FC0168
:1040000045E0EE0FFF1F4A95E1F7880F991FE80F73
:10401000F91FE753FD4F158E7FBF8CC080912A0199
:1040200040912D0150E0440F551F282F30E0F90139
:1040300095E0EE0FFF1F9A95E1F7220F331FE20F75
:10404000F31FE753FD4F438F2DC080912A0140910C
:104050002D0150E0440F551F282F30E0F901B5E045
:10406000EE0FFF1FBA95E1F7220F331FE20FF31F88
:10407000E753FD4F448F16C080912A0140912D01D6
:1040800050E0440F551F282F30E0F90165E0EE0F96
:10409000FF1F6A95E1F7220F331FE20FF31FE7536B
:1040A000FD4F458F0E94570E45C0873009F042C032
:1040B00080912D01C82FD0E0D695DC2FCC27D79545
:1040C000C79580912C01C80FD11D80E2C030D80760
:1040D000D1F000912A01E0E2C030DE0740F410E0A8
:1040E000F801EC5FFE4F80810E940F0D07C010E0C9
:1040F000F801EC5FFE4F80810E940F0D8050904EC2
:104100008C1B9D0B09C000912A0110E0F801EC5FA7
:10411000FE4F80810E940F0DF80135E0EE0FFF1F6A
:104120003A95E1F7000F111FE00FF11FE753FD4F24
:10413000928781878091D102813041F010929F0255
:1041400080916F008F7D80936F00B59A8091F3020C
:10415000813031F01092A0021092680010926D0030
:104160008091D102823041F01092A10280916F00C3
:104170008D7F80936F00B19A8091F302823041F07D
:104180001092A20280916F008B7F80936F00B29A91
:104190008091D102882321F410929F021092A102F3
:1041A0008091F302882321F41092A0021092A202BF
:1041B0008091440182958695877080934501909106
:1041C0003B019F7180FD906881FD906482FD90624B
:1041D00090933B0160912E01292F207E862F90E045
:1041E000FC0105E0EE0FFF1F0A95E1F7880F991F0C
:1041F000E80FF91FE753FD4F8081833009F42160F8
:10420000862F90E0FC01B5E0EE0FFF1FBA95E1F7B5
:10421000880F991FE80FF91FE753FD4F8081843005
:1042200009F42460862F90E0FC0175E0EE0FFF1F7B
:104230007A95E1F7880F991FE80FF91FE753FD4FB3
:104240008081853009F42260862F90E0FC0145E0F2
:10425000EE0FFF1F4A95E1F7880F991FE80FF91F2E
:10426000E753FD4F8081823009F42760809142013D
:10427000813009F42860613009F4206120933B010A
:10428000862F90E0FC0105E0EE0FFF1F0A95E1F795
:10429000880F991FE80FF91FE753FD4F27853089D5
:1042A00041895289862F90E0FC01B5E0EE0FFF1F97
:1042B000BA95E1F7880F991FE80FF91FE753FD4FF3
:1042C00083859485A585B685281739074A075B0736
:1042D00039F480913C0182FD07C084E090E002C087
:1042E00080E090E00E948712DF91CF911F910F91A3
:1042F000FF90EF90DF90CF90089580914101882347
:10430000A1F40E948E1780930F0381E00E948E1704
:10431000809328038295807F90910F03982B909330
:104320003B0181E080934101089580913F01282F56
:1043300080FF11C080910F038F5F80930F03803146
:1043400010F010920F0380913B01807F90910F033A
:10435000892B80933B0121FF13C0809128038F5F3D
:1043600080932803803110F01092280390913B0134
:104370009F70809128038295807F892B80933B01D9
:1043800022FF14C084E090E060910F030E94D721C7
:1043900088E090E0609128030E94D72182EA97E1AB
:1043A0009093C8028093C7021092410108959C0126
:1043B000F999FECF8FB7F89432BD21BD60BDFA9A4E
:1043C000F99A8FBF12BC11BC0895282FF999FECF1E
:1043D0008FB7F89430E032BD21BDF89A8FBF12BC80
:1043E00011BC80B508958091C000881F8827881F60
:1043F00008958091C6000895809164008D7F809318
:1044000064008091C0008D7F8093C00088E180931C
:10441000C10087E28093C40086E08093C20080914F
:10442000C00085FFFCCF8091C00087FF03C0809152
:10443000C600F9CF0895E82FF0E080910D03909128
:104440000E03EE0FFF1FDF01A855BD4F8D939C9308
:10445000E055FD4F71836083089520910D033091E5
:104460000E03E82FF0E040E0EE0FFF1FDF01A8553C
:10447000BD4F8D919C91281B390BE055FD4F8081DC
:1044800091812817390708F041E0842F0895CF93D0
:10449000DF93EC0120914103222319F19091C00296
:1044A000E92FF0E0EE0FFF1FEE0FFF1FDF01A05F0F
:1044B000BC4F11968C9111978983EE5EFC4F8081E1
:1044C0008A8313968C9113978B838C9188839F5F3B
:1044D0009093C002963010F01092C00221502093A9
:1044E0004103DF91CF910895CF93DF93EC012091A9
:1044F0004103263018F59091BF02E92FF0E0EE0F4E
:10450000FF1FEE0FFF1FDF01A05FBC4F89811196D7
:104510008C931197EE5EFC4F8A8180838B8113967A
:104520008C93139788818C939F5F9093BF029630F2
:1045300010F01092BF022F5F20934103DF91CF91C3
:10454000089530914203363008F59091C202E92F68
:10455000F0E0EE0FFF1FEE0FFF1FDF01A75DBC4F66
:1045600011966C931197E55DFC4F408313962C9345
:10457000139780910F038C939F5F9093C2029630A4
:1045800010F01092C2023F5F30934203089589E019
:104590008093C1021092C402109241031092BF0294
:1045A0001092C002109242031092C2021092C302F3
:1045B00008951F93DF93CF9300D000D0CDB7DEB71F
:1045C000282F87FF41C0682F70E09B012F7030704B
:1045D00080910F03482F50E02417350739F0809160
:1045E000280390E02817390709F0ADC0CB01807F80
:1045F00090708039910519F41092C1021BC0803867
:10460000910539F481E08093C10224173507C9F47C
:1046100014C0803C910511F482E00AC0803E9105EF
:1046200011F487E005C0803B910509F08CC083E060
:104630008093C1022417350719F41092BD0286C079
:1046400081E08093BD0282C01091C102143009F450
:1046500058C0153058F41130C1F11130C8F0123083
:1046600009F446C0133009F06EC047C0173009F492
:1046700056C0183030F4153079F0163009F063C0A8
:1046800028C0183009F44FC0193009F05CC05EC072
:104690008093BE0285E058C03091BE024091BD02B9
:1046A000BE016F5F7F4F882329F482E08A833B83BA
:1046B0001C8204C081E08A833B832C834983CB0125
:1046C0000E9474221092C10241C08093BE0286E013
:1046D0003BC082E08A838091BE028B832C838091D1
:1046E000BD028983CE0101960E94742281E02CC014
:1046F00083E08A832B831C821CC08093BE0284E0EB
:1047000023C01A838091BE028B832C838091BD02CB
:104710008983CE0101960E94742283E015C08093A4
:10472000BE0288E011C017E01A838091BE028B831D
:104730002C838091BD028983CE0101960E94742250
:104740001093C10203C089E08093C1020F900F90C3
:104750000F900F90CF91DF911F91089580914203A8
:10476000882311F081E008958091C402811181E0D5
:1047700008958091C402833009F491C0843038F4E4
:10478000813009F488C0823008F087C00DC08530C0
:1047900009F48CC0853008F486C0863009F489C0DD
:1047A000873009F091C08BC020914203222339F158
:1047B0009091C302E92FF0E0EE0FFF1FEE0FFF1FF5
:1047C000DF01A75DBC4F11968C9111978093BA02BF
:1047D000E55DFC4F80818093BB0213968C9113970B
:1047E0008093BC028C918093B9029F5F9093C30227
:1047F000963010F01092C302215020934203209172
:10480000BA022230B9F0233020F4213009F05CC024
:1048100006C02330F9F0243009F056C02BC0909127
:10482000B90290698091B802891779F49091BB021E
:1048300083E02AC09091B90290698091B8028917EB
:1048400021F49091BB0284E01FC09093B8022093A2
:10485000C4023BC09091B902906C8091B802891754
:1048600029F49091BB021092C4022FC09093B80219
:1048700085E00AC09091B902906B8091B8028917C7
:1048800031F49091BB0287E08093C4021EC09093E4
:10489000B80286E0F9CF83E00DC084E00BC010922F
:1048A000C40290E412C01092C4020EC01092C4025E
:1048B00003C087E08093C4029091BB0206C01092AF
:1048C000C4029091BC0201C090E0892F08958AB182
:1048D0008F7C8AB98BB180638BB91092C900E4E6F2
:1048E000F0E08081806180830895E4E6F0E08081DB
:1048F0008F7E8083ECECF0E011821082549A80EC81
:104900008093CA0088E18093C90081E090E09183A0
:104910008083559A5D9A08955D9A08955D9A5D9891
:104920000895982F8091C80085FFFCCF9093CE000A
:104930008091C80087FFFCCF8091CE0008958091C0
:10494000C80080648093C8008091C80085FFFCCFB8
:104950008FEF8093CE008091C80087FFFCCF8091BD
:10496000CE008091C80086FFFCCF08951F93282FAA
:104970005D9A5D988091C80085FFFCCF8FEF809392
:10498000CE008091C80087FFFCCF8091CE0027FF2A
:104990007AC08091C80085FFFCCF87E78093CE0066
:1049A0008091C80087FFFCCF8091CE008091C80025
:1049B00085FFFCCF1092CE008091C80087FFFCCF0E
:1049C0008091CE008091C80085FFFCCF1092CE0070
:1049D0008091C80087FFFCCF8091CE008091C800F5
:1049E00085FFFCCF1092CE008091C80087FFFCCFDE
:1049F0008091CE008091C80085FFFCCF1092CE0040
:104A00008091C80087FFFCCF8091CE008091C800C4
:104A100085FFFCCF81E08093CE008091C80087FFA6
:104A2000FCCF8091CE009AE03FEF8091C80085FFD7
:104A3000FCCF3093CE008091C80087FFFCCF10914F
:104A4000CE001F3F11F4915081F78091C80080641F
:104A50008093C8008091C80085FFFCCF8FEF8093C2
:104A6000CE008091C80087FFFCCF8091CE0080915E
:104A7000C80086FFFCCF123010F05D9A89C05D9AA5
:104A80002F775D9A5D988091C80085FFFCCF822FBB
:104A900080648093CE008091C80087FFFCCF809116
:104AA000CE008091C80085FFFCCF872F9927AA27C9
:104AB000BB278093CE008091C80087FFFCCF8091F8
:104AC000CE008091C80085FFFCCFCB01AA27BB2771
:104AD0008093CE008091C80087FFFCCF8091CE00EC
:104AE0008091C80085FFFCCFBB27A72F962F852F6D
:104AF0008093CE008091C80087FFFCCF8091CE00CC
:104B00008091C80085FFFCCF4093CE008091C80003
:104B100087FFFCCF8091CE00222311F495E905C0D8
:104B2000283011F497E801C091E08091C80085FF1A
:104B3000FCCF9093CE008091C80087FFFCCF80917E
:104B4000CE002C3069F48091C80085FFFCCF8FEF38
:104B50008093CE008091C80087FFFCCF8091CE006B
:104B60009AE03FEF8091C80085FFFCCF3093CE00E4
:104B70008091C80087FFFCCF1091CE001F3F11F439
:104B8000915081F7283021F02A3311F00E949F24A0
:104B9000812F1F910895AB01BC01E9E0440F551F1F
:104BA000661F771FEA95D1F781E10E94B62490E055
:104BB000882309F491E0892F0895AB01BC01F9E045
:104BC000440F551F661F771FFA95D1F788E10E94A1
:104BD000B62490E0882309F491E0892F0895DF93AB
:104BE000CF9300D000D0CDB7DEB75D9A90E02FEF25
:104BF0008091C80080648093C8008091C80085FFC0
:104C0000FCCF2093CE008091C80087FFFCCF80911D
:104C1000CE009F5F943161F78091C80086FFFCCF82
:104C20005D9A5D9820E030E09FEF8091C80080643D
:104C30008093C8008091C80085FFFCCF9093CE0080
:104C40008091C80087FFFCCF8091CE002F5F3F4F3F
:104C500082E02030380749F78091C80086FFFCCFFA
:104C60005D9A80E040E050E060E070E00E94B62491
:104C70008091C80086FFFCCF5D9A80E040E050E064
:104C800060E070E00E94B624813009F0B4C05D9A03
:104C900088E04AEA51E060E070E00E94B62481308A
:104CA00009F076C0FE0131969FEF9E012B5F3F4FCA
:104CB0008091C80085FFFCCF9093CE008091C80002
:104CC00087FFFCCF8091CE008193E217F30781F735
:104CD0000E949F245D9A8B81813009F08CC08C8169
:104CE0008A3A09F088C083E064EC74E00E941B22D9
:104CF00003C05D9A0E94EE0A83E00E942D22882361
:104D000049F489EA40E050E060E070E00E94B62497
:104D1000882379F783E00E942D22882331F06BC02D
:104D20000E949F240E94EE0A5D9A83E00E942D2239
:104D3000882349F48AE340E050E060E070E00E949C
:104D4000B624882369F783E00E942D22882309F086
:104D500052C090E02FEF8091C80085FFFCCF2093D8
:104D6000CE008091C80087FFFCCF8091CE009F5F6E
:104D7000943089F70E949F245D9A80E140E052E0E0
:104D800060E070E00E94B6245D9A0E949F2431C0CA
:104D90000E949F245D9A89EA40E050E060E070E064
:104DA0000E94B624823038F55D9A83E064EC74E0AA
:104DB0000E941B2203C00E94EE0A5D9A83E00E94BB
:104DC0002D22882349F489EA40E050E060E070E059
:104DD0000E94B624882379F783E00E942D2288233D
:104DE00051F480E140E052E060E070E00E94B624BF
:104DF0005D9A81E001C080E05D9A0F900F900F9066
:104E00000F90CF91DF910895629FD001739FF001C1
:104E1000829FE00DF11D649FE00DF11D929FF00D4A
:104E2000839FF00D749FF00D659FF00D9927729F81
:104E3000B00DE11DF91F639FB00DE11DF91FBD010C
:104E4000CF0111240895991B79E004C0991F96178A
:104E500008F0961B881F7A95C9F78095089597FBEF
:104E6000092E07260AD077FD04D02ED006D00020C8
:104E70001AF4709561957F4F0895F6F79095819596
:104E80009F4F0895A1E21A2EAA1BBB1BFD010DC066
:104E9000AA1FBB1FEE1FFF1FA217B307E407F507EA
:104EA00020F0A21BB30BE40BF50B661F771F881FC6
:104EB000991F1A9469F760957095809590959B015C
:104EC000AC01BD01CF010895AA1BBB1B51E107C076
:104ED000AA1FBB1FA617B70710F0A61BB70B881F8A
:104EE000991F5A95A9F780959095BC01CD01089519
:044EF000F894FFCF64
:104EF400EFBE00003C3CFFFFA1F111E444D72FCBEF
:0E4F0400C8BF04B5DBAA44A13798AC8F9C87C8
:00000001FF
