:100000000C943E000C9450000C9450000C94500042
:100010000C9450000C9450000C94BC010C945000B3
:100020000C9450000C94DA010C9450000C94500085
:100030000C9447010C94C6010C94D0010C94500010
:100040000C9450000C9450000C9450000C945000F0
:100050000C9450000C9450000C9450000C945000E0
:100060000C9450000C9450000C9450000C945000D0
:100070000C9450000C9450000C94500011241FBE9E
:10008000CFEFD0E1DEBFCDBF13E0A0E0B1E001C013
:100090001D92A63FB107E1F70E9419020C941E0AB7
:1000A0000C94E401CF92DF92EF92FF920F931F9393
:1000B0006B017C01F894A9E3B3E040E050E08C913F
:1000C0008823B1F59A01220F331F240F351F220F09
:1000D000331F220F331F8901025D1C4F81E0F8019D
:1000E0008387B701A601ACE0440F551F661F771F39
:1000F000AA95D1F740835183628373832E5C3C4F72
:10010000F601EE0FFF1FEE0FFF1FEA5DFE4F80812D
:100110009181A281B381840F951FA61FB71FF9019A
:1001200080839183A283B383F8011186128606C06F
:100130004F5F5F4F1C964430510509F678941F912C
:100140000F91FF90EF90DF90CF900895CF93DF93C2
:10015000682F70E0FB01EE0FFF1FE60FF71FEE0F99
:10016000FF1FEE0FFF1FE25DFC4F8385813009F01A
:1001700082C080819181A281B38185B9139A13983D
:10018000292F3A2F4B2F552725B9149A1498CD01B2
:10019000AA27BB278770886888B914B8129800000E
:1001A000000083B180931F01129A2FEF24B990E0D1
:1001B000FB01EE0FFF1FE60FF71FEE0FFF1FEE0F05
:1001C000FF1FE25DFC4F018402C0959587950A945C
:1001D000E2F780FD03C08285815002C082858F5F77
:1001E0008287FB01EE0FFF1FE60FF71FEE0FFF1FC9
:1001F000EE0FFF1FE25DFC4F81858F5F81878830A6
:1002000061F4118680819181A281B3810196A11D43
:10021000B11D80839183A283B383FB01EE0FFF1F87
:10022000E60FF71FEE0FFF1FEE0FFF1FEF01C25D7E
:10023000DC4FEE5CFC4F288139814A815B818081F3
:100240009181A281B381281739074A075B0731F4EE
:10025000188219821A821B8219861B86FB01EE0FF7
:10026000FF1FE60FF71FEE0FFF1FEE0FFF1FE25DF0
:10027000FC4F828509C08285181614F4815003C092
:10028000882311F08F5F8287DF91CF9108951F92AD
:100290000F920FB60F921124DF92EF92FF920F93FD
:1002A0001F932F933F934F935F936F937F938F93FE
:1002B0009F93AF93BF93EF93FF9380E00E94A600BC
:1002C000E82E81E00E94A600D82E82E00E94A600BF
:1002D000082F83E00E94A6002D2D332727FD30959F
:1002E000FF24E7FCF0942E0D3F1D112707FD10950C
:1002F000200F311F992787FD9095280F391F8FEF09
:100300002038380714F420E83FEFC90120383105C0
:1003100014F08FE790E0982F905880915E03981723
:1003200029F08FEF84B995B9159A159890935E03CB
:1003300080917A0086FD0AC0809179008058809370
:10034000200180917A00806480937A00FF91EF9180
:10035000BF91AF919F918F917F916F915F914F91DD
:100360003F912F911F910F91FF90EF90DF900F9091
:100370000FBE0F901F9018951F920F920FB60F92FD
:1003800011240F900FBE0F901F9018951F920F927F
:100390000FB60F9211240F900FBE0F901F9018955B
:1003A0001F920F920FB60F9211240F900FBE0F9055
:1003B0001F9018951F920F920FB60F9211240F9055
:1003C0000FBE0F901F9018951F920F920FB60F92AD
:1003D00011240F900FBE0F901F9018959FB7F8949F
:1003E00085B98FEF84B95F9A5F989FBF0895A89BE6
:1003F0000AC0A89A8091C0039091C103019690937E
:10040000C1038093C00308951F93182FF894812F80
:100410000E94EE0183E062E672E00E94350502C0B0
:100420000E94F70183E00E9447058823C9F31095D5
:10043000EECF8F929F92AF92BF92CF92DF92EF92C8
:10044000FF920F931F93CF93DF932FEF20936400BE
:1004500085B78F7E85BF8FEE87B988E088B990E831
:100460009AB91BB886E082B98EE381B924B995B9EF
:10047000129A24B9159A1598809164008E7F809302
:10048000640080E680937C0081E080937E0085E9B3
:1004900080937A0080917A00806480937A008091C2
:1004A0006400877F8093640010926F008FEF9FEF4E
:1004B000909389008093880090938B0080938A00AA
:1004C000109280001092810010928500109284009A
:1004D00026BB80918100806480938100B59A8091D1
:1004E0006F00806280936F00DA9A84E080936800E6
:1004F00080E180936D00809164008F7D8093640023
:1005000010926E0014BC16BC25BB1092C103109251
:10051000C00383E085BD81E066E270E00E9435059E
:100520003D98459A80B1807C8093230110922401EC
:100530000E94E1050E9416050E948F071092170184
:10054000109218011092190110921A0183E064ECC4
:1005500074E00E94350502C00E94F70183E00E940A
:1005600047058823C9F30E940909882319F485E502
:100570000E940402AA24BB24650145010E94A80729
:10058000C601B5010E94E508813009F057C083E03B
:100590006AE770E00E94350502C00E94F70183E01F
:1005A0000E944705882329F48FEF0E94AB078E3FF6
:1005B000A1F7C0E0D0E08FEF0E94AB078093160157
:1005C000E0901701F09018010091190110911A01A3
:1005D0009FEF94B9E5B8139A13985527412F302F00
:1005E0002F2D25B9149A1498980144275527277060
:1005F000286828B985B91198119A0894E11CF11C52
:10060000011D111DE0921701F092180100931901CC
:1006100010931A01219682E0C030D80761F68FEF5F
:100620000E94AB078FEF0E94AB0703E0959487947D
:100630000A95E1F7882D0E94EE0103C083E00E9435
:1006400004028091C80086FFFCCF0E94A607089490
:10065000A11CB11CC11CD11C80E0A81684E0B80606
:1006600080E0C80680E0D80609F087CF0E94A8077E
:1006700060E074E080E090E00E94E508813009F0DD
:1006800092C083E06AE770E00E94350502C00E94D4
:10069000F70183E00E944705882329F48FEF0E9429
:1006A000AB078E3FA1F7DD248FEF0E94AB0790E0F0
:1006B000A0E0B0E08093060190930701A0930801A9
:1006C000B09309018FEF0E94AB0790E0A0E0B0E08B
:1006D00080930A0190930B01A0930C01B0930D013C
:1006E0008FEF0E94AB0790E0A0E0B0E080930E0196
:1006F00090930F01A0931001B09311018FEF0E940E
:10070000AB0790E0A0E0B0E080931201909313015A
:10071000A0931401B0931501ED2DF0E0EE0FFF1F33
:10072000EE0FFF1FEA5DFE4FE0900E01F0900F010B
:1007300000911001109111018701FF24EE242091F6
:100740000A0130910B0140910C0150910D01542F81
:10075000432F322F2227E22AF32A042B152B209134
:100760000601309107014091080150910901E22AE8
:10077000F32A042B152BB82FAA2799278827E82AB4
:10078000F92A0A2B1B2BE082F18202831383D39474
:1007900080E8D81609F088CF8FEF0E94AB078FEF63
:1007A0000E94AB0703C083E00E9404028091C8004E
:1007B00086FFFCCF0E94A6070E94810781E00E946D
:1007C000EE011092C20389E08093DB0378941FEF5F
:1007D00009E00E94F70181E00E9447058823D9F0D3
:1007E0009FB7F89415B914B843980000000083B17E
:1007F000809580932101439A14B99FBF359904C015
:1008000081E08093250102C01092250181E066E21B
:1008100070E00E9435059091210180911B01809527
:1008200089238093220190931B012091C003309172
:10083000C10380911C0190911D0128173907B1F166
:100840008091C0039091C10390931D0180931C017E
:1008500090B1907C9093230180911E01981731F103
:10086000992329F48038A9F08034F1F418C0903429
:1008700029F4882371F0803CB9F411C0903C29F42C
:10088000803439F0803881F40AC0903869F4803CB3
:1008900021F480912401815005C0882329F480919E
:1008A00024018F5F8093240190931E019091240175
:1008B00080910501891761F090930501892F0E94AD
:1008C000EE016091240170E080E090E00E9452000F
:1008D0008091220180FF14C080910401882321F0BF
:1008E00080912401809326036091260370E080E0CC
:1008F00090E00E94520081E00E94EE0110920401FB
:100900008091220181FF14C080910401882321F08D
:1009100080912401809327036091270370E080E099
:1009200090E00E94520082E00E94EE0110920401C9
:100930008091220182FF14C080910401882321F05C
:1009400080912401809328036091280370E080E067
:1009500090E00E94520084E00E94EE011092040197
:100960008091220183FF14C080910401882321F02B
:1009700080912401809329036091290370E080E035
:1009800090E00E94520088E00E94EE011092040163
:100990008091220187FF06C081E08093040180E8F6
:1009A0000E94EE010E940D05882321F00E9413058C
:1009B0000E94F30580E091E00E94610580910101B1
:1009C000813009F006CF809102010E94EE01609112
:1009D000020170E080E090E00E945200009301016B
:1009E000F8CE9C01F999FECF8FB7F89432BD21BDA6
:1009F00060BDFA9AF99A8FBF12BC11BC0895282FD6
:100A0000F999FECF8FB7F89430E032BD21BDF89A46
:100A10008FBF12BC11BC80B508958091C000881FA3
:100A20008827881F08958091C600089580916400EA
:100A30008D7F809364008091C0008D7F8093C00083
:100A400088E18093C10087E28093C40086E08093B0
:100A5000C2008091C00085FFFCCF8091C00087FF5D
:100A600003C08091C600F9CF0895E82FF0E080918F
:100A7000C0039091C103EE0FFF1FDF01A15ABC4FCD
:100A80008D939C93E959FC4F718360830895209165
:100A9000C0033091C103E82FF0E040E0EE0FFF1FEC
:100AA000DF01A15ABC4F8D919C91281B390BE9594C
:100AB000FC4F808191812817390708F041E0842F8D
:100AC0000895CF93DF93EC012091F403222319F1D1
:100AD00090917703E92FF0E0EE0FFF1FEE0FFF1F5D
:100AE000DF01AD53BC4F11968C9111978983EB5365
:100AF000FC4F80818A8313968C9113978B838C9102
:100B000088839F5F90937703963010F0109277035D
:100B100021502093F403DF91CF910895CF93DF9379
:100B2000EC012091F403263018F590917603E92F1B
:100B3000F0E0EE0FFF1FEE0FFF1FDF01AD53BC4FC4
:100B4000898111968C931197EB53FC4F8A81808396
:100B50008B8113968C93139788818C939F5F9093CE
:100B60007603963010F0109276032F5F2093F403F3
:100B7000DF91CF9108953091F503363008F59091CB
:100B80007903E92FF0E0EE0FFF1FEE0FFF1FDF01EB
:100B9000A452BC4F11966C931197E252FC4F4083C4
:100BA00013962C9313978091C2038C939F5F90931D
:100BB0007903963010F0109279033F5F3093F5037C
:100BC000089589E08093780310927B031092F403D8
:100BD00010927603109277031092F5031092790326
:100BE00010927A0308951F93DF93CF9300D000D023
:100BF000CDB7DEB7282F87FF41C0682F70E09B017B
:100C00002F7030708091C203482F50E024173507B1
:100C100039F08091DB0390E02817390709F0ADC067
:100C2000CB01807F90708039910519F41092780380
:100C30001BC08038910539F481E080937803241734
:100C40003507C9F414C0803C910511F482E00AC054
:100C5000803E910511F487E005C0803B910509F0C5
:100C60008CC083E0809378032417350719F4109221
:100C7000740386C081E08093740382C0109178036E
:100C8000143009F458C0153058F41130C1F1113046
:100C9000C8F0123009F446C0133009F06EC047C0E6
:100CA000173009F456C0183030F4153079F016308A
:100CB00009F063C028C0183009F44FC0193009F09A
:100CC0005CC05EC08093750385E058C030917503A9
:100CD00040917403BE016F5F7F4F882329F482E047
:100CE0008A833B831C8204C081E08A833B832C83FC
:100CF0004983CB010E948E051092780341C08093F6
:100D0000750386E03BC082E08A83809175038B8304
:100D10002C83809174038983CE0101960E948E05F5
:100D200081E02CC083E08A832B831C821CC08093CB
:100D3000750384E023C01A83809175038B832C8311
:100D4000809174038983CE0101960E948E0583E011
:100D500015C08093750388E011C017E01A83809155
:100D600075038B832C83809174038983CE01019654
:100D70000E948E051093780303C089E08093780366
:100D80000F900F900F900F90CF91DF911F910895CA
:100D90008091F503882311F081E0089580917B0311
:100DA000811181E0089580917B03833009F491C023
:100DB000843038F4813009F488C0823008F087C06C
:100DC0000DC0853009F48CC0853008F486C08630AB
:100DD00009F489C0873009F091C08BC02091F503D8
:100DE000222339F190917A03E92FF0E0EE0FFF1FF3
:100DF000EE0FFF1FDF01A452BC4F11968C9111978B
:100E000080937103E252FC4F8081809372031396AA
:100E10008C911397809373038C91809370039F5FE1
:100E200090937A03963010F010927A032150209319
:100E3000F503209171032230B9F0233020F42130E2
:100E400009F05CC006C02330F9F0243009F056C028
:100E50002BC090917003906980916F03891779F48A
:100E60009091720383E02AC0909170039069809101
:100E70006F03891721F49091720384E01FC090934F
:100E80006F0320937B033BC090917003906C809123
:100E90006F03891729F49091720310927B032FC07E
:100EA00090936F0385E00AC090917003906B8091DE
:100EB0006F03891731F49091720387E080937B036D
:100EC0001EC090936F0386E0F9CF83E00DC084E0ED
:100ED0000BC010927B0390E412C010927B030EC0F3
:100EE00010927B0303C087E080937B039091720391
:100EF00006C010927B039091730301C090E0892F8C
:100F000008958AB18F7C8AB98BB180638BB91092B6
:100F1000C900E4E6F0E08081806180830895E4E622
:100F2000F0E080818F7E8083ECECF0E01182108213
:100F3000549A80EC8093CA0088E18093C90081E0D4
:100F400090E091838083559A5D9A08955D9A089503
:100F50005D9A5D980895982F8091C80085FFFCCF19
:100F60009093CE008091C80087FFFCCF8091CE0087
:100F700008958091C80080648093C8008091C80063
:100F800085FFFCCF8FEF8093CE008091C80087FF54
:100F9000FCCF8091CE008091C80086FFFCCF0895E1
:100FA0001F93282F5D9A5D988091C80085FFFCCF24
:100FB0008FEF8093CE008091C80087FFFCCF809197
:100FC000CE0027FF7AC08091C80085FFFCCF87E75D
:100FD0008093CE008091C80087FFFCCF8091CE0027
:100FE0008091C80085FFFCCF1092CE008091C80090
:100FF00087FFFCCF8091CE008091C80085FFFCCF99
:101000001092CE008091C80087FFFCCF8091CE0067
:101010008091C80085FFFCCF1092CE008091C8005F
:1010200087FFFCCF8091CE008091C80085FFFCCF68
:101030001092CE008091C80087FFFCCF8091CE0037
:101040008091C80085FFFCCF81E08093CE00809125
:10105000C80087FFFCCF8091CE009AE03FEF8091DF
:10106000C80085FFFCCF3093CE008091C80087FF79
:10107000FCCF1091CE001F3F11F4915081F7809169
:10108000C80080648093C8008091C80085FFFCCFB1
:101090008FEF8093CE008091C80087FFFCCF8091B6
:1010A000CE008091C80086FFFCCF123010F05D9A10
:1010B00089C05D9A2F775D9A5D988091C80085FF01
:1010C000FCCF822F80648093CE008091C80087FF80
:1010D000FCCF8091CE008091C80085FFFCCF872F88
:1010E0009927AA27BB278093CE008091C80087FF4D
:1010F000FCCF8091CE008091C80085FFFCCFCB0152
:10110000AA27BB278093CE008091C80087FFFCCF21
:101110008091CE008091C80085FFFCCFBB27A72F10
:10112000962F852F8093CE008091C80087FFFCCF3B
:101130008091CE008091C80085FFFCCF4093CE0007
:101140008091C80087FFFCCF8091CE00222311F44C
:1011500095E905C0283011F497E801C091E080912D
:10116000C80085FFFCCF9093CE008091C80087FF18
:10117000FCCF8091CE002C3069F48091C80085FFAF
:10118000FCCF8FEF8093CE008091C80087FFFCCF0B
:101190008091CE009AE03FEF8091C80085FFFCCFA0
:1011A0003093CE008091C80087FFFCCF1091CE0015
:1011B0001F3F11F4915081F7283021F02A3311F0AC
:1011C0000E94B907812F1F910895AB01BC01E9E08E
:1011D000440F551F661F771FEA95D1F781E10E94E2
:1011E000D00790E0882309F491E0892F0895AB019E
:1011F000BC01F9E0440F551F661F771FFA95D1F720
:1012000088E10E94D00790E0882309F491E0892FBB
:101210000895DF93CF9300D000D0CDB7DEB75D9AAD
:1012200090E02FEF8091C80080648093C800809187
:10123000C80085FFFCCF2093CE008091C80087FFB7
:10124000FCCF8091CE009F5F943161F78091C80000
:1012500086FFFCCF5D9A5D9820E030E09FEF8091A3
:10126000C80080648093C8008091C80085FFFCCFCF
:101270009093CE008091C80087FFFCCF8091CE0074
:101280002F5F3F4F82E02030380749F78091C80038
:1012900086FFFCCF5D9A80E040E050E060E070E0C7
:1012A0000E94D0078091C80086FFFCCF5D9A80E045
:1012B00040E050E060E070E00E94D007813009F02B
:1012C000B4C05D9A88E04AEA51E060E070E00E94B4
:1012D000D007813009F076C0FE0131969FEF9E0164
:1012E0002B5F3F4F8091C80085FFFCCF9093CE00CD
:1012F0008091C80087FFFCCF8091CE008193E217D8
:10130000F30781F70E94B9075D9A8B81813009F05C
:101310008CC08C818A3A09F088C083E064EC74E068
:101320000E94350503C05D9A0E94F70183E00E9488
:101330004705882349F489EA40E050E060E070E026
:101340000E94D007882379F783E00E94470588230D
:1013500031F06BC00E94B9070E94F7015D9A83E0EB
:101360000E944705882349F48AE340E050E060E0AA
:1013700070E00E94D007882369F783E00E94470548
:10138000882309F052C090E02FEF8091C80085FFBC
:10139000FCCF2093CE008091C80087FFFCCF8091C6
:1013A000CE009F5F943089F70E94B9075D9A80E173
:1013B00040E052E060E070E00E94D0075D9A0E9439
:1013C000B90731C00E94B9075D9A89EA40E050E050
:1013D00060E070E00E94D007823038F55D9A83E0CB
:1013E00064EC74E00E94350503C00E94F7015D9A29
:1013F00083E00E944705882349F489EA40E050E0F1
:1014000060E070E00E94D007882379F783E00E94B3
:101410004705882351F480E140E052E060E070E04D
:101420000E94D0075D9A81E001C080E05D9A0F9034
:101430000F900F900F90CF91DF910895F894FFCF08
:00000001FF
